:020000040000FA
:0400000006EF00F017
:020008001000E6
:10000C0046EC04F01EEC04F064EC04F02FEC04F06D
:10001C0001014991499349954997488148894C87F1
:10002C00010E1D6E010E0F6E0001FDDB640E026EE3
:10003C00036AE1DA010E1D6E010E0F6EF4DB640E25
:10004C00026E036AD8DA15EE96F0AE0EF66E1D0E41
:10005C00F76E000EF86EC4EC0EF0960E306E140EA9
:10006C00316E010E0F6EB8DB15EE96F0CA0EF66E01
:10007C001D0EF76E000EF86EC4EC0EF0960E306E80
:10008C00140E316E010E0F6EA7DB08EC05F005ECBB
:10009C0005F015EE96F0E80EF66E1D0EF76E000EDE
:1000AC00F86EC4EC0EF0960E306E140E316E010E1E
:1000BC000F6E92DB08EC05F0020E106E010E0F6E47
:1000CC007DDB15EE96F0F40EF66E1D0EF76E000E3F
:1000DC00F86EC4EC0EF0960E306E140E316E010EEE
:1000EC000F6E7ADB15EE96F03E0EF66E1E0EF76E68
:1000FC00000EF86EC4EC0EF0960E306E140E316ECF
:10010C00010E0F6E69DB15EE96F0840EF66E1E0E68
:10011C00F76E000EF86EC4EC0EF0960E306E140EE8
:10012C00316E010E0F6E58DB15EE96F0E20EF66E88
:10013C001E0EF76E000EF86EC4EC0EF0960E306EBE
:10014C00140E316E010E0F6E47DB020E106E010E97
:10015C000F6E34DB0A0E336EF40E026E010E036E5C
:10016C004ADA2E0E1D6E5ADB332EF6D7010E106EA8
:10017C00010E0F6E23DB15EE96F03C0EF66E1F0E85
:10018C00F76E000EF86EC4EC0EF0960E306E140E78
:10019C00316E010E0F6E20DB01EC05F0010E106EBE
:1001AC00010E0F6E0BDB15EE96F0440EF66E1F0E65
:1001BC00F76E000EF86EC4EC0EF0960E306E140E48
:1001CC00316E010E0F6E08DB08EC05F015EE96F0A3
:1001DC00520EF66E1F0EF76E000EF86EC4EC0EF09B
:1001EC00960E306E140E316E010E0F6EF5DA010E96
:1001FC00106E010E0F6EE2DA020E046E0ADA186A45
:10020C001B6A15EE96F0760EF66E1F0EF76E000E4C
:10021C00F86EC4EC0EF0960E306E140E316E010EAC
:10022C000F6E77DA7F0E1E6E010E0F6E8FDA15EEE3
:10023C0096F0900EF66E1F0EF76E000EF86EC4EC74
:10024C000EF0960E306E140E316E010E0F6EC4DA77
:10025C00010E106E010E0F6EB1DA010E176E260E26
:10026C001A6E7F0E186E196ADCD915EE96F0D40E44
:10027C00F66E1F0EF76E000EF86EC4EC0EF0960EB6
:10028C003C6E140E3D6E500E396E14EEC4F3D60E49
:10029C00F66E1F0EF76E000EF86EC4EC0EF0C40E68
:1002AC003A6E130E3B6E17DBDA0E306E130E316E98
:1002BC00010E0F6E91DA15EE96F0D80EF66E1F0E3B
:1002CC00F76E000EF86EC4EC0EF0960E306E140E37
:1002DC00316E010E0F6E1DDA7F0E1E6E010E0F6E4B
:1002EC0035DA15EE96F0F20EF66E1F0EF76E000E66
:1002FC00F86EC4EC0EF0960E306E140E316E010ECC
:10030C000F6E6ADA020E106E010E0F6E57DA15EED2
:10031C0096F0FC0EF66E1F0EF76E000EF86EC4EC27
:10032C000EF0960E306E140E316E010E0F6E54DA06
:10033C00010E106E010E0F6E41DA15EE96F05E0E88
:10034C00F66E200EF76E000EF86EC4EC0EF0960EE4
:10035C00306E140E316E010E0F6E3EDA15EE96F005
:10036C006A0EF66E200EF76E000EF86EC4EC0EF0F0
:10037C00960E306E140E316E010E0F6E2DDA15EED8
:10038C0096F0C00EF66E200EF76E000EF86EC4ECF2
:10039C000EF0960E306E140E316E010E0F6E1CDACE
:1003AC0015EE96F02A0EF66E210EF76E000EF86E14
:1003BC00C4EC0EF0960E306E140E316E010E0F6EF4
:1003CC000BDA010E106E010E0F6EF8D915EE96F0C9
:1003DC008A0EF66E210EF76E000EF86EC4EC0EF05F
:1003EC00960E306E140E316E010E0F6EF5D9010E95
:1003FC00106E010E0F6EE2D915EE96F0EA0EF66E47
:10040C00210EF76E000EF86EC4EC0EF0960E306EE8
:10041C00140E316E010E0F6EDFD9010E106E010E2F
:10042C000F6ECCD915EE96F0420EF66E220EF76ECC
:10043C00000EF86EC4EC0EF0960E306E140E316E8B
:10044C00010E0F6EC9D915EE96F0D40EF66E1F0E76
:10045C00F76E000EF86EC4EC0EF0960E3C6E140E99
:10046C003D6E500E396E14EEC4F3D60EF66E1F0EA2
:10047C00F76E000EF86EC4EC0EF0C40E3A6E130E4E
:10048C003B6E29DADA0E306E130E316E010E0F6EE2
:10049C00A3D9B8DA010E106E010E0F6E8FD915EEBE
:1004AC0096F06A0EF66E220EF76E000EF86EC4EC25
:1004BC000EF0960E306E140E316E010E0F6E8CD93E
:1004CC00FFD70300FED714EED1F3D40EF66E1F0E39
:1004DC00F76E000EF86EC4EC0EF0080E356E0DAE15
:1004EC0014D014EED1F3066A04EED1F3D7EC0DF070
:1004FC00A20EF66E240EF76E000EF86ECAEC0EF01D
:10050C0004EED1F306C5EFF413D014EED1F3066A62
:10051C0004EED1F3D7EC0DF0A40EF66E240EF76EAC
:10052C00000EF86ECAEC0EF004EED1F306C5EFF433
:10053C000D36352ED4D71200010E13243E6E000E4C
:10054C0014203F6E000E1520406E000E1620416EDA
:10055C0018C505F519C506F5076A086A3EC509F5FB
:10056C003FC50AF540C50BF541C50CF584EC0EF002
:10057C0000C513F501C514F502C515F503C516F52F
:10058C00D890020E346E1336143615361636342EB9
:10059C00FAD713C505F514C506F515C507F516C527
:1005AC0008F51BC509F51CC50AF50B6A0C6A2AEC83
:1005BC000EF005C513F506C514F507C515F508C5E8
:1005CC0016F5D890060E346E1336143615361636CC
:1005DC00342EFAD71200000E225CD8B004D01401CD
:1005EC00036B00011200010E1401036F610089F40A
:1005FC0004F400011200032A810E016E280E006E15
:10060C00002EFED7012EFAD7022EF6D7032EF4D7E2
:10061C001200E80E026E030E036EEDDF042EF9D706
:10062C0012001B681C6A010E466E800E056E3E0E93
:10063C00066E076A086A1AC509F50A6A0B6A0C6A1B
:10064C002AEC0EF005C513F506C514F507C515F50E
:10065C0008C516F514500008D8B00CD0040E466E20
:10066C00D8901632153214321332D8901632153205
:10067C001432133214500008D8B00CD0100E466E41
:10068C00D8901632153214321332D89016321532E5
:10069C001432133214500008D8B00CD0400E466EF1
:1006AC00D8901632153214321332D89016321532C5
:1006BC0014321332020E475CD8A418D013C51EF3A3
:1006CC0003011F991F9B1F9D040E465CD8B41F8B02
:1006DC00100E465CD8B41F8D400E465CD8A402D0D8
:1006EC001F8D1F8B2181219321952197D890473005
:1006FC00456E000121DF14C541F313C540F303011E
:10070C004287428542834281428F428F4289000157
:10071C00120030C5E9F431C5EAF4EFC412F51252F7
:10072C00D8B413D0326A010E125CD8A00ED0322A83
:10073C0032503024E96E000E3120EA6EEFC41DF504
:10074C0072D81250325CD8A0F2D71200116A640E23
:10075C001E5CD8A00ED01EC505F5640E096EE2EC29
:10076C000DF005C511F500C51EF5300E11241D6EDA
:10077C005AD811C509F5056AA9EC0DF000C542F56A
:10078C001EC505F50A0E096EA9EC0DF0001E4250AF
:10079C0000103E6E3EA00ED01EC505F50A0E096E69
:1007AC00E2EC0DF005C511F500C51EF5300E112457
:1007BC001D6E39D8300E1E241D6E35D010C536F581
:1007CC003652D8B408D00D0E1D6E2DD80A0E1D6EE3
:1007DC002AD8362EF8D7120030C5E9F431C5EAF420
:1007EC00EFC412F51252D8B413D0326A010E125C57
:1007FC00D8A00ED0322A32503024E96E000E3120AF
:10080C00EA6EEFC41DF50FD81250325CD8A0F2D7A7
:10081C000D0E1D6E08D80A0E1D6E05D0BBA2FED79C
:10082C001DC5B8F21200BBA2FED71DC5B8F212004E
:10083C0001014A9D150E0201726F120E176F0D0EFB
:10084C00096F0D0E0A6F0D0E0B6F0D0E0C6F000164
:10085C001200020E476E0E6A690E03011E6F1F997D
:10086C001F8B1F9D0E88350E416F406B010E216F43
:10087C000E8E0E860E840E920E901F8F00011200AB
:10088C000001600EAD6FAF6BB36BB06B600EAD6FF4
:10089C00080EB16FF86A0301F395F39F0401006B26
:1008AC00086B106B206B0001749F709F0101506BE3
:1008BC00516B526B536B546B00011200010E0F6E97
:1008CC00060E0201C46F810EC36FC08FC08BC0892E
:1008DC00C18F000112003CC5E9F43DC5EAF4395062
:1008EC00EF5CD8B058D03CC5E9F43DC5EAF4EFC490
:1008FC0023F514EEDAF3D40EF66E1F0EF76E000E1F
:10090C00F86EC4EC0EF00501386B010E235CD8A018
:10091C0017D0382B38513C24E96E000E3D20EA6E7E
:10092C00EEC420F520C521F504EEDAF33851E926A2
:10093C00000EEA2221C5EEF42350385DD8A0E9D789
:10094C002328426E4204386F23283E6E3EC509F5BB
:10095C0039C505F50001A9EC0DF000B018D0050162
:10096C00382B010E3A24E96E000E3B20EA6EEEC4E1
:10097C0021F521C520F504EEDAF33851E926000EF5
:10098C00EA2220C5EEF43950385DD8A0E8D76100D2
:10099C00E5F4DAF32ED00501386B3CC5E9F43DC51E
:1009AC00EAF4010EEF5CD8A01BD0382B38513C2454
:1009BC00E96E000E3D20EA6EEEC420F520C521F54F
:1009CC0004EEDAF33851E926000EEA2221C5EEF4E2
:1009DC003CC5E9F43DC5EAF4EF50385DD8A0E5D745
:1009EC003CC5E9F43DC5EAF4EEC420F5610081F4A0
:1009FC00DAF3000112000301426B000112000EC574
:100A0C0042F3120015EE2CF0860EF66E220EF76EE7
:100A1C00000EF86EC4EC0EF02C0E306E140E316E0F
:100A2C00010E0F6E76DE010E106E010E0F6EC6DE1D
:100A3C0015EE2CF0900EF66E220EF76E000EF86E80
:100A4C00C4EC0EF02C0E306E140E316E010E0F6EC7
:100A5C0060DE260E1E6E010E0F6E78DE010E106E1D
:100A6C00010E0F6EABDE15EE2CF0A20EF66E220E02
:100A7C00F76E000EF86EC4EC0EF02C0E306E140EE9
:100A8C00316E010E0F6E45DE320E1E6E010E0F6EB4
:100A9C005DDE010E106E010E0F6E90DE15EE2CF069
:100AAC00B40EF66E220EF76E000EF86EC4EC0EF05D
:100ABC002C0E306E140E316E010E0F6E2ADE1E6877
:100ACC00010E0F6E43DE010E106E010E0F6E76DE00
:100ADC0015EE2CF0C60EF66E220EF76E000EF86EAA
:100AEC00C4EC0EF02C0E306E140E316E010E0F6E27
:100AFC0010DE1E68010E0F6E29DE010E106E010E47
:100B0C000F6E5CDE010E106E010E0F6E57DE15EED1
:100B1C002CF0D80EF66E220EF76E000EF86EC4ECAA
:100B2C000EF02C0E306E140E316E010E0F6EF1DDC8
:100B3C00010E106E010E0F6E41DE15EE2CF0066AE2
:100B4C008E0EF66E240EF76E000EF86ECAEC0EF0DA
:100B5C00E20EF66E220EF76E000EF86ECAEC0EF078
:100B6C00920EF66E240EF76E000EF86ECAEC0EF0B6
:100B7C0005EE2CF006C5EFF42C0E306E140E316E13
:100B8C00010E0F6EC6DD42C30DF59DDCD10E306E2D
:100B9C00130E316E010E0F6EBCDD42C343F553ECE8
:100BAC0012F015EE2CF0066A960EF66E240EF76E09
:100BBC00000EF86ECAEC0EF004EEC7F3D7EC0DF095
:100BCC0005EE2CF006C5EFF42C0E306E140E316EC3
:100BDC00010E0F6E9EDD42C343F5446AEBEC0CF044
:100BEC00CB0E3C6E130E3D6E0A0E396E15EE2CF0CC
:100BFC00A00EF66E240EF76E000EF86EC4EC0EF01E
:100C0C002C0E3A6E140E3B6E66DE15EE2CF0066A58
:100C1C009C0EF66E240EF76E000EF86ECAEC0EF0FB
:100C2C0004EEDAF3D7EC0DF005EE2CF006C5EFF47C
:100C3C002C0E306E140E316E010E0F6E6ADD090E25
:100C4C00226EC9DC15EE2CF0066A05EE03F0D7EC2B
:100C5C000DF0F00EF66E220EF76E000EF86ECAEC6A
:100C6C000EF005EE2CF006C5EFF42C0E306E140EC3
:100C7C00316E010E0F6E4DDD010E106E010E0F6EFA
:100C8C009DDD15EE2CF0066A8E0EF66E240EF76EB8
:100C9C00000EF86ECAEC0EF0060EF66E230EF76E12
:100CAC00000EF86ECAEC0EF0920EF66E240EF76E75
:100CBC00000EF86ECAEC0EF005EE2CF006C5EFF443
:100CCC002C0E306E140E316E010E0F6E22DD0EC521
:100CDC000DF569EC02F0D10E306E130E316E010E73
:100CEC000F6E17DD0EC543F553EC12F015EE2CF01C
:100CFC00066A960EF66E240EF76E000EF86ECAECAF
:100D0C000EF004EEC7F3D7EC0DF005EE2CF006C593
:100D1C00EFF42C0E306E140E316E010E0F6EF9DCEA
:100D2C000EC543F5446AEBEC0CF0CB0E3C6E130E87
:100D3C003D6E0A0E396E15EE2CF0A00EF66E240EDA
:100D4C00F76E000EF86EC4EC0EF02C0E3A6E140E0C
:100D5C003B6EC1DD15EE2CF0066A9C0EF66E240E71
:100D6C00F76E000EF86ECAEC0EF004EEDAF3D7EC68
:100D7C000DF005EE2CF006C5EFF42C0E306E140EB3
:100D8C00316E010E0F6EC5DC090E226E24DC15EEE1
:100D9C002CF0066A05EE03F0D7EC0DF0140EF66E8F
:100DAC00230EF76E000EF86ECAEC0EF005EE2CF06A
:100DBC0006C5EFF42C0E306E140E316E010E0F6E54
:100DCC00A8DC010E106E010E0F6EF8DC15EE2CF087
:100DDC00066A8E0EF66E240EF76E000EF86ECAECD6
:100DEC000EF0360EF66E230EF76E000EF86ECAEC91
:100DFC000EF0920EF66E240EF76E000EF86ECAEC24
:100E0C000EF005EE2CF006C5EFF42C0E306E140E21
:100E1C00316E010E0F6E7DDC1EC30DF569EC02F018
:100E2C00D10E306E130E316E010E0F6E72DC1EC3BE
:100E3C0043F553EC12F015EE2CF0066A960EF66E96
:100E4C00240EF76E000EF86ECAEC0EF004EEC7F32B
:100E5C00D7EC0DF005EE2CF006C5EFF42C0E306E31
:100E6C00140E316E010E0F6E54DC1EC343F5446A32
:100E7C00EBEC0CF0CB0E3C6E130E3D6E0A0E396E85
:100E8C0015EE2CF0A00EF66E240EF76E000EF86E1A
:100E9C00C4EC0EF02C0E3A6E140E3B6E1CDD15EEEF
:100EAC002CF0066A9C0EF66E240EF76E000EF86E91
:100EBC00CAEC0EF004EEDAF3D7EC0DF005EE2CF0E4
:100ECC0006C5EFF42C0E306E140E316E010E0F6E43
:100EDC0020DC090E226EF1EC02F015EE2CF0066A05
:100EEC0005EE03F0D7EC0DF0440EF66E230EF76E04
:100EFC00000EF86ECAEC0EF005EE2CF006C5EFF401
:100F0C002C0E306E140E316E010E0F6E02DC010EC3
:100F1C00106E010E0F6E52DC15EE2CF0066A8E0E62
:100F2C00F66E240EF76E000EF86ECAEC0EF0520E32
:100F3C00F66E230EF76E000EF86ECAEC0EF0920EE3
:100F4C00F66E240EF76E000EF86ECAEC0EF005EE7F
:100F5C002CF006C5EFF42C0E306E140E316E010E13
:100F6C000F6E8FEC03F01FC30DF569EC02F0D10E80
:100F7C00306E130E316E010E0F6E8FEC03F01FC32B
:100F8C0043F553EC12F015EE2CF0066A960EF66E45
:100F9C00240EF76E000EF86ECAEC0EF004EEC7F3DA
:100FAC00D7EC0DF005EE2CF006C5EFF42C0E306EE0
:100FBC00140E316E010E0F6E8FEC03F01FC343F550
:100FCC00446AEBEC0CF0CB0E3C6E130E3D6E0A0E2D
:100FDC00396E15EE2CF0A00EF66E240EF76E000E88
:100FEC00F86EC4EC0EF02C0E3A6E140E3B6E73DCE5
:100FFC0015EE2CF0066A9C0EF66E240EF76E000EA3
:10100C00F86ECAEC0EF004EEDAF3D7EC0DF005EE48
:10101C002CF006C5EFF42C0E306E140E316E010E52
:10102C000F6E8FEC03F0090E226EF1EC02F015EE50
:10103C002CF0066A05EE03F0D7EC0DF0600EF66EA0
:10104C00230EF76E000EF86ECAEC0EF005EE2CF0C7
:10105C0006C5EFF42C0E306E140E316E010E0F6EB1
:10106C008FEC03F0010E106E010E0F6EE4EC03F02A
:10107C0015EE2CF0066A8E0EF66E240EF76E000E30
:10108C00F86ECAEC0EF0700EF66E230EF76E000EB4
:10109C00F86ECAEC0EF0920EF66E240EF76E000E81
:1010AC00F86ECAEC0EF005EE2CF006C5EFF42C0E23
:1010BC00306E140E316E010E0F6E8FEC03F021C3E7
:1010CC000DF569EC02F0D10E306E130E316E010E7F
:1010DC000F6E8FEC03F021C343F553EC12F015EEB9
:1010EC002CF0066A960EF66E240EF76E000EF86E55
:1010FC00CAEC0EF004EEC7F3D7EC0DF005EE2CF0B5
:10110C0006C5EFF42C0E306E140E316E010E0F6E00
:10111C008FEC03F021C343F5446AEBEC0CF0CB0EDF
:10112C003C6E130E3D6E0A0E396E15EE2CF0A00EB1
:10113C00F66E240EF76E000EF86EC4EC0EF02C0E4C
:10114C003A6E140E3B6E71EC04F015EE2CF0066A40
:10115C009C0EF66E240EF76E000EF86ECAEC0EF0B6
:10116C0004EEDAF3D7EC0DF005EE2CF006C5EFF437
:10117C002C0E306E140E316E010E0F6E8FEC03F0D0
:10118C00090E226EF1EC02F015EE2CF0066A05EE5B
:10119C0003F0D7EC0DF07E0EF66E230EF76E000EFC
:1011AC00F86ECAEC0EF005EE2CF006C5EFF42C0E22
:1011BC00306E140E316E010E0F6E8FEC03F0010EBB
:1011CC00106E010E0F6EE4EC03F015EE2CF0066AB7
:1011DC008E0EF66E240EF76E000EF86ECAEC0EF044
:1011EC00960EF66E230EF76E000EF86ECAEC0EF02D
:1011FC00920EF66E240EF76E000EF86ECAEC0EF020
:10120C0005EE2CF006C5EFF42C0E306E140E316E7C
:10121C00010E0F6E8FEC03F041C30DF569EC02F07B
:10122C00D10E306E130E316E010E0F6E8FEC03F07B
:10123C0041C343F553EC12F015EE2CF0066A960EF2
:10124C00F66E240EF76E000EF86ECAEC0EF004EE7D
:10125C00C7F3D7EC0DF005EE2CF006C5EFF42C0E11
:10126C00306E140E316E010E0F6E8FEC03F041C315
:10127C0043F5446AAADBCB0E3C6E130E3D6E0A0E90
:10128C00396E15EE2CF0A00EF66E240EF76E000ED5
:10129C00F86EC4EC0EF02C0E3A6E140E3B6E71EC24
:1012AC0004F015EE2CF0066A9C0EF66E240EF76E0A
:1012BC00000EF86ECAEC0EF004EEDAF3D7EC0DF07B
:1012CC0005EE2CF006C5EFF42C0E306E140E316EBC
:1012DC00010E0F6E8FEC03F0090E226EF1EC02F092
:1012EC0015EE2CF0066A05EE03F0D7EC0DF0A40E0B
:1012FC00F66E230EF76E000EF86ECAEC0EF005EECD
:10130C002CF006C5EFF42C0E306E140E316E010E5F
:10131C000F6E8FEC03F0010E106E010E0F6EE4ECED
:10132C0003F015EE2CF0066A8E0EF66E240EF76E98
:10133C00000EF86ECAEC0EF0B20EF66E230EF76EBF
:10134C00000EF86ECAEC0EF0920EF66E240EF76ECE
:10135C00000EF86ECAEC0EF005EE2CF006C5EFF49C
:10136C002C0E306E140E316E010E0F6E8FEC03F0DE
:10137C0040C30DF569EC02F0D10E306E130E316ED8
:10138C00010E0F6E8FEC03F040C343F553EC12F0DB
:10139C0015EE2CF0066A960EF66E240EF76E000E05
:1013AC00F86ECAEC0EF004EEC7F3FBDB05EE2CF086
:1013BC0006C5EFF42C0E306E140E316E010E0F6E4E
:1013CC008FEC03F040C343F5446AFFDACB0E3C6E5E
:1013DC00130E3D6E0A0E396E15EE2CF0A00EF66E45
:1013EC00240EF76E000EF86EC4EC0EF02C0E3A6E56
:1013FC00140E3B6E71EC04F015EE2CF0066A9C0E8C
:10140C00F66E240EF76E000EF86ECAEC0EF004EEBB
:10141C00DAF3C7DB05EE2CF006C5EFF42C0E306EBC
:10142C00140E316E010E0F6E8FEC03F0090E226E4E
:10143C00F1EC02F015EE2CF0066A05EE03F0B1DBD0
:10144C00C00EF66E230EF76E000EF86ECAEC0EF0A0
:10145C0005EE2CF006C5EFF42C0E306E140E316E2A
:10146C00010E0F6E8FEC03F0010E106E010E0F6E5D
:10147C00E4EC03F015EE2CF0066A8E0EF66E240EDC
:10148C00F76E000EF86ECAEC0EF0CE0EF66E230E52
:10149C00F76E000EF86ECAEC0EF0920EF66E240E7D
:1014AC00F76E000EF86ECAEC0EF005EE2CF006C5C9
:1014BC00EFF42C0E306E140E316E010E0F6E8FEC9D
:1014CC0003F04CC30DF569EC02F0D10E306E130E27
:1014DC00316E010E0F6E8FEC03F04CC343F553ECE1
:1014EC0012F015EE2CF0066A960EF66E240EF76EC0
:1014FC00000EF86ECAEC0EF004EEC7F352DB05EEEC
:10150C002CF006C5EFF42C0E306E140E316E010E5D
:10151C000F6E8FEC03F04CC343F5446A56DACB0ED6
:10152C003C6E130E3D6E0A0E396E15EE2CF0A00EAD
:10153C00F66E240EF76E000EF86EC4EC0EF02C0E48
:10154C003A6E140E3B6E71EC04F015EE2CF0066A3C
:10155C009C0EF66E240EF76E000EF86ECAEC0EF0B2
:10156C0004EEDAF31EDB05EE2CF006C5EFF42C0EC0
:10157C00306E140E316E010E0F6E8FEC03F0090EEF
:10158C00226EF1EC02F015EE2CF0066A05EE03F07B
:10159C0008DBDC0EF66E230EF76E000EF86EF4DB35
:1015AC0005EE2CF006C5EFF42C0E306E140E316ED9
:1015BC00010E0F6E8FEC03F0010E106E010E0F6E0C
:1015CC00E4EC03F0010E106E010E0F6EE4EC03F070
:1015DC0015EE2CF0EC0EF66E230EF76E000EF86E78
:1015EC00CDDB2C0E306E140E316E010E0F6E8FECA7
:1015FC0003F0010E106E010E0F6EE4EC03F015EE0D
:10160C002CF0066A8E0EF66E240EF76E000EF86E37
:10161C00BBDBF60EF66E230EF76E000EF86EB4DB27
:10162C00920EF66E240EF76E000EF86EADDB05EE24
:10163C002CF006C5EFF42C0E306E140E316E010E2C
:10164C000F6E8FEC03F047C50DF569EC02F0D10E6F
:10165C00306E130E316E010E0F6E8FEC03F047C51A
:10166C0043F553EC12F015EE2CF0066A960EF66E5E
:10167C00240EF76E000EF86E87DB04EEC7F391DADA
:10168C0005EE2CF006C5EFF42C0E306E140E316EF8
:10169C00010E0F6E8FEC03F047C543F5446A95D9E4
:1016AC00CB0E3C6E130E3D6E0A0E396E15EE2CF001
:1016BC00A00EF66E240EF76E000EF86E5FDB2C0E8D
:1016CC003A6E140E3B6E71EC04F015EE2CF0066ABB
:1016DC009C0EF66E240EF76E000EF86E55DB04EEC3
:1016EC00DAF35FDA05EE2CF006C5EFF42C0E306E53
:1016FC00140E316E010E0F6E8FEC03F0090E226E7C
:10170C00F1EC02F015EE2CF0066A05EE03F049DA66
:10171C00080EF66E240EF76E000EF86E35DB05EE35
:10172C002CF006C5EFF42C0E306E140E316E010E3B
:10173C000F6E8FEC03F0010E106E010E0F6EE4ECC9
:10174C0003F015EE2CF0066A8E0EF66E240EF76E74
:10175C00000EF86E19DB180EF66E240EF76E000EE6
:10176C00F86E12DB920EF66E240EF76E000EF86E0B
:10177C000BDB05EE2CF006C5EFF42C0E306E140EC0
:10178C00316E010E0F6E8FEC03F018C50DF569EC80
:10179C0002F0D10E306E130E316E010E0F6E8FEC07
:1017AC0003F018C543F553EC12F015EE2CF0066A55
:1017BC00960EF66E240EF76E000EF86EE5DA04EE59
:1017CC00C7F3EFD905EE2CF006C5EFF42C0E306EF6
:1017DC00140E316E010E0F6E8FEC03F018C543F52D
:1017EC00446AF3D8CB0E3C6E130E3D6E0A0E396E66
:1017FC0015EE2CF0A00EF66E240EF76E000EF86EA1
:10180C00BDDA2C0E3A6E140E3B6E71EC04F015EE34
:10181C002CF0066A9C0EF66E240EF76E000EF86E17
:10182C00B3DA04EEDAF3BDD905EE2CF006C5EFF40D
:10183C002C0E306E140E316E010E0F6E8FEC03F009
:10184C00090E226EF1EC02F015EE2CF0066A05EE94
:10185C0003F0A7D92A0EF66E240EF76E000EF86E62
:10186C0093DA05EE2CF006C5EFF42C0E306E140E48
:10187C00316E010E0F6E8FEC03F0010E106E010E27
:10188C000F6EE4EC03F015EE2CF0066A8E0EF66E7D
:10189C00240EF76E000EF86E77DA540EF66E240EE8
:1018AC00F76E000EF86E70DA920EF66E240EF76E6E
:1018BC00000EF86E69DA05EE2CF006C5EFF42C0E6E
:1018CC00306E140E316E010E0F6E8FEC03F01BC5D3
:1018DC000DF569EC02F0D10E306E130E316E010E67
:1018EC000F6E8FEC03F01BC543F553EC12F015EEA5
:1018FC002CF0066A960EF66E240EF76E000EF86E3D
:10190C0043DA04EEC7F34DD905EE2CF006C5EFF41F
:10191C002C0E306E140E316E010E0F6E8FEC03F028
:10192C001BC543F5446A51D8CB0E3C6E130E3D6E6D
:10193C000A0E396E15EE2CF0A00EF66E240EF76E14
:10194C00000EF86E1BDA2C0E3A6E140E3B6E71EC18
:10195C0004F015EE2CF0066A9C0EF66E240EF76E53
:10196C00000EF86E11DA04EEDAF31BD905EE2CF04A
:10197C0006C5EFF42C0E306E140E316E010E0F6E88
:10198C008FEC03F0090E226EF1EC02F015EE2CF048
:10199C00066A05EE03F005D9660EF66E240EF76E98
:1019AC00000EF86EF1D905EE2CF006C5EFF42C0EF6
:1019BC00306E140E316E010E0F6E8FEC03F0010EB3
:1019CC00106E010E0F6EE4EF03F0236A43C505F5AC
:1019DC0044C506F5100E096E270E0A6EB9D8001E06
:1019EC0000A01AD043C505F544C506F5100E096EC6
:1019FC00270E0A6EF5D805C537F500C543F501C5A8
:101A0C0044F5232A04EECBF32350E926000EEA22F8
:101A1C00300E3724EF6E0CD043C505F544C506F5E2
:101A2C00E80E096E030E0A6E93D8001E00A01AD0A1
:101A3C0043C505F544C506F5E80E096E030E0A6E9E
:101A4C00CFD805C537F500C543F501C544F5232AA4
:101A5C0004EECBF32350E926000EEA22300E372495
:101A6C00EF6E0BD043C505F544C506F5640E096E43
:101A7C000A6A6ED8001E00A019D043C505F544C5EE
:101A8C0006F5640E096E0A6AABD805C537F500C5B4
:101A9C0043F501C544F5232A04EECBF32350E92684
:101AAC00000EEA22300E3724EF6E0BD043C505F53D
:101ABC0044C506F50A0E096E0A6A4AD8001E00A033
:101ACC0018D043C505F544C506F50A0E096E0A6A19
:101ADC0087D805C537F500C543F501C544F5232A5C
:101AEC0004EECBF32350E926000EEA22300E372405
:101AFC00EF6E232A04EECBF32350E926000EEA22E4
:101B0C00300E4324EF6E00C543F501C544F561006A
:101B1C008DF4CBF31200006A0950056212000A50D2
:101B2C000662120000681200006A09500562120079
:101B3C000A50066212000B50076212000C50086229
:101B4C00120000681200006809500560006A12005B
:101B5C00006A06500A5CD8A012000A50065C04E326
:101B6C000950055CD8B01200001E1200006A085023
:101B7C000C5CD8A012000EE107500B5CD8A0120030
:101B8C0009E106500A5CD8A0120004E10950055C7A
:101B9C00D8B01200001E1200EFC405F505C5E7F41D
:101BAC0003D0EF50056E06260552D8B41200ECC4D3
:101BBC00E4F4052EFCD712000952D8B41200006AC6
:101BCC00080E046ED890053600360950005E05806C
:101BDC00D8B003D0059009500026042EF3D712007C
:101BEC0005C507F506C508F509C50BF50AC50CF5BD
:101BFC00026A036A0BC505F50CC506F5096A0A6A83
:101C0C008ADF00A003D0056A066A1200100E046E6B
:101C1C00D89007360836023603360B50025E0C504D
:101C2C00035A0780D8B005D007900B5002260C50F1
:101C3C000322042EEDD707C505F508C506F502C528
:101C4C0000F503C501F5120005C524F506C525F5FB
:101C5C0007C526F508C527F509C528F50AC529F5D0
:101C6C000BC52AF50CC52BF52C6A2D6A2E6A2F6A2A
:101C7C0028C505F529C506F52AC507F52BC508F5B0
:101C8C00096A0A6A0B6A0C6A4FDF00A005D0056A64
:101C9C00066A076A086A1200200E046ED890243671
:101CAC002536263627362C362D362E362F3628500E
:101CBC002C5E29502D5A2A502E5A2B502F5A2480E4
:101CCC00D8B009D0249028502C2629502D222A50E7
:101CDC002E222B502F22042EE1D724C505F525C525
:101CEC0006F526C507F527C508F52CC500F52DC545
:101CFC0001F52EC502F52FC503F5120005C524F517
:101D0C0006C525F507C526F508C527F509C528F527
:101D1C000AC529F50BC52AF50CC52BF52C6A2D6ABD
:101D2C002E6A2F6A28A008D024502C2625502D224C
:101D3C0026502E2227502F22D8902B322A3229328D
:101D4C002832D890243625362636273628C509F56C
:101D5C0029C50AF52AC50BF52BC50CF5056A066ACB
:101D6C00076A086A03DF00B0DDD72CC500F52DC566
:101D7C0001F52EC502F52FC503F512000900F5C4B7
:101D8C0005F5F5C4E7F404D00900F550056E0626F8
:101D9C000552D8B412000900F5C4E4F4052EFBD7A3
:101DAC0012001A4861726477617265204343502FA8
:101DBC0050574D20446973636F76657279001D42EC
:101DCC0065666F72652050574D6F6E203D204669D9
:101DDC00786564204D6F64652050574D0B416674D7
:101DEC0065722050574D6F6E494966206E6F2046C4
:101DFC0069786564204D6F64652050574D20736978
:101E0C00676E616C2E2E2E206172652074686520C1
:101E1C0050574D20706F7274732073657420746FFB
:101E2C00204F55543F20436F72726563742050509D
:101E3C00533F45206F722C2074686520726567696A
:101E4C00737465727320696E20746869732063689B
:101E5C00697020617265206E6F74207468652073E0
:101E6C00616D65206973206F6E2070726576696F85
:101E7C0075732063686970735D2020202020636F68
:101E8C006D7061726520434350434F4E43616368EC
:101E9C00652020746F2043435031434F4E2E202039
:101EAC0054686520656E61626C6520626974206E91
:101EBC006565647320746F2073657420666F72207F
:101ECC004669786564204D6F64652050574D2074C9
:101EDC006F20776F726B562020202020746865204D
:101EEC006572726F722069732070726F62616C62BE
:101EFC007920612072656E616D6564206269742061
:101F0C00696E2043435031434F4E206F72206F6EE9
:101F1C0065206F6620746865206F74686572206B2D
:101F2C006579207265676973746572732F00012E71
:101F3C000650574D4F6666000C4166746572205012
:101F4C00574D6F666600234669786564206D6F6433
:101F5C00652050574D207369676E616C2077696CF2
:101F6C006C206E6F772073746F701849737375657E
:101F7C0020604850574D20312C2050574D5F465211
:101F8C0045512C00426020636F6D6D616E642E2094
:101F9C002054686520746869726420706172616D88
:101FAC00657465722072616E6765206973203020DC
:101FBC00746F203235352C2077686572652031328C
:101FCC0037203D20353025000000012A1841667469
:101FDC00657220604850574D20312C2050574D5F72
:101FEC00465245512C00096020636F6D6D616E6423
:101FFC0061204173204850574D2829207573656422
:10200C002073616D652046727120262044757479A9
:10201C0020617320606669786564206D6F6465204B
:10202C0050574D602C207468656E2C204343503102
:10203C00434F4E2073686F756C6420626520657128
:10204C0075616C20746F20434350434F4E43616362
:10205C0068650B4E6F207369676E616C203F55206D
:10206C0020312E20486173204368697046616D6988
:10207C006C7950574D43435031434F4E3136486184
:10208C006E646C65722C20696E2050574D2E682C36
:10209C00206265656E207570646174656420666F7E
:1020AC0072207468697320636869702066616D6959
:1020BC006C79203F692020202020496620746865B7
:1020CC002073706563696669632063686970206852
:1020DC006173204F4E4C59204F4E452043435020A6
:1020EC007468656E207468652073656374696F6EBF
:1020FC00204368697046616D696C7950574D434354
:10210C005031434F4E313648616E646C6572206DB0
:10211C0075737420626520757064617465645F20EA
:10212C0020202020536F2C20636865636B2074681B
:10213C00652064617461736865657420666F7220D4
:10214C0043435031206F6E6C792E2E20736F2C20F0
:10215C0073656172636820666F722043435032204E
:10216C006966206E6F7420666F756E642074686586
:10217C006E206F6E6C79206F6E65204343505F202C
:10218C0020322E20497320434350544D525330205B
:10219C00636F727265637420666F722074696D650B
:1021AC0072323F206966206E6F742C206973205048
:1021BC00574D54696D657256617269616E74206910
:1021CC006E204441542066696C65207468652063F8
:1021DC006F72726563742076616C7565203F562052
:1021EC0020332E204578616D696E6520534554551A
:1021FC005043435050574D52454749535445525301
:10220C002073656374696F6E20696E2070776D2E14
:10221C00682E2E2E20746865726520697320636C9D
:10222C006561726C792061206C69627261727920CF
:10223C006973737565002649662050574D20697384
:10224C0020776F726B696E672E2E205468656E2C2A
:10225C0020616C6C20697320676F6F6421001B43D5
:10226C006F6D706C65746564202D206578616D6987
:10227C006E6520726573756C747309436F6E73743D
:10228C00616E74731150574D5F465245513A202080
:10229C002020202020201150574D5F445554593A8E
:1022AC002020202020202020115553455F485057D6
:1022BC004D434350313A20202020115553455F485F
:1022CC0050574D5F54494D4552323A20095265677B
:1022DC006973746572730D43435031434F4E202024
:1022EC00202020201443435020436F6E74726F6C77
:1022FC00205265676973746572000D434350434FF8
:10230C004E436163686520202043616368656420E7
:10231C007265676973746572207573656420746F78
:10232C002062792050574D6F6E000D543250522060
:10233C0020202020202020200C54696D6572205014
:10234C006572696F64000D5432434F4E202020207B
:10235C00202020200E54696D65723220636F6E74DC
:10236C00726F6C000D5432434C4B434F4E20202067
:10237C00202016436C6F636B20536F75726365205E
:10238C0053656C656374696F6E000D434350523135
:10239C0048202020202020200C447574792063795B
:1023AC00636C652048000D43435052314C20202073
:1023BC00202020200C44757479206379636C65208F
:1023CC004C000D434350544D5253302020202020BC
:1023DC000F54696D65722053656C656374696F6E1B
:1023EC00095661726961626C6573115F50574D5487
:1023FC00696D657253656C65637465640E53656CC9
:10240C0065637465642054696D6572001150574D95
:10241C004475747920202020202020202020285B47
:10242C00574F52445D207573656420696E2063615B
:10243C006C63756C61746544757479282920696EB8
:10244C002070776D2E6820001150574D5265736FB8
:10245C006C7574696F6E20202020275B574F524497
:10246C005D207573656420696E2063616C63756CA7
:10247C0061746544757479282920696E2070776DB4
:10248C002E6802202000023A2000042C2030780014
:10249C00022C2000012001310130020E1301C76F04
:1024AC000F0E43140501386F0908D8B002D0070E7F
:1024BC003827300E38251301C96F0501386B382BBE
:1024CC004332040E385DD8A0FAD70F0E4314386F80
:1024DC000908D8B002D0070E3827300E3825130162
:0624EC00C86F00011200A0
:020000040030CA
:0E000000E62D27C080C00000FFFFFFFEFF00BE
:00000001FF
