:020000040000FA
:0400000006EF00F017
:020008001000E6
:10000C0061D857D87DD801014991499349954997B1
:10001C00488148894C87010E046E000112D8CCD857
:10002C00FFD70300FED7032A810E016E280E006E47
:10003C00002EFED7012EFAD7022EF6D7032EF4D7B8
:10004C001200E80E026E030E036EEDDF042EF9D7DC
:10005C0012001DC5E9F41EC5EAF4EFC414F51452E0
:10006C00D8B413D01F6A010E145CD8A00ED01F2A6E
:10007C001F501D24E96E000E1E20EA6EEFC415F50C
:10008C0013D814501F5CD8A0F2D7120012C520F55B
:10009C002052D8B408D00D0E156E06D80A0E156E67
:1000AC0003D8202EF8D71200BBA2FED715C5B8F284
:1000BC00120001014A9D150E0201726F120E176F8C
:1000CC00000112000001600EAD6FAF6BB36BB06B33
:1000DC00600EAD6F080EB16FF86A0301F395F39FD4
:1000EC000401006B086B106B206B0001749F709FF8
:1000FC000101506B516B526B536B546B000112002E
:10010C00010E0D6E060E0201C46F810EC36FC08FFF
:10011C00C08BC089C18F00011200380E456F1CC501
:10012C0044F01BC543F0416B408146C00FF51200F3
:10013C0022C5E9F423C5EAF4EF52D8A404D0140183
:10014C00D76B0001120022C5E9F423C5EAF419505B
:10015C00EF5CD8B006D022C5E9F423C5EAF4EFC4AD
:10016C0019F522C5E9F423C5EAF41950EF5C1A6EAF
:10017C000501216B010E195CD8A019D0212B21513E
:10018C001A24246E2224E96E000E2320EA6EEEC49B
:10019C0018F518C517F505EED7F02151E926000E14
:1001AC00EA2217C5EEF41950215DD8A0E7D76100FB
:1001BC0065F4D7F400011200020E126E010E0D6EE2
:1001CC0065DF15EED0F0DA0EF66E030EF76E000E4C
:1001DC00F86EEAD8D00E1D6E140E1E6E010E0D6E4A
:1001EC0038DF10681168102AD8B4112A10C527F509
:1001FC00F5D8CC0E1D6E140E1E6E010E0D6E29DF81
:10020C0015EED0F0E20EF66E030EF76E000EF86EE1
:10021C00CBD8D00E1D6E140E1E6E010E0D6E19DF96
:10022C0010C505F511C506F50F0E096E0A6A7AD8C8
:10023C0000B0D9D710681168102AD8B4112A10C58B
:10024C0005F511C506F5100E096E0A6A79D800C5B8
:10025C000EF50E52D8A430D0010E126E010E0D6E9A
:10026C0015DF11C527F5BAD8CC0E226E140E236EED
:10027C00010E196E5DDFD70E1D6E140E1E6E010E73
:10028C000D6EE7DE10C527F5A9D8CC0E1D6E140E29
:10029C001E6E010E0D6EDDDE15EED0F0E40EF66E68
:1002AC00030EF76E000EF86E7FD8D00E1D6E140E76
:1002BC001E6E010E0D6ECDDE15EED0F0E20EF66E5A
:1002CC00030EF76E000EF86E6FD8D00E1D6E140E66
:1002DC001E6E010E0D6EBDDE010E136E10C51BF5EC
:1002EC0011C51CF51ADF0FC513F513C527F576D804
:1002FC00CC0E1D6E140E1E6E010E0D6EAADE10C5F8
:10030C0005F511C506F509680A6A0CD800B094D732
:10031C001200006A0950056212000A5006621200AF
:10032C0000681200006A06500A5CD8A012000A503D
:10033C00065C04E30950055CD8B01200001E1200E4
:10034C0005C507F506C508F509C50BF50AC50CF575
:10035C00026A036A0BC505F50CC506F5096A0A6A3B
:10036C00D8DF00A003D0056A066A1200100E046ED6
:10037C00D89007360836023603360B50025E0C5006
:10038C00035A0780D8B005D007900B5002260C50AA
:10039C000322042EEDD707C505F508C506F502C5E1
:1003AC0000F503C501F512000900F5C405F5F5C407
:1003BC00E7F404D00900F550056E06260552D8B4B2
:1003CC0012000900F5C4E4F4052EFBD71200062038
:1003DC002020202020000120023A2000020E1401CF
:1003EC00CC6F0F0E27140501216F0908D8B002D06D
:1003FC00070E2127300E21251401CE6F0501216B2C
:10040C00212B2732040E215DD8A0FAD70F0E27140A
:10041C00216F0908D8B002D0070E2127300E2125F4
:08042C001401CD6F0001120064
:020000040038C2
:0C0010000102030405061112131415165A
:08004000414243444500EB007E
:020000040030CA
:0E000000E62D27C080C00000FFFFFFFEFF00BE
:00000001FF
