:020000020000FC
:0200000071C0CD
:0200040018954D
:02000800189549
:02000C00189545
:02001000189541
:0200140018953D
:02001800189539
:02001C00189535
:02002000189531
:0200240018952D
:02002800189529
:02002C00189525
:02003000189521
:0200340018951D
:02003800189519
:02003C00189515
:02004000189511
:0200440018950D
:02004800189509
:02004C00189505
:02005000189501
:020054001895FD
:020058001895F9
:02005C001895F5
:020060001895F1
:020064001895ED
:020068001895E9
:02006C001895E5
:020070001895E1
:020074001895DD
:020078001895D9
:02007C001895D5
:020080001895D1
:020084001895CD
:020088001895C9
:02008C001895C5
:020090001895C1
:020094001895BD
:020098001895B9
:02009C001895B5
:0200A0001895B1
:0200A4001895AD
:0200A8001895A9
:0200AC001895A5
:0200B0001895A1
:0200B40018959D
:0200B800189599
:0200BC00189595
:0200C000189591
:0200C40018958D
:0200C800189589
:0200CC00189585
:0200D000189581
:0200D40018957D
:0200D800189579
:0200DC00189575
:0200E000189571
:1000E40051E25EBF5FEF5DBF0E9484230E947916D8
:1000F4000E9480205FE15093190350E050931A034B
:1001040053E0509342030E94BA1F54E15093EF020C
:1001140050E05093F0025AE05093F30250E05093B1
:10012400F40260901D0304E1601A6092F102609091
:100134001E0300E0600A6092F20252E35093F5025B
:1001440050E05093F6025FE15093150350E0509352
:10015400160350EE5093ED025FEF5093EE02CDEC98
:10016400D2E0E6E4F9E50E948B2C5DEC50937B032E
:1001740052E050937C0350EE509313035FEF50937F
:10018400140352E050935F030E94391754E15093D3
:10019400EF0250E05093F0025CE35093F30250E01E
:1001A4005093F40256E45093F10250E05093F2025B
:1001B4005AE55093F50250E05093F6025FE15093F4
:1001C400150350E05093160350EE5093ED025FEF89
:1001D4005093EE02CDECD2E0E4E5F9E50E948B2CDD
:1001E4005DEC50937B0352E050937C0350EE5093AC
:1001F40013035FEF5093140352E050935F030E9484
:10020400391750E55093EF0250E05093F0025CE34D
:100214005093F30250E05093F40252E85093F102E9
:1002240050E05093F2025AE55093F50250E0509397
:10023400F6025FE15093150350E05093160350EE1D
:100244005093ED025FEF5093EE02CDECD2E0E6E581
:10025400F9E50E948B2C5DEC50937B0352E05093A4
:100264007C0350EE509313035FEF5093140352E05A
:1002740050935F030E9439175CE85093EF0250E0FB
:100284005093F0025CE35093F30250E05093F40275
:100294005EEB5093F10250E05093F2025AE5509312
:1002A400F50250E05093F6025FE15093150350E0DD
:1002B4005093160350EE5093ED025FEF5093EE020D
:1002C400CDECD2E0E8E5F9E50E948B2C5DEC50938F
:1002D4007B0352E050937C0350EE509313035FEF83
:1002E4005093140352E050935F030E94391758EC63
:1002F4005093EF0250E05093F0025CE35093F3020A
:1003040050E05093F4025AEF5093F10250E05093AE
:10031400F2025AE55093F50250E05093F6025FE181
:100324005093150350E05093160350EE5093ED0292
:100334005FEF5093EE02CDECD2E0EAE5F9E50E94DE
:100344008B2C5DEC50937B0352E050937C0350EE76
:10035400509313035FEF5093140352E050935F03E1
:100364000E94391754E15093EF0250E05093F00289
:1003740054E65093F30250E05093F40256E4509341
:10038400F10250E05093F20252E85093F50250E02B
:100394005093F6025FE15093150350E05093160317
:1003A40050EE5093ED025FEF5093EE02CDECD2E0AD
:1003B400ECE5F9E50E948B2C5DEC50937B0352E055
:1003C40050937C0350EE509313035FEF5093140348
:1003D40052E050935F030E94391750E55093EF02A7
:1003E40050E05093F00254E65093F30250E05093DF
:1003F400F40252E85093F10250E05093F20252E8B2
:100404005093F50250E05093F6025FE150931503C8
:1004140050E05093160350EE5093ED025FEF50936B
:10042400EE02CDECD2E0EEE5F9E50E948B2C5DEC1A
:1004340050937B0352E050937C0350EE509313038C
:100444005FEF5093140352E050935F030E943917F7
:100454005CE85093EF0250E05093F00254E650935E
:10046400F30250E05093F4025EEB5093F10250E03B
:100474005093F20252E85093F50250E05093F60282
:100484005FE15093150350E05093160350EE5093E0
:10049400ED025FEF5093EE02CDECD2E0E0E6F9E539
:1004A4000E948B2C5DEC50937B0352E050937C03B1
:1004B40050EE509313035FEF5093140352E05093A4
:1004C4005F030E94391758EC5093EF0250E05093A9
:1004D400F00254E65093F30250E05093F4025AEFC2
:1004E4005093F10250E05093F20252E85093F50217
:1004F40050E05093F6025FE15093150350E050939F
:10050400160350EE5093ED025FEF5093EE02CDECE4
:10051400D2E0E2E6F9E50E948B2C5DEC50937B037C
:1005240052E050937C0350EE509313035FEF5093CB
:10053400140352E050935F030E94391754E150931F
:10054400EF0250E05093F0025CE85093F30250E065
:100554005093F40256E45093F10250E05093F202A7
:100564005AEA5093F50250E05093F6025FE150933B
:10057400150350E05093160350EE5093ED025FEFD5
:100584005093EE02CDECD2E0E4E6F9E50E948B2C28
:100594005DEC50937B0352E050937C0350EE5093F8
:1005A40013035FEF5093140352E050935F030E94D0
:1005B400391750E55093EF0250E05093F0025CE895
:1005C4005093F30250E05093F40252E85093F10236
:1005D40050E05093F2025AEA5093F50250E05093DF
:1005E400F6025FE15093150350E05093160350EE6A
:1005F4005093ED025FEF5093EE02CDECD2E0E6E6CD
:10060400F9E50E948B2C5DEC50937B0352E05093F0
:100614007C0350EE509313035FEF5093140352E0A6
:1006240050935F030E9439175CE85093EF0250E047
:100634005093F0025CE85093F30250E05093F402BC
:100644005EEB5093F10250E05093F2025AEA509359
:10065400F50250E05093F6025FE15093150350E029
:100664005093160350EE5093ED025FEF5093EE0259
:10067400CDECD2E0E8E6F9E50E948B2C5DEC5093DA
:100684007B0352E050937C0350EE509313035FEFCF
:100694005093140352E050935F030E94391758ECAF
:1006A4005093EF0250E05093F0025CE85093F30251
:1006B40050E05093F4025AEF5093F10250E05093FB
:1006C400F2025AEA5093F50250E05093F6025FE1C9
:1006D4005093150350E05093160350EE5093ED02DF
:1006E4005FEF5093EE02CDECD2E0EAE6F9E50E942A
:1006F4008B2C5DEC50937B0352E050937C0350EEC3
:10070400509313035FEF5093140352E050935F032D
:100714000E94391754E15093EF0250E05093F002D5
:1007240054EB5093F30250E05093F40252E8509388
:10073400F10250E05093F20252ED5093F50250E072
:100744005093F6025FE15093150350E05093160363
:1007540050EE5093ED025FEF5093EE02CDECD2E0F9
:10076400ECE6F9E50E948B2C5DEC50937B0352E0A0
:1007740050937C0350EE509313035FEF5093140394
:1007840052E050935F030E9439175CE85093EF02E4
:1007940050E05093F00254EB5093F30250E0509326
:1007A400F4025EEB5093F10250E05093F20252EDEA
:1007B4005093F50250E05093F6025FE15093150315
:1007C40050E05093160350EE5093ED025FEF5093B8
:1007D400EE02CDECD2E0EEE6F9E50E948B2C5DEC66
:1007E40050937B0352E050937C0350EE50931303D9
:1007F4005FEF5093140352E050935F030E94391744
:1008040058EC5093EF0250E05093F00254EB5093A5
:10081400F30250E05093F4025AEF5093F10250E087
:100824005093F20252ED5093F50250E05093F602C9
:100834005FE15093150350E05093160350EE50932C
:10084400ED025FEF5093EE02CDECD2E0E0E7F9E584
:100854000E948B2C5DEC50937B0352E050937C03FD
:1008640050EE509313035FEF5093140352E05093F0
:100874005F030E94391754E05093EF0251E0509304
:10088400F0025CE35093F30250E05093F4025BE215
:100894005093F10251E05093F20252E85093F50262
:1008A40050E05093F6025FE15093150350E05093EB
:1008B400160350EE5093ED025FEF5093EE02CDEC31
:1008C400D2E0E2E7F9E50E948B2C5DEC50937B03C8
:1008D40052E050937C0350EE509313035FEF509318
:1008E400140352E050935F030E94391754E050936D
:1008F400EF0251E05093F0025CE85093F30250E0B1
:100904005093F4025BE25093F10251E05093F202EF
:1009140052ED5093F50250E05093F6025FE150938C
:10092400150350E05093160350EE5093ED025FEF21
:100934005093EE02CDECD2E0E4E7F9E50E948B2C73
:100944005DEC50937B0352E050937C0350EE509344
:1009540013035FEF5093140352E050935F030E941C
:10096400391754E15093EF0250E05093F0025AE0EB
:100974005093F30250E05093F40260901D0304E19D
:10098400601A6092F10260901E0300E0600A6092B7
:10099400F20252E35093F50250E05093F6025FE105
:1009A4005093150350E05093160350EE5093ED020C
:1009B4005FEF5093EE02CDECD2E0E6E7F9E50E945A
:1009C4008B2C5DEC50937B0352E050937C0350EEF0
:1009D400509313035FEF5093140352E050935F035B
:1009E4000E943917F1E00E942C1854E15093EF0251
:1009F40050E05093F0025AE05093F30250E05093C9
:100A0400F40260901D0304E1601A6092F1026090A8
:100A14001E0300E0600A6092F20252E35093F50272
:100A240050E05093F6025FE15093150350E0509369
:100A3400160350EE5093ED025FEF5093EE02CDECAF
:100A4400D2E0ECE8F9E50E948B2C5DEC50937B033B
:100A540052E050937C0350EE509313035FEF509396
:100A6400140352E050935F030E94391750E05093EF
:100A7400100350E05093F702C0E0D2E0E0EAF9E559
:100A84000E948B2CC2E5D2E0E2EAF9E50E948B2CAD
:100A940064990C9464140E946B1460918C0370919B
:100AA4008D03C4E1D0E00E946D2A0094602CC091B3
:100AB4008C03D0918D0366E470E00E946D2A00944B
:100AC400A02CA620EA2C60918E0370918F03CCE3B6
:100AD400D0E00E946D2A0094602CC0918E03D091C6
:100AE4008F036AE570E00E946D2A0094A02CA62072
:100AF400FA2CFE206F2C60FEA6C054E150935703DD
:100B040050E0509358035CE350935B0350E05093E0
:100B14005C0356E45093590350E050935A035AE54A
:100B240050935D0350E050935E0350E050930403F0
:100B340058EF509305030E946F26D4E6E0E00E942C
:100B4400201854E15093570350E0509358035CE34A
:100B540050935B0350E050935C0356E45093590365
:100B640050E050935A035AE550935D0350E050937C
:100B74005E0350EE509304035FEF509305030E940D
:100B84006F26C2E5D2E099275991A2E5B2E00E940E
:100B9400B32AE4E5F9E50E94922CA2E5B2E09C9325
:100BA4006090100363946092100352E550938403A1
:100BB40052E05093850354E150936B030E94102636
:100BC400C2E5D2E0A9E2B2E00E94B02A56E1509315
:100BD4003A0350E050933B035CE050933E0350E0F3
:100BE40050933F0359E250933C0351E050933D032B
:100BF40050E35093400350E0509341035FE150931E
:100C04002A0350E050932B030E9432185AE2509367
:100C1400460350E05093470354E15093480350E097
:100C24005093490352E550937B0352E050937C0365
:100C340050EE509322035FEF5093230352E05093FE
:100C44005F030E947A2560918C0370918D03C0E547
:100C5400D0E00E946D2A0094602CC0918C03D09146
:100C64008D0362E870E00E946D2A0094A02CA620F7
:100C7400EA2C60918E0370918F03CCE3D0E00E9444
:100C84006D2A0094602CC0918E03D0918F036AE585
:100C940070E00E946D2A0094A02CA620FA2CFE205D
:100CA4006F2C60FEA6C050E55093570350E050935C
:100CB40058035CE350935B0350E050935C0352E8A9
:100CC4005093590350E050935A035AE550935D03EF
:100CD40050E050935E0350E05093040358EF509358
:100CE40005030E946F26D4E6E0E00E94201850E538
:100CF4005093570350E0509358035CE350935B03C5
:100D040050E050935C0352E85093590350E05093E1
:100D14005A035AE550935D0350E050935E0350EE3E
:100D2400509304035FEF509305030E946F26C2E5BE
:100D3400D2E099275991A2E5B2E00E94B32AE6E5F0
:100D4400F9E50E94922CA2E5B2E09C936090100316
:100D540063946092100352E55093840352E05093DD
:100D6400850354E150936B030E941026C2E5D2E040
:100D7400A9E2B2E00E94B02A56E150933A0350E04F
:100D840050933B035CE050933E0350E050933F0389
:100D940059E250933C0351E050933D0350E3509388
:100DA400400350E0509341035FE150932A0350E025
:100DB40050932B030E9432185AE25093460350E09A
:100DC4005093470354E15093480350E05093490330
:100DD40052E550937B0352E050937C0350EE5093C2
:100DE40022035FEF5093230352E050935F030E946A
:100DF4007A2560918C0370918D03CCE8D0E00E9439
:100E04006D2A0094602CC0918C03D0918D036EEBFD
:100E140070E00E946D2A0094A02CA620EA2C609118
:100E24008E0370918F03CCE3D0E00E946D2A00946E
:100E3400602CC0918E03D0918F036AE570E00E940C
:100E44006D2A0094A02CA620FA2CFE206F2C60FEA4
:100E5400A6C05CE85093570350E0509358035CE3FA
:100E640050935B0350E050935C035EEB5093590343
:100E740050E050935A035AE550935D0350E0509369
:100E84005E0350E05093040358EF509305030E940F
:100E94006F26D4E6E0E00E9420185CE850935703E4
:100EA40050E0509358035CE350935B0350E050933D
:100EB4005C035EEB5093590350E050935A035AE598
:100EC40050935D0350E050935E0350EE509304033F
:100ED4005FEF509305030E946F26C2E5D2E0992785
:100EE4005991A2E5B2E00E94B32AE8E5F9E50E942F
:100EF400922CA2E5B2E09C936090100363946092FC
:100F0400100352E55093840352E05093850354E157
:100F140050936B030E941026C2E5D2E0A9E2B2E02E
:100F24000E94B02A56E150933A0350E050933B0399
:100F34005CE050933E0350E050933F0359E25093DA
:100F44003C0351E050933D0350E35093400350E081
:100F5400509341035FE150932A0350E050932B03D5
:100F64000E9432185AE25093460350E050934703CC
:100F740054E15093480350E05093490352E5509391
:100F84007B0352E050937C0350EE509322035FEFB7
:100F94005093230352E050935F030E947A2560919B
:100FA4008C0370918D03C4E1D0E00E946D2A0094FB
:100FB400602CC0918C03D0918D0366E470E00E9494
:100FC4006D2A0094A02CA620EA2C60918E037091C7
:100FD4008F03C4E6D0E00E946D2A0094602CC09177
:100FE4008E03D0918F0362E870E00E946D2A009412
:100FF400A02CA620FA2CFE206F2C60FEA6C054E183
:101004005093570350E05093580354E650935B03B6
:1010140050E050935C0356E45093590350E05093CE
:101024005A0352E850935D0350E050935E0350E03E
:101034005093040358EF509305030E946F26D4E69F
:10104400E0E00E94201854E15093570350E050937D
:10105400580354E650935B0350E050935C0356E40A
:101064005093590350E050935A0352E850935D0350
:1010740050E050935E0350EE509304035FEF50939F
:1010840005030E946F26C2E5D2E099275991A2E593
:10109400B2E00E94B32AECE5F9E50E94922CA2E5A5
:1010A400B2E09C936090100363946092100352E545
:1010B4005093840352E05093850354E150936B039F
:1010C4000E941026C2E5D2E0A9E2B2E00E94B02A52
:1010D40056E150933A0350E050933B035CE0509345
:1010E4003E0350E050933F0359E250933C0351E0D8
:1010F40050933D0350E35093400350E05093410319
:101104005FE150932A0350E050932B030E9432185E
:101114005AE25093460350E05093470354E15093EE
:10112400480350E05093490352E550937B0352E047
:1011340050937C0350EE509322035FEF50932303AC
:1011440052E050935F030E947A2560918C03709162
:101154008D03C0E5D0E00E946D2A0094602CC091FC
:101164008C03D0918D0362E870E00E946D2A009494
:10117400A02CA620EA2C60918E0370918F03C4E604
:10118400D0E00E946D2A0094602CC0918E03D0910F
:101194008F0362E870E00E946D2A0094A02CA620C0
:1011A400FA2CFE206F2C60FEA6C050E55093570326
:1011B40050E05093580354E650935B0350E050932F
:1011C4005C0352E85093590350E050935A0352E899
:1011D40050935D0350E050935E0350E0509304033A
:1011E40058EF509305030E946F26D4E6E0E00E9476
:1011F400201850E55093570350E05093580354E699
:1012040050935B0350E050935C0352E850935903AE
:1012140050E050935A0352E850935D0350E05093CA
:101224005E0350EE509304035FEF509305030E9456
:101234006F26C2E5D2E099275991A2E5B2E00E9457
:10124400B32AEEE5F9E50E94922CA2E5B2E09C9364
:101254006090100363946092100352E550938403EA
:1012640052E05093850354E150936B030E9410267F
:10127400C2E5D2E0A9E2B2E00E94B02A56E150935E
:101284003A0350E050933B035CE050933E0350E03C
:1012940050933F0359E250933C0351E050933D0374
:1012A40050E35093400350E0509341035FE1509367
:1012B4002A0350E050932B030E9432185AE25093B1
:1012C400460350E05093470354E15093480350E0E1
:1012D4005093490352E550937B0352E050937C03AF
:1012E40050EE509322035FEF5093230352E0509348
:1012F4005F030E947A2560918C0370918D03CCE882
:10130400D0E00E946D2A0094602CC0918C03D0918F
:101314008D036EEB70E00E946D2A0094A02CA62031
:10132400EA2C60918E0370918F03C4E6D0E00E9492
:101334006D2A0094602CC0918E03D0918F0362E8D3
:1013440070E00E946D2A0094A02CA620FA2CFE20A6
:101354006F2C60FEA6C05CE85093570350E0509396
:10136400580354E650935B0350E050935C035EEBE8
:101374005093590350E050935A0352E850935D033D
:1013840050E050935E0350E05093040358EF5093A1
:1013940005030E946F26D4E6E0E00E9420185CE872
:1013A4005093570350E05093580354E650935B0313
:1013B40050E050935C035EEB5093590350E050931C
:1013C4005A0352E850935D0350E050935E0350EE8D
:1013D400509304035FEF509305030E946F26C2E508
:1013E400D2E099275991A2E5B2E00E94B32AE0E63F
:1013F400F9E50E94922CA2E5B2E09C936090100360
:1014040063946092100352E55093840352E0509326
:10141400850354E150936B030E941026C2E5D2E089
:10142400A9E2B2E00E94B02A56E150933A0350E098
:1014340050933B035CE050933E0350E050933F03D2
:1014440059E250933C0351E050933D0350E35093D1
:10145400400350E0509341035FE150932A0350E06E
:1014640050932B030E9432185AE25093460350E0E3
:101474005093470354E15093480350E05093490379
:1014840052E550937B0352E050937C0350EE50930B
:1014940022035FEF5093230352E050935F030E94B3
:1014A4007A2560918C0370918D03C4E1D0E00E9491
:1014B4006D2A0094602CC0918C03D0918D0366E456
:1014C40070E00E946D2A0094A02CA620EA2C609162
:1014D4008E0370918F03CCE8D0E00E946D2A0094B3
:1014E400602CC0918E03D0918F036AEA70E00E9451
:1014F4006D2A0094A02CA620FA2CFE206F2C60FEEE
:10150400A6C054E15093570350E0509358035CE84D
:1015140050935B0350E050935C0356E4509359039B
:1015240050E050935A035AEA50935D0350E05093AD
:101534005E0350E05093040358EF509305030E9458
:101544006F26D4E6E0E00E94201854E1509357033C
:1015540050E0509358035CE850935B0350E0509381
:101564005C0356E45093590350E050935A035AEAEB
:1015740050935D0350E050935E0350EE5093040388
:101584005FEF509305030E946F26C2E5D2E09927CE
:101594005991A2E5B2E00E94B32AE4E6F9E50E947B
:1015A400922CA2E5B2E09C93609010036394609245
:1015B400100352E55093840352E05093850354E1A1
:1015C40050936B030E941026C2E5D2E0A9E2B2E078
:1015D4000E94B02A56E150933A0350E050933B03E3
:1015E4005CE050933E0350E050933F0359E2509324
:1015F4003C0351E050933D0350E35093400350E0CB
:10160400509341035FE150932A0350E050932B031E
:101614000E9432185AE25093460350E05093470315
:1016240054E15093480350E05093490352E55093DA
:101634007B0352E050937C0350EE509322035FEF00
:101644005093230352E050935F030E947A256091E4
:101654008C0370918D03C0E5D0E00E946D2A009444
:10166400602CC0918C03D0918D0362E870E00E94DD
:101674006D2A0094A02CA620EA2C60918E03709110
:101684008F03CCE8D0E00E946D2A0094602CC091B6
:101694008E03D0918F036AEA70E00E946D2A009451
:1016A400A02CA620FA2CFE206F2C60FEA6C050E5CC
:1016B4005093570350E0509358035CE850935B03F6
:1016C40050E050935C0352E85093590350E0509318
:1016D4005A035AEA50935D0350E050935E0350E07E
:1016E4005093040358EF509305030E946F26D4E6E9
:1016F400E0E00E94201850E55093570350E05093C7
:1017040058035CE850935B0350E050935C0352E849
:101714005093590350E050935A035AEA50935D038F
:1017240050E050935E0350EE509304035FEF5093E8
:1017340005030E946F26C2E5D2E099275991A2E5DC
:10174400B2E00E94B32AE6E6F9E50E94922CA2E5F3
:10175400B2E09C936090100363946092100352E58E
:101764005093840352E05093850354E150936B03E8
:101774000E941026C2E5D2E0A9E2B2E00E94B02A9B
:1017840056E150933A0350E050933B035CE050938E
:101794003E0350E050933F0359E250933C0351E021
:1017A40050933D0350E35093400350E05093410362
:1017B4005FE150932A0350E050932B030E943218A8
:1017C4005AE25093460350E05093470354E1509338
:1017D400480350E05093490352E550937B0352E091
:1017E40050937C0350EE509322035FEF50932303F6
:1017F40052E050935F030E947A2560918C037091AC
:101804008D03CCE8D0E00E946D2A0094602CC09136
:101814008C03D0918D036EEB70E00E946D2A0094CE
:10182400A02CA620EA2C60918E0370918F03CCE843
:10183400D0E00E946D2A0094602CC0918E03D09158
:101844008F036AEA70E00E946D2A0094A02CA620FF
:10185400FA2CFE206F2C60FEA6C05CE85093570360
:1018640050E0509358035CE850935B0350E050936E
:101874005C035EEB5093590350E050935A035AEAC9
:1018840050935D0350E050935E0350E05093040383
:1018940058EF509305030E946F26D4E6E0E00E94BF
:1018A40020185CE85093570350E0509358035CE8C9
:1018B40050935B0350E050935C035EEB50935903E9
:1018C40050E050935A035AEA50935D0350E050930A
:1018D4005E0350EE509304035FEF509305030E94A0
:1018E4006F26C2E5D2E099275991A2E5B2E00E94A1
:1018F400B32AE8E6F9E50E94922CA2E5B2E09C93B3
:101904006090100363946092100352E55093840333
:1019140052E05093850354E150936B030E941026C8
:10192400C2E5D2E0A9E2B2E00E94B02A56E15093A7
:101934003A0350E050933B035CE050933E0350E085
:1019440050933F0359E250933C0351E050933D03BD
:1019540050E35093400350E0509341035FE15093B0
:101964002A0350E050932B030E9432185AE25093FA
:10197400460350E05093470354E15093480350E02A
:101984005093490352E550937B0352E050937C03F8
:1019940050EE509322035FEF5093230352E0509391
:1019A4005F030E947A2560918C0370918D03C4E1DA
:1019B400D0E00E946D2A0094602CC0918C03D091D9
:1019C4008D0362E870E00E946D2A0094A02CA6208A
:1019D400EA2C60918E0370918F03C4EBD0E00E94D7
:1019E4006D2A0094602CC0918E03D0918F0362ED18
:1019F40070E00E946D2A0094A02CA620FA2CFE20F0
:101A04006F2C60FEA6C054E15093570350E05093EE
:101A1400580354EB50935B0350E050935C0352E83B
:101A24005093590350E050935A0352ED50935D0381
:101A340050E050935E0350E05093040358EF5093EA
:101A440005030E946F26D4E6E0E00E94201854E1CA
:101A54005093570350E05093580354EB50935B0357
:101A640050E050935C0352E85093590350E0509374
:101A74005A0352ED50935D0350E050935E0350EED1
:101A8400509304035FEF509305030E946F26C2E551
:101A9400D2E099275991A2E5B2E00E94B32AECE67C
:101AA400F9E50E94922CA2E5B2E09C9360901003A9
:101AB40063946092100352E55093840352E0509370
:101AC400850354E150936B030E941026C2E5D2E0D3
:101AD400A9E2B2E00E94B02A56E150933A0350E0E2
:101AE40050933B035CE050933E0350E050933F031C
:101AF40059E250933C0351E050933D0350E350931B
:101B0400400350E0509341035FE150932A0350E0B7
:101B140050932B030E9432185AE25093460350E02C
:101B24005093470354E15093480350E050934903C2
:101B340052E550937B0352E050937C0350EE509354
:101B440022035FEF5093230352E050935F030E94FC
:101B54007A2560918C0370918D03C8ECD0E00E94CB
:101B64006D2A0094602CC0918C03D0918D036AEF90
:101B740070E00E946D2A0094A02CA620EA2C6091AB
:101B84008E0370918F03C4EBD0E00E946D2A009401
:101B9400602CC0918E03D0918F0362ED70E00E949F
:101BA4006D2A0094A02CA620FA2CFE206F2C60FE37
:101BB4007CC058EC5093570350E05093580354EBB7
:101BC40050935B0350E050935C035AEF50935903D6
:101BD40050E050935A0352ED50935D0350E05093FC
:101BE4005E0350E05093040358EF509305030E94A2
:101BF4006F26D4E6E0E00E94201858EC5093570377
:101C040050E05093580354EB50935B0350E05093CF
:101C14005C035AEF5093590350E050935A0352ED2A
:101C240050935D0350E050935E0350EE50930403D1
:101C34005FEF509305030E946F266091F7026623BD
:101C4400A1F550E050936D0352E050936E030E944F
:101C54009923609129036623E1F452E550938403A8
:101C640052E0509385035091100350936B030E94EC
:101C74001026CBE7D2E0A9E2B2E00E94B02A50E0FD
:101C840050931003C2E5D2E0E2EAF9E50E948B2CFE
:101C940009C0CBE7D2E0A0E0B2E00E94B02A50E055
:101CA4005093000251E05093F70260918C037091BD
:101CB4008D03C8ECD0E00E946D2A0094602CC09182
:101CC4008C03D0918D036AEF70E00E946D2A00941A
:101CD400A02CA620EA2C60918E0370918F03CCE88F
:101CE400D0E00E946D2A0094602CC0918E03D091A4
:101CF4008F036AEA70E00E946D2A0094A02CA6204B
:101D0400FA2CFE206F2C60FE7CC058EC50935703D5
:101D140050E0509358035CE850935B0350E05093B9
:101D24005C035AEF5093590350E050935A035AEA14
:101D340050935D0350E050935E0350E050930403CE
:101D440058EF509305030E946F26D4E6E0E00E940A
:101D5400201858EC5093570350E0509358035CE814
:101D640050935B0350E050935C035AEF5093590334
:101D740050E050935A035AEA50935D0350E0509355
:101D84005E0350EE509304035FEF509305030E94EB
:101D94006F266091F7026623A1F550E050936D031E
:101DA40052E050936E030E949923609129036623A5
:101DB400E1F452E55093840352E05093850350912B
:101DC400100350936B030E941026CBE7D2E0A9E2E4
:101DD400B2E00E94B02A50E050931003C2E5D2E072
:101DE400E2EAF9E50E948B2C09C0CBE7D2E0A0E03F
:101DF400B2E00E94B02A50E05093000252E05093A7
:101E0400F70260918C0370918D03C8ECD0E00E94BE
:101E14006D2A0094602CC0918C03D0918D036AEFDD
:101E240070E00E946D2A0094A02CA620EA2C6091F8
:101E34008E0370918F03C4E6D0E00E946D2A009453
:101E4400602CC0918E03D0918F0362E870E00E94F1
:101E54006D2A0094A02CA620FA2CFE206F2C60FE84
:101E64007CC058EC5093570350E05093580354E609
:101E740050935B0350E050935C035AEF5093590323
:101E840050E050935A0352E850935D0350E050934E
:101E94005E0350E05093040358EF509305030E94EF
:101EA4006F26D4E6E0E00E94201858EC50935703C4
:101EB40050E05093580354E650935B0350E0509322
:101EC4005C035AEF5093590350E050935A0352E87D
:101ED40050935D0350E050935E0350EE509304031F
:101EE4005FEF509305030E946F266091F70266230B
:101EF400A1F550E050936D0352E050936E030E949D
:101F04009923609129036623E1F452E550938403F5
:101F140052E0509385035091100350936B030E9439
:101F24001026CBE7D2E0A9E2B2E00E94B02A50E04A
:101F340050931003C2E5D2E0E2EAF9E50E948B2C4B
:101F440009C0CBE7D2E0A0E0B2E00E94B02A50E0A2
:101F54005093000253E05093F70260918C03709108
:101F64008D03C8ECD0E00E946D2A0094602CC091CF
:101F74008C03D0918D036AEF70E00E946D2A009467
:101F8400A02CA620EA2C60918E0370918F03CCE3E1
:101F9400D0E00E946D2A0094602CC0918E03D091F1
:101FA4008F036AE570E00E946D2A0094A02CA6209D
:101FB400FA2CFE206F2C60FE7CC058EC5093570323
:101FC40050E0509358035CE350935B0350E050930C
:101FD4005C035AEF5093590350E050935A035AE567
:101FE40050935D0350E050935E0350E0509304031C
:101FF40058EF509305030E946F26D4E6E0E00E9458
:10200400201858EC5093570350E0509358035CE366
:1020140050935B0350E050935C035AEF5093590381
:1020240050E050935A035AE550935D0350E05093A7
:102034005E0350EE509304035FEF509305030E9438
:102044006F266091F7026623A1F550E050936D036B
:1020540052E050936E030E949923609129036623F2
:10206400E1F452E55093840352E050938503509178
:10207400100350936B030E941026CBE7D2E0A9E231
:10208400B2E00E94B02A50E050931003C2E5D2E0BF
:10209400E2EAF9E50E948B2C09C0CBE7D2E0A0E08C
:1020A400B2E00E94B02A50E05093000254E05093F2
:1020B400F70260918C0370918D03C4E0D1E00E941B
:1020C4006D2A0094602CC0918C03D0918D036BE237
:1020D40071E00E946D2A0094A02CA620EA2C609145
:1020E4008E0370918F03CCE3D0E00E946D2A00949C
:1020F400602CC0918E03D0918F0362E870E00E943F
:102104006D2A0094A02CA620FA2CFE206F2C60FED1
:1021140093C054E05093570351E0509358035CE349
:1021240050935B0350E050935C035BE2509359037C
:1021340051E050935A0352E850935D0350E050939A
:102144005E0350E05093040358EF509305030E943C
:102154006F26D4E6E0E072D754E05093570351E081
:10216400509358035CE350935B0350E050935C033B
:102174005BE25093590351E050935A0352E8509351
:102184005D0350E050935E0350EE509304035FEF01
:10219400509305030E946F26CBE7D2E0E0EAF9E50D
:1021A4000E948B2CC4EAD2E0E0EAF9E50E948B2C71
:1021B40050E05093F70250E05093100350E05093D6
:1021C400960350939703509398035093990350E0C8
:1021D40050939A0350939B0350939C0350939D03F5
:1021E400C2E5D2E0E8EBF9E50E948B2C5AE2509369
:1021F400460350E05093470354E15093480350E0A2
:102204005093490352E550937B0352E050937C036F
:1022140050EE509322035FEF5093230352E0509308
:102224005F030E947A25C2E5D2E0E2EAF9E50E9462
:102234008B2C50E05093000260918C0370918D03BD
:10224400C4E0D1E00E946D2A0094602CC0918C03FC
:10225400D0918D036BE271E00E946D2A0094A02C52
:10226400A620EA2C60918E0370918F03CCE8D0E015
:102274000E946D2A0094602CC0918E03D0918F032C
:1022840062ED70E00E946D2A0094A02CA620FA2C26
:10229400FE206F2C60FE16C354E05093570351E0A8
:1022A400509358035CE850935B0350E050935C03F5
:1022B4005BE25093590351E050935A0352ED50930B
:1022C4005D0350E050935E0350E05093040358EFD5
:1022D400509305030E946F26D4E6E0E0AFD654E0A5
:1022E4005093570351E0509358035CE850935B03B9
:1022F40050E050935C035BE25093590351E05093D8
:102304005A0352ED50935D0350E050935E0350EE38
:10231400509304035FEF509305030E946F2660916E
:10232400F702662309F4CEC252E55093840352E0C7
:10233400509385035091100350936B030E94102611
:10234400C4EAD2E0A9E2B2E00E94B02A50E050937D
:1023540010035BE75093840352E0509385030E947B
:10236400E72C509194035093960350919503509306
:10237400970350E0509398035093990354EA509371
:10238400840352E0509385030E94E72C50919403F8
:1023940050939A035091950350939B0350E05093AC
:1023A4009C0350939D03C2E5D2E0E2EAF9E50E9462
:1023B4008B2C6091F702613009F089C0609096031C
:1023C400A0909A036A0C6092520360909703A090C5
:1023D4009B036A1C6092530360909803A0909C0333
:1023E4006A1C6092540360909903A0909D036A1C38
:1023F40060925503509152035093860350915303B6
:10240400509387030E948929C0E0D2E0A2EEB2E093
:102414000E94B02AC2E5D2E099275991A2E5B2E020
:102424000E94B32AA0E0B2E00E94B32AA2E5B2E07F
:102434009C9352E55093840352E05093850354E1F6
:1024440050936B030E941026C2E5D2E0A9E2B2E0E9
:102454000E94B02A56E150933A0350E050933B0354
:102464005CE050933E0350E050933F0359E2509395
:102474003C0351E050933D0350E35093400350E03C
:10248400509341035FE150932A0350E050932B0390
:10249400E7D55AE25093460350E05093470354E182
:1024A4005093480350E05093490352E550937B0303
:1024B40052E050937C0350EE509322035FEF50930D
:1024C400230352E050935F030E947A25EFC1609189
:1024D400F702623009F0D3C0C0919603D0919703FC
:1024E400E0919803F091990360919A0370919B0392
:1024F40080919C0390919D030E94772A00FE2DC039
:1025040060909603A0909A036A18609252036090B8
:102514009703A0909B036A0860925303609098030A
:10252400A0909C036A086092540360909903A09061
:102534009D036A0860925503509152035093860399
:1025440050915303509387030E948929C0E0D2E03D
:10255400A2EEB2E00E94B02A35C060909A03A09027
:1025640096036A186092520360909B03A0909703AD
:102574006A086092530360909C03A09098036A08D1
:102584006092540360909D03A09099036A0860923E
:102594005503509152035093860350915303509323
:1025A40087030E948929C0E0D2E099275991EAE67D
:1025B400F9E50E94922CA2EEB2E00E94B32AA0E0B8
:1025C400B2E09C93C2E5D2E099275991A2E5B2E02A
:1025D4000E94B32AA0E0B2E00E94B32AA2E5B2E0CE
:1025E4009C9352E55093840352E05093850354E145
:1025F40050936B030E941026C2E5D2E0A9E2B2E038
:102604000E94B02A56E150933A0350E050933B03A2
:102614005CE050933E0350E050933F0359E25093E3
:102624003C0351E050933D0350E35093400350E08A
:10263400509341035FE150932A0350E050932B03DE
:102644000FD55AE25093460350E05093470354E1A8
:102654005093480350E05093490352E550937B0351
:1026640052E050937C0350EE509322035FEF50935B
:10267400230352E050935F030E947A2517C16091AF
:10268400F702633009F087C0609196037091970355
:102694008091980390919903C0919A03D0919B03E0
:1026A400E0919C03F0919D030E94EA2B0092520357
:1026B40010925303209254033092550350915203C5
:1026C4005093860350915303509387030E948929A2
:1026D400C0E0D2E0A2EEB2E00E94B02AC2E5D2E0AD
:1026E40099275991A2E5B2E00E94B32AA0E0B2E092
:1026F4000E94B32AA2E5B2E09C9352E5509384036E
:1027040052E05093850354E150936B030E941026CA
:10271400C2E5D2E0A9E2B2E00E94B02A56E15093A9
:102724003A0350E050933B035CE050933E0350E087
:1027340050933F0359E250933C0351E050933D03BF
:1027440050E35093400350E0509341035FE15093B2
:102754002A0350E050932B0383D45AE25093460348
:1027640050E05093470354E15093480350E0509392
:10277400490352E550937B0352E050937C0350EE9F
:10278400509322035FEF5093230352E050935F036F
:102794000E947A258BC06091F702643009F086C0EC
:1027A4006091960370919703809198039091990397
:1027B400C0919A03D0919B03E0919C03F0919D03F7
:1027C4000E94EC2A60935203709353038093540342
:1027D40090935503509152035093860350915303A1
:1027E400509387030E948929C0E0D2E0A2EEB2E0B0
:1027F4000E94B02AC2E5D2E099275991A2E5B2E03D
:102804000E94B32AA0E0B2E00E94B32AA2E5B2E09B
:102814009C9352E55093840352E05093850354E112
:1028240050936B030E941026C2E5D2E0A9E2B2E005
:102834000E94B02A56E150933A0350E050933B0370
:102844005CE050933E0350E050933F0359E25093B1
:102854003C0351E050933D0350E35093400350E058
:10286400509341035FE150932A0350E050932B03AC
:10287400F7D35AE25093460350E05093470354E190
:102884005093480350E05093490352E550937B031F
:1028940052E050937C0350EE509322035FEF509329
:1028A400230352E050935F030E947A25C2E5D2E0ED
:1028B400E2EAF9E50E948B2C50E05093F70250E0D5
:1028C40050930002D1E0E0E0B9D30C944A05889516
:1028D400FECF50E05093610350936203509363031F
:1028E4005093640350E050936503509366035093F0
:1028F4006703509368035091430350937E036091A0
:102904007E03662309F48CC050E05093E80250E043
:10291400509390035093910350E05093920350933B
:102924009303739850E9509306036FD250910201B8
:10293400586050930201E090E802E394E092E802C8
:1029440050910201577F50930201E090E802E39412
:10295400E092E802F1D15091EB025093920350912E
:10296400EC025093930350ED509306034ED25091D2
:102974000201586050930201E090E802E394E0926F
:10298400E80250910201577F50930201E090E8025F
:10299400E394E092E802D0D15091EB02509390037B
:1029A4005091EC0250939103739AE0906103F0907C
:1029B4009003EF0CE0926103E0906203F0909103C6
:1029C400EF1CE0926203E090630300E0E01EE092FB
:1029D4006303E090640300E0E01EE0926403E0908F
:1029E4006503F0909203EF0CE0926503E0906603B8
:1029F400F0909303EF1CE0926603E090670300E01D
:102A0400E01EE0926703E090680300E0E01EE092BD
:102A14006803E0907E03EA94E0927E0309F074CFA9
:102A240060916103709162038091630390916403E8
:102A3400C0914303D0E0E0E0F0E00E94EC2A662E6F
:102A4400772E882E992E662D772D882D992DC1E10C
:102A5400D0E0E0E0F0E00E94EC2A60938C037093F5
:102A64008D0308E7E0908C030E19602E00E0E090DF
:102A74008D030E09702E662D772DC9E0D0E00E94DB
:102A84009B2B6093A4037093A503E0908C03F090B8
:102A9400A403EF18E0928C03E0908D03F090A5035B
:102AA400EF08E0928D03C0918C03D0918D036FEEFB
:102AB40070E00E946D2A00FE06C05FEE50938C0306
:102AC40050E050938D03609165037091660380918B
:102AD400670390916803C0914303D0E0E0E0F0E025
:102AE4000E94EC2A662E772E882E992E662D772D3D
:102AF400882D992DCCE0D0E0E0E0F0E00E94EC2AB3
:102B040060938E0370938F03C0918E03D0918F03D3
:102B14006FE371E00E946D2A00FE06C05FE35093EC
:102B24008E0351E050938F0360914203643039F572
:102B34000FE3E0908E030E1900938E0301E0E09002
:102B44008F030E0900938F0360918E0370918F039E
:102B5400CEE0D0E00E949B2B6093A8037093A9035E
:102B6400E0908E03F090A803EF0CE0928E03E090C7
:102B74008F03F090A903EF1CE0928F03B7C060911C
:102B84004203623079F50FEEE0908C030E19009346
:102B94008C0300E0E0908D030E0900938D03609197
:102BA4008E0370918F03CEE1D0E00E94CA2B602C7B
:102BB400712C662D772DCFE3D1E00E94BD2AA62E7D
:102BC400B72E0EE10A19602E00E00B09702EE0907A
:102BD4008E03E618E0928E03E0908F03E708E092FC
:102BE4008F0384C0609142036130A9F560918C0326
:102BF40070918D03C0918E03D0918F030E94492A56
:102C040060938C0370938D03C0938E03D0938F03D2
:102C140060918C0370918D03CEE1D0E00E94CA2BA9
:102C2400602C712C662D772DCFE3D1E00E94BD2A54
:102C3400A62EB72E0EE10A19602E00E00B09702EA5
:102C4400E0908C03E618E0928C03E0908D03E70893
:102C5400E0928D034BC060914203633009F046C09B
:102C640060918C0370918D03C0918E03D0918F037A
:102C74000E94492A60938C0370938D03C0938E0342
:102C8400D0938F030FE3E0908C030E1900938C0311
:102C940001E0E0908D030E0900938D030FEEE090A8
:102CA4008E030E1900938E0300E0E0908F030E094B
:102CB40000938F0360918C0370918D03C0E2D0E088
:102CC4000E94CA2B602C712C662D772DCFE3D1E0A6
:102CD4000E94BD2AA62EB72EE0908C03EA0CE09247
:102CE4008C03E0908D03EB1CE0928D0308956D98A6
:102CF4006C986B9A509101015860509301019D9A10
:102D0400739A50910201586050930201A59A50E0C1
:102D140050938C0350938D0350E050938E03509343
:102D24008F0350E0509390035093910350E05093DD
:102D340092035093930345C050E05093E80250E04F
:102D44005093E9025093EA025CE05093800350915F
:102D5400E902551F5093E9025091EA02551F50931E
:102D6400EA0250910201586050930201E090E80297
:102D7400E394E092E80250910201577F50930201DC
:102D8400E090E802E394E092E802659B0BC0E090D7
:102D9400E902E394E092E902E090EA0209F4E394A0
:102DA400E092EA02E0908003EA94E092800379F6EC
:102DB4005091E9025093EB025091EA025093EC02D5
:102DC400089560914403613021F451E0509343032A
:102DD4001BC060914403623021F45CE050934303D0
:102DE40013C060914403633021F45BE150934303C7
:102DF4000BC060914403643021F456E650934303BE
:102E040003C05CE050934303089550E05093E802FC
:102E140050910201577F5093020158E050937F0371
:102E24005090060357FE02C0A59A01C0A598509180
:102E34000603551F5093060350910201577F509388
:102E44000201E090E802E394E092E802509102016A
:102E5400586050930201E090E802E394E092E802A3
:102E6400E0907F03EA94E0927F03D1F608955091B5
:102E7400EF02509357035091F0025093580350912E
:102E8400F30250935B035091F40250935C0350910E
:102E9400F102509359035091F20250935A03509106
:102EA400F50250935D035091F60250935E035091E6
:102EB400150350930403509116035093050385D1D1
:102EC4005091EF02509357035091F00250935803DE
:102ED4005091F30250935B035091F40250935C03BE
:102EE4005091F102509359035091F20250935A03B6
:102EF4005091F50250935D035091F60250935E0396
:102F04005091ED02509304035091EE025093050347
:102F14000E946F26A0917B03B0917C03A090EF02E6
:102F2400E090F102AE0C6A2CA090F002E090F20264
:102F3400AE1C7A2C662D772DC2E0D0E00E94BD2A0B
:102F4400A62EB72E6C91C6E06C9FE02C6E2DC0911E
:102F54005F036C9FF02C6F2C6694A618A092A203BA
:102F640000E0B00AB092A303E090F302F090F502FF
:102F7400EF0C6E2CE090F402F090F602EF1C7E2C25
:102F8400662D772DC2E0D0E00E94BD2AA62EB72E72
:102F940060915F03C4E06C9FA018A092A60300E0B8
:102FA400B00AB092A703509119035093880350912B
:102FB4001A03509389035091220350938A0350912A
:102FC400230350938B03509115035093190350918D
:102FD400160350931A035091A20350934603509141
:102FE400A303509347035091A60350934803509171
:102FF400A7035093490350917B0350937B03509153
:103004007C0350937C0350911303509322035091FB
:103014001403509323030E947A25509188035093FC
:1030240019035091890350931A0350918A035093C2
:10303400220350918B03509323030895E395AEEF3D
:1030440094E19A95F1F7AA95D9F7DA95C1F7EA953B
:10305400B1F70895D8EEE3E0F1DFFA95D9F70895D2
:10306400C0913A03D0913B0360913C0370913D03BE
:103074000E946D2A00FE18C050913A035093260313
:1030840050913B035093270350913C0350933A03D0
:1030940050913D0350933B035091260350933C03BE
:1030A4005091270350933D03C0913E03D0913F03B9
:1030B40060914003709141030E946D2A00FE18C084
:1030C40050913E035093260350913F03509327039E
:1030D4005091400350933E035091410350933F035A
:1030E400509126035093400350912703509341037A
:1030F40050913A035093110350913B0350931203A0
:1031040050913E035093260350913F03509327035D
:103114005091110350934A035091120350934B035F
:103124005091260350934E035091270350934F031D
:1031340050912A035093040350912B035093050399
:103144000E94DB25E0904003F0902603EF186E2CDC
:10315400E0904103F0902703EF087E2C662D772D35
:10316400C0E0D0E00E94552A009400FE0CC0E0901C
:103174002603E394E0922603E090270309F4E39402
:10318400E0922703C5CFE0903C03F0901103EF18C1
:103194006E2CE0903D03F0901203EF087E2C662D18
:1031A400772DC0E0D0E00E94552A009400FE0CC0A8
:1031B400E0901103E394E0921103E090120309F408
:1031C400E394E09212039CCF0895C0915703D091E9
:1031D40058036091590370915A030E946D2A00FEAE
:1031E40012C06091570370915803C0915903D09154
:1031F4005A030E94492A6093570370935803C0935B
:103204005903D0935A03C0915B03D0915C0360913E
:103214005D0370915E030E946D2A00FE12C06091EE
:103224005B0370915C03C0915D03D0915E030E94C7
:10323400492A60935B0370935C03C0935D03D0934E
:103244005E03E0905903F0905703EF186E2CE09062
:103254005A03F0905803EF087E2CC62DD72D64E056
:1032640070E00E946D2AE02CF0905D03A0905B0357
:10327400FA186F2CF0905E03A0905C03FA087F2C80
:10328400C62DD72D64E070E00E946D2AF02CFE203C
:103294006F2C60FE0FC250E0509317035093180335
:1032A4006091170370911803C0E0D0E00E94552A82
:1032B40000FE65C0E090570303E0E00EE0923A039D
:1032C400E090580300E0E01EE0923B0350915B0362
:1032D40050933E0350915C0350933F03E090590395
:1032E40003E0E01AE0923C03E0905A0300E0E00AB5
:1032F400E0923D0350915B035093400350915C0373
:10330400509341035091040350932A0350910503B1
:1033140050932B030E94A123E090570303E0E00E97
:10332400E0923A03E090580300E0E01EE0923B0391
:1033340050915D0350933E0350915E0350933F03BD
:10334400E090590303E0E01AE0923C03E0905A0352
:1033540000E0E00AE0923D0350915D035093400386
:1033640050915E03509341035091040350932A03F8
:103374005091050350932B030E94A1236AC16091CD
:10338400170370911803C1E0D0E00E94552A00FE93
:1033940075C0E090570302E0E00EE0923A03E0903B
:1033A400580300E0E01EE0923B03E0905B0301E081
:1033B400E00EE0923E03E0905C0300E0E01EE09249
:1033C4003F03E090590302E0E01AE0923C03E090EE
:1033D4005A0300E0E00AE0923D03E0905B0301E061
:1033E400E00EE0924003E0905C0300E0E01EE09217
:1033F40041035091040350932A03509105035093C1
:103404002B030E94A123E090570302E0E00EE09218
:103414003A03E090580300E0E01EE0923B03E090A2
:103424005D0301E0E01AE0923E03E0905E0300E0F9
:10343400E00AE0923F03E090590301E0E01AE092D1
:103444003C03E0905A0300E0E00AE0923D03E09080
:103454005D0301E0E01AE0924003E0905E0300E0C7
:10346400E00AE09241035091040350932A035091DF
:10347400050350932B030E94A123EBC06091170313
:1034840070911803C2E0D0E00E94552A00FE75C076
:10349400E090570301E0E00EE0923A03E090580315
:1034A40000E0E01EE0923B03E0905B0302E0E00EEC
:1034B400E0923E03E0905C0300E0E01EE0923F03F4
:1034C400E090590301E0E01AE0923C03E0905A03D3
:1034D40000E0E00AE0923D03E0905B0302E0E00ECE
:1034E400E0924003E0905C0300E0E01EE0924103C0
:1034F4005091040350932A035091050350932B03D6
:103504000E94A123E090570301E0E00EE0923A0309
:10351400E090580300E0E01EE0923B03E0905D037E
:1035240002E0E01AE0923E03E0905E0300E0E00A6D
:10353400E0923F03E090590301E0E01AE0923C037B
:10354400E0905A0300E0E00AE0923D03E0905D035E
:1035540002E0E01AE0924003E0905E0300E0E00A3B
:10356400E09241035091040350932A0350910503C0
:1035740050932B030E94A1236CC050915703509386
:103584003A035091580350933B03E0905B03F0904F
:103594001703EF0CE0923E03E0905C03F0901803F5
:1035A400EF1CE0923F035091590350933C03509118
:1035B4005A0350933D03E0905B03F0901703EF0C24
:1035C400E0924003E0905C03F0901803EF1CE0925B
:1035D40041035091040350932A03509105035093DF
:1035E4002B030E94A1235091570350933A03509107
:1035F400580350933B03E0905D03F0901703EF18DA
:10360400E0923E03E0905E03F0901803EF08E0922E
:103614003F035091590350933C0350915A035093E4
:103624003D03E0905D03F0901703EF18E092400330
:10363400E0905E03F0901803EF08E092410350918C
:10364400040350932A035091050350932B030E94C3
:10365400A123E0905D03F0905B03EF186E2CE090E3
:103664005E03F0905C03EF087E2C662D772DC2E09C
:10367400D0E00E94BD2AA62EB72EE0901703AE1804
:103684006A2CE0901803BE087B2C662D772DC0E0D1
:10369400D0E00E94552A009400FE0CC0E09017036D
:1036A400E394E0921703E090180309F4E394E092A2
:1036B4001803F6CD0895A03F10F000240895E0ED1E
:1036C400F6E3EA0F08F4F395C8950895EF00100C9B
:1036D4000A8822382008201010808040040000004E
:1036E4002848466C0000002810001000407C00842C
:1036F40082304E78066C0C00001028000464F8FE3A
:103704007CFEFEFE7CFE0040FEFEFEFE7CFE7CFE99
:103714004C027E3E7EC60EC200040008800040FEBD
:103724007070701010FE0040FE00F8F870F810F889
:1037340090107838788818880000002078000000FD
:103744000000000000000000000000000000000075
:103754000000000000000000000000000000000065
:103764000000000000000000000000000000000055
:103774000000000000000000000000000000F8FE4F
:10378400FEF8FEC2FE7C00FEF8FEFE827CFEFE0019
:10379400C6020E38C60EBC000038287C000038FE75
:1037A400043028017C30007C40FC1C003804F818EC
:1037B40038043C38443C3C003C383C3CA03F10F0CE
:1037C40000240895E6EDF7E3EA0F08F4F395C895AD
:1037D4000895EFFE380A06CC667C700440103888E1
:1037E400A2701C00000EFE5426920A38821010A00B
:1037F40010C020A284C282288A940292926CAC28BF
:1038040028820292249282829212821082801080F4
:1038140004088212821292028040802810A2FE08BC
:1038240082048002A8908888A8FCA8109080208236
:10383400081088282810A87C80408050A0C8100058
:10384400821044000000000000000000000000009E
:103854000000000000000000000000000000000064
:103864000000000000000000000000000000000054
:103874000000000000000000000000000000000044
:10388400000000002492028492A210928210040488
:10389400089282021200AA0210442810C2000044B6
:1038A40054080000444968495419084A0010324039
:1038B4002001447C242444044044284040014144E1
:1038C4004040A03F10F000240895ECEDF8E3EA0F27
:1038D40008F4F395C8950895EF7C7C0000EEEE7C27
:1038E400A8FEFE545494947C7C009E0028FE10AAEA
:1038F4000644447C7C6010C01092FEA28A248A9202
:10390400E292926C6C442844A2F222928282921235
:103914009210FE82288018108212A23292FE8080B9
:103924007010E092821082028004A8888888A8120D
:10393400A808FA8850FEF00888282808A8908080F3
:103944006020A0A86CFE6C10420000000000000083
:103954000000000000000000000000000000000063
:103964000000000000000000000000000000000053
:103974000000000000000000000000000000000043
:1039840000000000000000000000229202829292D7
:103994001092FE28021810928202120092FEE0FE9B
:1039A40010FE0200004554053D004449904B54A5C7
:1039B400044D3C2809404095440424A4447C40FE22
:1039C40010F8383C4045423AA03F10F000240895D6
:1039D400E2EEF9E3EA0F08F4F395C8950895EF3899
:1039E400FE0C0ACC667C2004403810A288701C00AF
:1039F400000EFE54C8440082381010001000088ADB
:103A0400809296FE8A921292520000822828128294
:103A14002492824492129210827E44800420821264
:103A24004252920280408028108A8220FE0480083C
:103A3400A8888890A802A808807A8880080888281E
:103A44003008A88040408050A09882001020440094
:103A54000000000000000000000000000000000062
:103A64000000000000000000000000000000000052
:103A74000000000000000000000000000000000042
:103A84000000000000000000000000000000000032
:103A940024920284928A1092824404042092820224
:103AA4001200820210442810C2000038550440005D
:103AB400384E684D544304494044092020AB447CAB
:103AC40024A44C0440442840404141444141A03F87
:103AD40010F000240895E8EEFAE3EA0F08F4F395F1
:103AE400C8950895EF10000A068822383E08201071
:103AF40010808040040000002824C4A00000002896
:103B040010001000047C008C622072600E6C3C007B
:103B1400000028100C7CF86C44388202F4FE000289
:103B24008280FEFE7C0CBC8C64027E3E7EC60E86C9
:103B3400004000088000F07040FE300478F000007F
:103B44000000F0F07010F8104040F8387888788859
:103B540000000010780000000000000000000000D9
:103B64000000000000000000000000000000000051
:103B74000000000000000000000000000000000041
:103B84000000000000000000000000000000000031
:103B9400000000000000F86C02F88286FE7C0082BF
:103BA400F8FEFE827CFE0C0082020E38C60EBC00BB
:103BB400004444782000443004314401783E20001D
:103BC4007E7C1C413804184834043C38443C3C2076
:103BD4003C383C3CA19854E450939E0350E05093ED
:103BE4009F0350E05093A0035FEE5093A1030E9403
:103BF4003F2D55E450939E0350E050939F0350E0B3
:103C04005093A0035093A1030E943F2D56E4509378
:103C14009E0350E050939F035FE35093A00351E051
:103C24005093A1030E943F2D5EE450939E0350E005
:103C340050939F0350E05093A0035093A1030E941C
:103C44003F2D5FE450939E0350E050939F0350E058
:103C54005093A0035093A1030E943F2D52E250932E
:103C64009E0350E050939F030E94412D50911903ED
:103C74005093A00350911A035093A1030E944E2D18
:103C84005FEF5093070350930803E0900703E39416
:103C9400E0920703E090080309F4E394E092080338
:103CA4005FEF5093090350930A03E0900903E394F0
:103CB400E0920903E0900A0309F4E394E0920A0312
:103CC400A298A29A6091090370910A03CFEED0E002
:103CD4000E946D2A00FCE9CF6091070370910803EC
:103CE400CFE3D1E00E946D2A00FCCFCFA19A0895C2
:103CF400E090F8020FE0E01AE092F80250E05093EE
:103D0400F9025093FA026091F802C2EB0E94672A0A
:103D14000094E02CC091F8026AEC0E94672A009497
:103D2400602C6E20F62CF0FE0CC0E090FE0201E048
:103D3400E01AE092FE02E090FF0200E0E00AE09266
:103D4400FF0250E050930B03E0900B03E394E092E6
:103D54000B0360910B03613031F4A091F802ABDCEA
:103D640000920D0327C060910B03623031F4A091DF
:103D7400F80224DD00920D031DC060910B03633033
:103D840031F4A091F8029DDD00920D0313C06091FF
:103D94000B03643031F4A091F80216DE00920D0397
:103DA40009C060910B03653029F4A091F8028FDEFD
:103DB40000920D0350E0509300035093010350E030
:103DC40050930C03E0900C03E394E0920C0350E056
:103DD4005093FB0251E050930303E090FB02E39401
:103DE400E092FB0250E05093020351E050935603DB
:103DF400E0900203E394E092020350900D0350FE1E
:103E040034C0E090FC02F090F902EF0C6E2CE090CC
:103E1400FD02F090FA02EF1C7E2CE090FB026E0C87
:103E240060924A0300E0701E70924B03E090FE0221
:103E3400F0900003EF0C6E2CE090FF02F090010371
:103E4400EF1C7E2CE09002036E0C60924E0300E0A7
:103E5400701E70924F0350912A03509304035091A3
:103E64002B0350930503A5D633C0E090FC02F090D9
:103E7400F902EF0C6E2CE090FD02F090FA02EF1CB8
:103E84007E2CE090FB026E0C60924A0300E0701EF0
:103E940070924B03E090FE02F0900003EF0C6E2C46
:103EA400E090FF02F0900103EF1C7E2CE0900203EF
:103EB4006E0C60924E0300E0701E70924F0350919E
:103EC40019035093040350911A035093050371D6B8
:103ED400F090200360905603F618EF2C6E2DC0E08E
:103EE4000E94502A009400FE06C0E0905603E3941A
:103EF400E09256037DCFF090200360900303F61800
:103F0400EF2C6E2DC0E00E94502A009400FE06C0E3
:103F1400E0900303E394E09203035FCF50910D0319
:103F2400579550930D03E0900003F0902003EF0C9D
:103F3400E0920003E090010300E0E01EE092010340
:103F440060910C03683008F43DCFE090F902F090E2
:103F54002003EF0CE092F902E090FA0200E0E01E88
:103F6400E092FA0260910B03653008F4EDCE0895F7
:103F740060914203613071F55FE350931D0351E09A
:103F840050931E035FEE50931B0350E050931C03A9
:103F9400A19851E050939E0350E050939F035FE338
:103FA4005093A00359E65093A1030E943F2D51E181
:103FB40050939E0350E050939F0350E75093A00307
:103FC40050E65093A1030E943F2DA19AD1E0E0E076
:103FD40035D893C060914203623071F55FEE50931F
:103FE4001D0350E050931E035FE350931B0351E005
:103FF40050931C03A19851E050939E0350E05093BA
:104004009F035FE35093A00359E65093A1030E94DA
:104014003F2D51E150939E0350E050939F0350E78E
:104024005093A00350E65093A1030E943F2DA19A00
:10403400D1E0E0E003D861C060914203633079F5D8
:104044005FE350931D0351E050931E035FEE5093C2
:104054001B0350E050931C03A19851E050939E031E
:1040640050E050939F035FE35093A0035BE25093AF
:10407400A1030E943F2D51E150939E0350E05093C1
:104084009F0350E75093A00350E65093A1030E946E
:104094003F2DA19AD1E0E0E00E9420182EC05FEEEF
:1040A40050931D0350E050931E035FE350931B0392
:1040B40051E050931C03A19851E050939E0350E0AB
:1040C40050939F035FE35093A0035BE25093A103DB
:1040D4000E943F2D51E150939E0350E050939F0363
:1040E40050E75093A00350E65093A1030E943F2D44
:1040F400A19AD1E0E0E00E942018089554E0509382
:1041040042039A9A999A579A989A389A399A3A9A63
:104114003B9A3C9A3D9A3E9A3F9A089A099A0A9A7F
:104124000B9A0C9A0D9A0E9A0F9AA19AA09AD5E01E
:10413400E0E00E942018A098DFE0E0E00E94201850
:10414400A09ADFE0E0E00E942018A19850E050938C
:104154009E0350939F0351E05093A00350E050936B
:10416400A1030E943F2D53E050939E0350E05093CF
:104174009F0354EA5093A00358EA5093A1030E946A
:104184003F2D5CE050939E0350E050939F0350E01A
:104194005093A0035093A1030E943F2D5DE05093E0
:1041A4009E0350E050939F035CE05093A00350E8BB
:1041B4005093A1030E943F2D5EE050939E0350E074
:1041C40050939F0350E05093A0035BE25093A103EC
:1041D4000E943F2D5EE150939E0350E050939F0355
:1041E40057EB5093A00350E05093A1030E943F2D3E
:1041F40052E050939E0350E050939F0350E050933D
:10420400A00356E05093A1030E943F2D50E1509328
:104214009E0350E050939F0350E05093A0035093AB
:10422400A1030E943F2D60914203633049F55FE38F
:1042340050931D0351E050931E035FEE50931B03F4
:1042440050E050931C0351E050939E0350E0509370
:104254009F035FE35093A0035BE25093A1030E948A
:104264003F2D51E150939E0350E050939F0350E73C
:104274005093A00350E65093A1030E943F2D82C0A7
:1042840060914203613049F55FE350931D0351E0AF
:1042940050931E035FEE50931B0350E050931C0396
:1042A40051E050939E0350E050939F035FE350937B
:1042B400A00359E65093A1030E943F2D51E150936E
:1042C4009E0350E050939F0350E75093A00350E6A1
:1042D4005093A1030E943F2D55C060914203623068
:1042E40049F55FEE50931D0350E050931E035FE3C6
:1042F40050931B0351E050931C0351E050939E03D1
:1043040050E050939F035FE35093A00359E650930A
:10431400A1030E943F2D51E150939E0350E050931E
:104324009F0350E75093A00350E65093A1030E94CB
:104334003F2D28C05FEE50931D0350E050931E03A1
:104344005FE350931B0351E050931C0351E05093DF
:104354009E0350E050939F035FE35093A0035BE2FE
:104364005093A1030E943F2D51E150939E0350E0CE
:1043740050939F0350E75093A00350E65093A1033A
:104384000E943F2D55E050939E0350E050939F03AD
:1043940050E05093A0035093A1030E943F2D56E098
:1043A40050939E0350E050939F0350E05093A0031A
:1043B4005093A1030E943F2D56E150939E0350E079
:1043C40050939F035CE15093A0035FEE5093A103CD
:1043D4000E943F2D57E150939E0350E050939F035A
:1043E40053E05093A00350E05093A1030E943F2D4B
:1043F40057E050939E0350E050939F0353E3509330
:10440400A00352E05093A1030E943F2D5BE0509320
:104414009E0350E050939F0350E05093A0035093A9
:10442400A1030E943F2D5FE050939E0350E0509300
:104434009F0350E05093A0035093A1030E943F2D8B
:1044440051E450939E0350E050939F0350E05093E7
:10445400A0035093A1030E943F2D52E450939E0366
:1044640050E050939F0350E05093A0035093A10356
:104474000E943F2D58E450939E0350E050939F03B5
:1044840050E05093A0035093A1030E943F2D59E4A0
:1044940050939E0350E050939F035FE35093A00317
:1044A40051E05093A1030E943F2D5AE450939E0380
:1044B40050E050939F0350E05093A0035093A10306
:1044C4000E943F2D5BE450939E0350E050939F0362
:1044D40050E05093A0035093A1030E943F2D54E455
:1044E40050939E0350E050939F0355E95093A003CB
:1044F4005FEE5093A1030E943F2D55E450939E0319
:1045040050E050939F0350E05093A0035093A103B5
:104514000E943F2D56E450939E0350E050939F0316
:104524005FE35093A00351E05093A1030E943F2DF9
:1045340050E350939E0350E050939F0357E05093F1
:10454400A0035093A1030E943F2D51E350939E0377
:1045540050E050939F0354E05093A00352E05093D3
:10456400A1030E943F2D52E350939E0350E05093C9
:104574009F0354E05093A00352E05093A1030E9480
:104584003F2D53E350939E0350E050939F0352E01A
:104594005093A00355E05093A1030E943F2D54E390
:1045A40050939E0350E050939F0357E05093A00311
:1045B40055E05093A1030E943F2D55E350939E0371
:1045C40050E050939F0354E05093A00352E0509363
:1045D400A1030E943F2D56E350939E0350E0509355
:1045E4009F0354E05093A00352E05093A1030E9410
:1045F4003F2D57E350939E0350E050939F0352E0A6
:104604005093A00355E05093A1030E943F2D5AE319
:1046140050939E0350E050939F0352E05093A003A5
:1046240053E05093A1030E943F2D5BE350939E03FC
:1046340050E050939F0352E05093A00353E05093F3
:10464400A1030E943F2D53E250939E0350E05093E8
:104654009F0350E05093A0035093A1030E943F2D69
:1046640054E250939E0350E050939F0350E05093C4
:10467400A0035093A1030E943F2D55E250939E0343
:1046840050E050939F0350E05093A00350E85093A0
:10469400A1030E943F2D5FE450939E0350E050938A
:1046A4009F0350E05093A0035093A1030E943F2D19
:1046B4005EE450939E0350E050939F0350E0509368
:1046C400A0035093A1030E943F2D52E250939E03F6
:1046D40050E050939F030E94412DA19A56E05093BD
:1046E400210352E05093200357E050931F035FEFE0
:1046F400509322035093230350E050931903509393
:104704001A0368CA50E052B950E055B950E058B99C
:1047140050E05BB950E05EB950E051BB50E054BB8F
:1047240050E05093020150E0509305010895A09188
:104734006D03B0916E035C9150932903089550E08A
:1047440050932C0350932D0350E050933003509317
:10475400310350E0509336035093370350E05093A5
:1047640038035093390350E050932E0350932F0392
:1047740050E0509332035093330350E0509334038A
:1047840050933503E0903C03F0903A03EF18E09225
:104794002C03E0903D03F0903B03EF08E0922D03DF
:1047A400E0904003F0903E03EF18E0923003E09075
:1047B4004103F0903F03EF08E0923103C0912C03D2
:1047C400D0912D0360E070E09FD600FE07C051E059
:1047D4005093360350E05093370305C05FEF509376
:1047E400360350933703C0913003D091310360E016
:1047F40070E08AD600FE07C051E05093380350E0C1
:104804005093390305C05FEF509338035093390335
:104814006091360370913703C0912C03D0912D031E
:104824000E94652C00922C0310922D036091380392
:1048340070913903C0913003D09131030E94652CEB
:10484400009230031092310360912C0370912D0378
:10485400C2E0D0E00E94652C00922E0310922F0338
:104864006091300370913103C2E0D0E00E94652C66
:10487400009232031092330360912C0370912D0344
:10488400C0913003D09131033FD6009400FE98C00C
:10489400E0903203F0902C03EF18E0923403E090A0
:1048A4003303F0902D03EF08E092350360913A034F
:1048B40070913B03C0913C03D0913D03F4D5009427
:1048C40000FE64C050913A0350934A0350913B0355
:1048D40050934B0350913E0350934E0350913F032A
:1048E40050934F0350912A035093040350912B0388
:1048F400509305035ED1E0903A03F0903603EF0C39
:10490400E0923A03E0903B03F0903703EF1CE0920F
:104914003B036091340370913503C0E0D0E0F4D5DB
:1049240000FE0FC0E0903403F0903203EF0CE092ED
:104934003403E0903503F0903303EF1CE092350329
:1049440024C0E0903203F0902E03EF186E2CE09018
:104954003303F0902F03EF087E2CE0903403E60C31
:10496400E0923403E0903503E71CE0923503E090D5
:104974003E03F0903803EF0CE0923E03E0903F03D7
:10498400F0903903EF1CE0923F0390CF50913A032B
:1049940050934A0350913B0350934B0350913E0371
:1049A40050934E0350913F0350934F0350912A0369
:1049B4005093040350912B0350930503FAD097C0EE
:1049C400E0902E03F0903003EF18E0923403E0906F
:1049D4002F03F0903103EF08E092350360913E031A
:1049E40070913F03C0914003D09141035CD5009482
:1049F40000FE64C050913A0350934A0350913B0324
:104A040050934B0350913E0350934E0350913F03F8
:104A140050934F0350912A035093040350912B0356
:104A240050930503C6D0E0903E03F0903803EF0C9A
:104A3400E0923E03E0903F03F0903903EF1CE092D4
:104A44003F036091340370913503C0E0D0E05CD53E
:104A540000FE0FC0E0903403F0902E03EF0CE092C0
:104A64003403E0903503F0902F03EF1CE0923503FC
:104A740024C0E0902E03F0903203EF186E2CE090E7
:104A84002F03F0903303EF087E2CE0903403E60C00
:104A9400E0923403E0903503E71CE0923503E090A4
:104AA4003A03F0903603EF0CE0923A03E0903B03B4
:104AB400F0903703EF1CE0923B0390CF50913A0300
:104AC40050934A0350913B0350934B0350913E0340
:104AD40050934E0350913F0350934F0350912A0338
:104AE4005093040350912B035093050362D008950F
:104AF400A0917B03B0917C035C915093450360913A
:104B04004503662309F40895509146035093240302
:104B1400509147035093250351E050937D035091E6
:104B240024035093FC02509125035093FD025091AD
:104B340048035093FE02509149035093FF02E090C2
:104B44007B03F0907D03EF0CAE2DE0907C0300E03E
:104B5400E01EBE2D5C915093F802509122035093B5
:104B64002A035091230350932B03C2D8609121034D
:104B7400C0915F036C9FE0902403E00CE092240357
:104B8400E090250300E0E01EE0922503F090450349
:104B940060907D03F618EF2C6E2DC0E07FD4009456
:104BA40000FE06C0E0907D03E394E0927D03B7CF5E
:104BB4000895C0914A03D0914B0360911D037091F5
:104BC4001E0389D4E02CC0914E03D0914F03609111
:104BD4001B0370911C037FD4602C6E28F62CF0FC10
:104BE4000895A19850914A0350934C0350914B035C
:104BF40050934D0350914E035093500350914F03E3
:104C040050935103A8D2509104035093A0035091A0
:104C140005035093A10340D7A19A0895A09184035A
:104C2400B09185036C91662321F450E050932902DE
:104C34000895A0918403B09185036C91C0916B0396
:104C44006C1738F4A0918403B09185035C91509360
:104C54006B03A0918403B0918503EC90F0906B03F7
:104C6400EF18E0926C0351E050938303F0906C03CF
:104C740060908303F60CEF2CF0908403FE0CAF2DB0
:104C8400E090850300E0E01EBE2D5D9150936A0321
:104C940050936903E090830309E2E00EAE2D00E037
:104CA40012E0011FB02F509169035D93F0906B03E4
:104CB40060908303F618EF2C6E2DC0E0EFD30094C0
:104CC40000FE06C0E0908303E394E0928303CECF1A
:104CD40050916B03509329020895C0915703D091CA
:104CE40058036091590370915A03F5D300FE11C023
:104CF4006091570370915803C0915903D0915A039E
:104D0400C6D36093570370935803C0935903D09349
:104D14005A03C0915B03D0915C0360915D03709171
:104D24005E03D9D300FE11C060915B0370915C03F4
:104D3400C0915D03D0915E03AAD360935B0370932B
:104D44005C03C0935D03D0935E03A0905903E0908D
:104D54005703AE186A2CA0905A03E0905803AE088B
:104D64007A2CC62DD72D64E070E0B5D3A02CE0904A
:104D74005D03F0905B03EF186E2CE0905E03F090FF
:104D84005C03EF087E2CC62DD72D64E070E0A3D31E
:104D9400E02CEA20FE2CF0FE8CC1A090570301E029
:104DA400A00EA0924A03A090580300E0A01EA09277
:104DB4004B03A0905B0302E0A00EA0924E03A090D0
:104DC4005C0300E0A01EA0924F03F3DEA090570303
:104DD40002E0A00EA0924A03A090580300E0A01E97
:104DE400A0924B03A0905B0301E0A00EA0924E039F
:104DF400A0905C0300E0A01EA0924F03DADEA09016
:104E0400590302E0A01AA0924A03A0905A0300E0BA
:104E1400A00AA0924B03A0905B0301E0A00EA09215
:104E24004E03A0905C0300E0A01EA0924F03C1DEDD
:104E3400A090590301E0A01AA0924A03A0905A033B
:104E440000E0A00AA0924B03A0905B0302E0A00E36
:104E5400A0924E03A0905C0300E0A01EA0924F031A
:104E6400A8DEA090570301E0A00EA0924A03A090F0
:104E7400580300E0A01EA0924B03A0905D0302E043
:104E8400A01AA0924E03A0905E0300E0A00AA09294
:104E94004F038FDEA090570302E0A00EA0924A03B6
:104EA400A090580300E0A01EA0924B03A0905D03C5
:104EB40001E0A01AA0924E03A0905E0300E0A00AB5
:104EC400A0924F0376DEA090590302E0A01AA092AC
:104ED4004A03A0905A0300E0A00AA0924B03A090BA
:104EE4005D0301E0A01AA0924E03A0905E0300E0CF
:104EF400A00AA0924F035DDEA090590301E0A01A1E
:104F0400A0924A03A0905A0300E0A00AA0924B0387
:104F1400A0905D0302E0A01AA0924E03A0905E034D
:104F240000E0A00AA0924F0344DEA090570303E0E0
:104F3400A00EA0923A03A090580300E0A01EA092F5
:104F44003B0350915B0350933E0350915C03509399
:104F54003F03A090590303E0A01AA0923C03A09041
:104F64005A0300E0A00AA0923D0350915B035093C2
:104F7400400350915C0350934103509104035093B8
:104F84002A035091050350932B03D9DBA0905703B8
:104F940003E0A00EA0923A03A090580300E0A01EE4
:104FA400A0923B0350915D0350933E0350915E03E6
:104FB40050933F03A090590303E0A01AA0923C032E
:104FC400A0905A0300E0A00AA0923D0350915D0313
:104FD4005093400350915E03509341035091040356
:104FE40050932A035091050350932B03A8DB50914F
:104FF400570350933A035091580350933B03A090A6
:105004005B0303E0A00EA0923E03A0905C0300E0CB
:10501400A01EA0923F035091570350933C0350911C
:10502400580350933D03A0905D0303E0A01AA0929F
:105034004003A0905E0300E0A00AA09241035091B7
:10504400040350932A035091050350932B0377DBF9
:105054005091590350933A0350915A0350933B0390
:10506400A0905B0303E0A00EA0923E03A0905C031B
:1050740000E0A01EA0923F035091590350933C03BB
:1050840050915A0350933D03A0905D0303E0A01A8E
:10509400A0924003A0905E0300E0A00AA092410306
:1050A4005091040350932A035091050350932B030A
:1050B40046DB0895409850900E0350FC409A419866
:1050C40050900E0351FC419A429850900E0352FCAA
:1050D400429A439850900E0353FC439A449850903C
:1050E4000E0354FC449A459850900E0355FC459A7F
:1050F400469850900E0356FC469A479850900E03DB
:1051040057FC479A109850900F0350FC109A11982E
:1051140050900F0351FC119A129850900F0352FCB7
:10512400129A139850900F0353FC139A14985090AA
:105134000F0354FC149A159850900F0355FC159ABC
:10514400169850900F0356FC169A179850900F0318
:1051540057FC179A089560914203C1E09FD1E02C57
:1051640060914203C3E09AD1602C6E28F62CF0FEC5
:105174004FC060914A0370914B03C0914E03D0918C
:105184004F0385D160934A0370934B03C0934E033E
:10519400D0934F0360914C0370914D03C091500321
:1051A400D091510374D160934C0370934D03C09319
:1051B4005003D0935103E0901B03F0904A03EF187F
:1051C400E0924A03E0901C03F0904B03EF08E09256
:1051D4004B03E0901B03F0904C03EF18E0924C0358
:1051E400E0901C03F0904D03EF08E0924D036091B2
:1051F4004A0370914B03C0914C03D0914D0347D1A6
:1052040060934A0370934B03C0934C03D0934D03B4
:1052140050914C035093280358E0509381035091CC
:105224004C03551F50934C0350914D03551F5093FD
:105234004D03E0908103EA94E092810381F7E090CA
:105244004C03F0904A03EF0CE0924C03E0904D03C2
:10525400F0904B03EF1CE0924D0354E450939E03F3
:1052640050E050939F0350914C035093A0035091EE
:105274004D035093A10301D455E450939E0350E091
:1052840050939F0350914E035093A00350914F03AA
:105294005093A103F2D356E450939E0350E05093ED
:1052A4009F03509150035093A00350915103509386
:1052B400A103E3D35EE450939E0350E050939F0315
:1052C40050914A035093A00350914B035093A10370
:1052D400D4D35FE450939E0350E050939F035091C6
:1052E4004E035093A00350914F035093A103C5D391
:1052F40052E250939E0350E050939F03C0D35091C9
:10530400280350934C0350E050934D03089550E00C
:1053140050936B036091860370918703C0E1D7E2D9
:10532400DAD0009400FE1FC0609186037091870359
:10533400C0E1D7E220D160938203009286031092E9
:105344008703E0906B03E394E0926B0302EEE00EBC
:10535400AE2D00E012E0011FB02FE090820300E3C5
:10536400E00EEC920AC06091860370918703C8EE48
:10537400D3E0B1D0009400FE1FC060918603709109
:105384008703C8EED3E0F7D06093820300928603CC
:1053940010928703E0906B03E394E0926B0302EEB8
:1053A400E00EAE2D00E012E0011FB02FE09082036A
:1053B40000E3E00EEC920AC06091860370918703CB
:1053C400C4E6D0E088D0009400FE1FC0609186033C
:1053D40070918703C4E6D0E0CED06093820300923C
:1053E400860310928703E0906B03E394E0926B03CF
:1053F40002EEE00EAE2D00E012E0011FB02FE090AF
:10540400820300E3E00EEC920AC06091860370917F
:105414008703CAE0D0E05FD0009400FE1EC0609114
:10542400860370918703CAE0D0E0A5D0609382031D
:105434000092860310928703E0906B03E394E0925A
:105444006B0302EEE00EAE2D00E012E0011FB02F60
:10545400E090820300E3E00EEC92E0906B03E394AF
:10546400E0926B0302EEE00EAE2D00E012E0011FAD
:10547400B02FE090860300E3E00EEC9200928603E6
:105484001092870350916B035093E2020895062E05
:10549400172E6C2F7D2FC02DD12D089500246C1351
:1054A40008950094089500246C1719F47D1709F4E5
:1054B4000094089500246C1739F47D1729F48E178D
:1054C40019F49F1709F40094089500246C1708F048
:1054D4000895009408950024D71730F07D1718F02C
:1054E4006C1708F00895009408950024F91758F0F3
:1054F40049F4E81740F031F4D71728F019F46C1781
:1055040008F008950094089550E0052E77FF1BC01D
:10551400D7FD04C0E02CE0940E2C0895662E772E5F
:1055240060947094639409F47394862D972D6C2E73
:105534007D2E60947094639409F47394662D772D92
:10554400C82FD92F02C0D7FD0895D71730F07D1783
:1055540018F06C1708F00895009408956D916993FC
:1055640002C06D91960F603009F40895ED91E993AE
:105574006A95E1F70895862F972FEC2FFD2F50E0C1
:10558400252E50E0352E6E2F7F2FC0E0D0E08BDF2C
:1055940000FE03C060E070E0089550E1552E889449
:1055A400881F991F221C331CE22CEE1A2E2CE32C8C
:1055B400EF0A3E2C816038F48E7FE22CEE0E2E2C06
:1055C400E32CEF1E3E2C5A9451F7682F792F022CAE
:1055D400132C089560936F03709370038093710389
:1055E40090937203C0937303D0937403E093750391
:1055F400F093760350E050937703509378035093DD
:10560400790350937A0360917303709174038091CA
:10561400750390917603C0E0D0E0E0E0F0E04ADF6B
:1056240000FE05C060E070E080E090E0089550E284
:10563400552E889450916F03551F50936F035091CA
:105644007003551F5093700350917103551F50936D
:10565400710350917203551F509372035091770355
:10566400551F5093770350917803551F5093780337
:1056740050917903551F5093790350917A03551F24
:1056840050937A03E0907703F0907303EF18E0925D
:105694007703E0907803F0907403EF08E0927803C6
:1056A400E0907903F0907503EF08E0927903E090BD
:1056B4007A03F0907603EF08E0927A0350916F0337
:1056C400516050936F0308F550916F035E7F5093C0
:1056D4006F03E0907703F0907303EF0CE09277038D
:1056E400E0907803F0907403EF1CE0927803E0906C
:1056F4007903F0907503EF1CE0927903E0907A034C
:10570400F0907603EF1CE0927A035A9409F091CF5B
:1057140060916F0370917003809171039091720393
:1057240000907703109078032090790330907A03E7
:105734000895ED2EE7264E2C77FF09C0662E772EAE
:1057440060947094639409F47394662D772DD7FF55
:1057540009C06C2E7D2E60947094639409F4739444
:10576400C62DD72D08DF47FE12C0662E772E609413
:105774007094639409F47394662D772D602C712CC6
:1057840060947094639409F47394062C172C089510
:10579400862F972FEC2FFD2F50E0252E50E0352E2D
:1057A400E0FF06C0E22CE80E2E2CE32CE91E3E2C72
:1057B4008894F795E7958894881F991FCE2FDF2F3B
:1057C40060E070E088DE00FCEBCF022C132C08951F
:1057D40060936F03709370038093710390937203CB
:1057E400C0937303D0937403E0937503F09376032B
:1057F40050E0509377035093780350937903509378
:105804007A035090730350FE1CC0E0907703F0902D
:105814006F03EF0CE0927703E0907803F09070034D
:10582400EF1CE0927803E0907903F0907103EF1C91
:10583400E0927903E0907A03F0907203EF1CE09217
:105844007A03889450917603579550937603509138
:10585400750357955093750350917403579550935E
:105864007403509173035795509373038894509124
:105874006F03551F50936F0350917003551F50933E
:10588400700350917103551F50937103509172032B
:10589400551F50937203C0917303D0917403E09128
:1058A4007503F091760360E070E080E090E01DDE27
:1058B40000FCA7CF00907703109078032090790321
:1058C40030907A030895ED2EE7264E2C77FF09C019
:1058D400662E772E60947094639409F47394662D05
:1058E400772DD7FF09C06C2E7D2E6094709463943D
:1058F40009F47394C62DD72D4BDF47FE09C0602CE5
:10590400712C60947094639409F47394062C172C8E
:105914000895C895602DE39509F4F395699306C03D
:10592400C895602DE39509F4F395960F603009F45A
:105934000895C895E39509F4F39509926A95C9F712
:1059440008950D474342415349432076312E7878D8
:10595400013701380139012F013401350136012A9B
:10596400013101320133012D0130012E012B01439C
:10597400013D144044696D6974726973204B61740C
:1059840073616F756E697300124743426173696393
:105994002043616C63756C61746F720000001420A5
:1059A40020202020202020202020202020202020F3
:1059B400202020001420202020202020202020200F
:1059C4002020202020202020300050E050939403F9
:1059D40050939503A0918403B09185035C915093F7
:1059E4006B0360916B03662309F4089551E05093AF
:1059F4008303E0908403F0908303EF0CAE2DE090DA
:105A0400850300E0E01EBE2D5C91509382036091FB
:105A14008203603308F4089569E3C09182036C172C
:105A240008F408956091940370919503CAE0D0E05E
:105A3400AFDEE02CF0908203EF0C6E2CE12C00E042
:105A4400E01E7E2C00E3601A6092940300E0700A6A
:105A540070929503F0906B0360908303F618EF2C1B
:105A64006E2DC0E01BDD009400FE06C0E0908303B1
