:020000040000FA
:04000000803105281E
:100008000900F526EF265D2680310C30C900DB019A
:10001800E4010A3049020318312849082100AA00DE
:10002800AB0120000C278630860021308700F601BE
:100038000630F7000A30F8008931F32180310530A5
:1000480084002130850089319A21803186308400EE
:100058002130850076088000422849082100AA003E
:10006800AB0120000C278630860021308700053040
:100078008400213085008931962180310A305B0265
:10008800031866285B082100AA00AB0120000C2792
:100098005D30860021308700F6010630F7000A300F
:1000A800F8008931F3218031053084002130850042
:1000B80089319A2180315D308400213085007608AD
:1000C800800077285B082100AA00AB0120000C27DC
:1000D8005D3086002130870005308400213085009E
:1000E8008931962180310A30640203189B286408FC
:1000F8002100AA00AB0120000C27343086002130F3
:100108008700F6010630F7000A30F8008931F3213C
:100118008031053084002130850089319A21803171
:10012800343084002130850076088000AC286408CB
:100138002100AA00AB0120000C27343086002130B2
:10014800870005308400213085008931962180316F
:100158000B30860021308700F6018630840021307C
:10016800850089319A2180310830F7000A30F8007B
:100178008931F32180315D30840021308500893157
:100188009A2180310830F7000A30F8008931F321CC
:100198008031343084002130850089319A218031C2
:1001A8000B3084002130850076088000FF30210064
:1001B800AC00AC0A0A302000DF00E0010A30E100A0
:1001C800E2010B30EE002130EF0088315020803101
:1001D800D101D201D501D6013F30D300D4011F305F
:1001E800D700D8013C08CF003D08D0005821D901DC
:1001F80021002C08F5000830F9002000EC277008D1
:10020800DA008831002081318831F7208131783057
:10021800CC0088319F2081314030CC0088319F202C
:100228008131E601E701E60A0319E70AAF306607FC
:1002380084002130673D85000008CC0088319F206C
:100248008131AF30660784002130673D8500800129
:100258006608F5006708F6008030F900FA01893170
:1002680087218131701817294126033021002C027B
:10027800031CDD280130F40020008831482081313A
:10028800E40A3C306402031D5529E401DB0A3C30D2
:100298005B02031D5529DB01C90A183049020319FD
:1002A800C9010D28630056295108F9005208FA00BF
:1002B8005308F5005408F600893187218131701CF4
:1002C80071295108C2005208C3005308D1005408CC
:1002D800D2004208D3004308D4005508F900560854
:1002E800FA005708F5005808F6008931872181314E
:1002F800701C8A295508C2005608C3005708D50043
:100308005808D6004208D7004308D80001305102E7
:10031800AF000030523BB0005108F9005208FA0013
:100328005308F5005408F600893187218131701887
:10033800C329AF0A0319B00A2F08C4005508C5001D
:100348004F08B5005008B60089310D2181312F08BA
:10035800C4005708C5004F08B5005008B6008931D9
:100368000D2181312F08F5003008F6005308F900F7
:100378005408FA0089318721813170189D2901308C
:100388005502AF000030563BB0005508F90056083A
:10039800FA005708F5005808F6008931872181319D
:1003A8007018FC29AF0A0319B00A5108C4002F08B5
:1003B800C5004F08B5005008B60089310D218131BC
:1003C8005308C4002F08C5004F08B5005008B600F0
:1003D80089310D2181312F08F5003008F6005708C2
:1003E800F9005808FA008931872181317018D62917
:1003F8000800713077020318003477080A3EF700C6
:1004080002300318013E8A007708820070340034F5
:1004180010340C340A348834223438342034083404
:1004280020341034103480348034403404340034A0
:10043800003400342834483446346C3400340034F2
:1004480000342834103400341034003440347C3400
:1004580000348434823430344E34783406346C3486
:100468000C34003400341034283400340434643438
:10047800F834FE347C34FE34FE34FE347C34FE34EE
:1004880000344034FE34FE34FE34FE347C34FE3412
:100498007C34FE344C3402347E343E347E34C634EC
:1004A8000E34C23400340434003408348034003448
:1004B8004034FE3470347034703410341034FE34E8
:1004C80000344034FE340034F834F8347034F834EE
:1004D8001034F8349034103478343834783488341C
:1004E80018348834003400340034203478347130BF
:1004F8007702031800347708883EF70002300318A3
:10050800013E8A00770882007034FE3438340A3499
:100518000634CC3466347C347034043440341034BB
:1005280038348834A23470341C34003400340E3427
:10053800FE345434263492340A3438348234103435
:100548001034A0341034C0342034A2348434C2347B
:10055800823428348A3494340234923492346C3499
:10056800AC3428342834823402349234243492341B
:100578008234823492341234823410348234803497
:1005880010348034043408348234123482341234FF
:100598009234023480344034803428341034A23405
:1005A800FE3408348234043480340234A83490345D
:1005B80088348834A834FC34A83410349034803417
:1005C80020348234083410348834283428341034E1
:1005D800A8347C348034403480345034A034C83457
:1005E80010340034823410344434713077020318E4
:1005F80000347708063EF70003300318013E8A00EE
:100608007708820070347C347C3400340034EE3453
:10061800EE347C34A834FE34FE34543454349434E8
:1006280094347C347C3400349E3400342834FE34D2
:100638001034AA340634443444347C347C34603472
:100648001034C03410349234FE34A2348A34243442
:100658008A349234E234923492346C346C344434B4
:1006680028344434A234F23422349234823482342A
:100678009234123492341034FE3482342834803464
:100688001834103482341234A23432349234FE34A2
:100698008034803470341034E0349234823410342E
:1006A8008234023480340434A8348834883488345A
:1006B800A8341234A8340834FA3488345034FE3458
:1006C800F03408348834283428340834A834903472
:1006D8008034803460342034A034A8346C34FE3440
:1006E8006C341034423471307702031800347708C0
:1006F800843EF70003300318013E8A007708820021
:1007080070343834FE340C340A34CC3466347C34D7
:1007180020340434403438341034A23488347034EB
:100728001C34003400340E34FE345434C834443499
:100738000034823438341034103400341034003427
:1007480008348A34803492349634FE348A349234AD
:100758001234923452340034003482342834283429
:10076800123482342434923482344434923412342D
:100778009234103482347E34443480340434203447
:100788008234123442345234923402348034403445
:100798008034283410348A3482342034FE340434CB
:1007A80080340834A834883488349034A834023427
:1007B800A834083480347A348834803408340834CF
:1007C8008834283430340834A834803440344034F1
:1007D80080345034A03498348234003410342034B7
:1007E800443471307702031800347708023EF7006A
:1007F80004300318013E8A007708820070341034F0
:1008080000340A3406348834223438343E34083408
:1008180020341034103480348034403404340034AC
:100828000034003428342434C434A0340034003470
:1008380000342834103400341034003404347C3448
:1008480000348C3462342034723460340E346C34A6
:100858003C34003400340034283410340C347C34F4
:10086800F8346C344434383482340234F434FE348A
:100878000034023482348034FE34FE347C340C3448
:10088800BC348C34643402347E343E347E34C63412
:100898000E34863400344034003408348034003454
:1008A800F03470344034FE34303404347834F03466
:1008B8000034003400340034F034F0347034103430
:1008C800F834103440344034F834383478348834C8
:1008D8007834883400340034003410347834C70154
:1008E800C801FF30E600E700E60A0319E70AAF305F
:1008F800660784002130673D850080016608F500A1
:100908006708F6007F30F900FA01893187218431C0
:100918007018782CE601E7010830EC00ED01D901E8
:100928006608DA008831002084318831F720843164
:100938007830CC0088319F2084314030CC00883119
:100948009F208431FF30C200C20A3108CC008831B0
:100958009F2084317F304202031CA82C4126ED1FC2
:10096800E02C6C09EA006D09EB00EA0A0319EB0AAE
:10097800203066022100A50000302000673B2100DE
:10098800A60001302502A7000030263BA800270852
:10099800F5002808F60020006A08F9006B08FA003C
:1009A800893187218431F009701CDF2C6C08E60737
:1009B8006D08E73D902CFE2C66081F3C2100A50021
:1009C800A901200067082100293BA6002508F50099
:1009D8002608F60020006C08F9006D08FA00893135
:1009E80087218431F009701CFE2C6C08E6076D081D
:1009F800E73D902CD901DA01883100208531DF01EB
:100A0800E10108003A03031D212D07302607C6001F
:100A180003302100A10003102000C60C2100A10B07
:100A28000F2D2C08200046020319212DC603210092
:100A38002C0820004602031D08004F08F500500846
:100A4800F6003C08F9003D08FA0089317521853126
:100A5800F009701C342D0130B100B201BC01BD0198
:100A68000F30A002A101A2012408D9002608DA004B
:100A78008831002085318831F72085317830CC00E5
:100A880088319F2085314030CC0088319F208531C6
:100A98002008F500B230F900893180218531F0094C
:100AA80070082100A50020002008F900CA30F500D0
:100AB800893180218531F009210025087005A700BA
:100AC800271C6B2D01302000A6020030A73B200018
:100AD800AC01AC0A2C03031D762D2008F700FD217C
:100AE800AE00992D02302C02031D7F2D2008F7003F
:100AF8007B22AE00992D03302C02031D882D20087F
:100B0800F700F922AE00992D04302C02031D912D17
:100B18002008F7007723AE00992D05302C02031D1D
:100B2800992D2008F700F523AE00A801A901AD0111
:100B3800AD0AA301AB0101303A02031C292EAB0A0E
:100B4800AA01E30101303A02031C242EE30A280813
:100B580026072100A90020002A08210029072000D3
:100B6800C5002E1CC92D210824072100A90020003A
:100B78002308210029072000C4004F08B5005008A9
:100B8800B60089310D218531DA2D2108240721008D
:100B9800A90020002308210029072000C4003108EB
:100BA800B5003208B60089310D218531AA0A23081B
:100BB80021072100A50000302000223D2100A600C9
:100BC80020003B08F5003A08F900EC2770082100DE
:100BD800A70020003A0821002702A9002903A7003E
:100BE8002508F5002608F6002708F900FA01200074
:100BF800893175218531701C202E21082407210098
:100C0800A9002000230821002907A500250A2000A3
:100C1800C400280826072100A90020002A0821006E
:100C28002907A50025032000C5003108B5003208B2
:100C3800B60089310D2186313A086302031CAA2DBA
:100C4800A30A3A082B02031CA32DAE0C3A08A807E6
:100C58000030A93D08302D02031C9C2D3A08A1073D
:100C68000030A23D05302C02031C6D2D4126B10138
:100C7800B2010130BC00BD01080021008E12220023
:100C88008E1221000E1222000E120230F000F00B1C
:100C98004B2E000021008E160230F000F00B522E71
:100CA80000000E160230F000F00B582E0000200055
:100CB8000800B101B2010130BC00BD010530BB0024
:100CC8000730B900B8010130BA00FF30F200F30173
:100CD80088313A208631AE30E5008A310A228631E1
:100CE8002E30E5008A310A228631D530E5008A3176
:100CF8000A2286318030E5008A310A228631A830FE
:100D0800E5008A310A2286311F30E5008A310A223D
:100D18008631D330E5008A310A228631E5018A31ED
:100D28000A228631E5018A310A2286318D30E500B2
:100D38008A310A2286311430E5008A310A22863146
:100D48002030E5008A310A2286311030E5008A31E8
:100D58000A228631A130E5008A310A228631C8305C
:100D6800E5008A310A228631DA30E5008A310A2222
:100D780086311230E5008A310A2286318130E50059
:100D88008A310A228631CF30E5008A310A2286313B
:100D9800D930E5008A310A228631F130E5008A31FE
:100DA8000A228631DB30E5008A310A22863140305A
:100DB800E5008A310A228631A430E5008A310A2208
:100DC8008631A630E5008A310A2286317324AF3095
:100DD800E5008A310A2A21000E168E162000CD0160
:100DE80008002100191799161916991199179E13B9
:100DF8001D1023008C018D018F0190012200931397
:100E0800911320008C018D018E018F019001080043
:100E1800E90121002A08F5002B08F6001030F90036
:100E28002730FA002000893187218731F009701CAA
:100E3800402F21002A08F5002B08F6001030F90091
:100E48002730FA0020008931BB218731750821003D
:100E5800A4007008AA007108AB002000E90A053058
:100E68006907840000302100A5002130253D850058
:100E7800303024078000502F21002A08F5002B0865
:100E8800F600E830F9000330FA00200089318721A4
:100E98008731F009701C732F21002A08F5002B08F0
:100EA800F600E830F9000330FA0020008931BB2150
:100EB800873175082100A4007008AA007108AB00EA
:100EC8002000E90A05306907840000302100A500E8
:100ED8002130253D8500303024078000822F2100F5
:100EE8002A08F5002B08F6006430F900FA01200002
:100EF800893187218731F009701CA42F21002A0825
:100F0800F5002B08F6006430F900FA012000893159
:100F1800BB21873175082100A4007008AA00710858
:100F2800AB002000E90A0530690784000030210081
:100F3800A5002130253D8500303024078000B32FDF
:100F480021002A08F5002B08F6000A30F900FA01FA
:100F58002000893187218731F009701CD42F2100A6
:100F68002A08F5002B08F6000A30F900FA012000DB
:100F78008931BB21873175082100A4007008AA00B7
:100F88007108AB002000E90A0530690784000030C9
:100F98002100A5002130253D850030302407800040
:100FA8002000E90A05306907840000302100A50007
:100FB8002130253D850030302A0780007008AA00BE
:100FC8007108AB00200069082300B5002000080064
:100FD800F00175087918F0070310F90C0310F50DE6
:080FE800F908031DED2F0800BC
:101000005A08DE0003302100A30003102000DE0C8C
:101010002100A30B052820302000D907B0305E073F
:10102000E5000A2288310F305905DC00DD015C083B
:10103000E5000A2288315908DC00DD010430210076
:10104000A30003102000DD0CDC0C2100A30B2128E1
:101050000F3020005C052100A500A60110302507F7
:101060002000DC0000302100263D2000DD005C086F
:10107000E5000A2AF30A0E30F100BD30F000F00B53
:101080003F28F10B3D28F20B3B28F30B3B280800CF
:10109000E830F2000330F3003A20F40B482808004F
:1010A0006E0884006F0885000008BE00BE080319A2
:1010B00008005F08BF006008C000C10101303E02A7
:1010C000031C9A28C10A3F08A4004008A500610833
:1010D000A6006208A70041086E07840000306F3D3B
:1010E00085000008A0003C08CF003D08D0008531F5
:1010F000062588313B08F5003A08F9008731EC27CE
:10110000883170082100A50020003F072100A700BA
:1011100000302000403D2100A800013027072000BA
:10112000BF0000302100283D2000C0003E084102E1
:10113000031C62283F08DF004008E000080021008F
:101140008E1222008E120230F000F00BA528000053
:1011500008302100A0002000CC1FB12821000E166D
:10116000B52821000E1222000E122000CC0D210005
:101170008E1620008E1EB9280230F000F00BBE281B
:10118000000021008E1222008E120230F000F00BBF
:10119000C72800002100A00BAB280530F000F00BA1
:1011A000CF280E160230F000F00BD42800008E1667
:1011B00020008E1ED8280E1EE028CA01CB01E4288C
:1011C000FF30CA00FF30CB0021008E1222008E12A9
:1011D0000230F000F00BEA28000021000E1222007D
:1011E0000E120530F000F00BF3282000080021005B
:1011F0000E168E160230F000F00BFC2800000E12C6
:1012000022000E120230F000F00B04290000210031
:101210008E1222008E12200008004508C6000330FE
:101220002100A20003102000C60C2100A20B1229ED
:101230002C0820004602031D25294508F50008302A
:10124000F900A7217008C5002629080001304407CD
:10125000E600E7010318E70AAF3066078400213093
:10126000673D85000008B70007304505B300351815
:101270003D29FE30B400031440290130B4000310AE
:1012800033082100A20003194A292000B40D2100CF
:10129000A20B452920003518512937083405B7001D
:1012A000542937083404B70021002C08F500083011
:1012B000F90020008731EC27893170082100A9004E
:1012C0002000C507AF30660784002130673D8500E8
:1012D0003708000203197429AF30660784002130F3
:1012E000673D8500370880000800F0017508790225
:1012F000031D080076087A02031D0800F0090800A3
:10130000F001031479087502031CF0090800F001CC
:1013100076087A02031C08007A087602031C9429D6
:101320007908750203180800F00908000008F500A4
:1013300081009D290008F500F607F508031908004B
:101340000131413100088100F50BA0290800F9089E
:1013500003190800F0010830F4000310F50DF00D3A
:101360007908F00275140318B82975107908F00788
:10137000F40BAD2908007508F7007608F800790825
:10138000FB007A08FC00F201F3017B08F5007C0801
:10139000F600F901FA017521701CD129F501F60159
:1013A00008001030F4000310F70DF80DF20DF30DE6
:1013B0007B08F2027C08F33B77140318E4297710CA
:1013C0007B08F2077C08F33DF40BD3297708F5007E
:1013D0007808F6007208F0007308F1000800FF2199
:1013E000F5008100F629FF21F500F607F50803193D
:1013F0000800FF2141318100F50BF9290800780828
:101400008A007708F70A0319F80A82000134303499
:1014100001343A34F7207830CC009F20CC019F2053
:0A1420006508CC009F208631412EA4
:020000040001F9
:04000E00A43FFF1EEE
:00000001FF
