:020000040000FA
:0400000006EF00F017
:020008001000E6
:10000C007FD801014991499349954997066A0001A6
:10001C0095D807C504F5320E045CD8B006D00101A2
:10002C0041914193419541974ED004C509F5310E4C
:10003C00056EB1D800C508F504C505F5640E096E4A
:10004C00AAD8085000140A6E0AA006D001014181FA
:10005C0041934195419737D004C509F5630E056E60
:10006C009AD800C508F504C505F5960E096E93D807
:10007C00085000140A6E0AA006D001014181418388
:10008C004195419720D004C509F5950E056E83D88E
:10009C0000C508F504C505F5C80E096E7CD80850D6
:1000AC0000140A6E0AA006D00101418141834185EA
:1000BC00419709D00450C808D8B005D0010141813E
:1000CC00418341854187640E026E036A00010AD8A0
:1000DC009DD70300FED7340E006E002EFED7052EE2
:1000EC00FAD71200032A810E016E280E006E002E24
:1000FC00FED7012EFAD7022EF6D7032EF4D7120014
:10010C000001600EAD6FAF6BB36BB06B600EAD6F7B
:10011C00080EB16FF86A0301F395F39F0401006BAD
:10012C00086B106B206B0001749F709F0101506B6A
:10013C00516B526B536B546B000112000301F3951E
:10014C0006C5ECF30652D8A402D0040100810301C9
:10015C00F399010EFA6FF3990F0EFA6FFA95FA9361
:10016C00FA81F395F39506C5ECF3F38F020E056E49
:10017C000001B1DF0301F3810000F3B1FED7F39F5F
:10018C000401006B086B106B206BEBC307F50301CC
:10019C00F39500011200006809500560006A120016
:020000040030CA
:0E000000E62D26C080C00000FFFFFFFEFF00BF
:00000001FF
