:020000040000FA
:10000000E3EF03F01200FFFF04EF04F01200FFFF24
:10001000FFFFFFFFFFFFFFFF0CEF04F01200FFFFE9
:10002000FFFFFFFFFFFFFFFFFFFF0100DE070000F4
:100030007E000000020000000001776B1E0E716E52
:100040000401400E096F200E0A6F040E0B6F880E1C
:10005000086F0401200E0E6F040E0F6F400E0C6F20
:100060001200550EA76EAA0EA76EA68212000401FA
:10007000226B010E236F12000001756B65D90AE235
:1000800070D90800F5CF76F0000157D976C0EFFFA0
:10009000752BF4D7F86A1200F00E04012217840EB3
:1000A000A66E0001756B50D90AE253D90F0E0001FC
:1000B00075150F0801E1D5DF0001752BF4D712008B
:1000C000940EA66E0001756B3FD911E27551006E5A
:1000D000016A060ED89000360136E804FBE1026A98
:1000E00001BE02681BD9BDDF0001752BEDD7F86A90
:1000F0001200A66A0001756B27D90BE20401225198
:1001000000017525A96EA68018D9A8CFEFFF752B21
:10011000F3D712000001756B17D910E204012251C8
:1001200000017525A96E09D9EF50A86E040EA66EC0
:1001300098DFA6B2FED70001752BEED71200C40ED1
:10014000A66E0001756B00D905E203D98ADF0001B4
:10015000752BF9D7F86A1200A0D8060E00017A5D57
:1001600003E36D50020B01E097D00001770511E128
:1001700004010CBF0DD00401400E096F400E0401B4
:1001800008170401087D880E040108130001776B2D
:1001900083D0040108BF80D00001756B0401205199
:1001A000320A45E0CD0A34E0F80A2DE0020A26E0E2
:1001B000010A1FE0070A18E0010A11E0030A0AE039
:1001C000070A08E0060A01E056D051DF0001040EDC
:1001D000756F52D051DF050E000175274DD05CDFE1
:1001E0000001010E756F48D06BDF0001010E756FC5
:1001F00043D07FDF050E000175273ED08BDF000165
:10020000010E756F39D09BDF0001010E756F34D080
:100210006D960001786B796B00017807000E795BB1
:1002200000017851791101E0F7D7FF0025D0030EC6
:100230000401215D0DE104012251010BF36EF3462F
:10024000F346FB0E8C14F3108C6E0001010E756FDB
:10025000040E0401215D0EE104012251010BF36E35
:10026000F346F346F346F70E8C14F3108C6E000140
:10027000010E756F01D000D00001010E776F0001F3
:1002800075510AE075C00DF4400E04010C1704010D
:100290000C7D880E04010C13120000017E517F11A9
:1002A00004E1200E7E6F4E0E7F6F7E07000E7F5B97
:1002B0006DA208D07E517F1130E18C708C50010B03
:1002C00013E128D000017A5102E18C9023D07A0505
:1002D00002E18C8009D0020E7A5D02E18C801AD096
:1002E000030E7A5D03E18C908C821200050E7A5D1C
:1002F00006E100017E517F1110E18C700BD0060EDB
:100300007A5D0BE100017E517F1107E18C708C500A
:10031000010B02E08C9212008C8212000401225127
:100320000024F36E23510120F46E24510220F86E54
:10033000F4CFF7FFF3CFF6FF12007551EA6A250FED
:10034000E96E040EEA221200040121510001755DDC
:100350001200F3DFEFCF03F004D803C0F5FF0C0069
:10036000120075C000F0016A026A8EEF01F06C5055
:1003700002E0000E01D0010E00090BE00401005163
:100380003C0BE842E8420D0802E1D2EF01F0DBEF5E
:1003900001F06C5002E0000E01D0010E040901E0F2
:1003A00019D812000001606B616B666B676BA6EC7D
:1003B00002F05DEF02F0020E0001605D09E15CD821
:1003C000040100BD02D0C80E01D0880E006F1200DB
:1003D00096EF02F0040E00017A5D09E112C46EFF8F
:1003E0006E50000802E2050E01D0030E7A6F000184
:1003F000600509E10AD8040104BD02D0C80E01D08D
:10040000880E046F120096EF02F00001080E665D80
:10041000000E675903E266C069F002D0080E696FEA
:1004200069C005F46951006E016A0050665F0150B1
:10043000675B180E646F040E656F69511CE0000164
:100440007BA307D062C0F6FF63C0F7FF0800F5503A
:1004500005D062C0E9FF63C0EAFFEF5064C0E9FF66
:1004600065C0EAFFEF6E0001622B000E6323642B70
:1004700065236907E2D7120001C46AF000016A51DE
:100480006625666F000E6721676F180E626F040E97
:10049000636F6A5111E062C0E9FF63C0EAFFEF5089
:1004A00064C0E9FF65C0EAFFEF6E642B000E6523B0
:1004B000622B63236A07EDD712000001615105E149
:1004C0003DD8840E006F04011DD0040110AF1CD074
:1004D000000166510401165D0001675104011759BE
:1004E00004E216C466F017C467F08FDF0001010E46
:1004F000606F24D8800E006F0401180E066F040E82
:10050000076FC80E046F10D00001020E606F040167
:10051000056BC80E046F0401080E016F180E026F00
:10052000040E036FC80E006F6D9812000001606B1F
:1005300005D8880E006F0401046B12000401080E38
:10054000016F100E026F040E036F120004011051B0
:10055000600BE842E842E842E842E842000901E074
:1005600012001151080A39E0010A35E00F0A0AE0C9
:10057000030A01E012000001010E616F0001040E88
:100580007A6F12000001010E616F0401130507E18B
:100590000001600E626F070E636F120E13D0020E21
:1005A000135D07E10001720E626F070E636F200E8C
:1005B00009D0030E135D0AE10001920E626F070E6F
:1005C000636F040E0001666F676B02D00001616B00
:1005D00000017B831200FBEF02F00001010E616F4E
:1005E00000017C0E626F000E636F00017B930001BF
:1005F000010E666F12000001010E616F12C47CF0E3
:100600000401125104E10001050E7A6F120000018D
:10061000060E7A6F1CEF00F0080E6D6E6DBAFED7F5
:10062000686A110E696E0001020E7A6F120068503E
:10063000040B06E06950040B03E06D926994689422
:100640006850010B04E06950010B01E027D86850A5
:10065000100B09E06950100B06E0698468986D8200
:10066000A08A0300A19A6850200B09E06950200B72
:1006700006E070A003D096EC02F07090689A030E2A
:1006800000017A5D01E209D06850080B06E069506C
:10069000080B03E0B7EC01F068961200686A7B0E65
:1006A000696E6E6A160E706E68A602D06896FCD7E8
:1006B0006D9896EC02F000017C6B0001030E7A6FDE
:1006C00012002A0EF66E000EF76E000EF86E000194
:1006D0000900F550706F0900F550716F03E1706704
:1006E00001D03DD00900F5506B6F0900F5506C6FDB
:1006F0000900F5506D6F09000900F550E96E090019
:10070000F550EA6E090009000900F5506E6F090006
:10071000F5506F6F09000900F6CF72F0F7CF73F054
:10072000F8CF74F06BC0F6FF6CC0F7FF6DC0F8FF38
:1007300000016E5302E16F5307E00900F550EE6EC1
:100740006E07F8E26F07F9D772C0F6FF73C0F7FFC4
:1007500074C0F8FF00017007000E715BBFD7120074
:100760001201000200000008D8040B000000000085
:10077000000109022000010100803209040000028A
:10078000000000000705010240000007058102404B
:10079000000004030904C1CF80F00F0EC11281A82C
:1007A00004D080C0C1FF00EF04F0F00E8C16F00EF4
:1007B0009516140E6F6E0CEC03F017EC03F0ACEC16
:1007C00000F0FBD7120013EE00F023EE00F0F86A01
:1007D000059C61EC03F0CBEC03F0FDD712000000A8
:1007E000FFFFFFFFFFFFFFFFFFFFFFFFFFFFFFFF19
:1007F000FFFFFFFFFFFFFFFFFFFFFFFFFFFFFFFF09
:10080000BEEF0CF01200FFFF1200FFFFFFFFFFFF23
:10081000FFFFFFFFFFFFFFFF1200FFFFFFFFFFFFD4
:10082000FFFFFFFFFFFFFFFFFFFF01009E1900001A
:100830000801000002000000F00E8C169516938847
:10084000938A8150100B01E0010E0001606F81500E
:10085000200B01E0010E616F99EC09F09280010E0E
:10086000C26E3C0EC06EC08E37D80001646B970E0E
:10087000D56E12002AD9060E0001F95D03E36D5012
:10088000020B01E028D031D80001640524E1F2A474
:1008900022D0F294480ED76EE50ED66EACEC09F07D
:1008A000000919E00001A551E96EEA6AD890E9361D
:1008B000EA36A70EE926000EEA22E3C0EEFFE4C006
:1008C000EDFF1E0EA65D01E2A62B1D0EA55D02E149
:1008D000A56B01D0A52B12000001A56BA66B120021
:1008E000C282C2B2FED700D01200D9CFE6FFE1CF5C
:1008F000D9FFE652400EE66E650EE66E000EE66E1D
:100900006FEC0BF0E552E552E552000901E1D8D059
:100910000001626B00016551FF0A01E1BDD0C80A08
:1009200001E1B1D0010A76E0030A6CE0010A5EE061
:10093000070A55E0010A2EE0030A0CE0310A01E043
:10094000ADD00001676B0001010E686F0001040E5D
:10095000626FA5D00001010E626F0001665103E1D4
:100960008C948C9616D00001660503E18C948C86DD
:1009700010D0020E0001665D03E18C848C9609D0D4
:10098000030E0001665D03E18C848C8602D00001B9
:10099000626B85D0030E0001665D0EE100016751B8
:1009A000010BF36EF346F346FB0E8C14F3108C6EC2
:1009B0000001010E626F12D0040E0001665D0EE1AF
:1009C00000016751010BF36EF346F346F346F70E51
:1009D0008C14F3108C6E0001010E626F60D0000168
:1009E000646B7ADF0001010E626F59D0ACEC09F044
:1009F000000907E0E3C066F0E4C067F00001030E01
:100A0000626F4DD00001010E646F66DF0001010EC0
:100A1000626F45D00001A651E824020F0001626F09
:100A20000001A651E8240001666FA6C0DFFFDF5079
:100A3000000827E20001A55104E100011D0EA56F89
:100A400002D00001A5070001A551E96EEA6AD8901D
:100A5000E936EA36A70EE926000EEA22EECF10F0BC
:100A6000EFCF11F0EA6ADF34FE0BEA36E96E650E6D
:100A7000E926000EEA2210C0EEFF11C0EDFFDF06EE
:100A8000D6D72ADF0CD02CDFC3CF66F0C4CF67F0F7
:100A90000001030E626F03D0FF0001D000D00001FF
:100AA00062510EE004010CBF0BD062C0E6FF650E80
:100AB000E66E000EE66E35EC0BF0E552E552E552BF
:100AC000E552E552E7CFD9FF1200010108510911A3
:100AD00004E1100E086F270E096F0807000E095B6E
:100AE0006DA20BD00851091107E18C708C50010BDD
:100AF00002E08C8201D08C9230D00001F95104E1E7
:100B00008C908C925ED829D0F90503E18C808C8280
:100B100024D0020EF95D03E18C808C921ED0030E6E
:100B2000F95D03E18C908C8218D0050EF95D07E128
:100B300001010851091102E18C708C920ED0060E51
:100B4000F95D0BE101010851091107E18C708C502E
:100B5000010B02E08C9201D08C8212008150100BAC
:100B600001E0010E0001605D09E08150100B01E021
:100B7000010E606F81B802D0010E02D0000E00D0CD
:100B800012008150200B01E0010E0001615D09E0BF
:100B90008150200B01E0010E616F81BA02D0010E7D
:100BA00002D0000E00D01200D9CFE6FFE1CFD9FF6E
:100BB000ACA2FED7FE0EDB50AD6EE552E7CFD9FFFB
:100BC0001200D9CFE6FFE1CFD9FFE652C7DF000917
:100BD00001E1D3D08C80C2DF000901E1FCD78C9009
:100BE0008C82CFDF000901E1FCD78C928C84C9DFB5
:100BF000000901E1FCD78C948C86C3DF000901E178
:100C0000FCD78C96C66A948E949C710EAF6E020EC1
:100C1000B06E240EAC6E900EAB6E080EB86EAE5079
:100C2000DF6EAE50DF6EADDF000901E1FCD7520E82
:100C3000E66EBADFE552530EE66EB6DFE5522D0ED4
:100C4000E66EB2DFE552320EE66EAEDFE552330EEF
:100C5000E66EAADFE552320EE66EA6DFE552200E02
:100C6000E66EA2DFE552540EE66E9EDFE552580EA8
:100C7000E66E9ADFE552200EE66E96DFE552540EE0
:100C8000E66E92DFE552650EE66E8EDFE552730E7C
:100C9000E66E8ADFE552740EE66E86DFE552200EC0
:100CA000E66E82DFE5524F0EE66E7EDFE5524B0EBA
:100CB000E66E7ADFE5522C0EE66E76DFE552200E08
:100CC000E66E72DFE552500EE66E6EDFE552720E92
:100CD000E66E6ADFE552650EE66E66DFE552730E7C
:100CE000E66E62DFE552730EE66E5EDFE552200EC1
:100CF000E66E5ADFE552220EE66E56DFE552720EC0
:100D0000E66E52DFE552220EE66E4EDFE5522C0E05
:100D1000E66E4ADFE5529EAAFED7720EAE5C2CE16B
:100D2000200EE66E41DFE552520EE66E3DDFE552E3
:100D3000580EE66E39DFE552200EE66E35DFE552DD
:100D4000540EE66E31DFE552650EE66E2DDFE5529C
:100D5000730EE66E29DFE552740EE66E25DFE5526E
:100D6000200EE66E21DFE5524F0EE66E1DDFE552E6
:100D70004B0EE66E19DFE5525FDDE552E552E7CF37
:100D8000D9FF120004011851600BE842E842E84222
:100D9000E842E842000901E055D01951070A51E044
:100DA0000B0A4FE0070A40E0010A2CE00B0A28E09A
:100DB000020A26E0030A22E0080A12E0010A0EE015
:100DC0000F0A0AE0030A01E03CD00101010E016FA5
:100DD0000001040EF96F36D036D834D090D832D016
:100DE0000101010E016F0101FB0E026F000E036F86
:100DF0000001FA930101010E066F24D0A8D822D079
:100E0000F6D820D00101010E016F04011C5101012F
:100E1000026F036BFC0E0227000E03230001FA93FE
:100E20000101010E066F0ED00101010E016F0401D8
:100E30001C51EA6AFC0FE96E000EEA221AC4EFFFA9
:100E400001D000D01200800E0401185D57E11B5143
:100E5000030A34E0010A10E0030A01E04DD0010169
:100E6000010E016F01015E0E026F170E036F120E6D
:100E70000101066F076B40D00101010E016F0401F3
:100E80001A51F66EF76AD890F636F7360C0EF6263B
:100E9000180EF7220900F5CF02F10A00F5CF03F191
:100EA000020E0101F76A0225F66E0351F7220900CE
:100EB000F5CF06F10A00F5CF07F11ED00101010EB2
:100EC000016F04011A51F66EF76AD890F636F736BC
:100ED000100EF626180EF7220900F5CF02F10A00CF
:100EE000F5CF03F102C1F6FF03C1F7FF0800F5508B
:100EF0000101066F076B00D00001FA8312000101A7
:100F0000010E016F0F0EE66E710EE66E0F0EE66EAD
:100F10000BEC0BF0E552E552E552010EE66EFC0ECD
:100F2000E66E000EE66E0BEC0BF0E552E552E55274
:100F30001AC4FBF004011A5104E10001050EF96F17
:100F400005D00001060EF96F20EC0BF01200040131
:100F5000206B216B040118511F0B020A16E0030AD3
:100F600010E0010A01E035D00101010E016F80A4FB
:100F700002D0040120810001FAA102D004012083E3
:100F800028D00101010E016F24D00101010E016F73
:100F900004011C510F0B080DF350116A000F106E65
:100FA000040E11221C51800B01E0010E040DF350C0
:100FB00001011024046F000E1120056F04C1E9FF28
:100FC00005C1EAFFEF50040B03E00401010E206F9E
:100FD00000D0010101050AE10101200E026F040E9B
:100FE000036F0001FA930101020E066F1200040163
:100FF0001A0510E118511F0B00090CE10101010E47
:10100000016F030E0401195D03E10001FA8102D0B2
:101010000001FA9104011A513AE118511F0B02081C
:1010200036E11C510F0B000932E00101010E016F86
:1010300004011C510F0B080DF350116A000F106EC4
:10104000040E11221C51800B01E0010E040DF3501F
:1010500001011024046F000E1120056F030E04011E
:10106000195D07E1840E04C1E9FF05C1EAFFEF6ED7
:101070000ED01CAF06D004C1E9FF05C1EAFFEF6A3C
:1010800006D0880E04C1E9FF05C1EAFFEF6E120029
:101090006C5002E0000E01D0010E00090BE00401CB
:1010A00000513C0BE842E8420D0802E10CD801D0A7
:1010B0001CD808D06C5002E0000E01D0010E0409CB
:1010C00001E023D81200D9CFE6FFE1CFD9FFE652E5
:1010D0000101006B016B066B076BC2EC06F0D5D803
:1010E000E552E552E7CFD9FF1200020E0101005D83
:1010F0000AE192D8040100BD03D0C80E006F02D0EF
:10110000880E006F01D007D91200040E0001F95DAE
:101110000AE11AC46EFF6E50000803E2050EF96F73
:1011200002D0030EF96F010100050AE10BD804019A
:1011300004BD03D0C80E046F02D0880E046F01D026
:10114000EAD81200D9CFE6FFE1CFD9FF020EE1269F
:101150000101080E065D000E075905E206C1DEFF1B
:1011600007C1DDFF03D0080EDE6EDD6A04010493C3
:101170000491010EDB500413DFCF05F4000EDB50A9
:101180000101065F010EDB50075B200E046F040EA9
:10119000056F0001FAA31ED0D9CFE9FFDACFEAFF2D
:1011A000EE50ED1016E002C1F6FF03C1F7FF080094
:1011B000F55004C1E9FF05C1EAFFEF6E0101042B00
:1011C000000E0523022B0323DF06010E01E2DB06DE
:1011D000E3D71CD0D9CFE9FFDACFEAFFEE50ED100C
:1011E00015E002C1E9FF03C1EAFFEF5004C1E9FFC6
:1011F00005C1EAFFEF6E0101042B000E0523022B4F
:101200000323DF06010E01E2DB06E4D7D9CFE1FFBD
:10121000E552E7CFD9FF1200D9CFE6FFE1CFD9FFE2
:10122000020EE126030E04010015E76E010EE7CF62
:10123000DBFF01C4DFFFDE5001010627DD5007237D
:10124000200E026F040E036FD9CFE9FFDACFEAFF59
:10125000EE50ED1014E002C1E9FF03C1EAFFEF50C8
:1012600004C1E9FF05C1EAFFEF6E042B000E052360
:10127000022B0323DF06010E01E2DB06E5D7D9CFFF
:10128000E1FFE552E7CFD9FF1200010101510CE166
:101290000401080E016F180E026F040E036F840E16
:1012A000006F0401046F35D0040118AF22D0010192
:1012B000065104011E5D0101075104011F5904E29A
:1012C0001EC406F11FC407F13DDF0101010E006FCE
:1012D0000401080E016F180E026F040E036F800EDA
:1012E000006F0401200E066F040E076FC80E046F16
:1012F00010D00101020E006F0401056BC80E046FCF
:101300000401080E016F200E026F040E036FC80E59
:10131000006F6D9812000101006B0401080E016F4F
:10132000180E026F040E036F880E006F0401046B29
:1013300012008A849394E66A030EE66E020EE66E4D
:101340005AEC0CF0E552E552E5520001870EE36FCE
:101350000C0EE46FBDEF09F08A94CAEC0CF00001AA
:10136000E46FCAEC0CF00001E36F8A84E3B502D0AD
:10137000000E02D0010E00D01200D9CFE6FFE1CF5F
:10138000D9FF030EE126E3C010F0E4C011F0D890BD
:1013900011321032E804FBE110C0DEFF11C0DDFFA6
:1013A000D950010FE96EDACFEAFFEF50100B08E1D8
:1013B000010EDB9ADB9CDB9E00012B0EE56F16D045
:1013C000010EDB8ADB8CDB8E00012D0EE56FDECF9C
:1013D00010F0DDCF11F0FF0E101A111A10C0DEFF51
:1013E00011C0DDFFDF2A010E01E3DB2ADECF10F0A2
:1013F000DDCF11F00A0E1102F3CF11F01002F3CF7E
:1014000010F0F4501126040ED89011321032E80476
:10141000FBE110C0DEFF11C0DDFF040EF36E020E13
:10142000F3CFDBFFDB50000833E2DECF10F0DDCF7F
:1014300011F00A0E0B6E0C6A10C006F011C007F016
:10144000A8EC0CF002C010F003C011F00F0E101445
:101450003009E66E020EDB50EA6AE50FE96E000E17
:10146000EA22E552E750EF6ED9CFE9FFDACFEAFF83
:101470000A0E0B6E0C6AEECF06F0EDCF07F0A8EC6B
:101480000CF006C0EEFF07C0EDFF020EDB06CAD768
:10149000300E0001E65D07E1200EE66F300EE75DDD
:1014A00002E1200EE76FE9C0EAF02E0EE96FF80EB8
:1014B000EB6F430EEC6F0D0EED6FEE6BD9CFE1FFCE
:1014C000E552E7CFD9FF120080A203D06DA60FD856
:1014D00002D06DB613D80001F90508E16DBA06D047
:1014E000686A696A69806988020EF96F12006D6A1C
:1014F000696A6D860001010EF96F12006D6A696AF2
:101500000001F96B12007EEF0AF00001F95101E1D0
:101510003AD06850040B04E06950040B01E038D85D
:101520006DB231D06850010B04E06950010B01E04D
:1015300050D86850100B04E06950100B01E024D81B
:101540006850400B04E06950400B01E037D8685008
:10155000200B04E06950200B01E032D86850020BE8
:1015600004E06950020B01E032D8030E0001F95D7E
:1015700001E209D06850080B06E06950080B03E04F
:1015800048EC08F068961200698468986D82120031
:101590006D926994689412000001FAA10ED0F8DFF0
:1015A0006D840001080EFD6F070EFE6FFD07000E33
:1015B000FE5BFD51FE11FAE16D941200689C120071
:1015C00070A003D08BEC09F07090689A12006892BA
:1015D00012006A6A686A9F0E6B6E7B0E696E6E6A95
:1015E0000F0EE66E710EE66E0F0EE66E14D8E55223
:1015F000E552E552160E706E68A602D06896FCD7CA
:101600006D988BEC09F00001FA910001FB6B000171
:10161000030EF96F1200D9CFE6FFE1CFD9FFFD0E1F
:10162000DBCFE9FFFE0EDBCFEAFFFC0EDB5004E070
:10163000EE6AFC0EDB06F9D7E552E7CFD9FF1200C0
:101640000001FF6B1E0E716E0401400E096F280E23
:101650000A6F040E0B6F880E086F0401680E0E6F80
:10166000040E0F6F400E0C6F1200D9CFE6FFE1CFD2
:10167000D9FFE652FC0EDB50400805E2400EF36E47
:10168000FC0EF3CFDBFFDF6AFC0EDB50DF5C19E200
:10169000DF50E76EFD0EDBCFE9FFFE0EDBCFEAFF8A
:1016A000E750E926000EEA22EF50E66EDF50EA6AC4
:1016B000680FE96E040EEA22E552E750EF6EDF2A6A
:1016C000E3D7FC0EDBCF0DF4400E04010C170C7DAC
:1016D000880E0C13E552E552E7CFD9FF1200D9CF9F
:1016E000E6FFE1CFD9FF0001FF6B040108BF30D056
:1016F000FC0EDBCF10F00951D880105403E2FC0E31
:1017000009C4DBFF0001FF6BFC0EDB50FF5D19E23B
:10171000FF51EA6A280FE96E040EEA22EF50E66EE6
:10172000FF51E76EFD0EDBCFE9FFFE0EDBCFEAFFD8
:10173000E750E926000EEA22E552E750EF6EFF2B54
:10174000E3D70401400E096F0817087D880E0813BF
:101750000001FF5100D0E552E7CFD9FF120012017E
:10176000000200000008D8040C0000000102000183
:10177000090220000101008032090400000200007B
:1017800000000705010340002007058103400020F9
:101790000403090434034D006900630072006F0004
:1017A0006300680069007000200054006500630059
:1017B00068006E006F006C006F0067007900200009
:1017C00049006E0063002E004403500049004300AE
:1017D000440045004D002000460053002000550005
:1017E000530042002000440065006D006F0020009F
:1017F00042006F0061007200640020002800430076
:1018000029002000320030003000340070177017BB
:1018100090179417C8172A0EF66E080EF76E000E72
:10182000F86E00010900F550F46F0900F550F56FEE
:1018300003E1F46701D03DD00900F550EF6F0900D6
:10184000F550F06F0900F550F16F09000900F550EF
:10185000E96E0900F550EA6E090009000900F5502B
:10186000F26F0900F550F36F09000900F6CFF6F0AA
:10187000F7CFF7F0F8CFF8F0EFC0F6FFF0C0F7FFC2
:10188000F1C0F8FF0001F25302E1F35307E0090051
:10189000F550EE6EF207F8E2F307F9D7F6C0F6FF5F
:1018A000F7C0F7FFF8C0F8FF0001F407000EF55B82
:1018B000BFD71200D9CFE6FFDACFE6FFE1CFD9FFDD
:1018C000E2CFDAFF3F0EC716C66AFD0EDB50C61226
:1018D000FB0EDB50C712FC0EDB50030A09E0010AC5
:1018E00004E0020A06E1C78C04D0C78CC68801D088
:1018F000C688FD0EDB50050A03E0010A04E1928A66
:101900009382C79E01D09392949E9380C68AE5529B
:10191000E5CFDAFFE7CFD9FF120005D812D83AECAD
:1019200004F0FCD712000F0EC11292829284140EA2
:101930006F6E0001F96B0001FA6B0001FB6B1CEF8D
:1019400004F064EC0AF06FBE02D085EC0AF01200DD
:10195000036A026A100EE76ED89006360736023622
:1019600003360B50025C0C50035805E30B50025E2B
:101970000C50035A062AE72EF0D7120013EE00F09F
:1019800023EE00F0F86A0F9C0BEC0CF08DEC0CF0E1
:10199000FDD71200C96AC7A0FED7C95012000000C7
:1019A000FFFFFFFFFFFFFFFFFFFFFFFFFFFFFFFF47
:1019B000FFFFFFFFFFFFFFFFFFFFFFFFFFFFFFFF37
:1019C000FFFFFFFFFFFFFFFFFFFFFFFFFFFFFFFF27
:1019D000FFFFFFFFFFFFFFFFFFFFFFFFFFFFFFFF17
:020000040030CA
:0E000000240E3F1E008181000FC00FA00F4094
:020000040020DA
:08000000FFFFFFFFFFFFFFFF00
:00000001FF
