:020000040000FA
:060000008A110A12052816
:100008000900F025B2258A110A126330A900AA0155
:10001800F53083160313C400FF30C50083120313A1
:100028002908F5002A08F6000A30F900FA018A15AD
:100038000A16B3238A110A12750883160313D90006
:100048007608DA005908F5005A08F600F901FA01AD
:10005800831203138A150A16FB228A110A12701CCE
:10006800402883160313E601E701FF30E400E500AA
:10007800831203139B23572883160313E601E70112
:10008800831203132908F5002A08F6000A30F9003C
:10009800FA01C427750883160313E4007608E500FF
:1000A800831203139B23303083160313E600E70102
:1000B800831203132908F5002A08F6000A30F9000C
:1000C800FA01C427700883160313E4007108E500D9
:1000D800831203139B232908F5002A08F6000A3027
:1000E800F900FA018A150A16B3238A110A1275084B
:1000F80083160313D9007608DA005908F5005A0860
:10010800F600F901FA01831203138A150A16FB2275
:100118008A110A12701C9B2883160313E601E70153
:10012800FF30E400E500831203139B23B2288316F3
:100138000313E601E701831203132908F5002A08CF
:10014800F6000A30F900FA01C4277508831603136C
:10015800E4007608E500831203139B2330308316EE
:100168000313E600E701831203132908F5002A08A0
:10017800F6000A30F900FA01C42770088316031341
:10018800E4007108E500831203139B230230BF00CB
:10019800623083160313B100B2012030B300B401FA
:1001A80083120313290883160313A200831203136F
:1001B8002A0883160313A300A001A1016330FE00DF
:1001C800FF01AC01AD010930AA00AB018312031392
:1001D800EE01EF018A110A166C258A110A1283169C
:1001E8000313370883120313D00083160313380848
:1001F80083120313D100D201D3018A110A16902267
:100208008A110A125E30E400E5012C30E800E901A9
:100218006030E600E7012A30EA00EB014108D4002B
:100228004208D5008A110A1600208A110A120130E4
:10023800BF00290883160313E100831203138A15EC
:100248000A165F228A150A1611228A150A16CE2264
:100258008A150A1638228A110A12290883160313E6
:10026800A200831203132A0883160313A300A00114
:10027800A1016330FE00FF01AC01AD014630AA00C8
:10028800AB0183120313EE01EF018A110A166C25E4
:100298008A110A12831603133708E1008312031325
:1002A8008A110A16E0258A110A129030F2000130EC
:1002B800F3008A150A1608208A110A1283160313F6
:1002C800C51FA2294409C2004509C300C20A03196F
:1002D800C30A831203130030290283160313D900BB
:1002E800831203132A0883160313DA000030031C51
:1002F8000130DA025908F5005A08F6004208F900F8
:100308004308FA00831203138A150A1620238A1158
:100318000A12F009701CA1298316031344088312DA
:100328000313A9078316031345080318450A03197D
:10033800A02983120313AA070C28D52983120313B3
:100348002908003C83160313D900831203132A08D3
:10035800031C2A0F003C83160313DA005908F50022
:100368005A08F6004408F9004508FA0083120313F6
:100378008A150A1620238A110A12F009701CD52939
:1003880083160313440883120313A9078316031360
:1003980045080318450A0319D42983120313AA0729
:1003A8000C28290983160313AE00831203132A09A4
:1003B80083160313AF00013083120313A0008A15BC
:1003C8000A16E3218A110A128316031335088312C9
:1003D8000313A900AA01290883160313A200831294
:1003E80003132A0883160313A300A001A101FE30FA
:1003F800FE00FF01AC01AD014630AA00AB0183123B
:100408000313EE01EF018A110A166C258A110A12EC
:1004180083160313370883120313A90083160313E3
:10042800380883120313AA00831603132E08F50055
:100438002F08F600831203132908F9002A08FA0086
:100448008A150A16FB228A110A12F009701C052B5C
:10045800290883160313AE00831203132A08831690
:100468000313AF00831203132908F5002A08F600C6
:100478000A30F900FA018A150A16B3238A110A12FA
:10048800750883160313D9007608DA005908F500B1
:100498005A08F600F901FA01831203138A150A169D
:1004A800FB228A110A12701C642A83160313E601C0
:1004B800E701FF30E400E500831203139B237B2A46
:1004C80083160313E601E701831203132908F500D5
:1004D8002A08F6000A30F900FA01C42775088316BD
:1004E8000313E4007608E500831203139B233030DE
:1004F80083160313E600E701831203132908F500A6
:100508002A08F6000A30F900FA01C4277008831691
:100518000313E4007108E500831203139B230230E0
:10052800BF00623083160313B100B2012030B3005C
:10053800B40183120313290883160313A20083123C
:1005480003132A0883160313A300A001A101463050
:10055800FE00FF01AC01AD010930AA00AB01831216
:100568000313EE01EF018A110A166C258A110A128B
:1005780083160313370883120313D000831603135B
:10058800380883120313D100D201D3018A110A1645
:1005980090228A110A125E30E400E5012C30E8004E
:1005A800E9016030E600E7012A30EA00EB01410882
:1005B800D4004208D5008A110A1600208A110A12AE
:1005C8000130BF00290883160313E10083120313C7
:1005D8008A150A165F228A150A1611228A150A1622
:1005E800CE228A150A1638228A110A122908831679
:1005F8000313E100831203138A110A16E0258A11F6
:100608000A12DF296300062B8316031346088400A9
:10061800831347188317000883120313C300C30802
:1006280003190800400883160313B0003108831229
:100638000313C40083160313320883120313C5007F
:10064800C60101304302031C8C2BC60A4408A400CF
:100658004508A50083160313330883120313A60065
:1006680083160313340883120313A700460883165E
:10067800031346078400831347188317000883125F
:100688000313A1004108D4004208D5008A110A16B4
:1006980075218A110A124008F5003F08F9008A15E9
:1006A8000A16EB238A110A12700883160313DD0059
:1006B80083120313440783160313D9008312031309
:1006C800450883160313DA00003003180130DA07EF
:1006D800831203133F08831603135907DD005A08D2
:1006E800DE00003003180130DE0701305D0283129E
:1006F8000313C400831603135E0883120313C50093
:100708000030031C0130C50243084602031C292B94
:10071800440883160313B100831203134508831694
:100728000313B200300883120313C000080001301D
:10073800B000B101FF3083160313BA00BB00FF30CD
:10074800BE00BF00FF30BC00BD00E201E30183161C
:1007580003133E08F5003F08F600F901FA01831279
:1007680003138A150A16FB228A110A12F009701C53
:10077800AF2D831603136408F5006508F600FF30F3
:10078800F900FA00831203138A150A16FB228A114C
:100798000A12701CD92B203083160313BE000130B7
:1007A800BF0083120313BA01692D8316031364086B
:1007B800F5006508F600F901FA01831203138A159A
:1007C8000A16FB228A110A12701C002C3008F70046
:1007D8008A150A1675268A110A1283160313BE0093
:1007E800BF0183120313300AF7008A150A1675260B
:1007F8008A110A12BA00692D831603136408F500DA
:100808006508F6000130F900FA01831203138A150E
:100818000A16FB228A110A12701C282C3008F700CD
:100828008A150A1668258A110A1283160313BE0050
:10083800BF0183120313300AF7008A150A166825C8
:100848008A110A12BA00692D831603136408F50089
:100858006508F6000230F900FA01831203138A15BD
:100868000A16FB228A110A12701C502C3008F70055
:100878008A150A1640268A110A1283160313BE0027
:10088800BF0183120313300AF7008A150A1640269F
:100898008A110A12BA00692D831603136408F50039
:1008A8006508F6000330F900FA01831203138A156C
:1008B8000A16FB228A110A12701C782C3008F700DD
:1008C8008A150A160F268A110A1283160313BE0008
:1008D800BF0183120313300AF7008A150A160F2680
:1008E8008A110A12BA00692D831603136408F500E9
:1008F8006508F6000430F900FA01831203138A151B
:100908000A16FB228A110A12701CA02C3008F70064
:100918008A150A16F2248A110A1283160313BE00D6
:10092800BF0183120313300AF7008A150A16F2244E
:100938008A110A12BA00692D831603136408F50098
:100948006508F6000530F900FA01831203138A15C9
:100958000A16FB228A110A12701CC82C3008F700EC
:100968008A150A16BD248A110A1283160313BE00BB
:10097800BF0183120313300AF7008A150A16BD2433
:100988008A110A12BA00692D831603136408F50048
:100998006508F6000630F900FA01831203138A1578
:1009A8000A16FB228A110A12701CF02C3008F70074
:1009B8008A150A16D8258A110A1283160313BE004F
:1009C800BF0183120313300AF7008A150A16D825C7
:1009D8008A110A12BA00692D831603136408F500F8
:1009E8006508F6000730F900FA01831203138A1527
:1009F8000A16FB228A110A12701C182D3008F700FB
:100A08008A150A16A3258A110A1283160313BE0033
:100A1800BF0183120313300AF7008A150A16A325AB
:100A28008A110A12BA00692D831603136408F500A7
:100A38006508F6000830F900FA01831203138A15D5
:100A48000A16FB228A110A12701C402D3008F70082
:100A58008A150A1680248A110A1283160313BE0007
:100A6800BF0183120313300AF7008A150A1680247F
:100A78008A110A12BA00692D831603136408F50057
:100A88006508F6000930F900FA01831203138A1584
:100A98000A16FB228A110A12701C682D3008F7000A
:100AA8008A150A162F258A110A1283160313BE0007
:100AB800BF0183120313300AF7008A150A162F257F
:100AC8008A110A12BA00692DAF2D0230B007003022
:100AD80003180130B107831603133E08D5003F08F9
:100AE800D6005508F5005608F6000130F900FA015D
:100AF800831203138A150A1648238A110A127018DA
:100B0800972D83160313D508031DD60A83120313E2
:100B18008A110A16BF208A110A1283160313D50BED
:100B28008A2DD60B8A2D831603133E08F5003F083D
:100B3800F6002030F9000130FA00831203138A15F9
:100B48000A16FB228A110A12701CAE2D8316031393
:100B5800BE01BF01AB2B86120612080083160313D1
:100B680086118713061186120612071183120313C2
:100B780007110130F200F3018A150A1608208A11BC
:100B88000A1207150130F200F3018A150A16082027
:100B98008A110A128616061686113F30CF008A156A
:100BA8000A16A4208A110A12C030CF008A150A1624
:100BB800A4208A110A1286120612B401B501013066
:100BC800C100C2010530C000BD010130BF000730BF
:100BD800BE008A150A164A28831603139F13831228
:100BE80003131F10831603139F111F159F141F1043
:100BF80007309C0083120313850186018701880151
:100C0800890108007708F5007808F600A530F90092
:100C18000130FA008A150A1620238A110A12701C5C
:100C2800003477081F3EF70006300318013E7807A6
:100C38008A0077088200A5340134003401345E3418
:100C48000334063400340634053428347C3428341C
:100C58007C342834053424342A347F342A3410343C
:100C68000334623418344634053430344C345A343E
:100C7800243450340134063402343C3442340234CF
:100C880042343C340534283410347C34103428344D
:100C980003341034383410340134C034033410347D
:100CA80010341034013440340334603418340634BA
:100CB80004343C34423442343C34033444347E34C7
:100CC800403404344434623452344C3403344A34A7
:100CD8004A34343404341E3410347C34103403342D
:100CE8004E344A34323404343C344A344A3430348E
:100CF8000334623412340E34043434344A344A34FB
:100D0800343404340C34523452343C3401344834CE
:100D180002348034683403341034283444340334BF
:100D28002834283428340334443428341034033421
:100D3800023452340C340534383444345434543482
:100D4800583404347C34123412347C3404347E3401
:100D58004A344A34343404343C344234423424343B
:100D680004347E34423442343C3403347E344A34CE
:100D78004A3403347E340A340A3404343C3442346A
:100D88005234343404347E34083408347E34033422
:100D980042347E3442340334423442343E340434E0
:100DA8007E3408341434623403347E34403440349E
:100DB80005347E340434083404347E3405347E34F7
:100DC8000434183420347E3404343C3442344234FD
:100DD8003C3404347E34123412340C3404343C343D
:100DE80042344234BC3404347E34123412346C3409
:100DF800043444344A344A343034033402347E34BC
:100E0800023404343E34403440343E34053406342D
:100E1800183460341834063405343E3440343E34D3
:100E280040343E34053442342434183424344234B3
:100E380004349E34A034A0347E34043462345234F2
:100E48004A34463402347E34423403340634183487
:100E58006034023442347E34033420341034203475
:100E680004348034803480348034023404340834C8
:100E78000434203454345434783404347E344434C0
:100E8800443438340434383444344434283404344E
:100E98003834443444347E34043438345434543488
:100EA800583402347C340A3404349834A434A434D6
:100EB8007C3404347E3404340434783401347A3491
:100EC800023440343A3404347E3410342834443400
:100ED80001347E3405347C34043478340434783472
:100EE80004347C34043404347834043438344434DA
:100EF800443438340434FC3424342434183404346A
:100F0800183424342434FC3402347C340434043457
:100F18004834543454342034033404343E34443490
:100F280004343C34403440343C3405340C343034DC
:100F3800403430340C3405343C3440343C34403490
:100F48003C340534443428341034283444340434CC
:100F58009C34A034A0347C340334643454344C348A
:100F680003340834363441340134FF340334413413
:100F78003634083404342034103420341034013426
:100F880076087A06FD00F61FCE2FF509F609F50A50
:100F98000319F60AFA1FD52FF909FA09F90A0319EC
:100FA800FA0A8A150A16B3238A110A12FD1FE62FB8
:100FB800F509F609F50A0319F60AF009F109F00A24
:060FC8000319F10A080004
:101000007708F5007808F6009130F9000730FA000B
:101010008A150A1620238A150A12701C00347708D4
:10102000193EF70008300318013E78078A00770858
:10103000820093340034003400340034003400342F
:101040000034003400340034003400340034003400
:1010500000340034003400340034003400340034F0
:10106000003400340034003400340034FE341B34C7
:1010700000340034003400340034003400340034D0
:101080000034003400340034003400341E340034A2
:101090000034003400340034003400341E34003492
:1010A000003400340034003400340034003401349F
:1010B00020341934A03407347834013426341934F8
:1010C000A034073478340134263401342034013418
:1010D0000034003400340034003400341C3418343C
:1010E0002634103442341034FF343F348234113407
:1010F00002340F3400340034003400341C34103413
:101100002234083422340434223403349C3400342E
:1011100040340E3430341134083411340434113472
:1011200002340E3400340734803408345C34103414
:1011300062341034A2341134323413341C341C346D
:101140000034183400341634803401340034003450
:101150000034003400340034003400341E340034D1
:1011600000340034003400340034003400340034DF
:1011700000340034003400340034003400340034CF
:10118000E0340734183418340C3430340434203448
:10119000023440340234403400340034003400342B
:1011A0000234403402344034043420340C343034BB
:1011B00018341834E0340734003400340034003478
:1011C000003400340034003408340034183400345F
:1011D000F03400344E340034F03400341834003429
:1011E0000834003400340034003400340034023455
:1011F000003402340034023400340234E0341F344A
:101200000034023400340234003402340034023436
:10121000003400340034003400340034003400342E
:10122000003498340034783400340034003400340E
:10123000003400340034003400340034003400340E
:1012400000340034003401340034013400340134FB
:1012500000340134003401340034013400340034EB
:1012600000340034003400340034003400340034DE
:10127000003418340034183400340034003400349E
:1012800000340034003400340034003400340034BE
:10129000003440340034303400340C34003403342F
:1012A000C0340034303400340C34003402340034A0
:1012B0000034003400340034F03403340C340C3483
:1012C0000234103402341034023410340C340C3430
:1012D000F03403340034003400340034003400347B
:1012E000043410340434103404341034FE341F3405
:1012F000003410340034103400341034003400341E
:101300000034003400340034063418340234143409
:101310000234123402341134C23410343C341034E8
:10132000003400340034003400340034003400341D
:101330000034003402341034423410344234103457
:1013400042341034BC340F340034003400340034E0
:101350000034003400340334C03402342034023406
:101360001834023404340234FE341F34003402349E
:1013700000340234003400340034003400340034CB
:10138000003400343E34103422341034223410340B
:1013900042340834823407340034003400340034DA
:1013A0000034003400340034F03407344C34083452
:1013B00022341034223410342234103442340834AD
:1013C00080340734003400340034003400340034F6
:1013D000023400340234183402340734C234003486
:1013E000323400340A34003406340034003400341B
:1013F00000340034003400341C340F34A234103470
:101400004234103442341034A2341034A23409343B
:101410001C3406340034003400340034003400340A
:1014200078340034843410340234113402341134EA
:101430000234113484340C34F8340334003400346E
:1014400000340034003400340034003400340034FC
:1014500060341834603418340034003400340034FC
:1014600000340034003400340034003400340034DC
:1014700000340034003400346034983460347834FC
:1014800000340034003400340034003400340034BC
:1014900000340034003400340034003400340334A9
:1014A0000034033480340434803404344034083449
:1014B0004034083420341034003400340034003414
:1014C000803404348034043480340434803404346C
:1014D000803404348034043480340434803404345C
:1014E00000340034003400342034103440340834E4
:1014F00040340834803404348034043400340334F9
:101500000034033400340034003400340034003438
:101510000E3400340234003402341B34823400347C
:1015200042340034263400341C3400340034003497
:1015300000340034F034033418340C3404341834D8
:10154000E2341334123414340A3416348A341B341B
:10155000FC340734003404340034043400341034D0
:1015600000340E34803403347034023418340234BE
:1015700030340234C03402340034033400340C34C8
:101580000034103400340034F8341F3488341034FC
:10159000883410348834103488341034483411348A
:1015A00030340E340034003400340034C03403349A
:1015B00030340C3410340834083410340834103407
:1015C0000834103408341034183410340034003423
:1015D0000034003400340034F8341F34083410343C
:1015E00008341034083410340834103410340834FB
:1015F000E034073400340034003400340034003464
:10160000F8341F34083411340834113408341134D8
:1016100008341134083411340834103400340034E0
:101620000034003400340034F8341F3408340134FA
:1016300008340134083401340834013408340134E6
:1016400008340034003400340034003400340034F2
:10165000C034033430340C341034083408341034BB
:1016600008341034083411340834113418341F3459
:101670000034003400340034F8341F3400340134B2
:1016800000340134003401340034013400340134B6
:10169000F8341F3400340034003400340034003493
:1016A000083410340834103408341034F8341F343B
:1016B0000834103408341034083410340034003442
:1016C000003400340034003400340034003410346A
:1016D000083410340834103408341034F8340F341B
:1016E000003400340034003400340034003400345A
:1016F000F8341F34803400348034013440340234F0
:1017000020340434103404340834083400341034E1
:101710000034003400340034F8341F340034103402
:1017200000341034003410340034103400341034D9
:10173000003410340034003400340034F8341F34E2
:1017400038340034E03401340034073400340634D3
:10175000C034013438340034F8341F3400340034D9
:101760000034003400340034F8341F3410340034B2
:1017700060340034803401340034063400340834DA
:10178000F8341F34003400340034003400340034A2
:10179000E03407341034083408341034083410347A
:1017A000083410340834103410340834E03407346A
:1017B0000034003400340034F8341F340834013469
:1017C00008340134083401340834013488340034D6
:1017D00070340034003400340034003400340034F9
:1017E000E03407341034083408341034083410342A
:1017F000083410340834303410344834E03447347A
:101800000034003400340034F8341F340834013418
:101810000834013408340334883404347034083410
:101820000034103400340034003400340034003408
:1018300070341834483410348834103488341034F8
:10184000083411340834093418340E3400340034A8
:1018500000340034083400340834003408340034D0
:1018600008340034F8341F340834003408340034A9
:1018700008340034083400340034003400340034B8
:10188000F834073400341834003410340034103481
:101890000034103400340834F83407340034003491
:1018A000003400340834003430340034C03401349F
:1018B000003406340034183400341834003407344B
:1018C000C034003430340034083400341834003468
:1018D000E034033400341C3400340F34E03400347A
:1018E000C034013400340E3400341C34E03403348A
:1018F00018340034083410341034083420340434DC
:1019000040340234803401348034013440340234B1
:1019100020340434103408340834103408340034CB
:1019200010340034603400348034003400341F3408
:101930008034003440340034203400341034003417
:1019400008340034003400340834183408341434B3
:1019500008341234083411348834103448341034C4
:101960002834103418341034003400340034003477
:101970000034003400340034FE347F340234403408
:1019800002344034023440340234403400340034F1
:101990000034003400340034023400340C34003499
:1019A00030340034C03400340034033400340C3498
:1019B0000034303400344034003400340034003417
:1019C000023440340234403402344034023440346F
:1019D000FE347F34003400340034003400340034EA
:1019E0000034003400340034003404340034033450
:1019F000E0340034383400340E34003470340034B1
:101A0000803403340034043400340034003420348F
:101A100000342034003420340034203400342034A6
:101A20000034203400342034003420340034203496
:101A300000342034003400340034003400340034E6
:101A400000340034013400340234003400340034F3
:101A500000340034003400340034003400340034E6
:101A600000340C3420341234203411342034113436
:101A700020340934C0341F340034103400340034AE
:101A80000034003400340034FE341F344034083451
:101A900020341034203410342034103460340834AE
:101AA000803407340034003400340034003400340F
:101AB0008034073440340834203410342034103457
:101AC00020341034203410342034103400340034E6
:101AD0000034003400340034803407344034183487
:101AE000203410342034103420341034403408347E
:101AF000FE341F3400340034003400340034003429
:101B00008034073440340934203411342034113403
:101B10002034113420341134C034113400340034F2
:101B200000340034003400342034003420340034D5
:101B3000FC341F3424340034223400342234003482
:101B400022340034223400340034003400340034B1
:101B50008034073440349834203490342034903426
:101B60002034903440344834E0343F34003400347E
:101B70000034003400340034FE341F348034003428
:101B80004034003420340034203400342034003415
:101B9000C0341F34003400340034003400340034C6
:101BA000203400342034003426340034E6341F342A
:101BB0000034003400340034003400340034003485
:101BC0000034003400340034003480342034803455
:101BD0002034803426348034E6347F3400340034BA
:101BE0000034003400340034003400340034003455
:101BF000FE341F34003401340034033480340434A0
:101C00004034043440340834203410340034003478
:101C10000034003400340034003400340234003422
:101C20000234003402340034FE341F3400340034F3
:101C3000003400340034003400340034E0341F3405
:101C4000403400342034003420340034C0341F3495
:101C5000403400342034003420340034C0341F3485
:101C60000034003400340034E0341F34C034003415
:101C70004034003420340034203400342034003424
:101C8000C0341F34003400340034003400340034D5
:101C90008034073440340834203410342034103475
:101CA0002034103440340834803407340034003495
:101CB0000034003400340034E034FF34403408345D
:101CC000203410342034103420341034603408347C
:101CD00080340734003400340034003400340034DD
:101CE0008034073440341834203410342034103415
:101CF0002034103440340834E034FF3400340034ED
:101D0000003400340034003400340034E0341F3434
:101D10008034003440340034203400342034003423
:101D2000E034003400340034003400340034003433
:101D3000C034183420341134203411342034123497
:101D40002034123420340C34003400340034003495
:101D500000340034003400342034003420340034A3
:101D6000F8340F342034103420341034203410343C
:101D70002034103400340034003400340034003493
:101D8000E0340F3400341034003410340034103494
:101D900000340834E0341F3400340034003400349C
:101DA0000034003420340034C034013400340634AC
:101DB000003418340034103400340C34003403344C
:101DC000C034003420340034003400346034003433
:101DD000803407340034183400340E34C0340134F5
:101DE0008034013400340E34003418348034073425
:101DF000603400340034003420341034403408346B
:101E00008034043400340334003403348034043424
:101E1000403408342034103400340034203480340A
:101E2000C0348034003483340034463400343834D1
:101E3000003418340034063400340134C034003423
:101E4000203400340034003420341034203418346A
:101E5000203414342034123420341134A03410349B
:101E60006034103420341034003400340034003432
:101E7000003400340034013400340134FC343E3486
:101E800002344034023440340234403400340034EC
:101E900000340034003400340034003400340034A2
:101EA00000340034FE347F34003400340034003415
:101EB0000034003400340034003400340034003482
:101EC00000340034023440340234403402344034AC
:101ED000FC343E3400340134003401340034003426
:101EE000003400340034033480340034803400344F
:101EF00080340034003401340034013400340234BE
:101F000000340234003402348034013400340034AC
:101F100080341F34C0341034203410341034103462
:101F200020341034C034103480341F340034003472
:101F300000340034C034033430340C3410340834EA
:101F40000834103408341034083490340834B03471
:101F50001834D034750883160313C8007608C900F6
:101F60007708CA007808CB007908CC007A08CD0041
:101F70007B08CE007C08CF00D001D101D201D30173
:101F8000831603134C1CD22F4808D00749080318A6
:101F9000490FD1074A0803184A0FD2074B08031804
:101FA0004B0FD3070310CF0CCE0CCD0CCC0C031071
:101FB000C80DC90DCA0DCB0D4C08F9004D08FA002B
:101FC0004E08FB004F08FC00F501F601F701F8018F
:101FD000831203138A150A162F238A150A12701802
:101FE000C02F831603135008F0005108F100520867
:0C1FF000F2005308F300831203130800F2
:102000006408F9006508FA006608F5006708F6003C
:102010008A150A1620238A110A16701C1B286408C8
:10202000C8006508C9006608E4006708E5004808BC
:10203000E6004908E7006808F9006908FA006A083C
:10204000F5006B08F6008A150A1620238A110A1675
:10205000701C36286808C8006908C9006A08E800CA
:102060006B08E9004808EA004908EB000130640207
:10207000B2006508B3000030031C0130B3026408ED
:10208000F9006508FA006608F5006708F6008A1589
:102090000A1620238A110A1670187A28B20A031920
:1020A000B30A3208CA006808CB005408B8005508C3
:1020B000B9008A150A168C218A110A163208CA003C
:1020C0006A08CB005408B8005508B9008A150A16EA
:1020D0008C218A110A163208F5003308F6006608CA
:1020E000F9006708FA008A150A1620238A110A16D1
:1020F00070184E2801306802B2006908B300003041
:10210000031C0130B3026808F9006908FA006A0884
:10211000F5006B08F6008A150A1620238A110A16A4
:102120007018BE28B20A0319B30A6408CA0032083C
:10213000CB005408B8005508B9008A150A168C213E
:102140008A110A166608CA003208CB005408B80083
:102150005508B9008A150A168C218A110A16320808
:10216000F5003308F6006A08F9006B08FA008A15D2
:102170000A1620238A110A1670189228080083165E
:1021800003136208F5003030F900831203138A1537
:102190000A169F238A110A16700883160313D900A2
:1021A000F500F901831203138A150A16F5228A1124
:1021B0000A16701CDE2883160313E201831603132C
:1021C00066086207D900F5004030F9008312031356
:1021D0008A150A1619238A110A16701CF22886120B
:1021E0000616F4288616061286118316031367084E
:1021F0006307D900F5000830F900831203138A152C
:102200000A169F238A110A16B8307504CF008A1562
:102210000A16A4208A110A1686118316031366086B
:102220006207D9004030590483120313CF008A1586
:102230000A16A4208A110A1686158A150A16742011
:102240008A110A164708BB0086158A150A167420DB
:102250008A110A164708BB00861183160313660805
:102260006207D9004030590483120313CF008A1546
:102270000A16A4208A110A1683160313E20A2F30C5
:102280006202031D45290830E307831203133A084D
:102290003B0203190800861587138813BA1B881799
:1022A00008133A1B08178812BA1A881608123A1A25
:1022B00008168811BA19881508113A1908158810D6
:1022C000BA18881408103A1808140330F000F00BFC
:1022D000672906150130F000F00B6C29000006118B
:1022E0000330F000F00B722908005408F50055087F
:1022F000F6004108F9004208FA008A150A16FB2286
:102300008A110A16F009701C8A290130B400B5013F
:10231000C101C2010F30A102A201A3013F03031DAD
:10232000C3291030A1022108F700FE24EC00210887
:10233000F7008A150A1609218A110A16ED006C08A1
:10234000F7006D08F8008A110A1206268A110A168B
:10235000A800280AC0006C08F5006D08F6000130DE
:10236000F900FA018A150A16FB228A110A16701C56
:10237000BC290130C000BE29280AC00007308316DE
:102380000313B600DE2902303F02031DDE2911309F
:10239000A1022108F500F6011430F900FA018A15AE
:1023A0000A16F7238A110A167008EC007108ED006E
:1023B0000930A8000F3083160313B600FF308312D4
:1023C0000313AB0000302802031C8A2AAB0AEC0A74
:1023D0000319ED0A3F03031DF8296C08F7006D0887
:1023E000F8008A110A1206268A110A16AD00062A7A
:1023F00002303F02031D062A6C08F7006D08F80042
:102400008A150A1200208A110A16AD00FF30AC00AE
:102410000030831603133602031C842A831203132D
:10242000AC0A2D18232A2B082407CA002C082607DB
:10243000CB003408B8003508B9008A150A168C217B
:102440008A110A16322A2B082407CA002C082607EC
:10245000CB005408B8005508B9008A150A168C211B
:102460008A110A16AD0C3F08F5000230F9008A15F2
:102470000A16F5228A110A16700883160313D9006A
:10248000831203132C08F5000730F9008A150A1689
:10249000F5228A110A168316031359087005DD0008
:1024A0005D1C612A83120313EC0A0319ED0A6C0800
:1024B000F7006D08F8008A150A1200208A110A1622
:1024C000AD008312031328082B02031D7C2A2B085E
:1024D0002407C80002303F020319C80A4808CA008E
:1024E0002C082607CB003408B8003508B9008A1537
:1024F0000A168C218A110A168316031336088312D2
:1025000003132C02031C0E2A8312031328082B0228
:10251000031CE629B401B5010130C100C201080065
:1025200083160313D4018312031340088316031385
:10253000B00083160313D40AE530540784008317D0
:10254000831203135008F5005108F6005208F700F3
:102550005308F8000A30F900FA01FB01FC01852755
:10256000700880007508D0007608D1007708D20086
:102570007808D3005008F5005108F6005208F7001B
:102580005308F800F901FA01FB01FC018A150A164B
:1025900006238A110A16F0097018992A8316031364
:1025A000310883120313C400831603133208831205
:1025B0000313C50083160313540A83120313C600C2
:1025C0000130831603135402031C422B831203139E
:1025D000C6034408A4004508A50083160313330866
:1025E00083120313A6008316031334088312031304
:1025F000A700E53046078400831730300007A100AC
:102600004108D4004208D50075214008F5003F0874
:10261000F9008A150A16EB238A110A167008831628
:102620000313D90083120313440783160313DD0039
:1026300083120313450883160313DE0000300318CA
:102640000130DE07831203133F08831603135D076F
:10265000D9005E08DA00003003180130DA070130D3
:10266000590283120313C400831603135A088312FA
:102670000313C5000030031C0130C5024608013CAD
:10268000031CE62A83120313440883160313B100C4
:1026900083120313450883160313B2003008831214
:1026A0000313C0000800D601D701DA01DB01E00105
:1026B000E101E201E301D801D901DC01DD01DE0124
:1026C000DF0164086602D6006708D7006508031CAE
:1026D000650FD70268086A02DA006B08DB00690838
:1026E000031C690FDB025608F9005708FA00F501D0
:1026F000F6018A150A1648238A110A16701C842BC3
:102700000130E000E101872BFF30E000E1005A08D2
:10271000F9005B08FA00F501F6018A150A1648234C
:102720008A110A16701C982B0130E200E3019B2BE2
:10273000FF30E200E3006008F5006108F60056088B
:10274000F9005708FA008A150A161D248A110A167C
:102750007008D6007108D7006208F5006308F6001B
:102760005A08F9005B08FA008A150A161D248A1116
:102770000A167008DA007108DB005608F5005708E1
:10278000F6000230F900FA018A150A161D248A1192
:102790000A167008D8007108D9005A08F5005B08BD
:1027A000F6000230F900FA018A150A161D248A1172
:1027B0000A167008DC007108DD005608F50057089D
:1027C000F6005A08F9005B08FA008A150A16482331
:1027D0008A110A16F009701C692C56085C02DE008A
:1027E0005D08DF005708031C570FDF026408F5007F
:1027F0006508F6006608F9006708FA008A150A16E7
:10280000FB228A110A16F009701C5B2C6408CA00AE
:102810006808CB005408B8005508B9008A150A1694
:102820008C218A110A166008E40761080318610FF9
:10283000E5075E08F5005F08F600F901FA018A1560
:102840000A1648238A110A16701C2D2C5C08DE0714
:102850005D0803185D0FDF075A2C58085C028316C9
:102860000313D900831203135D0883160313DA00E0
:10287000831203135908031C590A0319422C8316A7
:102880000313DA0283160313590883120313DE07B6
:10289000831603135A0803185A0A0319522C831279
:1028A0000313DF07831203136208E80763080318A2
:1028B000630FE907F62B6408CA006808CB005408C8
:1028C000B8005508B9008A150A168C218A110A1613
:1028D000E42C5A085802DE005908DF005B08031C8C
:1028E0005B0FDF026808F5006908F6006A08F90066
:1028F0006B08FA008A150A16FB228A110A16F009DB
:10290000701CD72C6408CA006808CB005408B800B3
:102910005508B9008A150A168C218A110A16620810
:10292000E80763080318630FE9075E08F5005F080E
:10293000F600F901FA018A150A1648238A110A16C7
:10294000701CA92C5808DE0759080318590FDF0717
:10295000D62C5C08580283160313D9008312031384
:10296000590883160313DA00831203135D08031C4E
:102970005D0A0319BE2C83160313DA0283160313B0
:10298000590883120313DE07831603135A0803182A
:102990005A0A0319CE2C83120313DF078312031381
:1029A0006008E40761080318610FE507722C6408EA
:1029B000CA006808CB005408B8005508B9008A1549
:1029C0000A168C218A110A1608007708F500780883
:1029D000F6000130F900FA018A150A1620238A113F
:1029E0000A16701C00347708FD3EF70014300318F7
:1029F000013E78078A00770882000134613077024F
:102A00000318003477080B3EF70015300318013E19
:102A10008A007708820060340134033405340934B5
:102A20000F34153419341F342134243427342D3411
:102A300031343334373439343D34423446344B3412
:102A40004F34543458345D34613466346B346D34EF
:102A50007034743478347C34803486348B349034DD
:102A600095349A349E34A234A734AC34B034B434A0
:102A7000B934BD34C334C934CE34D334D834DD345E
:102A8000E234E634EB34F134F734FD340234073405
:102A90000A340E34113415341A341D3422342734D8
:102AA0002C343134363439343E34433445344834AC
:102AB0004D344F3455345A345F34643469346C3493
:102AC000713475347A34803486348C34913495344E
:102AD00099349B349F34A4348316031320082202B4
:102AE000DD002308DE002108031C210FDE022C0874
:102AF0002A02D9002B08DA002D08031C2D0FDA0258
:102B00005D08F5005E08F600F701F8015908F900C4
:102B10005A08FA00FB01FC01831203138A150A12FA
:102B2000AA278A110A16700883160313A6007108D3
:102B3000A7007208A8007308A90020087E02A4005C
:102B40007F08A5002108031C210FA5022608F50017
:102B50002708F6002808F7002908F8002408F900DB
:102B60002508FA00FB01FC01831203138527750871
:102B700083160313D9007608DA007708DB0078089B
:102B8000DC002C085907DD005A08DE002D08031868
:102B90002D0FDE07831203136E08831603135D07E0
:102BA000B7005E08B800831203136F0803186F0A9A
:102BB0000319DD2D83160313B807831203130800CE
:102BC000831603136108A200A301A001A1014630EE
:102BD000FE00FF01AC01AD011C30AA00AB01831265
:102BE0000313EE01EF016C25831603133708E10090
:102BF0006930B100B2010130B300B401DB30F20042
:102C00000130F3007930F7001C30F8008312031311
:102C10008A150A1637248A110A16DB308316031325
:102C2000C6000130C700831203138A110A12082359
:102C30008A110A16623083160313B100B2011030F4
:102C4000B300B401DB30F2000130F3007E30F70056
:102C50001C30F800831203138A150A1637248A11D0
:102C60000A16DB3083160313C6000130C700831237
:102C700003138A110A1208238A110A167B3083165D
:102C80000313B100B2011030B300B401DB30F20025
:102C90000130F3005E30F7001C30F800831203139C
:102CA0008A150A1637248A110A16DB308316031395
:102CB000C6000130C700831203138A110A120823C9
:102CC0008A110A166630E400E5011430E800E901D3
:102CD0007830E600E7011430EA00EB014108D40047
:102CE0004208D50053236230E4000A30E800623025
:102CF00083160313610783120313E6000E30EA0004
:102D00000130D400D5018A150A1616208A110A1638
:102D10006230831603136107DD005D0A831203131B
:102D2000E4000A30E8007F30E6000E30EA00D4010B
:102D3000D5018A150A16162883160313C1015F08E8
:102D4000F5006008F6001030F9002730FA00831211
:102D500003138A150A1620238A110A16F009701C1B
:102D6000D32E831603135F08F5006008F6001030B9
:102D7000F9002730FA00831203138A150A16B323C9
:102D80008A110A16750883160313D8007008DF002D
:102D90007108E000C10AD530410784008317303044
:102DA00058078000E72E831603135F08F5006008BC
:102DB000F600E830F9000330FA00831203138A1595
:102DC0000A1620238A110A16F009701C092F83168F
:102DD00003135F08F5006008F600E830F9000330DF
:102DE000FA00831203138A150A16B3238A110A16EE
:102DF000750883160313D8007008DF007108E0001F
:102E0000C10AD5304107840083173030580780004D
:102E10001C2F831603135F08F5006008F60064306A
:102E2000F900FA01831203138A150A1620238A1166
:102E30000A16F009701C3D2F831603135F08F50076
:102E40006008F6006430F900FA01831203138A1552
:102E50000A16B3238A110A16750883160313D800BD
:102E60007008DF007108E000C10AD5304107840016
:102E70008317303058078000502F831603135F08E4
:102E8000F5006008F6000A30F900FA018312031316
:102E90008A150A1620238A110A16F009701C702F51
:102EA000831603135F08F5006008F6000A30F90086
:102EB000FA01831203138A150A16B3238A110A161C
:102EC000750883160313D8007008DF007108E0004E
:102ED000C10AD5304107840083173030580780007D
:102EE00083160313C10AD53041078400831730309D
:102EF0005F0780007008DF007108E000410883165A
:102F00000317D500831203130800750883160313F3
:102F1000C8007608C9007708CA007808CB0079088D
:102F2000CC007A08CD007B08CE007C08CF00D00111
:102F3000D101D201D3014C08F5004D08F6004E082E
:102F4000F7004F08F800F901FA01FB01FC018312B8
:102F500003138A150A1606238A110A16701CB52F48
:102F6000F501F601F701F80108002030F400031024
:102F700083160313C80DC90DCA0DCB0DD00DD10D8D
:102F8000D20DD30D4C08D0024D08031C4D0FD102B9
:102F90004E08031C4E0FD2024F08031C4F0FD302E2
:102FA00048140318E22F48104C08D0074D080318A6
:102FB0004D0FD1074E0803184E0FD2074F080318C4
:102FC0004F0FD307F40BB72F4808F5004908F60058
:102FD0004A08F7004B08F8005008F0005108F100CB
:0E2FE0005208F2005308F30083120313080096
:103000000F30F000F00B02280000F50B002808003C
:10301000F30AE330F1000630F000F00B0D28F10B5D
:103020000B28F20B0928F30B092808006408660234
:10303000031820286408C8006608E4004808E60071
:1030400068086A0203182A286808C8006A08E800A5
:103050004808EA006403B20064086602031C4928B9
:10306000B20A6803C80068086A02031C4528C80A37
:103070003208CA004808CB005408B8005508B90007
:103080008C216A084802031C372866083202031C98
:1030900030280800CD01CE0186160612CC01CC0ADC
:1030A000FF30AF00AF0A8611B8302F04CF00A42044
:1030B000FF30AE00AE0A861140302E04CF00A420AF
:1030C0008615CF01A4203F302E02031C5A2807305A
:1030D0002F02031C52288612061602304C02031CD3
:1030E0004F28861206120800831603138817081744
:1030F00088160816881508158814081483120313F7
:10310000871706150330F000F00B8428C713881BBF
:10311000C7174713081B4717C712881AC716471245
:10312000081A4716C7118819C715471108194715F6
:10313000C7108818C7144710081847140611033021
:10314000F000F00BA128080083160313401083122F
:103150000313861DAE28831603134014831603132E
:10316000C01083120313061EB82883160313C0145D
:1031700083120313861A061286117420C71BBD28FA
:10318000861183160313401CC82883120313861567
:1031900083120313061283160313C01CD228831252
:1031A00003130616831203138713831603130810E1
:1031B00088100811881108128812081388138312C6
:1031C00003138813CF1B881708134F1B0817881287
:1031D000CF1A881608124F1A08168811CF198815A9
:1031E00008114F1908158810CF18881408104F18A7
:1031F00008140330F000F00BFB2806150130F00036
:10320000F00B0029000006110330F000F00B062936
:10321000080061307702031800347708163EF70083
:1032200019300318013E8A00770882000034003408
:1032300000340034003400340034003400340034EE
:1032400000340034003400340034003400340034DE
:1032500000340034003400340034003400340034CE
:1032600000340034003400340034003400340034BE
:1032700000340034003400340034003400340034AE
:10328000003400340034003400340034003400349E
:10329000003400340034003400340034003400348E
:1032A0000034013401340134013401340134013477
:1032B0000134013401340134013401340134013466
:1032C0000134013401340134013401340134013456
:1032D0000134013401340134013401340134013446
:1032E00001340134013401340134013401347708EC
:1032F000F5007808F6000130F900FA012023701C6F
:10330000003477088B3EF70019300318013E780728
:103310008A007708820007344A1B90290616861215
:103320004A1F962986164030CA0206124B08F5003D
:103330000830F9009F237508AF008611B8302F04BC
:10334000CF00A420861140304A04CF00A420861567
:1033500074204708BC00861574204708BC0007305D
:103360004B05B6003818B829FE30B7000314BB2946
:103370000130B7000310360883160313D700031972
:10338000C82983120313B70D83160313D70BC12962
:10339000831203133818D0293C083705BB00D32902
:1033A0003C083704BB003B083C020319E0298611A6
:1033B00040304A04CF00A42086153B08CF00A4204B
:1033C000861206120800831603139F139F111F1104
:1033D0009F101F101F13831203139F131F179F119A
:1033E0001F129F1220189F15A0181F1620199F1634
:1033F0001F140230F50000201F1500001F19FE29C0
:103400001F10831603139F111F159F141F10831283
:1034100003131E0883160313B5009F1383120313AF
:103420000800D030F2000130F3005A30F7001C30B1
:10343000F8003724083083160313B100B201373087
:10344000B300B401DB30F2000130F3006030F7006C
:103450001C30F800831203133724DB308316031368
:10346000C6000130C700831203138A110A12082B09
:10347000D030F2000130F3005A30F7001C30F80071
:103480003724413083160313B100B2013730B30043
:10349000B401DB30F2000130F3007230F7001C3071
:1034A000F800831203133724DB3083160313C6009E
:1034B0000130C700831203138A110A12082BD0307F
:1034C000F2000130F3005A30F7001C30F8003724C6
:1034D000083083160313B100B2012F30B300B401DA
:1034E0006108DF00E001831203138A110A169C268B
:1034F0008A150A16DB30F2000130F300F601D530F0
:10350000F7000130F80081235B30F7001C30F80031
:103510004124DB308400831776088000DB3083167B
:103520000313C6000130C700831203138A110A1265
:1035300008238A150A161230E400E5012F30E8004E
:10354000E9011430E600E7013130EA00EB014108FF
:10355000D4004208D5008A110A1600208A150A16DE
:10356000163083160313B100B2012F30B300B4013B
:10357000DB30F2000130F3005E30F7001C30F80061
:10358000831203133724DB3083160313C600013084
:10359000C700831203138A110A12082BD030F200DD
:1035A0000130F3005A30F7001C30F8003724413066
:1035B00083160313B100B2012F30B300B401DB3026
:1035C000F2000130F3006830F7001C30F80083127D
:1035D00003133724DB3083160313C6000130C70002
:1035E000831203138A110A12082BF001750879025D
:1035F0000319F0090800F00175087902031D08009D
:1036000076087A02031D0800F0090800F001750829
:103610007902031D080076087A02031D0800770866
:103620007B02031D080078087C02031D0800F009D6
:103630000800F001031479087502031CF009080062
:10364000F00176087A02031C08007A087602031C4F
:103650002D2B7908750203180800F0090800F00105
:1036600078087C02031C0800031D462B77087B02A8
:10367000031C0800031D462B76087A02031C080071
:10368000031D462B7908750203180800F00908008D
:10369000F001F61F622BFA1B4F2BF0090800750989
:1036A000F7007609F800F70A0319F80A7909F50016
:1036B0007A09F600F50A0319F60A7708F90078087E
:1036C000FA00642BFA1B080076087A02031C080033
:1036D0007A087602031C702B79087502031808001B
:1036E000F00908007708840083137818831700080E
:1036F000F50072088400831373188317750880001F
:10370000892B770884008313781883170008F6073D
:10371000F500750803190800F70AF20A7708840013
:103720008313781883170008F90072088400831344
:103730007318831779088000F50B8C2B0800F908A3
:1037400003190800F0010830F4000310F50DF00D26
:103750007908F00275140318B02B75107908F0077A
:10376000F40BA52B08007508F7007608F800790817
:10377000FB007A08FC00F201F3017B08F5007C08ED
:10378000F600F901FA01FB22701CC92BF501F601C4
:1037900008001030F4000310F70DF80DF20DF30DD2
:1037A0007B08F2027C08031C7C0FF30277140318D9
:1037B000E02B77107B08F2077C0803187C0FF307D7
:1037C000F40BCB2B7708F5007808F6007208F000B0
:1037D0007308F1000800F00175087918F00703106C
:1037E000F90C0310F50DF908031DEC2B0800750802
:1037F000F7007608F8007908FB007A08FC00F2016F
:10380000F3017B1C092C7708F20778080318780F5E
:10381000F3070310FC0CFB0C0310F70DF80D7B08ED
:10382000F9007C08FA00F501F60120237018012C3C
:103830007208F0007308F100080076087A06FD00AF
:10384000F61F272CF509F609F50A0319F60AFA1FDF
:103850002E2CF909FA09F90A0319FA0AF723FD1FB0
:10386000362CF009F109F00A0319F10A0800720870
:1038700084008313731883175324F5008000F20724
:103880004A2C720884008313731883175324F5009D
:10389000F607F207F508031908005324840A80008C
:1038A000F50B4D2C080078088A007708F70A0319F1
:1038B000F80A8200003402342034203401344634C3
:1038C000073431343A3432343134203450344D34C6
:1038D00009343034483472342034303431342034B4
:1038E0004D346E34063430342E34333420344D3479
:1038F000693404344634553445344C340134453449
:10390000303077020318003477088D3EF7001C3002
:103910000318013E8A007708820030340634FF34F1
:1039200020341F340634FF34043400340634FF34AA
:10393000203400340634FF34043400340634FF34B9
:103940002034F0340634FF34043400340634FF34B9
:10395000203401340634FF34043400340634FF3498
:10396000203400340634FF340434003406343F3449
:1039700020343E3406343F340434283077020318B0
:1039800000347708CA3EF7001C300318013E8A0055
:103990007708820028340634FF3420341F3406347C
:1039A000FF34043400340634FF342A34003406343F
:1039B000FF342634F0340434003426340134063421
:1039C000FF340434003406348034203400340634A8
:1039D000FF340434003406343F3420343E3406349B
:1039E0003F34043430307702031800347708FF3E48
:1039F000F7001C300318013E8A007708820030343B
:103A00000634FF34013407341E34003401340734E3
:103A10000634FF34043400340634FF3420340034D8
:103A20000634FF34043400340634FF342034F034D8
:103A30000634FF3404340034263401340634FF34B1
:103A400004340034263400340634FF3404340034A3
:103A5000253400340134383406343F3404342C30F7
:103A600077020318003477083C3EF7001D30031836
:103A7000013E8A00770882002C340634FF3420345B
:103A80001F340634FF34043400340634FF34203449
:103A900000340634FF34043400340634FF34203458
:103AA000F0340634FF340434003426340134063450
:103AB000FF3404340034263400340634FF34043434
:103AC000003406343F3420343E3406343F3404346A
:103AD0002E307702031800347708753EF7001D304A
:103AE0000318013E8A00770882002E341A3400340D
:103AF0000134783401347C3401347E340634FF34AC
:103B00000D3400341D3400340634FF340D340034D9
:103B10001D3400340634FF340D3400341D340034B9
:103B20000634FF340D3400341D3400340634FF34C1
:103B30000D3400341B34003402343E3406343F3438
:103B400002343E340B3428307702031800347708EF
:103B5000B03EF7001D300318013E8A00770882004E
:103B6000283406343F3420341F340634FF34043400
:103B70000034263400340634FF3404340034263450
:103B800000340634FF340434003426340034063460
:103B9000FF3404340034263400340634FF34043453
:103BA00000342534003401343E3406343F340434C8
:103BB0002A307702031800347708E53EF7001D30FD
:103BC0000318013E8A00770882002A340634FF3445
:103BD00020341F3406343F34043400340634FF34B8
:103BE0002A3400340634FF342634F03404340034EC
:103BF0000634FF34203401340634FF3404340034F6
:103C00000634FF34203400340634FF3404340034E6
:103C100006343F3420343E3406343F3404342430F8
:103C200077020318003477081C3EF7001E30031893
:103C3000013E8A0077088200243406343F34213460
:103C40001F340634FF342A3400340634FF340D3474
:103C500000341D34F0340634FF340D3400341D3488
:103C600001340634FF342A3400340634FF3404347B
:103C7000003406343F3420343E3406343F340434B8
:103C8000283077020318003477084D3EF7001E30C5
:103C90000318013E8A0077088200283406347F34F6
:103CA00020341F340634FF342A3400340634FF3401
:103CB000043400342634F0340634FF340434003441
:103CC0000634FF3426340134043400340634FF341F
:103CD00020340034063480340434003406343F3455
:103CE00020343E3406343F34043430307702031835
:103CF00000347708823EF7001E300318013E8A0028
:103D00007708820030340634FF3420341F34063400
:103D1000FF34043400340634FF34203400340634D5
:103D2000FF34043400340634FF34203400340634C5
:103D3000FF34043400340634FF34203400340634B5
:103D4000FF34043400340634FF34203400340634A5
:103D5000FF340434003406343F3420343E34063417
:043D60003F340434B4
:02400E007A3FF7
:00000001FF
