:020000040000FA
:060000008A110A12052816
:1000080009002826EA258A110A126330A900AA01E4
:10001800F53083160313C500FF30C600831203139F
:100028002908F5002A08F6000A30F900FA018A15AD
:100038000A1628268A110A12750883160313DA008D
:100048007608DB005A08F5005B08F600F901FA01AA
:10005800831203138A150A1670258A110A12701C56
:10006800402883160313E701E801FF30E500E600A6
:1000780083120313D3235B2883160313E701E801D4
:10008800831203132908F5002A08F6000A30F9003C
:10009800FA018A110A16D5278A110A1275088316D9
:1000A8000313E5007608E60083120313D3233030E8
:1000B80083160313E700E801831203132908F500E8
:1000C8002A08F6000A30F900FA018A110A16D5271B
:1000D8008A110A12700883160313E5007108E600F6
:1000E80083120313D3232908F5002A08F6000A30DF
:1000F800F900FA018A150A1628268A110A127508C3
:1001080083160313DA007608DB005A08F5005B084B
:10011800F600F901FA01831203138A150A167025ED
:100128008A110A12701CA32883160313E701E80139
:10013800FF30E500E60083120313D323BE2883169D
:100148000313E701E801831203132908F5002A08BD
:10015800F6000A30F900FA018A110A16D5278A1121
:100168000A12750883160313E5007608E600831261
:100178000313D323303083160313E700E8018312F7
:1001880003132908F5002A08F6000A30F900FA01D5
:100198008A110A16D5278A110A12700883160313C2
:1001A800E5007108E60083120313D3230230BF0071
:1001B800623083160313B100B2012030B300B401DA
:1001C80083120313290883160313A200831203134F
:1001D8002A0883160313A300A001A1016330FE00BF
:1001E800FF01AC01AD010930AA00AB018312031372
:1001F800EE01EF018A110A161A258A110A128316CE
:100208000313380883120313D00083160313390825
:1002180083120313D100D201D3018A110A16C52211
:100228008A110A125E30E400E5012C30E800E90189
:100238006030E600E7012A30EA00EB014108D4000B
:100248004208D5008A110A163D208A110A12013087
:10025800BF00290883160313E200831203138A15CB
:100268000A16DA248A150A168C248A150A164925CC
:100278008A150A16B3248A110A1229088316031349
:10028800A200831203132A0883160313A300A001F4
:10029800A1016330FE00FF01AC01AD014630AA00A8
:1002A800AB0183120313EE01EF018A110A161A2516
:1002B8008A110A12831603133808E2008312031303
:1002C8008A110A168E258A110A129030F20001301E
:1002D800F3008A150A16FD218A110A1283160313E0
:1002E800C61FB2294509C3004609C400C30A031939
:1002F800C40A831203130030290283160313DA0099
:10030800831203132A0883160313DB000030031C2F
:100318000130DB025A08F5005B08F6004308F900D3
:100328004408FA00831203138A150A1695258A11C0
:100338000A12F009701CB1298316031345088312A9
:100348000313A9078316031346080318460A03195B
:10035800B02983120313AA070C28E5298312031373
:100368002908003C83160313DA00831203132A08B2
:10037800031C2A0F003C83160313DB005A08F50000
:100388005B08F6004508F9004608FA0083120313D3
:100398008A150A1695258A110A12F009701CE52992
:1003A80083160313450883120313A907831603133F
:1003B80046080318460A0319E42983120313AA07F7
:1003C8000C28290983160313AE00831203132A0984
:1003D80083160313AF00013083120313A0008A159C
:1003E8000A165B248A110A1283160313350883122E
:1003F8000313A90083160313360883120313AA00F4
:10040800290883160313A200831203132A088316EC
:100418000313A300A001A101FE30FE000330FF007A
:10042800AC01AD01BC30AA000230AB00831203134B
:10043800EE01EF018A110A161A258A110A1283168B
:100448000313380883120313A9008316031339080A
:1004580083120313AA00831603132E08F5002F082E
:10046800F600831203132908F9002A08FA008A15EE
:100478000A1670258A110A12F009701C3D2B2908EA
:1004880083160313AE00831203132A08831603137B
:10049800AF00831203132908F5002A08F600643018
:1004A800F900FA018A150A1628268A110A1275080F
:1004B80083160313DA007608DB005A08F5005B0898
:1004C800F600F901FA01831203138A150A1670253A
:1004D8008A110A12701C7B2A83160313E701E801AC
:1004E800FF30E500E60083120313D323962A831610
:1004F8000313E701E801831203132908F5002A080A
:10050800F6006430F900FA018A110A16D5278A1113
:100518000A12750883160313E5007608E6008312AD
:100528000313D323303083160313E700E801831243
:1005380003132908F5002A08F6000A30F900FA0121
:100548008A150A1628268A110A12750883160313B3
:10055800DA007608DB005A08F5005B08F6000A3076
:10056800F900FA01831203138A110A16D5278A1192
:100578000A12700883160313E5007108E600831257
:100588000313D3230230BF00623083160313B10074
:10059800B2012030B300B401831203132908F50017
:1005A8002A08F600F701F8010A30F900FA01FB0100
:1005B800FC018A110A1663278A110A127008D000F2
:1005C8007108D1007208D2007308D3008A110A1684
:1005D800C5228A110A125E30E400E5012C30E800D9
:1005E800E9016030E600E7012A30EA00EB01410842
:1005F800D4004208D5008A110A163D208A110A1231
:100608000130BF002908F5002A08F6000A30F90071
:10061800FA018A150A1628268A110A1275088316FD
:100628000313E200831203138A150A16DA248A15C3
:100638000A168C248A150A1649258A150A16B3241F
:100648008A110A122908F5002A08F6000A30F9006A
:10065800FA018A150A1628268A110A1275088316BD
:100668000313E200831203138A110A168E258A11D6
:100678000A12EF2963003E2B8316031347088400F0
:10068800831348188317000883120313C300C30891
:1006980003190800400883160313B00031088312B9
:1006A8000313C40083160313320883120313C5000F
:1006B800C60101304302031CC42BC60A4408A40027
:1006C8004508A50083160313330883120313A600F5
:1006D80083160313340883120313A70046088316EE
:1006E80003134707840083134818831700088312ED
:1006F8000313A1004108D4004208D5008A110A1644
:10070800AE218A110A124008F5003F08F9008A153F
:100718000A1660268A110A12700883160313DE006F
:1007280083120313440783160313DA008312031397
:10073800450883160313DB00003003180130DB077C
:10074800831203133F08831603135A07DE005B085E
:10075800DF00003003180130DF0701305E0283122A
:100768000313C400831603135F0883120313C50021
:100778000030031C0130C50243084602031C612BEC
:10078800440883160313B100831203134508831624
:100798000313B200300883120313C00008000130AD
:1007A800B000B101FF3083160313BB00BC00FF305B
:1007B800BF00C000FF30BD00BE00E301E4018316A6
:1007C80003133F08F5004008F600F901FA01831207
:1007D80003138A150A1670258A110A12F009701C6B
:1007E800E72D831603136508F5006608F600FF3049
:1007F800F900FA00831203138A150A1670258A1164
:100808000A12701C112C203083160313BF0001300C
:10081800C00083120313BA01A12D831603136508C0
:10082800F5006608F600F901FA01831203138A1528
:100838000A1670258A110A12701C382C3008F70025
:100848008A110A1600208A110A1283160313BF00A0
:10085800C00183120313300AF7008A110A16002018
:100868008A110A12BA00A12D831603136508F50030
:100878006608F6000130F900FA01831203138A159D
:100888000A1670258A110A12701C602C3008F700AD
:100898008A150A16E8208A110A1283160313BF0064
:1008A800C00183120313300AF7008A150A16E820DC
:1008B8008A110A12BA00A12D831603136508F500E0
:1008C8006608F6000230F900FA01831203138A154C
:1008D8000A1670258A110A12701C882C3008F70035
:1008E8008A150A16C0218A110A1283160313BF003B
:1008F800C00183120313300AF7008A150A16C021B3
:100908008A110A12BA00A12D831603136508F5008F
:100918006608F6000330F900FA01831203138A15FA
:100928000A1670258A110A12701CB02C3008F700BC
:100938008A150A168F218A110A1283160313BF001B
:10094800C00183120313300AF7008A150A168F2193
:100958008A110A12BA00A12D831603136508F5003F
:100968006608F6000430F900FA01831203138A15A9
:100978000A1670258A110A12701CD82C3008F70044
:100988008A150A1672208A110A1283160313BF00E9
:10099800C00183120313300AF7008A150A16722061
:1009A8008A110A12BA00A12D831603136508F500EF
:1009B8006608F6000530F900FA01831203138A1558
:1009C8000A1670258A110A12701C002D3008F700CB
:1009D8008A150A163D208A110A1283160313BF00CE
:1009E800C00183120313300AF7008A150A163D2046
:1009F8008A110A12BA00A12D831603136508F5009F
:100A08006608F6000630F900FA01831203138A1506
:100A18000A1670258A110A12701C282D3008F70052
:100A28008A150A1658218A110A1283160313BF0061
:100A3800C00183120313300AF7008A150A165821D9
:100A48008A110A12BA00A12D831603136508F5004E
:100A58006608F6000730F900FA01831203138A15B5
:100A68000A1670258A110A12701C502D3008F700DA
:100A78008A150A1623218A110A1283160313BF0046
:100A8800C00183120313300AF7008A150A162321BE
:100A98008A110A12BA00A12D831603136508F500FE
:100AA8006608F6000830F900FA01831203138A1564
:100AB8000A1670258A110A12701C782D3008F70062
:100AC8008A150A1600208A110A1283160313BF001A
:100AD800C00183120313300AF7008A150A16002092
:100AE8008A110A12BA00A12D831603136508F500AE
:100AF8006608F6000930F900FA01831203138A1513
:100B08000A1670258A110A12701CA02D3008F700E9
:100B18008A150A16AF208A110A1283160313BF001A
:100B2800C00183120313300AF7008A150A16AF2092
:100B38008A110A12BA00A12DE72D0230B007003041
:100B480003180130B107831603133F08D600400885
:100B5800D7005608F5005708F6000130F900FA01E9
:100B6800831203138A150A16BD258A110A127018F2
:100B7800CF2D83160313D608031DD70A8312031338
:100B88008A110A16FC208A110A1283160313D60B3F
:100B9800C22DD70BC22D831603133F08F50040085A
:100BA800F6002030F9000130FA00831203138A1589
:100BB8000A1670258A110A12701CE62D8316031373
:100BC800BF01C001E32B8612061208008316031327
:100BD8008611871306118612061207118312031352
:100BE80007110130F200F3018A150A16FD218A1156
:100BF8000A1207150130F200F3018A150A16FD21C1
:100C08008A110A128616061686113F30CF008A15F9
:100C18000A1699228A110A12C030CF008A150A16BC
:100C280099228A110A1286120612B401B5010130FE
:100C3800C100C2010530C000BD010130BF0007304E
:100C4800BE008A150A163F2A831603139F138312C0
:100C580003131F10831603139F111F159F141F10D2
:100C680007309C00831203138501860187018801E0
:100C7800890108007708F5007808F600A530F90022
:100C88000130FA008A150A1695258A110A12701C75
:100C980000347708573EF70006300318013E7807FE
:100CA8008A0077088200A5340134003401345E34A8
:100CB8000334063400340634053428347C342834AC
:100CC8007C342834053424342A347F342A341034CC
:100CD8000334623418344634053430344C345A34CE
:100CE800243450340134063402343C34423402345F
:100CF80042343C340534283410347C3410342834DD
:100D080003341034383410340134C034033410340C
:100D18001034103401344034033460341834063449
:100D280004343C34423442343C34033444347E3456
:100D3800403404344434623452344C3403344A3436
:100D48004A34343404341E3410347C3410340334BC
:100D58004E344A34323404343C344A344A3430341D
:100D68000334623412340E34043434344A344A348A
:100D7800343404340C34523452343C34013448345E
:100D8800023480346834033410342834443403344F
:100D980028342834283403344434283410340334B1
:100DA800023452340C340534383444345434543412
:100DB800583404347C34123412347C3404347E3491
:100DC8004A344A34343404343C34423442342434CB
:100DD80004347E34423442343C3403347E344A345E
:100DE8004A3403347E340A340A3404343C344234FA
:100DF8005234343404347E34083408347E340334B2
:100E080042347E3442340334423442343E3404346F
:100E18007E3408341434623403347E34403440342D
:100E280005347E340434083404347E3405347E3486
:100E38000434183420347E3404343C34423442348C
:100E48003C3404347E34123412340C3404343C34CC
:100E580042344234BC3404347E34123412346C3498
:100E6800043444344A344A343034033402347E344B
:100E7800023404343E34403440343E3405340634BD
:100E8800183460341834063405343E3440343E3463
:100E980040343E3405344234243418342434423443
:100EA80004349E34A034A0347E3404346234523482
:100EB8004A34463402347E34423403340634183417
:100EC8006034023442347E34033420341034203405
:100ED8000434803480348034803402340434083458
:100EE8000434203454345434783404347E34443450
:100EF80044343834043438344434443428340434DE
:100F08003834443444347E34043438345434543417
:100F1800583402347C340A3404349834A434A43465
:100F28007C3404347E3404340434783401347A3420
:100F3800023440343A3404347E341034283444348F
:100F480001347E3405347C34043478340434783401
:100F580004347C3404340434783404343834443469
:100F6800443438340434FC342434243418340434F9
:100F7800183424342434FC3402347C3404340434E7
:100F88004834543454342034033404343E34443420
:100F980004343C34403440343C3405340C3430346C
:100FA800403430340C3405343C3440343C34403420
:100FB8003C3405344434283410342834443404345C
:100FC8009C34A034A0347C340334643454344C341A
:100FD80003340834363441340134FF3403344134A3
:100FE80036340834043420341034203410340134B6
:101000007708F5007808F6009130F9000730FA000B
:101010008A150A1695258A150A12701C003477085D
:10102000193EF70008300318013E78078A00770858
:10103000820093340034003400340034003400342F
:101040000034003400340034003400340034003400
:1010500000340034003400340034003400340034F0
:10106000003400340034003400340034FE341B34C7
:1010700000340034003400340034003400340034D0
:101080000034003400340034003400341E340034A2
:101090000034003400340034003400341E34003492
:1010A000003400340034003400340034003401349F
:1010B00020341934A03407347834013426341934F8
:1010C000A034073478340134263401342034013418
:1010D0000034003400340034003400341C3418343C
:1010E0002634103442341034FF343F348234113407
:1010F00002340F3400340034003400341C34103413
:101100002234083422340434223403349C3400342E
:1011100040340E3430341134083411340434113472
:1011200002340E3400340734803408345C34103414
:1011300062341034A2341134323413341C341C346D
:101140000034183400341634803401340034003450
:101150000034003400340034003400341E340034D1
:1011600000340034003400340034003400340034DF
:1011700000340034003400340034003400340034CF
:10118000E0340734183418340C3430340434203448
:10119000023440340234403400340034003400342B
:1011A0000234403402344034043420340C343034BB
:1011B00018341834E0340734003400340034003478
:1011C000003400340034003408340034183400345F
:1011D000F03400344E340034F03400341834003429
:1011E0000834003400340034003400340034023455
:1011F000003402340034023400340234E0341F344A
:101200000034023400340234003402340034023436
:10121000003400340034003400340034003400342E
:10122000003498340034783400340034003400340E
:10123000003400340034003400340034003400340E
:1012400000340034003401340034013400340134FB
:1012500000340134003401340034013400340034EB
:1012600000340034003400340034003400340034DE
:10127000003418340034183400340034003400349E
:1012800000340034003400340034003400340034BE
:10129000003440340034303400340C34003403342F
:1012A000C0340034303400340C34003402340034A0
:1012B0000034003400340034F03403340C340C3483
:1012C0000234103402341034023410340C340C3430
:1012D000F03403340034003400340034003400347B
:1012E000043410340434103404341034FE341F3405
:1012F000003410340034103400341034003400341E
:101300000034003400340034063418340234143409
:101310000234123402341134C23410343C341034E8
:10132000003400340034003400340034003400341D
:101330000034003402341034423410344234103457
:1013400042341034BC340F340034003400340034E0
:101350000034003400340334C03402342034023406
:101360001834023404340234FE341F34003402349E
:1013700000340234003400340034003400340034CB
:10138000003400343E34103422341034223410340B
:1013900042340834823407340034003400340034DA
:1013A0000034003400340034F03407344C34083452
:1013B00022341034223410342234103442340834AD
:1013C00080340734003400340034003400340034F6
:1013D000023400340234183402340734C234003486
:1013E000323400340A34003406340034003400341B
:1013F00000340034003400341C340F34A234103470
:101400004234103442341034A2341034A23409343B
:101410001C3406340034003400340034003400340A
:1014200078340034843410340234113402341134EA
:101430000234113484340C34F8340334003400346E
:1014400000340034003400340034003400340034FC
:1014500060341834603418340034003400340034FC
:1014600000340034003400340034003400340034DC
:1014700000340034003400346034983460347834FC
:1014800000340034003400340034003400340034BC
:1014900000340034003400340034003400340334A9
:1014A0000034033480340434803404344034083449
:1014B0004034083420341034003400340034003414
:1014C000803404348034043480340434803404346C
:1014D000803404348034043480340434803404345C
:1014E00000340034003400342034103440340834E4
:1014F00040340834803404348034043400340334F9
:101500000034033400340034003400340034003438
:101510000E3400340234003402341B34823400347C
:1015200042340034263400341C3400340034003497
:1015300000340034F034033418340C3404341834D8
:10154000E2341334123414340A3416348A341B341B
:10155000FC340734003404340034043400341034D0
:1015600000340E34803403347034023418340234BE
:1015700030340234C03402340034033400340C34C8
:101580000034103400340034F8341F3488341034FC
:10159000883410348834103488341034483411348A
:1015A00030340E340034003400340034C03403349A
:1015B00030340C3410340834083410340834103407
:1015C0000834103408341034183410340034003423
:1015D0000034003400340034F8341F34083410343C
:1015E00008341034083410340834103410340834FB
:1015F000E034073400340034003400340034003464
:10160000F8341F34083411340834113408341134D8
:1016100008341134083411340834103400340034E0
:101620000034003400340034F8341F3408340134FA
:1016300008340134083401340834013408340134E6
:1016400008340034003400340034003400340034F2
:10165000C034033430340C341034083408341034BB
:1016600008341034083411340834113418341F3459
:101670000034003400340034F8341F3400340134B2
:1016800000340134003401340034013400340134B6
:10169000F8341F3400340034003400340034003493
:1016A000083410340834103408341034F8341F343B
:1016B0000834103408341034083410340034003442
:1016C000003400340034003400340034003410346A
:1016D000083410340834103408341034F8340F341B
:1016E000003400340034003400340034003400345A
:1016F000F8341F34803400348034013440340234F0
:1017000020340434103404340834083400341034E1
:101710000034003400340034F8341F340034103402
:1017200000341034003410340034103400341034D9
:10173000003410340034003400340034F8341F34E2
:1017400038340034E03401340034073400340634D3
:10175000C034013438340034F8341F3400340034D9
:101760000034003400340034F8341F3410340034B2
:1017700060340034803401340034063400340834DA
:10178000F8341F34003400340034003400340034A2
:10179000E03407341034083408341034083410347A
:1017A000083410340834103410340834E03407346A
:1017B0000034003400340034F8341F340834013469
:1017C00008340134083401340834013488340034D6
:1017D00070340034003400340034003400340034F9
:1017E000E03407341034083408341034083410342A
:1017F000083410340834303410344834E03447347A
:101800000034003400340034F8341F340834013418
:101810000834013408340334883404347034083410
:101820000034103400340034003400340034003408
:1018300070341834483410348834103488341034F8
:10184000083411340834093418340E3400340034A8
:1018500000340034083400340834003408340034D0
:1018600008340034F8341F340834003408340034A9
:1018700008340034083400340034003400340034B8
:10188000F834073400341834003410340034103481
:101890000034103400340834F83407340034003491
:1018A000003400340834003430340034C03401349F
:1018B000003406340034183400341834003407344B
:1018C000C034003430340034083400341834003468
:1018D000E034033400341C3400340F34E03400347A
:1018E000C034013400340E3400341C34E03403348A
:1018F00018340034083410341034083420340434DC
:1019000040340234803401348034013440340234B1
:1019100020340434103408340834103408340034CB
:1019200010340034603400348034003400341F3408
:101930008034003440340034203400341034003417
:1019400008340034003400340834183408341434B3
:1019500008341234083411348834103448341034C4
:101960002834103418341034003400340034003477
:101970000034003400340034FE347F340234403408
:1019800002344034023440340234403400340034F1
:101990000034003400340034023400340C34003499
:1019A00030340034C03400340034033400340C3498
:1019B0000034303400344034003400340034003417
:1019C000023440340234403402344034023440346F
:1019D000FE347F34003400340034003400340034EA
:1019E0000034003400340034003404340034033450
:1019F000E0340034383400340E34003470340034B1
:101A0000803403340034043400340034003420348F
:101A100000342034003420340034203400342034A6
:101A20000034203400342034003420340034203496
:101A300000342034003400340034003400340034E6
:101A400000340034013400340234003400340034F3
:101A500000340034003400340034003400340034E6
:101A600000340C3420341234203411342034113436
:101A700020340934C0341F340034103400340034AE
:101A80000034003400340034FE341F344034083451
:101A900020341034203410342034103460340834AE
:101AA000803407340034003400340034003400340F
:101AB0008034073440340834203410342034103457
:101AC00020341034203410342034103400340034E6
:101AD0000034003400340034803407344034183487
:101AE000203410342034103420341034403408347E
:101AF000FE341F3400340034003400340034003429
:101B00008034073440340934203411342034113403
:101B10002034113420341134C034113400340034F2
:101B200000340034003400342034003420340034D5
:101B3000FC341F3424340034223400342234003482
:101B400022340034223400340034003400340034B1
:101B50008034073440349834203490342034903426
:101B60002034903440344834E0343F34003400347E
:101B70000034003400340034FE341F348034003428
:101B80004034003420340034203400342034003415
:101B9000C0341F34003400340034003400340034C6
:101BA000203400342034003426340034E6341F342A
:101BB0000034003400340034003400340034003485
:101BC0000034003400340034003480342034803455
:101BD0002034803426348034E6347F3400340034BA
:101BE0000034003400340034003400340034003455
:101BF000FE341F34003401340034033480340434A0
:101C00004034043440340834203410340034003478
:101C10000034003400340034003400340234003422
:101C20000234003402340034FE341F3400340034F3
:101C3000003400340034003400340034E0341F3405
:101C4000403400342034003420340034C0341F3495
:101C5000403400342034003420340034C0341F3485
:101C60000034003400340034E0341F34C034003415
:101C70004034003420340034203400342034003424
:101C8000C0341F34003400340034003400340034D5
:101C90008034073440340834203410342034103475
:101CA0002034103440340834803407340034003495
:101CB0000034003400340034E034FF34403408345D
:101CC000203410342034103420341034603408347C
:101CD00080340734003400340034003400340034DD
:101CE0008034073440341834203410342034103415
:101CF0002034103440340834E034FF3400340034ED
:101D0000003400340034003400340034E0341F3434
:101D10008034003440340034203400342034003423
:101D2000E034003400340034003400340034003433
:101D3000C034183420341134203411342034123497
:101D40002034123420340C34003400340034003495
:101D500000340034003400342034003420340034A3
:101D6000F8340F342034103420341034203410343C
:101D70002034103400340034003400340034003493
:101D8000E0340F3400341034003410340034103494
:101D900000340834E0341F3400340034003400349C
:101DA0000034003420340034C034013400340634AC
:101DB000003418340034103400340C34003403344C
:101DC000C034003420340034003400346034003433
:101DD000803407340034183400340E34C0340134F5
:101DE0008034013400340E34003418348034073425
:101DF000603400340034003420341034403408346B
:101E00008034043400340334003403348034043424
:101E1000403408342034103400340034203480340A
:101E2000C0348034003483340034463400343834D1
:101E3000003418340034063400340134C034003423
:101E4000203400340034003420341034203418346A
:101E5000203414342034123420341134A03410349B
:101E60006034103420341034003400340034003432
:101E7000003400340034013400340134FC343E3486
:101E800002344034023440340234403400340034EC
:101E900000340034003400340034003400340034A2
:101EA00000340034FE347F34003400340034003415
:101EB0000034003400340034003400340034003482
:101EC00000340034023440340234403402344034AC
:101ED000FC343E3400340134003401340034003426
:101EE000003400340034033480340034803400344F
:101EF00080340034003401340034013400340234BE
:101F000000340234003402348034013400340034AC
:101F100080341F34C0341034203410341034103462
:101F200020341034C034103480341F340034003472
:101F300000340034C034033430340C3410340834EA
:101F40000834103408341034083490340834B03471
:101F50001834D034750883160313C9007608CA00F4
:101F60007708CB007808CC007908CD007A08CE003D
:101F70007B08CF007C08D000D101D201D301D4016D
:101F8000831603134D1CD22F4908D1074A080318A2
:101F90004A0FD2074B0803184B0FD3074C080318FE
:101FA0004C0FD4070310D00CCF0CCE0CCD0C03106B
:101FB000C90DCA0DCB0DCC0D4D08F9004E08FA0025
:101FC0004F08FB005008FC00F501F601F701F8018D
:101FD000831203138A150A16A4258A150A1270188B
:101FE000C02F831603135108F0005208F100530864
:0C1FF000F2005408F300831203130800F1
:10200000303077020318003477080D3EF7001030A7
:102010000318013E8A007708820030340634FF340A
:1020200020341F340634FF34043400340634FF34C3
:10203000203400340634FF34043400340634FF34D2
:10204000203400340634FF34043400340634FF34C2
:10205000203400340634FF34043400340634FF34B2
:10206000203400340634FF340434003406343F3462
:1020700020343E3406343F3404346408F9006508E3
:10208000FA006608F5006708F6008A150A16952515
:102090008A110A16701C58286408C8006508C9000F
:1020A0006608E4006708E5004808E6004908E7001C
:1020B0006808F9006908FA006A08F5006B08F6007C
:1020C0008A150A1695258A110A16701C7328680845
:1020D000C8006908C9006A08E8006B08E9004808F8
:1020E000EA004908EB0001306402B2006508B30061
:1020F0000030031C0130B3026408F9006508FA00DF
:102100006608F5006708F6008A150A1695258A11F3
:102110000A167018B728B20A0319B30A3208CA009F
:102120006808CB005408B8005508B9008A150A168B
:1021300004248A110A163208CA006A08CB0054081F
:10214000B8005508B9008A150A1604248A110A161F
:102150003208F5003308F6006608F9006708FA004F
:102160008A150A1695258A110A1670188B280130CF
:102170006802B2006908B3000030031C0130B302EA
:102180006808F9006908FA006A08F5006B08F600AB
:102190008A150A1695258A110A167018FB28B20AA4
:1021A0000319B30A6408CA003208CB005408B80007
:1021B0005508B9008A150A1604248A110A166608F9
:1021C000CA003208CB005408B8005508B9008A1577
:1021D0000A1604248A110A163208F5003308F6009C
:1021E0006A08F9006B08FA008A150A1695258A1103
:1021F0000A167018CF280800831603136308F50029
:102200003030F900831203138A150A1614268A1136
:102210000A16700883160313DA00F500F901831219
:1022200003135D27701C172983160313E30183161C
:10223000031367086307DA00F5004030F9008312E2
:1022400003138A150A168E258A110A16701C2B296B
:10225000861206162D29861606128611831603137A
:1022600068086407DA00F5000830F90083120313E8
:102270008A150A1614268A110A16B8307504CF007A
:102280008A150A1699228A110A16861183160313D3
:1022900067086307DA0040305A0483120313CF0043
:1022A0008A150A1699228A110A1686158A150A169F
:1022B00069228A110A164708BB0086158A150A1674
:1022C00069228A110A164708BB0086118316031378
:1022D00067086307DA0040305A0483120313CF0003
:1022E0008A150A1699228A110A1683160313E30A1D
:1022F0002F306302031D7E290830E4078312031385
:102300003A083B0203190800861587138813BA1B85
:10231000881708133A1B08178812BA1A8816081269
:102320003A1A08168811BA19881508113A190815A9
:102330008810BA18881408103A1808140330F000EE
:10234000F00BA02906150130F000F00BA5290000C4
:1023500006110330F000F00BAB2908005408F5001B
:102360005508F6004108F9004208FA008A150A16D5
:1023700070258A110A16F009701CC3290130B400B7
:10238000B501C101C2010F30A102A201A3013F03A7
:10239000031D002A1030A1022108F7008A150A1631
:1023A00013238A110A16EC002108F7008A150A1671
:1023B00081238A110A16ED006C08F7006D08F800F9
:1023C0008A110A123E268A110A16A800280AC0009D
:1023D0006C08F5006D08F6000130F900FA018A1565
:1023E0000A1670258A110A16701CF9290130C000DE
:1023F000FB29280AC000073083160313B7001B2AE5
:1024000002303F02031D1B2A1130A1022108F500F2
:10241000F6011430F900FA018A150A166C268A11A1
:102420000A167008EC007108ED000930A8000F30A2
:1024300083160313B700FF3083120313AB00003081
:102440002802031CBF2AAB0AEC0A0319ED0A3F035A
:10245000031D352A6C08F7006D08F8008A110A126E
:102460003E268A110A16AD00432A02303F02031DA0
:10247000432A6C08F7006D08F8008A150A1200203C
:102480008A110A16AD00FF30AC000030831603132A
:102490003702031CB92A83120313AC0A2D18602AD1
:1024A0002B082407CA002C082607CB003408B800E4
:1024B0003508B9008A150A1604248A110A166F2AEB
:1024C0002B082407CA002C082607CB005408B800A4
:1024D0005508B9008A150A1604248A110A16AD0C8B
:1024E0003F08F5000230F9005D27700883160313DA
:1024F000DA00831203132C08F5000730F9005D277A
:10250000831603135A087005DE005E1C962A831298
:102510000313EC0A0319ED0A6C08F7006D08F800C4
:102520008A150A1200208A110A16AD0083120313BD
:1025300028082B02031DB12A2B082407C8000230EB
:102540003F020319C80A4808CA002C082607CB0016
:102550003408B8003508B9008A150A1604248A110F
:102560000A16831603133708831203132C02031C65
:102570004B2A8312031328082B02031C232AB401BD
:10258000B5010130C100C201080083160313D50153
:1025900083120313400883160313B000831603133A
:1025A000D50AE530550784008317831203135008BA
:1025B000F5005108F6005208F7005308F8000A30F9
:1025C000F900FA01FB01FC0163277008800075081F
:1025D000D0007608D1007708D2007808D3005008E0
:1025E000F5005108F6005208F7005308F800F90109
:1025F000FA01FB01FC018A150A167B258A110A16CD
:10260000F0097018CE2A83160313310883120313BE
:10261000C40083160313320883120313C500831604
:102620000313550A83120313C600013083160313E4
:102630005502031C772B83120313C6034408A4001E
:102640004508A50083160313330883120313A6005D
:1026500083160313340883120313A700E5304607DB
:102660008400831730300007A1004108D4004208DD
:10267000D500AE214008F5003F08F9008A150A167A
:1026800060268A110A16700883160313DA00831273
:102690000313440783160313DE0083120313450854
:1026A00083160313DF00003003180130DF078312A5
:1026B00003133F08831603135E07DA005F08DB008D
:1026C000003003180130DB0701305A028312031374
:1026D000C400831603135B0883120313C500003084
:1026E000031C0130C5024608013C031C1B2B83124E
:1026F0000313440883160313B10083120313450820
:1027000083160313B200300883120313C0000800BD
:10271000D601D701DA01DB01E001E101E201E301C9
:10272000D801D901DC01DD01DE01DF0164086602A8
:10273000D6006708D7006508031C650FD702680834
:102740006A02DA006B08DB006908031C690FDB0210
:102750005608F9005708FA00F501F6018A150A161D
:10276000BD258A110A16701CB92B0130E000E10169
:10277000BC2BFF30E000E1005A08F9005B08FA00CA
:10278000F501F6018A150A16BD258A110A16701C74
:10279000CD2B0130E200E301D02BFF30E200E3005B
:1027A0006008F5006108F6005608F9005708FA00BD
:1027B0008A150A1692268A110A167008D600710820
:1027C000D7006208F5006308F6005A08F9005B08B4
:1027D000FA008A150A1692268A110A167008DA007B
:1027E0007108DB005608F5005708F6000230F900C2
:1027F000FA018A150A1692268A110A167008D8005C
:102800007108D9005A08F5005B08F6000230F9009B
:10281000FA018A150A1692268A110A167008DC0037
:102820007108DD005608F5005708F6005A08F9004F
:102830005B08FA008A150A16BD258A110A16F009E6
:10284000701C9E2C56085C02DE005D08DF005708F5
:10285000031C570FDF026408F5006508F6006608E0
:10286000F9006708FA008A150A1670258A110A16F7
:10287000F009701C902C6408CA006808CB0054084A
:10288000B8005508B9008A150A1604248A110A16D8
:102890006008E40761080318610FE5075E08F500AA
:1028A0005F08F600F901FA018A150A16BD258A119A
:1028B0000A16701C622C5C08DE075D0803185D0FA9
:1028C000DF078F2C58085C0283160313DA0083128B
:1028D00003135D0883160313DB00831203135908E7
:1028E000031C590A0319772C83160313DB02831682
:1028F00003135A0883120313DE07831603135B08BE
:1029000003185B0A0319872C83120313DF07831252
:1029100003136208E80763080318630FE9072B2C09
:102920006408CA006808CB005408B8005508B9000C
:102930008A150A1604248A110A16192D5A085802F3
:10294000DE005908DF005B08031C5B0FDF0268082C
:10295000F5006908F6006A08F9006B08FA008A15A4
:102960000A1670258A110A16F009701C0C2D6408CD
:10297000CA006808CB005408B8005508B9008A1589
:102980000A1604248A110A166208E8076308031865
:10299000630FE9075E08F5005F08F600F901FA0128
:1029A0008A150A16BD258A110A16701CDE2C5808D5
:1029B000DE0759080318590FDF070B2D5C08580272
:1029C00083160313DA0083120313590883160313C3
:1029D000DB00831203135D08031C5D0A0319F32C4B
:1029E00083160313DB02831603135A08831203139F
:1029F000DE07831603135B0803185B0A0319032D14
:102A000083120313DF07831203136008E4076108CE
:102A10000318610FE507A72C6408CA006808CB00FB
:102A20005408B8005508B9008A150A1604248A11FA
:102A30000A1608008316031320082202DE0023086A
:102A4000DF002108031C210FDF022C082A02DA0014
:102A50002B08DB002D08031C2D0FDB025E08F500A0
:102A60005F08F600F701F8015A08F9005B08FA0060
:102A7000FB01FC01831203138A150A12AA278A118B
:102A80000A16700883160313A6007108A7007208BF
:102A9000A8007308A90020087E02A4007F08A500F2
:102AA0002108031C210FA5022608F5002708F600BF
:102AB0002808F7002908F8002408F9002508FA007A
:102AC000FB01FC01831203136327750883160313AC
:102AD000DA007608DB007708DC007808DD002C08D7
:102AE0005A07DE005B08DF002D0803182D0FDF07F3
:102AF000831203136E08831603135E07B8005F0882
:102B0000B900831203136F0803186F0A03198B2D82
:102B100083160313B90783120313080083160313E4
:102B20006208A200A301A001A1014630FE00FF013E
:102B3000AC01AD011C30AA00AB0183120313EE01FE
:102B4000EF011A25831603133808E2006930B1003B
:102B5000B201B301B401DB30F2000130F300EE301A
:102B6000F7001E30F800831203138A150A16AC26EC
:102B70008A110A16DB3083160313C7000130C80020
:102B8000831203138A110A1240238A110A16623033
:102B900083160313B100B2011030B300B401DB306F
:102BA000F2000130F300F330F7001E30F80083121A
:102BB00003138A150A16AC268A110A16DB3083160F
:102BC0000313C7000130C800831203138A110A12CD
:102BD00040238A110A167B3083160313B100B20119
:102BE0001030B300B401DB30F2000130F300D33019
:102BF000F7001E30F800831203138A150A16AC265C
:102C00008A110A16DB3083160313C7000130C8008F
:102C1000831203138A110A1240238A110A1666309E
:102C2000E400E5011430E800E9017830E600E7014E
:102C30001430EA00EB014108D4004208D500882393
:102C4000831603136208003C03183E2E6230831281
:102C50000313E4000930E8006230831603136207AF
:102C600083120313E6000E30EA000130D400D501D0
:102C70008A150A160B228A110A16602E6230B100DC
:102C8000B2010830B300B401DB30F2000130F300D0
:102C9000F530F7001E30F800831203138A150A1668
:102CA000AC268A110A16DB3083160313C7000130E5
:102CB000C800831203138A110A1240238A110A16CC
:102CC0006230831603136207DE005E0A8312031369
:102CD000E4000930E8007F30E6000E30EA00D4015D
:102CE000D5018A150A160B2A83160313C201600840
:102CF000F5006108F6001030F9002730FA00831261
:102D000003138A150A1695258A110A16F009701CF4
:102D1000AB2E831603136008F5006108F60010302F
:102D2000F9002730FA00831203138A150A162826A1
:102D30008A110A16750883160313D9007008E0007B
:102D40007108E100C20AD530420784008317303091
:102D500059078000BF2E831603136008F500610831
:102D6000F600E830F9000330FA00831203138A15E5
:102D70000A1695258A110A16F009701CE12E831691
:102D800003136008F5006108F600E830F90003302D
:102D9000FA00831203138A150A1628268A110A16C6
:102DA000750883160313D9007008E0007108E1006C
:102DB000C20AD5304207840083173030590780009B
:102DC000F42E831603136008F5006108F6006430E2
:102DD000F900FA01831203138A150A1695258A1140
:102DE0000A16F009701C152F831603136008F500EE
:102DF0006108F6006430F900FA01831203138A15A2
:102E00000A1628268A110A16750883160313D90094
:102E10007008E0007108E100C20AD5304207840062
:102E20008317303059078000282F8316031360085A
:102E3000F5006108F6000A30F900FA018312031365
:102E40008A150A1695258A110A16F009701C482F52
:102E5000831603136008F5006108F6000A30F900D4
:102E6000FA01831203138A150A1628268A110A16F4
:102E7000750883160313D9007008E0007108E1009B
:102E8000C20AD530420784008317303059078000CA
:102E900083160313C20AD5304207840083173030EB
:102EA000600780007008E0007108E10042088316A6
:102EB0000317D500831203130800F0017508790287
:102EC0000319F0090800750883160313C900760872
:102ED000CA007708CB007808CC007908CD007A08C2
:102EE000CE007B08CF007C08D000D101D201D301F5
:102EF000D4014D08F5004E08F6004F08F7005008C1
:102F0000F800F901FA01FB01FC01831203138A1591
:102F10000A167B258A110A16701C932FF501F601FB
:102F2000F701F80108002030F400031083160313A2
:102F3000C90DCA0DCB0DCC0DD10DD20DD30DD40DB5
:102F40004D08D1024E08031C4E0FD2024F08031C3D
:102F50004F0FD3025008031C500FD402491403181A
:102F6000C02F49104D08D1074E0803184E0FD20745
:102F70004F0803184F0FD30750080318500FD407FA
:102F8000F40B952F4908F5004A08F6004B08F700A6
:102F90004C08F8005108F0005208F1005308F20004
:102FA0005408F30083120313080076087A06FD0024
:102FB000F61FDF2FF509F609F50A0319F60AFA1FBD
:102FC000E62FF909FA09F90A0319FA0A8A150A1605
:102FD00028268A110A16FD1FF72FF509F609F50AAA
:102FE0000319F60AF009F109F00A0319F10A0800B9
:10300000303077020318003477080D3EF70018308F
:103010000318013E8A007708820030340634FF34FA
:1030200020341F340634FF34043400340634FF34B3
:10303000203400340634FF34043400340634FF34C2
:103040002034F8340634FF34043400340634FF34BA
:10305000203400340634FF34043400340634FF34A2
:10306000203400340634FF340434003406343F3452
:1030700020343E3406343F340434283077020318B9
:10308000003477084A3EF70018300318013E8A00E2
:103090007708820028340634FF3420341F34063485
:1030A000FF34043400340634FF342A340034063448
:1030B000FF342634F8340434003426340034063423
:1030C000FF340434003406348034203400340634B1
:1030D000FF340434003406343F3420343E340634A4
:1030E0003F340434303077020318003477087F3ED1
:1030F000F70018300318013E8A0077088200303448
:103100000634FF34013407341E34003401340734EC
:103110000634FF34043400340634FF3420340034E1
:103120000634FF34043400340634FF342034F834D9
:103130000634FF3404340034263400340634FF34BB
:1031400004340034263400340634FF3404340034AC
:10315000253400340134383406343F3404342C3000
:103160007702031800347708BC3EF70018300318C4
:10317000013E8A00770882002C340634FF34203464
:103180001F340634FF34043400340634FF34203452
:1031900000340634FF34043400340634FF34203461
:1031A000F8340634FF340434003426340034063452
:1031B000FF3404340034263400340634FF3404343D
:1031C000003406343F3420343E3406343F34043473
:1031D0002E307702031800347708F53EF7001830D8
:1031E0000318013E8A00770882002E341A34003416
:1031F0000134783401347C3401347E340634FF34B5
:103200000D3400341D3400340634FF340D340034E2
:103210001D3400340634FF340D3400341D340034C2
:103220000634FF340D3400341D3400340634FF34CA
:103230000D3400341B34003402343E3406343F3441
:1032400002343E340B3428307702031800347708F8
:10325000303EF70019300318013E8A0077088200DB
:10326000283406343F3420341F340634FF34043409
:103270000034263400340634FF3404340034263459
:1032800000340634FF340434003426340034063469
:10329000FF3404340034263400340634FF3404345C
:1032A00000342534003401343E3406343F340434D1
:1032B0002A307702031800347708653EF70019308A
:1032C0000318013E8A00770882002A340634FF344E
:1032D00020341F3406343F34043400340634FF34C1
:1032E0002A3400340634FF342634F83404340034ED
:1032F0000634FF34203400340634FF340434003400
:103300000634FF34203400340634FF3404340034EF
:1033100006343F3420343E3406343F340434243001
:1033200077020318003477089C3EF7001930031821
:10333000013E8A0077088200243406343F34213469
:103340001F340634FF342A3400340634FF340D347D
:1033500000341D34F8340634FF340D3400341D3489
:1033600000340634FF342A3400340634FF34043485
:10337000003406343F3420343E3406343F340434C1
:1033800028307702031800347708CD3EF700193053
:103390000318013E8A0077088200283406347F34FF
:1033A00020341F340634FF342A3400340634FF340A
:1033B000043400342634F8340634FF340434003442
:1033C0000634FF3426340034043400340634FF3429
:1033D00020340034063480340434003406343F345E
:1033E00020343E3406343F3404340F30F000F00B08
:1033F000F7290000F50BF5290800F30AE330F10086
:103400000630F000F00B022AF10B002AF20BFE2925
:10341000F30BFE290800640866020318152A6408E5
:10342000C8006608E4004808E60068086A02031855
:103430001F2A6808C8006A08E8004808EA00640310
:10344000B20064086602031C3E2AB20A6803C80080
:1034500068086A02031C3A2AC80A3208CA004808E7
:10346000CB005408B8005508B90004246A08480283
:10347000031C2C2A66083202031C252A0800CD01F1
:10348000CE0186160612CC01CC0AFF30AF00AF0A7F
:103490008611B8302F04CF009922FF30AE00AE0A5B
:1034A000861140302E04CF0099228615CF01992233
:1034B0003F302E02031C4F2A07302F02031C472ADD
:1034C0008612061602304C02031C442A861206128B
:1034D000080083160313881708178816081688151E
:1034E0000815881408148312031387170615033070
:1034F000F000F00B792AC713881BC7174713081B66
:103500004717C712881AC7164712081A4716C71155
:103510008819C715471108194715C7108818C71407
:1035200047100818471406110330F000F00B962AD4
:10353000080083160313411083120313861DA32A68
:1035400083160313411483160313C110831203134C
:10355000061EAD2A83160313C11483120313861AA1
:10356000061286116922C71BB22A8611831603131D
:10357000411CBD2A831203138615831203130612FE
:1035800083160313C11CC72A831203130616831262
:10359000031387138316031308108810081188116A
:1035A0000812881208138813831203138813CF1B81
:1035B000881708134F1B08178812CF1A881608128D
:1035C0004F1A08168811CF19881508114F190815B8
:1035D0008810CF18881408104F1808140330F00012
:1035E000F00BF02A06150130F000F00BF52A000070
:1035F00006110330F000F00BFB2A08007708F500F5
:103600007808F6000130F900FA019525701C0034A5
:103610007708123EF7001B300318013E78078A0036
:10362000770882000134613077020318003477088C
:10363000203EF7001B300318013E8A007708820005
:10364000603401340334053409340F34153419342B
:103650001F342134243427342D3431343334373477
:1036600039343D34423446344B344F345434583476
:103670005D34613466346B346D3470347434783452
:103680007C34803486348B34903495349A349E3430
:10369000A234A734AC34B034B434B934BD34C334F8
:1036A000C934CE34D334D834DD34E234E634EB34A8
:1036B000F134F734FD34023407340A340E34113453
:1036C00015341A341D34223427342C343134363432
:1036D00039343E344334453448344D344F34553412
:1036E0005A345F34643469346C34713475347A34E8
:1036F000803486348C349134953499349B349F349F
:10370000A434613077020318003477088E3EF70046
:103710001B300318013E8A00770882000034003411
:1037200000340034003400340034003400340034F9
:1037300000340034003400340034003400340034E9
:1037400000340034003400340034003400340034D9
:1037500000340034003400340034003400340034C9
:1037600000340034003400340034003400340034B9
:1037700000340034003400340034003400340034A9
:103780000034003400340034003400340034003499
:103790000034013401340134013401340134013482
:1037A0000134013401340134013401340134013471
:1037B0000134013401340134013401340134013461
:1037C0000134013401340134013401340134013451
:1037D00001340134013401340134013401347708F7
:1037E000F5007808F6000130F900FA019525701C03
:1037F00000347708033EF7001C300318013E7807B9
:103800008A007708820007344A1B082C06168612A5
:103810004A1F0E2C86164030CA0206124B08F500CD
:103820000830F90014267508AF008611B8302F044F
:10383000CF009922861140304A04CF009922861584
:1038400069224708BC00861569224708BC0007307A
:103850004B05B6003818302CFE30B7000314332C5B
:103860000130B7000310360883160313D80003197C
:10387000402C83120313B70D83160313D80B392C76
:10388000831203133818482C3C083705BB004B2C17
:103890003C083704BB003B083C020319582C861136
:1038A00040304A04CF00992286153B08CF00992268
:1038B000861206120800831603139F179F111F110B
:1038C0009F101F101F13831203139F131F179F11A5
:1038D0001F129F1220189F15A0181F1620199F163F
:1038E0001F140230F500F5211F1500001F19762C5A
:1038F0001F10831603139F111F159F141F101E08FE
:10390000B500B601831203131E0883160313B60015
:103910009F13831203130800D030F2000130F3002C
:10392000CF30F7001E30F800AC26083083160313A2
:10393000B100B2013730B300B401DB30F200013026
:10394000F300D530F7001E30F80083120313AC26C5
:10395000DB3083160313C7000130C8008312031342
:103960008A110A12402BD030F2000130F300CF3020
:10397000F7001E30F800AC26413083160313B10067
:10398000B2013730B300B401DB30F2000130F30094
:10399000E730F7001E30F80083120313AC26DB304B
:1039A00083160313C7000130C800831203138A1162
:1039B0000A12402BD030F2000130F300CF30F70074
:1039C0001E30F800AC26083083160313B100B20194
:1039D0002F30B300B4016208E000E1018312031349
:1039E0008A110A1674268A150A16DB30F200013095
:1039F000F300F601D530F7000130F800F625D0309D
:103A0000F7001E30F800B626DB30840083177608F6
:103A10008000DB3083160313C7000130C800831217
:103A200003138A110A1240238A150A161230E40081
:103A3000E5012F30E800E9011430E600E7013130FC
:103A4000EA00EB014108D4004208D5008A110A16A9
:103A50003D208A150A16163083160313B100B201F1
:103A60002F30B300B401DB30F2000130F300D3306B
:103A7000F7001E30F80083120313AC26DB308316E8
:103A80000313C7000130C800831203138A110A12FE
:103A9000402BD030F2000130F300CF30F7001E3061
:103AA000F800AC26413083160313B100B2012F3069
:103AB000B300B401DB30F2000130F300DD30F70079
:103AC0001E30F80083120313AC26DB308316031379
:103AD000C7000130C800831203138A110A12402B59
:103AE000F00175087902031D080076087A02031DAB
:103AF0000800F0090800F00175087902031D0800AC
:103B000076087A02031D080077087B02031D08006F
:103B100078087C02031D0800F0090800F001031476
:103B200079087502031CF0090800F00176087A0292
:103B3000031C08007A087602031CA22D790875027E
:103B400003180800F0090800F00178087C02031C43
:103B50000800031DBB2D77087B02031C0800031D12
:103B6000BB2D76087A02031C0800031DBB2D7908C3
:103B7000750203180800F0090800F001F61FD72DA0
:103B8000FA1BC42DF00908007509F7007609F80042
:103B9000F70A0319F80A7909F5007A09F600F50A17
:103BA0000319F60A7708F9007808FA00D92DFA1BEC
:103BB000080076087A02031C08007A087602031CC3
:103BC000E52D7908750203180800F0090800770848
:103BD00084008313781883170008F50072088400A6
:103BE00083137318831775088000FE2D77088400EF
:103BF0008313781883170008F607F5007508031972
:103C00000800F70AF20A77088400831378188317EC
:103C10000008F90072088400831373188317790869
:103C20008000F50B012E0800F90803190800F001C7
:103C30000830F4000310F50DF00D7908F00275144A
:103C40000318252E75107908F007F40B1A2E0800BA
:103C50007508F7007608F8007908FB007A08FC0080
:103C6000F201F3017B08F5007C08F600F901FA0186
:103C70007025701C3E2EF501F60108001030F4008E
:103C80000310F70DF80DF20DF30D7B08F2027C081E
:103C9000031C7C0FF30277140318552E77107B0852
:103CA000F2077C0803187C0FF307F40B402E77080B
:103CB000F5007808F6007208F0007308F1000800BB
:103CC000F00175087918F0070310F90C0310F50DD1
:103CD000F908031D612E08007508F7007608F80042
:103CE0007908FB007A08FC00F201F3017B1C7E2EB0
:103CF0007708F20778080318780FF3070310FC0C15
:103D0000FB0C0310F70DF80D7B08F9007C08FA0096
:103D1000F501F60195257018762E7208F0007308EB
:103D2000F100080076087A06FD00F61F9C2EF509C2
:103D3000F609F50A0319F60AFA1FA32EF909FA097A
:103D4000F90A0319FA0A6C26FD1FAB2EF009F109D6
:103D5000F00A0319F10A080072088400831373182B
:103D60008317C826F5008000F207BF2E7208840072
:103D7000831373188317C826F500F607F207F508B2
:103D800003190800C826840A8000F50BC22E08001B
:103D900078088A007708F70A0319F80A82000034C5
:103DA00002342034203401344634073431343A3478
:103DB00032343134203450344D34093430344834C2
:103DC000723420343034313420344D346E3406347F
:103DD00030342E34333420344D3469340434463492
:0E3DE000553445344C3401344534013421341B
:02400E007A3FF7
:00000001FF
