:020000040000FA
:0400000006EF00F017
:10000800A3EF07F077EC07F071EC07F096EC07F038
:100018006DEC07F043EC07F0D28E67815D6A5E6A8B
:100028005F6A606B17EEEEF37C0EF66E110EF76EDC
:10003800000EF86EA8EC08F0EE0E686F1F0E696FE0
:1000480069EC05F019EC07F0D00E4C6ED5EC06F013
:100058002CEC07F04B52D8A42AD05D6A5E6A100EC9
:100068005F6E606B17EEEEF38E0EF66E110EF76E86
:10007800000EF86EA8EC08F0EE0E686F1F0E696FA0
:1000880069EC05F05D6A5E6A180E5F6E606B17EECC
:10009800EEF3980EF66E110EF76E000EF86EA8ECE1
:1000A80008F0EE0E686F1F0E696F69EC05F0020E1E
:1000B800046EA5DA7DEC04F076D92BC028F02AC0AE
:1000C80026F02DC05BF031C088F0A7D929C05AF0BE
:1000D8005AC029F0C1D930683DD9306A41DA15DAF9
:1000E80067A1D29E67B1D28E6491836B846B856B56
:1000F800866B010E835D4F6E000E8459506E000EA4
:100108008559516E000E8659526E106A116A126A2C
:10011800136AC3805D6A5E6A5F6A606B17EEEEF30E
:10012800A00EF66E110EF76E000EF86EA8EC08F031
:10013800EE0E686F1F0E696F69EC05F017EEEEF3AF
:10014800A00EF66E110EF76E000EF86EA8EC08F011
:10015800EE0E776F1F0E786F010E206E6DEC06F0B5
:10016800030E3A01556F3901908F000164A12DD01B
:10017800102AD8B4112AD8B4122AD8B4132A6491F0
:100188005D6A5E6A080E5F6E606B17EEEEF3A80E8E
:10019800F66E110EF76E000EF86EA8EC08F0EE0E73
:1001A800686F1F0E696F69EC05F0280E5D6E5E6A58
:1001B800080E5F6E606B10C054F011C055F012C08D
:1001C80056F013C057F0AFEC05F04FC005F050C023
:1001D80006F051C007F052C008F083C009F084C08F
:1001E8000AF085C00BF086C00CF026EC08F0001E63
:1001F80000A07FD083A326D05D6A5E6A200E5F6E62
:10020800606B17EEEEF3B20EF66E110EF76E000E7F
:10021800F86EA8EC08F0EE0E686F1F0E696F69ECB7
:1002280005F0280E5D6E5E6A200E5F6E606B10C072
:1002380054F011C055F012C056F013C057F0AFEC8F
:1002480005F04FD083A726D05D6A5E6A100E5F6EF8
:10025800606B17EEEEF3BC0EF66E110EF76E000E25
:10026800F86EA8EC08F0EE0E686F1F0E696F69EC67
:1002780005F0280E5D6E5E6A100E5F6E606B10C032
:1002880054F011C055F012C056F013C057F0AFEC3F
:1002980005F027D083A925D05D6A5E6A180E5F6EC7
:1002A800606B17EEEEF3C60EF66E110EF76E000ECB
:1002B800F86EA8EC08F0EE0E686F1F0E696F69EC17
:1002C80005F0280E5D6E5E6A180E5F6E606B10C0DA
:1002D80054F011C055F012C056F013C057F0AFECEF
:1002E80005F083C04FF084C050F085C051F086C03F
:1002F80052F03BD70300FED787C005F0100E096EF9
:100308003AEC08F005C07DF07D510A0D6F00CCFF76
:1003180081F087C005F0100E096E3AEC08F0005025
:1003280081250D6E120087C005F00A0E096E3AECA1
:1003380008F005C07DF07D51100D6F00CCFF81F0F5
:1003480087C005F00A0E096E3AEC08F000508125C6
:10035800276E120019EC07F0D00E4C6ED5EC06F0A3
:100368004C6AD5EC06F019EC07F0D10E4C6ED5ECC2
:1003780006F04A6A9EEC06F04CC02EF03052D8B413
:1003880002D02E9E01D02E8E19EC07F0D00E4C6EA6
:10039800D5EC06F04C6AD5EC06F02EC04CF0D5EC46
:1003A80006F02CEF07F019EC07F0D00E4C6ED5ECE8
:1003B80006F0030E4C6ED5EC06F0D4EC06F0D10E28
:1003C8004C6ED5EC06F04A689EEC06F04CC02BF05B
:1003D8002BC087F091DF0DC02AF04A689EEC06F02A
:1003E8004CC02AF02AC087F087DF0DC02AF04A687F
:1003F8009EEC06F04CC02DF02DC087F07DDF0DC0BF
:100408002DF04A6A9EEC06F04CC031F031C087F0FE
:1004180073DF0DC031F02CEF07F019EC07F0D00EA8
:100428004C6ED5EC06F0020E4C6ED5EC06F019ECCD
:1004380007F0D10E4C6ED5EC06F04A6A9EEC06F039
:100448004CC029F02CEC07F029AC03D00C0E296E17
:1004580002D0180E296E120019EC07F0D00E4C6E5F
:10046800D5EC06F0020E4C6ED5EC06F019EC07F050
:10047800D10E4C6ED5EC06F04A6A9EEC06F04CC0E4
:100488002CF00C0E295CD8A41BD02CBC18D02CC086
:1004980087F032DF0DC02CF02C500C08D8B009D0F2
:1004A8000C0E2C5E2CC087F03EDF27C02CF02C8A67
:1004B80005D02CC087F037DF27C02CF02C8C15D046
:1004C8002CAC13D0200E2C14296E1F0E2C14876F01
:1004D80013DF0DC02CF02952D8B402D00C0E2C26F4
:1004E8002CC087F020DF27C02CF019EC07F0D00EC5
:1004F8004C6ED5EC06F0020E4C6ED5EC06F02CC016
:100508004CF0D5EC06F02CEF07F019EC07F0D00E04
:100518004C6ED5EC06F00E0E4C6ED5EC06F019ECD0
:1005280007F0D10E4C6ED5EC06F04A6A9EEC06F048
:100538004CC02FF02CEC07F019EC07F0D00E4C6EE5
:10054800D5EC06F00E0E4C6ED5EC06F02F8C2F94E1
:100558002F922F902FC04CF0D5EC06F02CEF07F01F
:1005680019EC07F0D00E4C6ED5EC06F00E0E4C6E62
:10057800D5EC06F019EC07F0D10E4C6ED5EC06F070
:100588004A6AD8DB4CC02FF02CEC07F019EC07F0C6
:10059800D00E4C6ED5EC06F00E0E4C6ED5EC06F077
:1005A8003052D8A403D02F962F9816D03004D8A450
:1005B80003D02F862F9810D0020E305CD8A403D019
:1005C8002F962F8809D0030E305CD8A403D02F862D
:1005D8002F8802D02F862F882FC04CF0E2DB2CEF1B
:1005E80007F0032A810E016E280E006E002EFED73A
:1005F800012EFAD7022EF6D7032EF4D71200E80EF2
:10060800026E030E036EEDDF042EF9D71200710E91
:100618000760000C0750380FF66E060ED8B0010FB1
:10062800F76E000ED8B0010FF86E0800F5501200F2
:100638007000100C0A882238200820101080804092
:10064800040000002848466C000000281000100034
:10065800407C008482304E78066C0C000010280024
:100668000464F8FE7CFEFEFE7CFE0040FEFEFEFEFC
:100678007CFE7CFE4C027E3E7EC60EC20004000854
:10068800800040FE7070701010FE0040FE00F8F808
:1006980070F810F8901078387888188800000020D2
:1006A8007800710E0760000C0750CC0FF66E060E2E
:1006B800D8B0010FF76E000ED8B0010FF86E080021
:1006C800F550120070FE380A06CC667C70044010A3
:1006D8003888A2701C00000EFE5426920A38821038
:1006E80010A010C020A284C282288A940292926C20
:1006F800AC282882029224928282921282108280EE
:10070800108004088212821292028040802810A26F
:10071800FE0882048002A8908888A8FCA81090800F
:100728002082081088282810A87C80408050A0C803
:10073800100082104400710E0760000C0750600F13
:10074800F66E070ED8B0010FF76E000ED8B0010F85
:10075800F86E0800F5501200707C7C0000EEEE7C0C
:10076800A8FEFE545494947C7C009E0028FE10AA97
:100778000644447C7C6010C01092FEA28A248A92AF
:10078800E292926C6C442844A2F2229282829212E3
:100798009210FE82288018108212A23292FE808067
:1007A8007010E092821082028004A8888888A812BB
:1007B800A808FA8850FEF00888282808A8908080A1
:1007C8006020A0A86CFE6C104200710E0760000C3F
:1007D8000750F40FF66E070ED8B0010FF76E000E33
:1007E800D8B0010FF86E0800F55012007038FE0CF2
:1007F8000ACC667C2004403810A288701C00000EC9
:10080800FE54C8440082381010001000088A8092F4
:1008180096FE8A921292520000822828128224920E
:10082800824492129210827E4480042082124252A4
:10083800920280408028108A8220FE048008A888BE
:100848008890A802A808807A888008088828300834
:10085800A88040408050A098820010204400710E6B
:100868000760000C0750880FF66E080ED8B0010F0D
:10087800F76E000ED8B0010FF86E0800F5501200A0
:100888007010000A068822383E0820101080804028
:10089800040000002824C4A0000000281000100054
:1008A800047C008C622072600E6C3C0000002810F2
:1008B8000C7CF86C44388202F4FE00028280FEFE52
:1008C8007C0CBC8C64027E3E7EC60E86004000080E
:1008D8008000F07040FE300478F000000000F0F076
:1008E8007010F8104040F8387888788800000010B8
:1008F8007800486A496ABB98BB8A476A472A2568CC
:10090800252ABB96B80E2510536EBDD92468242A13
:10091800BB96400E2410536EB6D9BB86536AB3D922
:100928003F0E245CD8A0F3D7070E255CD8A0E8D7E3
:10093800BB88BB9A020E475CD8A0E0D7BB88BB8AAD
:10094800120058C005F059C006F03EC009F03FC07B
:100958000AF06FDB001E00A005D0010E326E336A6C
:100968003E6A3F6A0F0E145E156A166A14C005F0D7
:10097800B20E096E76DB001E00C07DF014C009F0CF
:10098800CA0E056E6EDB001E7D510014816F81A1B9
:1009980004D0010E1A5E000E1B5A216A212A210476
:1009A800D8A405D014C007F032DE236E23D0020E7F
:1009B800215CD8A405D014C007F073DE236E1AD0CA
:1009C800030E215CD8A405D014C007F0B4DE236E52
:1009D80011D0040E215CD8A405D014C007F0F5DEB0
:1009E800236E08D0050E215CD8A404D014C007F0EB
:1009F80036DF236E1C6A1D6A226A222A176A1F6A5A
:100A0800010E3C5CD8A04AD01F2A1E6A616B010EF9
:100A18003C5CD8A03ED0612B23A012D015501824DE
:100A28007D6F17507D25456E1C501A247D6F1E5012
:100A38007D25466E58C036F059C037F0AADA11D075
:100A4800155018247D6F17507D25456E1C501A24AB
:100A58007D6F1E507D25466E32C036F033C037F0AC
:100A680098DA3D503C026F00CCFF7DF07D51182490
:100A7800456E1C501A247D6F1E507D25466E32C06F
:100A880036F033C037F085DA1E2A3C50615DD8A0B5
:100A9800C2D7172A3C501F5CD8A0B6D723323C5087
:100AA8001C26000E1D22080E225CD8A0A6D73C509A
:100AB8001526000E1622050E215CD8A06FD7326AC3
:100AC800336A010E3E6E3F6A12006000A3F1E9FF2F
:100AD8006000A7F1EAFF6F00BCFF40F04052D8B4B5
:100AE80012005DC041F05EC042F0436A010E405CF6
:100AF800D8A02CD0432A41C018F042C019F05FC0DA
:100B08001AF060C01BF043506825E96E000E692199
:100B1800EA6E6F00BCFF14F03EC058F03FC059F0B9
:100B280010DF3D503C026F00CCFF7DF07D51412429
:100B3800816F000E4220826F010E8125416E000EEA
:100B48008221426E4050435CD8A0D4D741C05DF0AA
:100B580042C05EF01200766B762B07EEE3F3765117
:100B6800E926000EEA2254C005F055C006F056C02A
:100B780007F057C008F00A0E096E0A6A0B6A0C6A79
:100B880089DA600003F0EFFF05C054F006C055F0A5
:100B980007C056F008C057F054C005F055C006F01D
:100BA80056C007F057C008F0096A0A6A0B6A0C6A4F
:100BB80049DA001E00B0D0D75DC041F05EC042F0F7
:100BC8007629436E010E765DD8A02CD0430641C02D
:100BD80018F042C019F05FC01AF060C01BF007EEB1
:100BE800E3F34350E926000EEA22300EEF24146E98
:100BF8003EC058F03FC059F0A4DE3D503C026F00A3
:100C0800CCFF7DF07D514124816F000E4220826F20
:100C1800010E8125416E000E8221426E435001086B
:100C2800D8A0D4D741C05DF042C05EF01200C58E96
:100C3800C58CC58AC588C586C584C582C580BC8E55
:100C4800BB84350E006E002EFED7449ECDBE448E6A
:100C5800449CCDBC448C449ACDBA448A4498CDB8BF
:100C680044884496CDB644864494CDB44484449292
:100C7800CDB244824490CDB04480BB94350E006E12
:100C8800002EFED712006493CBB664836495CBBA6A
:100C98006485CBA8BB8ABB96CADF44BEFDD7BB968A
:100CA80064B3BB86BB9A64B5BB8ABC9EC56A600048
:100CB8004FF1CDFF350E006E002EFED7BB84050E1A
:100CC800006E002EFED7BB94350E006E002EFED7A8
:100CD80012006000DFF1E9FF6000E3F1EAFF6F0056
:100CE800BCFF5CF05C52D8B414D0796B010E5C5C2C
:100CF800D8A00FD0792B79517725E96E000E78218D
:100D0800EA6E6F00BCFF62F00DD85C50795DD8A028
:100D1800F1D712003901A3A9FDD760008BF1EAFDD4
:100D2800000112003901A3A9FDD760008BF1EAFD8B
:100D380000011200C496BC96C4884C6A080E7C6FE9
:100D4800050E006E002EFED7C486CCA6FED74C3604
:100D58004C90CCB84C80A00E006E002EFED7C496E6
:100D6800BC96050E006E002EFED77C2FE9D74A529E
:100D7800D8B403D0C498BC9801D0C488050E006EBE
:100D8800002EFED7C486CCA6FED7A00E006E002E7D
:100D9800FED7C496BC96050E006E002EFED7120034
:100DA80044D0C496BC96050E006E002EFED7080EE1
:100DB8007B6F4CAE02D0C48802D0C498BC98050E94
:100DC800006E002EFED74C36C486CCA6FED7A00EE9
:100DD800006E002EFED7C496BC96050E006E002E3F
:100DE800FED77B2FE6D76A0E006E002EFED70000D6
:100DF800C488050E006E002EFED7C486CCA6FED78A
:100E0800CCA803D04A6A4B6A02D04A684B68C49699
:100E1800BC96050E006E002EFED7C498BC986A0ECC
:100E2800006E002EFED7000012006591D2BE6581CB
:100E3800D29EC488C486050E006E002EFED7C498C4
:100E4800BC98A00E006E002EFED7C496BC96120069
:100E5800C496BC96C498BC98050E006E002EFED7AA
:100E6800C486A00E006E002EFED7C488050E006E44
:100E7800002EFED765A1D29E65B1D28E1200C39610
:100E8800C49EC394C398C39AC494BC94010E026EC2
:100E9800036AF5EC02F0BC84010E026E036AF5ECFD
:100EA80002F0BB98BB9ABB963F0E536EECDEC00EA9
:100EB800536EE9DEBB88BB8A326A336A010E3E6E26
:100EC8003F6A050E3D6E3A6A010E3C6E070E3B6E98
:100ED80010D5C488C4864D6A1200C49C130E3A010A
:100EE800166F000112000001600E3901D96FDB6B2B
:100EF800DD6BDE6B600ED96F080EDF6FF86A3E019E
:100F0800F895F89F3A01406B506B606B706B806B83
:100F18003E01B89FBC9FCA6ACB6ACC6ACD6ACE6ACA
:100F280000011200010E206E060E3D01F66F810EC3
:100F3800F56FF28FF28BF289F38F000112003901FD
:100F480090AF07D0A0AF05D0000105D83901A09F08
:100F580000D0110000013A0157A108D000016481B6
:100F68003A0157912E0E0001626FD4DE3A0157A361
:100F78000ED00001832BD8B4842BD8B4852BD8B4D9
:100F8800862B3A015793210E0001626FC3DE0001E0
:100F9800120045BC02D0BB9ABB8845AC04D0BB98B4
:100FA800400E455EBB8A46C005F0080E096E5ED845
:100FB80005C025F0BB96B80E2510536E64DEBB96AF
:100FC800400E4510536E5FDEBB8631DE44C039F0FB
:100FD800BB862DDE44C039F0070E4614346E36B099
:100FE80004D0FE0E356ED88003D0010E356ED89031
:100FF80034C07AF07A53D8B403D035367A2FFDD777
:1010080036B004D039503514386E03D03950351005
:10101800386E3850395CD8B409D0BB96400E4510AC
:10102800536E31DEBB8638C053F02DDEBB88BB8AD9
:101038001200006A0950056212000A500662120086
:1010480000681200006A0950056212000A50066220
:1010580012000B50076212000C5008621200006860
:101068001200006809500560006A12000952D8B4DD
:101078001200006A080E046ED89005360036095032
:10108800005E0580D8B003D0059009500026042ED4
:10109800F3D7120005C06AF006C06BF007C06CF009
:1010A80008C06DF009C06EF00AC06FF00BC070F098
:1010B8000CC071F0726B736B746B756B6EC005F05E
:1010C8006FC006F070C007F071C008F0096A0A6ABC
:1010D8000B6A0C6AB7DF00A005D0056A066A076AC2
:1010E800086A1200200E046ED8906A376B376C3786
:1010F8006D3772377337743775376E51725F6F514A
:10110800735B7051745B7151755B6A81D8B009D09B
:101118006A916E5172276F51732370517423715104
:101128007523042EE1D76AC005F06BC006F06CC0C9
:1011380007F06DC008F072C000F073C001F074C011
:1011480002F075C003F0120009006F00D4FF05F02B
:101158006F00D7FFE7FF04D00900F550056E06269B
:101168000552D8B4120009006F00D7FFE4FF052E1E
:10117800FAD712001144533133303720496E737057
:10118800656374696F6E094E6F204453313330378D
:101198000753746F70706564064C6F616465640012
:1011A800086269742030203A20000862697420318E
:1011B800203A2000086269742033203A200008622F
:0C11C80069742034203A2000012E01211F
:020000040030CA
:0A000000ECFFE7F79FFFFFDFFF00B2
:00000001FF
