:020000040000FA
:0400000006EF00F017
:020008001000E6
:10000C0050EC08F026EC08F0630E176E186AF50E2B
:10001C00846F856917C005F018C006F00A0E096ECA
:10002C000A6A4EEC13F005C099F006C09AF099C01C
:10003C0005F09AC006F0096A0A6ABDEC12F000A03D
:10004C0007D0A86BA96BA669A769EEEC06F011D0D6
:10005C00A86BA96B17C005F018C006F00A0E096E44
:10006C000A6ADCEC13F005C0A6F006C0A7F0EEECB3
:10007C0006F0300EA86FA96B17C005F018C006F07B
:10008C000A0E096E0A6ADCEC13F000C0A6F001C07F
:10009C00A7F0EEEC06F017C005F018C006F00A0E3B
:1000AC00096E0A6A4EEC13F005C099F006C09AF07E
:1000BC0099C005F09AC006F0096A0A6ABDEC12F004
:1000CC0000A007D0A86BA96BA669A769EEEC06F097
:1000DC0011D0A86BA96B17C005F018C006F00A0E5A
:1000EC00096E0A6ADCEC13F005C0A6F006C0A7F096
:1000FC00EEEC06F0300EA86FA96B17C005F018C017
:10010C0006F00A0E096E0A6ADCEC13F000C0A6F0C9
:10011C0001C0A7F0EEEC06F0020E2D6E620E716FB0
:10012C00726B200E736F746B3E6A3F6A406A416A51
:10013C0004EC06F05E0E526E536A2C0E566E576A25
:10014C00600E546E556A2A0E586E596A2FC042F0D2
:10015C0030C043F0A2DA010E2D6E17C0A2F0A2EC53
:10016C0011F0C4EC10F0F4EC11F0E2EC10F017C04C
:10017C00A2F018C0A3F000EC11F0900E026E010E6C
:10018C00036E2DDB85AF20D0841D826F851D836FA0
:10019C00822BD8B4832B000E175C996F000E185865
:1001AC009A6F99C005F09AC006F082C009F083C01E
:1001BC000AF0DAEC12F0001E00A005D084511726CC
:1001CC008551182224D719D017500008996F9D6BB0
:1001DC0018509D599A6F99C005F09AC006F084C0CA
:1001EC0009F085C00AF0DAEC12F0001E00A005D070
:1001FC0084511726855118220AD7171C6E6F181CAC
:10020C006F6F010E0E6E5AEC0FF075C017F0186A76
:10021C0017C062F018C063F0606B616B5E685F6A58
:10022C006C6B6D6BE70E6A6F030E6B6F5C6A5D6ACD
:10023C0079EC10F077C017F078C018F06EC005F0AC
:10024C006FC006F017C009F018C00AF0BDEC12F030
:10025C00001E00A09DD017C06EF018C06FF017C024
:10026C0005F018C006F0640E096E0A6A4EEC13F025
:10027C0005C099F006C09AF099C005F09AC006F036
:10028C00096A0A6ABDEC12F000A007D0A86BA96B32
:10029C00A669A769EEEC06F011D0A86BA96B17C084
:1002AC0005F018C006F0640E096E0A6ADCEC13F057
:1002BC0005C0A6F006C0A7F0EEEC06F0300EA86F55
:1002CC00A96B17C005F018C006F00A0E096E0A6A71
:1002DC004EEC13F005C099F006C09AF099C005F0E9
:1002EC009AC006F00A0E096E0A6ADCEC13F000C024
:1002FC00A6F001C0A7F0EEEC06F0020E2D6E620E19
:10030C00716F726B200E736F746B17C005F018C091
:10031C0006F0076A086A0A0E096E0A6A0B6A0C6A0A
:10032C0082EC13F000C03EF001C03FF002C040F080
:10033C0003C041F004EC06F05E0E526E536A2C0EB4
:10034C00566E576A600E546E556A2A0E586E596A6C
:10035C002FC042F030C043F0A0D9010E2D6E17C053
:10036C0005F018C006F00A0E096E0A6A4EEC13F07E
:10037C0005C0A2F0A2EC11F0C4EC10F0F4EC11F0FA
:10038C00E2EC10F017C0A2F018C0A3F000EC11F0D2
:10039C0038D70300FED7300E0760000C0750C40F8F
:1003AC00F66E030ED8B0010FF76E000ED8B0010F29
:1003BC00F86E0800F55012003006FF201F06FF04EF
:1003CC000006FF200006FF040006FF20F806FF04CD
:1003DC000006FF200006FF040006FF200006FF04B5
:1003EC0000063F203E063F04280E0760000C075015
:1003FC00160FF66E040ED8B0010FF76E000ED8B0C3
:10040C00010FF86E0800F55012002806FF201F0699
:10041C00FF040006FF2A0006FF26F804002600064B
:10042C00FF04000680200006FF0400063F203E0665
:10043C003F04300E0760000C0750600FF66E040E80
:10044C00D8B0010FF76E000ED8B0010FF86E08008F
:10045C00F55012003006FF01071E00010706FF04CD
:10046C000006FF200006FF040006FF20F806FF042C
:10047C0000260006FF0400260006FF0400250001EC
:10048C0038063F042C0E0760000C0750B20FF66EB6
:10049C00040ED8B0010FF76E000ED8B0010FF86E35
:1004AC000800F55012002C06FF201F06FF04000662
:1004BC00FF200006FF040006FF20F806FF040026BC
:1004CC000006FF0400260006FF0400063F203E063F
:1004DC003F042E0E0760000C0750000FF66E050E41
:1004EC00D8B0010FF76E000ED8B0010FF86E0800EF
:1004FC00F55012002E1A000178017C017E06FF0DCA
:10050C00001D0006FF0D001D0006FF0D001D00065E
:10051C00FF0D001D0006FF0D001B00023E063F02F2
:10052C003E0B280E0760000C0750500FF66E050EA0
:10053C00D8B0010FF76E000ED8B0010FF86E08009E
:10054C00F550120028063F201F06FF040026000667
:10055C00FF0400260006FF0400260006FF04002608
:10056C000006FF04002500013E063F042A0E07602A
:10057C00000C07509A0FF66E050ED8B0010FF76EEF
:10058C00000ED8B0010FF86E0800F55012002A06C4
:10059C00FF201F063F040006FF2A0006FF26F80472
:1005AC000006FF200006FF040006FF200006FF04E3
:1005BC0000063F203E063F04240E0760000C075047
:1005CC00E60FF66E050ED8B0010FF76E000ED8B020
:1005DC00010FF86E0800F550120024063F211F068B
:1005EC00FF2A0006FF0D001DF806FF0D001D00067A
:1005FC00FF2A0006FF0400063F203E063F04280E9B
:10060C000760000C07502C0FF66E060ED8B0010FC9
:10061C00F76E000ED8B0010FF86E0800F5501200FE
:10062C0028067F201F06FF2A0006FF040026F80676
:10063C00FF040006FF2600040006FF2000068004CD
:10064C0000063F203E063F04300E0760000C0750AA
:10065C00760FF66E060ED8B0010FF76E000ED8B0FE
:10066C00010FF86E0800F55012003006FF201F062F
:10067C00FF040006FF200006FF040006FF20000612
:10068C00FF040006FF200006FF040006FF20000602
:10069C00FF0400063F203E063F0452C009F053C041
:1006AC000AF054C005F055C006F0DAEC12F000A0C8
:1006BC000CD052C036F053C037F054C052F055C075
:1006CC0053F036C054F037C055F056C009F057C03F
:1006DC000AF058C005F059C006F0DAEC12F000A090
:1006EC000CD056C036F057C037F058C056F059C031
:1006FC0057F036C058F037C059F0010E525C206EDE
:10070C00000E5358216E52C009F053C00AF054C069
:10071C0005F055C006F0DAEC12F000B023D0202A18
:10072C00D8B4212A20C038F056C039F042C026F087
:10073C0043C027F003EC0FF020C038F058C039F05C
:10074C0042C026F043C027F003EC0FF020C005F0A8
:10075C0021C006F054C009F055C00AF0DAEC12F0D2
:10076C0000B0DDD7010E565C206E000E5758216E7E
:10077C0056C009F057C00AF058C005F059C006F031
:10078C00DAEC12F000B023D0202AD8B4212A52C0BF
:10079C0038F020C039F042C026F043C027F003ECFB
:1007AC000FF054C038F020C039F042C026F043C0DE
:1007BC0027F003EC0FF020C005F021C006F058C064
:1007CC0009F059C00AF0DAEC12F000B0DDD71200D3
:1007DC00340E006E002EFED7052EFAD71200032A17
:1007EC00810E016E280E006E002EFED7012EFAD758
:1007FC00022EF6D7032EF4D71200A4C005F0300E4B
:10080C00096E3AEC13F000C09FF09FC005F0096A26
:10081C00B8EC12F000B0A46BA851A4259F6F9FC038
:10082C0005F0400E096ED5EC12F000A003D0BB8A87
:10083C00BB9802D0BB9ABB88BB96A951A5259F6FCC
:10084C009FC005F0080E096E3AEC13F0B80E0510B7
:10085C003D6E7ADABB96A851A4259F6F400E9F116E
:10086C003D6E72DABB8642DA35C029F0BB863EDAC1
:10087C0035C029F0BB96A851A4259F6F400E9F113F
:10088C003D6E62DAA42B2F0EA45DD8A402D0080E04
:10089C00A5272850295CD8B41200BB86BC9EBD9EEF
:1008AC0028BEBD8EBD9C28BCBD8CBD9A28BABD8A05
:1008BC00BD9828B8BD88BD9628B6BD86BD9428B411
:1008CC00BD84BD9228B2BD82BD9028B0BD801A0EE9
:1008DC00006E002EFED70000BB84050E006E002EAD
:1008EC00FED7BB941A0E006E002EFED7000012002D
:1008FC005250545CD8B006D052C036F054C052F0AE
:10090C0036C054F05650585CD8B006D056C036F0AD
:10091C0058C056F036C058F05204206E5250545CF9
:10092C00D8A01AD0202A5604366E5650585CD8A03F
:10093C000FD0362A20C038F036C039F042C026F02D
:10094C0043C027F003EC0FF05850365CD8A0F1D719
:10095C005450205CD8A0E6D712003B6A3C6ABB9A84
:10096C00BB883A6A3A2A1D681D2ABB96B80E1D1020
:10097C003D6EEAD91C681C2ABB96400E1C103D6EBD
:10098C00E3D9BB863D6AE0D93F0E1C5CD8A0F3D7F7
:10099C00070E1D5CD8A0E8D7BB8ABB98020E3A5C48
:1009AC00D8A0E0D7BB8ABB88120042C005F043C078
:1009BC0006F02FC009F030C00AF0BDEC12F0001E9A
:1009CC0000A005D0010E226E236A2F6A306A0F0E2A
:1009DC000F5E106A116A2D04D8A428D0100E0F5E79
:1009EC000FC007F085EC0AF05A6E0FC007F0C7EC89
:1009FC000AF05B6E5AC007F05BC008F080EC09F09F
:100A0C00166E16282E6E5AC005F05BC006F0010E4D
:100A1C00096E0A6ABDEC12F000A003D0010E2E6E16
:100A2C0002D016282E6E070E766F16D0020E2D5C95
:100A3C00D8A412D0110E0F5E0FC005F0066A140E6A
:100A4C00096E0A6AFBEC13F000C05AF001C05BF0AF
:100A5C00090E166E0F0E766F1968000E165CD8A074
:100A6C0077D0192A5A2AD8B45B2A2D04D8A408D0D6
:100A7C005AC007F05BC008F080EC09F01B6E0BD07D
:100A8C00020E2D5CD8A407D05AC007F05BC008F04A
:100A9C0009EC0BF01B6E1A68000E765DD8A054D0D2
:100AAC001A2A1BB00DD019501224386E1A50142467
:100ABC00396E22C026F023C027F003EC0FF00CD0C7
:100ACC0019501224386E1A501424396E42C026F074
:100ADC0043C027F003EC0FF01B322DC005F0020EC3
:100AEC00096EB8EC12F000C09FF01AC005F0070EAA
:100AFC00096EB8EC12F09F510014996F99A10AD0AD
:100B0C005A2AD8B45B2A5AC007F05BC008F009EC2B
:100B1C000BF01B6E1650195CD8A412D0195012246D
:100B2C00366E020E2D5CD8B4362A36C038F01A5008
:100B3C001424396E22C026F023C027F003EC0FF0EA
:100B4C0076511A5CD8A0ACD71650195CD8A089D7AE
:100B5C00226A236A010E2F6E306A120060001BF2AB
:100B6C00E9FF60001FF2EAFF6F00BCFF31F0315269
:100B7C00D8B412002EC070F071C032F072C033F0D5
:100B8C00346A010E315CD8A032D0342A32C012F053
:100B9C0033C013F073C014F074C015F034508625B4
:100BAC00E96E000E8721EA6E6F00BCFF0FF02FC0BC
:100BBC0042F030C043F0F9DE2E502D026F00CCFF16
:100BCC009DF09D513224996F000E33209A6F2D5059
:100BDC0099259D6F000E9A219E6F010E9D5D326EC0
:100BEC00000E9E59336E3150345CD8A0CED732C033
:100BFC0071F033C072F070C02EF01200946B2EC0E6
:100C0C0070F0942B07EEF5F39451E926000EEA22CE
:100C1C003EC005F03FC006F040C007F041C008F0F0
:100C2C000A0E096E0A6A0B6A0C6A82EC13F06000F9
:100C3C0003F0EFFF05C03EF006C03FF007C040F0E8
:100C4C0008C041F03EC005F03FC006F040C007F0C0
:100C5C0041C008F0096A0A6A0B6A0C6AC6EC12F009
:100C6C00001E00B0CED771C032F072C033F09429A0
:100C7C00346E010E945DD8A032D0340632C012F01E
:100C8C0033C013F073C014F074C015F007EEF5F315
:100C9C003450E926000EEA22300EEF240F6E2FC0DE
:100CAC0042F030C043F081DE2E502D026F00CCFF9D
:100CBC009FF09F5132249D6F000E33209E6F2D505C
:100CCC009D25996F000E9E219A6F010E995D326ED3
:100CDC00000E9A59336E34500108D8A0CED732C0CA
:100CEC0071F033C072F070C02EF01200C58EC58C3E
:100CFC00C58AC588C586C584C582C580BC8EBB84A3
:100D0C001A0E006E002EFED70000359ECDBE358E1D
:100D1C00359CCDBC358C359ACDBA358A3598CDB845
:100D2C0035883596CDB635863594CDB43584359227
:100D3C00CDB235823590CDB03580BB941A0E006E95
:100D4C00002EFED7000012008091CBB680818093DC
:100D5C00CBB88083CBAABB88BB96C8DF35BEFDD78A
:100D6C00BB9680B1BB86BB9880B3BB88BC9EC5903C
:100D7C00C592C594C596C598C59AC59CC59EBD9E81
:100D8C003DBEBD8EBD9C3DBCBD8CBD9A3DBABD8AE1
:100D9C00BD983DB8BD88BD963DB6BD86BD943DB4ED
:100DAC00BD84BD923DB2BD82BD903DB0BD801A0EDA
:100DBC00006E002EFED70000BB84050E006E002EC8
:100DCC00FED7BB941A0E006E002EFED70000120048
:100DDC00010E1E6E1F6A7A697B697E697F697C6968
:100DEC007D69A46BA56B7EC005F07FC006F0096A17
:100DFC000A6ABDEC12F0001E00A01FD1A6C005F0BF
:100E0C00A7C006F009680A68BDEC12F000A006D075
:100E1C00200E7E6F010E7F6F286AE4D0A6C005F00D
:100E2C00A7C006F0096A0A6ABDEC12F000A00AD04D
:100E3C001EC007F009DC7E6F7F6B1E28076E04DC7A
:100E4C00286ED0D0A6C005F0A7C006F0010E096E22
:100E5C000A6ABDEC12F000A00CD01EC007F06FECBB
:100E6C0002F07E6F7F6B1E28076E6FEC02F0286E0F
:100E7C00B9D0A6C005F0A7C006F0020E096E0A6A2A
:100E8C00BDEC12F000A00CD01EC007F005EC03F076
:100E9C007E6F7F6B1E28076E05EC03F0286EA2D0C8
:100EAC00A6C005F0A7C006F0030E096E0A6ABDECD9
:100EBC0012F000A00CD01EC007F0E2EC02F07E6F26
:100ECC007F6B1E28076EE2EC02F0286E8BD0A6C05A
:100EDC0005F0A7C006F0040E096E0A6ABDEC12F00C
:100EEC0000A00CD01EC007F01FEC02F07E6F7F6BD1
:100EFC001E28076E1FEC02F0286E74D0A6C005F0F9
:100F0C00A7C006F0050E096E0A6ABDEC12F000A02F
:100F1C000CD01EC007F0FAEC01F07E6F7F6B1E2820
:100F2C00076EFAEC01F0286E5DD0A6C005F0A7C0E4
:100F3C0006F0060E096E0A6ABDEC12F000A00CD089
:100F4C001EC007F0BCEC02F07E6F7F6B1E28076E94
:100F5C00BCEC02F0286E46D0A6C005F0A7C006F087
:100F6C00070E096E0A6ABDEC12F000A00CD01EC070
:100F7C0007F097EC02F07E6F7F6B1E28076E97ECE4
:100F8C0002F0286E2FD0A6C005F0A7C006F0080E00
:100F9C00096E0A6ABDEC12F000A00CD01EC007F05E
:100FAC00D1EC01F07E6F7F6B1E28076ED1EC01F047
:100FBC00286E18D0A6C005F0A7C006F0090E096E61
:100FCC000A6ABDEC12F000A00CD01EC007F048EC71
:100FDC0002F07E6F7F6B1E28076E48EC02F0286EC5
:100FEC0001D02BD0020E1E26000E1F227EC095F0C3
:100FFC007FC096F095C005F096C006F0010E096E04
:10100C000A6AFEEC12F000B009D09553D8A4962BC6
:10101C0003EC04F0952FFCD7962FFAD77EC005F081
:10102C007FC006F0200E096E010E0A6EBDEC12F0A8
:10103C0000A002D07E6B7F6BD6D6BB8ABB88120019
:10104C00C396C49EC394C39AC398C494BC94010E13
:10105C00026E036AF5EC03F0BC84010E026E036AA7
:10106C00F5EC03F0BB9ABB98BB963F0E3D6E6CDE65
:10107C00C00E3D6E69DEBB8ABB88226A236A010EF4
:10108C002F6E306A050E2E6E2B6A010E2D6E070E1A
:10109C002C6E63D40001600E3901D96FDB6BDD6BF4
:1010AC00DE6B600ED96F080EDF6FF86A3E01F895A3
:1010BC00F89F3A01406B506B606B706B806B3E011C
:1010CC00B89FBC9FCA6ACB6ACC6ACD6ACE6A000153
:1010DC001200446A456A486A496A4E6A4F6A506A05
:1010EC00516A466A476A4A6A4B6A4C6A4D6A525060
:1010FC00545C446E53505558456E5650585C486E6F
:10110C0057505958496E44C009F045C00AF0056A59
:10111C00066AFEEC12F000A004D0010E4E6E4F6A6F
:10112C0002D04E684F6848C009F049C00AF0056A01
:10113C00066AFEEC12F000A004D0010E506E516A4B
:10114C0002D0506851684EC005F04FC006F044C044
:10115C0009F045C00AF04EEC14F000C044F001C098
:10116C0045F050C005F051C006F048C009F049C028
:10117C000AF04EEC14F000C048F001C049F044C035
:10118C0005F045C006F0020E096E0A6A4EEC14F02A
:10119C0000C046F001C047F048C005F049C006F059
:1011AC00020E096E0A6A4EEC14F000C04AF001C03F
:1011BC004BF044C005F045C006F048C009F049C0EA
:1011CC000AF0FEEC12F0001E00A04AD044504A5C1B
:1011DC004C6E45504B584D6E52C005F053C006F046
:1011EC0054C009F055C00AF0BDEC12F0001E00A06E
:1011FC002CD052C038F056C039F042C026F043C053
:10120C0027F003EC0FF04E5052264F5053224CC097
:10121C0005F04DC006F0096A0A6AFEEC12F000A057
:10122C0005D04A504C264B504D220ED046504A5CAD
:10123C00996F47504B589A6F99514C269A514D22A1
:10124C005050562651505722C7D752C038F056C06E
:10125C0039F042C026F043C027F003EC0FF049D020
:10126C004850465C4C6E495047584D6E56C005F080
:10127C0057C006F058C009F059C00AF0BDEC12F086
:10128C00001E00A02CD052C038F056C039F042C01D
:10129C0026F043C027F003EC0FF050505626515067
:1012AC0057224CC005F04DC006F0096A0A6AFEECE4
:1012BC0012F000A005D046504C2647504D220ED0BF
:1012CC004A50465C996F4B5047589A6F99514C262F
:1012DC009A514D224E5052264F505322C7D752C0CE
:1012EC0038F056C039F042C026F043C027F003EC6A
:1012FC000FF0120007C005F008C006F0A50E096E2D
:10130C00010E0A6EDAEC12F000A0000C0750320F3E
:10131C00F66E130E0820F76E000ED8B0010FF86EA3
:10132C000800F5501200A50100015E030600060539
:10133C00287C287C2805242A7F2A1003621846055D
:10134C00304C5A24500106023C4202423C05281003
:10135C007C10280310381001C0031010100140033A
:10136C00601806043C42423C03447E4004446252F2
:10137C004C034A4A34041E107C10034E4A32043C7F
:10138C004A4A300362120E04344A4A34040C525254
:10139C003C01480280680310284403282828034491
:1013AC0028100302520C053844545458047C121271
:1013BC007C047E4A4A34043C424224047E42423C31
:1013CC00037E4A4A037E0A0A043C425234047E08D5
:1013DC00087E03427E420342423E047E08146203AE
:1013EC007E4040057E0408047E057E0418207E04A1
:1013FC003C42423C047E12120C043C4242BC047E31
:10140C0012126C04444A4A3003027E02043E4040ED
:10141C003E050618601806053E403E403E05422437
:10142C00182442049EA0A07E0462524A46027E42C8
:10143C000306186002427E03201020048080808006
:10144C000204080420545478047E4444380438447C
:10145C004428043844447E0438545458027C0A040A
:10146C0098A4A47C047E040478017A02403A047E99
:10147C00102844017E057C04780478047C040478EC
:10148C00043844443804FC24241804182424FC0292
:10149C007C04044854542003043E44043C40403C27
:1014AC00050C3040300C053C403C403C05442810B9
:1014BC002844049CA0A07C0364544C0308364101CE
:1014CC00FF034136080420102010010007C005F06E
:1014DC0008C006F0010E096E0A6ADAEC12F000A0E0
:1014EC00000C0750080FF66E150E0820F76E000E54
:1014FC00D8B0010FF86E0800F55012000100610E13
:10150C000760000C07502C0FF66E150ED8B0010FAB
:10151C00F76E000ED8B0010FF86E0800F5501200EF
:10152C0060010305090F15191F2124272D313337AD
:10153C00393D42464B4F54585D61666B6D70747803
:10154C007C80868B90959A9EA2A7ACB0B4B9BDC393
:10155C00C9CED3D8DDE2E6EBF1F7FD02070A0E1196
:10156C00151A1D22272C3136393E4345484D4F550F
:10157C005A5F64696C71757A80868C9195999B9F82
:10158C00A400610E0760000C0750B00FF66E150E2C
:10159C00D8B0010FF76E000ED8B0010FF86E08002E
:1015AC00F5501200000000000000000000000000D8
:1015BC00000000000000000000000000000000001F
:1015CC00000000000000000000000000000000000F
:1015DC0000000000000000000000000000000001FE
:1015EC0001010101010101010101010101010101DF
:1015FC0001010101010101010101010101010101CF
:10160C0001010101010007C005F008C006F0910EB0
:10161C00096E070E0A6EDAEC12F000A0000C0750EF
:10162C00440FF66E160E0820F76E000ED8B0010FA0
:10163C00F86E0800F5501200930000000000000046
:10164C00000000000000000000000000000000008E
:10165C000000000000FE1B00000000000000000065
:10166C0000000000001E000000000000001E000032
:10167C00000000000000012019A00778012619A025
:10168C00077801260120010000000000001C18262C
:10169C00104210FF3F8211020F000000001C1022AC
:1016AC0008220422039C00400E3011081104110280
:1016BC000E000780085C106210A21132131C1C0073
:1016CC00180016800100000000000000001E000041
:1016DC00000000000000000000000000000000E01E
:1016EC000718180C300420024002400000000002D1
:1016FC0040024004200C301818E0070000000000E5
:10170C0000000008001800F0004E00F0001800085F
:10171C0000000000000002000200020002E01F00B6
:10172C0002000200020002000000000000000000A5
:10173C00980078000000000000000000000000008D
:10174C000000010001000100010001000100000087
:10175C00000000000000000018001800000000004D
:10176C000000000000000000400030000C0003C02E
:10177C000030000C00020000000000F0030C0C0212
:10178C0010021002100C0CF003000000000000040A
:10179C001004100410FE1F001000100010000000B8
:1017AC000000000618021402120211C2103C1000B4
:1017BC000000000000000000000210421042104225
:1017CC0010BC0F0000000000000003C00220021833
:1017DC00020402FE1F0002000200000000000000D4
:1017EC00003E102210221042088207000000000068
:1017FC00000000F0074C0822102210221042088032
:10180C0007000000000000020002180207C20032AC
:10181C00000A0006000000000000001C0FA210428D
:10182C00104210A210A2091C060000000000007853
:10183C00008410021102110211840CF80300000044
:10184C00000000000000006018601800000000009C
:10185C0000000000000000000000006098607800AC
:10186C000000000000000000000000000000030069
:10187C000380048004400840082010000000008011
:10188C0004800480048004800480048004800400AC
:10189C000000002010400840088004800400030071
:1018AC00030000000000000E000200021B82004238
:1018BC000026001C0000000000F003180C0418E2C5
:1018CC001312140A168A1BFC0700040004001000F3
:1018DC000E8003700218023002C0020003000C00DC
:1018EC00100000F81F8810881088108810481130DC
:1018FC000E00000000C003300C100808100810087F
:10190C001008101810000000000000F81F08100844
:10191C0010081008101008E007000000000000F884
:10192C001F081108110811081108110810000000F7
:10193C00000000F81F08010801080108010801084F
:10194C0000000000000000C003300C100808100854
:10195C001008110811181F00000000F81F000100EA
:10196C0001000100010001F81F0000000000000848
:10197C001008100810F81F081008100810000000BC
:10198C0000000000000010081008100810F80F00EC
:10199C0000000000000000F81F80008001400220C1
:1019AC000410040808001000000000F81F001000CC
:1019BC0010001000100010001000000000F81F387C
:1019CC0000E00100070006C0013800F81F0000000D
:1019DC00000000F81F10006000800100060008F8ED
:1019EC001F000000000000E0071008081008100895
:1019FC001008101008E00700000000F81F0801088C
:101A0C00010801080188007000000000000000E0DF
:101A1C0007100808100810081008301048E047009C
:101A2C00000000F81F080108010803880470080072
:101A3C001000000000000070184810881088100872
:101A4C00110809180E000000000800080008000822
:101A5C0000F81F080008000800080000000000F84B
:101A6C000700180010001000100008F80700000014
:101A7C000008003000C0010006001800180007C064
:101A8C0000300008001800E003001C000FE000C04C
:101A9C0001000E001CE00318000810100820044080
:101AAC000280018001400220041008081008001078
:101ABC000060008000001F80004000200010000823
:101ACC000000000818081408120811881048102883
:101ADC001018100000000000000000FE7F02400201
:101AEC00400240024000000000000002000C0030E8
:101AFC0000C0000003000C00300040000000000299
:101B0C0040024002400240FE7F0000000000000046
:101B1C0000000000040003E00038000E007000809C
:101B2C000300040000002000200020002000200002
:101B3C0020002000200020002000000000000000F9
:101B4C000001000200000000000000000000000086
:101B5C000C2012201120112009C01F0010000000C1
:101B6C00000000FE1F40082010201020106008808C
:101B7C000700000000000080074008201020102003
:101B8C0010201020100000000000008007401820DA
:101B9C0010201020104008FE1F00000000000080E4
:101BAC000740092011201120112011C01100000044
:101BBC0000000020002000FC1F2400220022002234
:101BCC000022000000000080074098209020902008
:101BDC00904048E03F000000000000FE1F800040E5
:101BEC0000200020002000C01F000000000000208A
:101BFC000020002600E61F0000000000000000008E
:101C0C000000000080208020802680E67F000000FD
:101C1C0000000000000000FE1F00010003800440D3
:101C2C000440082010000000000000000002000228
:101C3C00000200FE1F0000000000000000E01F403A
:101C4C000020002000C01F400020002000C01F000A
:101C5C00000000E01FC0004000200020002000C059
:101C6C001F000000000000800740082010201020FA
:101C7C001040088007000000000000E0FF40082032
:101C8C001020102010600880070000000000008069
:101C9C000740182010201020104008E0FF00000022
:101CAC000000000000E01F8000400020002000E049
:101CBC0000000000000000C018201120112012208C
:101CCC0012200C000000000000000020002000F892
:101CDC000F2010201020102010000000000000E049
:101CEC000F0010001000100008E01F0000000000A2
:101CFC00002000C001000600180010000C0003C0FA
:101D0C000020000000600080070018000EC0018059
:101D1C0001000E00188007600000002010400880B1
:101D2C00040003000380044008201000002080C041
:101D3C0080008300460038001800060001C0002017
:101D4C0000000020102018201420122011A0106078
:101D5C0010201000000000000000010001FC3E02F9
:101D6C0040024002400000000000000000000000A3
:101D7C0000FE7F00000000000000000000000000DA
:101D8C0000024002400240FC3E0001000100000045
:101D9C0000000380008000800000010001000200B0
:101DAC0002000280010000801FC0102010101020C3
:101DBC0010C010801F00000000C003300C10080879
:101DCC00100810089008B018D00007C005F008C023
:101DDC0006F0010E096E0A6AE7DB00A0000C075042
:101DEC00040FF66E1E0E0820F76E000ED8B0010F11
:101DFC00F86E0800F5501200070038BC02D0BB98F2
:101E0C00BB8A38AC04D0BB9A400E385EBB8839C054
:101E1C0005F0080E096E3AEC13F005C01DF0BB96E8
:101E2C00B80E1D103D6EAAEC06F0BB96400E381095
:101E3C003D6EAAEC06F0BB867CEC06F035C02AF0B1
:101E4C00BB867CEC06F035C02AF0070E3914246EE4
:101E5C0026B004D0FE0E256ED88003D0010E256E60
:101E6C00D89024C097F09753D8B403D02536972F29
:101E7C00FDD726B004D02A502514296E03D02A5041
:101E8C002510296E29502A5CD8B40BD0BB96400E75
:101E9C0038103D6EAAEC06F0BB8629C03DF0AAECCA
:101EAC0006F0BB8ABB8812003E01F89560003BF03F
:101EBC00F1FE0E52D8A403D03A014081ECD00E04AE
:101ECC00D8A403D03A014083E6D0020E0E5CD8A40D
:101EDC0003D03A014085DFD0030E0E5CD8A403D0AA
:101EEC003A014087D8D0040E0E5CD8A403D03A0136
:101EFC004089D1D0050E0E5CD8A403D03A01408B9A
:101F0C00CAD0060E0E5CD8A403D03A01408DC3D0C3
:101F1C00070E0E5CD8A403D03A01408FBCD0080E3B
:101F2C000E5CD8A403D03A015081B5D0090E0E5CDA
:101F3C00D8A403D03A015083AED00A0E0E5CD8A4BC
:101F4C0003D03A015085A7D00B0E0E5CD8A403D059
:101F5C003A015087A0D00C0E0E5CD8A403D03A01E5
:101F6C00508999D00D0E0E5CD8A403D03A01508B39
:101F7C0092D00E0E0E5CD8A403D03A01508D8BD0AB
:101F8C000F0E0E5CD8A403D03A01508F84D0100EE3
:101F9C000E5CD8A403D03A0160817DD0110E0E5C8A
:101FAC00D8A403D03A01608376D0120E0E5CD8A46C
:101FBC0003D03A0160856FD0130E0E5CD8A403D009
:101FCC003A01608768D0140E0E5CD8A403D03A0195
:101FDC00608961D0150E0E5CD8A403D03A01608BD9
:101FEC005AD0160E0E5CD8A403D03A01608D53D093
:101FFC00170E0E5CD8A403D03A01608F4CD0180E8B
:10200C000E5CD8A403D03A01708145D0190E0E5C39
:10201C00D8A403D03A0170833ED01A0E0E5CD8A41B
:10202C0003D03A01708537D01B0E0E5CD8A403D0B8
:10203C003A01708730D01C0E0E5CD8A403D03A0144
:10204C00708929D01D0E0E5CD8A403D03A01708B78
:10205C0022D01E0E0E5CD8A403D03A01708D1BD07A
:10206C001F0E0E5CD8A403D03A01708F14D0200E32
:10207C000E5CD8A403D03A0180810DD0210E0E5CE9
:10208C00D8A403D03A01808306D0220E0E5CD8A4CB
:10209C0002D03A0180853E01F899010EFF6FF89944
:1020AC000F0EFF6FFF95FF93FF81F895F895600079
:1020BC003BF0F1FEF88F020E056E0001EEEC03F022
:1020CC003E01F8810000F8B1FED7F89F3A01406B51
:1020DC00506B606B706B806B6F00C0FB75F03E01DA
:1020EC00F895000112006051625D9D6F615163595A
:1020FC009E6F6C516A5D996F6D516B599A6F9DC053
:10210C0005F09EC006F0076A086A99C009F09AC0EB
:10211C000AF00B6A0C6A7CDB00C066F001C067F049
:10212C0002C068F003C069F060515E5C646F61517D
:10213C005F58656F66C005F067C006F068C007F0B1
:10214C0069C008F064C009F065C00AF00B6A0C6A3B
:10215C00D3DA05C099F006C09AF007C09BF008C00E
:10216C009CF06C5199259D6F6D519A219E6F5C501E
:10217C009D25776F5D509E21786F120017EEE0F36E
:10218C00FC0EF66E280EF76E000EF86E9BDB080E3A
:10219C00716F726B370E736F746B17EEEBF3040E7B
:1021AC00F66E290EF76E000EF86E8CDBEB0E866F5A
:1021BC001F0E876FB4EF05F017EEE0F3FC0EF66E12
:1021CC00280EF76E000EF86E7DDB410E716F726B90
:1021DC00370E736F746B17EEEBF3160EF66E290E4B
:1021EC00F76E000EF86E6EDBEB0E866F1F0E876FB0
:1021FC00B4EF05F0A2C062F0A3C063F0606B616B3A
:10220C00E70E5E6E030E5F6E6C6B6D6B1C0E6A6F71
:10221C006B6B5C6A5D6A67DF77C0A2F078C0A3F075
:10222C00690E716F726B736B746B17EEEBF31E0EA2
:10223C00F66E290EF76E000EF86E44DBEB0E866F11
:10224C001F0E876FB4EC05F0620E716F726B100E7F
:10225C00736F746B17EEEBF3240EF66E290EF76E9C
:10226C00000EF86E2FDBEB0E866F1F0E876FB4EC33
:10227C0005F07B0E716F726B100E736F746B17EE33
:10228C00EBF3020EF66E290EF76E000EF86E1ADBEB
:10229C00EB0E866F1F0E876FB4EC05F0660E526E58
:1022AC00536A140E566E576A780E546E556A140E95
:1022BC00586E596A2FC042F030C043F06FEC08F0F2
:1022CC00A2C009F0A3C00AF0056A066A6DD900A085
:1022DC000FD0620E526E090E566E620EA225546E0F
:1022EC000E0E586E010E426E436A7EEC04F015D051
:1022FC00620E716F726B080E736F746B17EEEBF3EB
:10230C00260EF66E290EF76E000EF86EDBDAEB0E6B
:10231C00866F1F0E876FB4EC05F0620EA2259D6FC1
:10232C009D29526E090E566E7F0E546E0E0E586E0F
:10233C00426A436A7EEF04F017EEE0F3FC0EF66E91
:10234C00280EF76E000EF86EBDDA080E716F726B08
:10235C002F0E736F746BA2C0A0F0A16B5DD817EE3B
:10236C00EBF3066A07EEE5F373D9FE0EF66E280E54
:10237C00F76E000EF86EAEDA07EEEBF360001BF0B2
:10238C00EFFFEB0E866F1F0E876FB4EC05F0120E8D
:10239C00526E536A2F0E566E576A140E546E556A4F
:1023AC00310E586E596A2FC042F030C043F053ECD6
:1023BC0003F0160E716F726B2F0E736F746B17EE3A
:1023CC00EBF3020EF66E290EF76E000EF86E7ADA4B
:1023DC00EB0E866F1F0E876FB4EF05F017EEE0F370
:1023EC00FC0EF66E280EF76E000EF86E6BDA410ED0
:1023FC00716F726B2F0E736F746B17EEEBF30C0E19
:10240C00F66E290EF76E000EF86E5CDAEB0E866F28
:10241C001F0E876FB4EF05F0816BA0C005F0A1C053
:10242C0006F0100E096E270E0A6EBED8001E00A014
:10243C001AD0A0C005F0A1C006F0100E096E270E30
:10244C000A6E26D905C098F000C0A0F001C0A1F01A
:10245C00812B07EEE5F38151E926000EEA22300EBE
:10246C009825EF6E0CD0A0C005F0A1C006F0E80EC8
:10247C00096E030E0A6E98D8001E00A01AD0A0C0D8
:10248C0005F0A1C006F0E80E096E030E0A6E00D925
:10249C0005C098F000C0A0F001C0A1F0812B07EEA0
:1024AC00E5F38151E926000EEA22300E9825EF6EF5
:1024BC000BD0A0C005F0A1C006F0640E096E0A6A2C
:1024CC0073D8001E00A019D0A0C005F0A1C006F062
:1024DC00640E096E0A6ADCD805C098F000C0A0F042
:1024EC0001C0A1F0812B07EEE5F38151E926000E26
:1024FC00EA22300E9825EF6E0BD0A0C005F0A1C0DB
:10250C0006F00A0E096E0A6A4FD8001E00A018D0F9
:10251C00A0C005F0A1C006F00A0E096E0A6AB8D870
:10252C0005C098F000C0A0F001C0A1F0812B07EE0F
:10253C00E5F38151E926000EEA22300E9825EF6E64
:10254C00812B07EEE5F38151E926000EEA22300ECD
:10255C00A025EF6E00C0A0F001C0A1F0600005F254
:10256C00E5FF1200006809500562006A1200006A5B
:10257C000950056212000A5006621200006812002F
:10258C00006A0950056212000A50066212000B50D4
:10259C00076212000C5008621200006812000068FA
:1025AC0009500560006A1200006A06500A5CD8A047
:1025BC0012000A50065C04E30950055CD8B0120006
:1025CC00001E1200006A08500C5CD8A012000EE12C
:1025DC0007500B5CD8A0120009E106500A5CD8A089
:1025EC00120004E10950055CD8B01200001E120064
:1025FC00006A06AE17D00ABE02D0001E1200051CDF
:10260C00076E061C086E072AD8B4082A091C056E2A
:10261C000A1C066E052AD8B4062A07C009F008C0A1
:10262C000AF002D00ABE120006500A5CD8A01200B2
:10263C000A50065C04E30950055CD8B01200001E79
:10264C0012006F00BCFF05F0600017F0E7FF03D02D
:10265C00EF50056E06260552D8B412006F00B3FF7A
:10266C00E4FF052EFBD712000952D8B41200006A01
:10267C00080E046ED890053600360950005E0580B1
:10268C00D8B003D0059009500026042EF3D71200C1
:10269C0005C007F006C008F009C00BF00AC00CF02A
:1026AC00026A036A0BC005F00CC006F0096A0A6ADC
:1026BC005EDF00A003D0056A066A1200100E046EDD
:1026CC00D89007360836023603360B50025E0C5093
:1026DC00035A0780D8B005D007900B5002260C5037
:1026EC000322042EEDD707C005F008C006F002C087
:1026FC0000F003C001F0120005C088F006C089F09C
:10270C0007C08AF008C08BF009C08CF00AC08DF0AD
:10271C000BC08EF00CC08FF0906B916B926B936B27
:10272C008CC005F08DC006F08EC007F08FC008F08D
:10273C00096A0A6A0B6A0C6A23DF00A005D0056AD5
:10274C00066A076A086A1200200E046ED890883751
:10275C0089378A378B3790379137923793378C512B
:10276C00905F8D51915B8E51925B8F51935B888101
:10277C00D8B009D088918C5190278D5191238E51CE
:10278C0092238F519323042EE1D788C005F089C082
:10279C0006F08AC007F08BC008F090C000F091C022
:1027AC0001F092C002F093C003F0120006500A1818
:1027BC000D6E06AE05D0051E061E052AD8B4062AD7
:1027CC000AAE05D0091E0A1E092AD8B40A2A60DFEF
:1027DC000DAE0AD0051E061E052AD8B4062A001E08
:1027EC00011E002AD8B4012A1200055009026F00FC
:1027FC00CCFF00F06F00D0FF01F005500A02F3503F
:10280C00012606500902F350012606520A02120054
:10281C0005C088F006C089F007C08AF008C08BF0AC
:10282C0009C08CF00AC08DF00BC08EF00CC08FF07C
:10283C00906B916B926B936B8CA108D08851902705
:10284C00895191238A5192238B519323D8908F33A2
:10285C008E338D338C33D890883789378A378B37C2
:10286C008CC009F08DC00AF08EC00BF08FC00CF03C
:10287C00056A066A076A086AA5DE00B0DDD790C053
:10288C0000F091C001F092C002F093C003F012006E
:10289C0006500A180D6E06AE05D0051E061E052A3A
:1028AC00D8B4062A0AAE05D0091E0A1E092AD8B4C5
:1028BC000A2A9BDF0DAE05D0001E011E002AD8B4DB
:1028CC00012A120009006F00D4FF05F06F00D7FF3A
:1028DC00E7FF04D00900F550056E06260552D8B462
:1028EC00120009006F00D7FFE4FF052EFAD7120083
:1028FC00000003202020014607313A323120504D90
:10290C0009304872203031204D6E06302E33204D68
:0C291C006900044655454C0001450121AE
:020000040030CA
:0A000000ECFFE7F79FFFFFDFFF00B2
:00000001FF
