:020000040000FA
:0400000006EF00F017
:020008001000E6
:10000C0041EC08F030EC08F0D3EC06F07EEC07F095
:10001C0001014991499349954997488148894C87F1
:10002C000C0E416E0001D2EC06F03F0E0501BE6FC6
:10003C003A0EC06F780E7F6F010E116E126A0001BE
:10004C000FDA11C574F512C575F5106A6CEC09F070
:10005C0080C50EF581C50FF50EC568F50FC569F5A0
:10006C000501666B676B6469030E656F726B736B6E
:10007C007069716B626B636B000153EC0AF083C5A2
:10008C000EF584C50FF50EC505F50FC506F5020E68
:10009C00096E0A6A7AEC0CF005C511F506C512F565
:1000AC000EC505F50FC506F5640E096E0A6A2BEC34
:1000BC000DF000C50EF501C50FF50EC505F50FC504
:1000CC0006F5330E096E0A6A7AEC0CF005C50EF5CE
:1000DC0006C50FF50EC5B1F50FC5B2F54AEC0BF020
:1000EC0014EE91F004EE96F06AEC0CF00EC505F5EA
:1000FC000FC506F50A0E096E0A6A1DEC0CF000A07D
:10010C001ED0910E0501A86F100EA96F010E8E6FF7
:10011C0000015FEC08F014EE91F0066A580EF66ED2
:10012C001B0EF76E000EF86E9FEC0DF004EED6F081
:10013C006FEC0CF004EE91F006C5EFF458D00EC540
:10014C0005F50FC506F5640E096E0A6A1DEC0CF078
:10015C0000A020D0910E0501A86F100EA96F010E02
:10016C008F6F020E8E6F00019AEC08F014EE91F076
:10017C00066A5C0EF66E1B0EF76E000EF86E9FECA8
:10018C000DF004EEADF06FEC0CF004EE91F006C542
:10019C00EFF42DD0910E0501A86F100EA96F010E72
:1001AC008E6F00015FEC08F0910E0501A86F100E28
:1001BC00A96F020E8F6F020E8E6F00019AEC08F081
:1001CC0014EE91F0066A04EED6F06FEC0CF0600EB3
:1001DC00F66E1B0EF76E000EF86E9FEC0DF004EE33
:1001EC00ADF06FEC0CF004EE91F006C5EFF438D9DD
:1001FC0074C5B5F575C5B6F5A9EC0AF07FC505F55E
:10020C00066A85C509F586C50AF57FEC0DF000C5B3
:10021C00AAF501C5ABF5AAC505F5ABC506F5096888
:10022C000A6A0CEC0DF005500501BE25766F74C5FD
:10023C00B5F575C5B6F50001E0D97FC505F5066ABB
:10024C0020C509F521C50AF57FEC0DF000C5AAF50E
:10025C0001C5ABF5AAC505F5ABC506F509680A6A73
:10026C000CEC0DF005500501C05D776F11C5B5F5AF
:10027C0012C5B6F50001A9EC0AF07FC505F5066AB2
:10028C0085C509F586C50AF57FEC0DF000C5AAF504
:10029C0001C5ABF5AAC505F5ABC506F509680A6A33
:1002AC000CEC0DF005500501BE25BF6F11C5B5F561
:1002BC0012C5B6F50001A1D97FC505F5066A20C5A2
:1002CC0009F521C50AF57FEC0DF000C5AAF501C5AD
:1002DC00ABF5AAC505F5ABC506F509680A6A0CECC1
:1002EC000DF005500501C05DC16F74C505F575C5F0
:1002FC0006F511C509F512C50AF5000100EC0CF064
:10030C00001E00A0AAD0586A596A5C6A5D6A7F0E0A
:10031C005A6E5B6A3F0E5E6E5F6A32C548F533C536
:10032C0049F5D0D8050E186E196A280E1A6E1B6A7C
:10033C0014EE8EF0620EF66E1B0EF76E000EF86E5B
:10034C0099EC0DF08E0E0501A66F100EA76F010E25
:10035C008D6F00019AD813C514F532C548F533C515
:10036C0049F5B9EC05F0730E186E196A280E1A6E61
:10037C001B6A14EE8EF0640EF66E1B0EF76E000EFA
:10038C00F86E99EC0DF08E0E0501A66F100EA76F8E
:10039C00010E8D6F000179D813C514F532C548F5DF
:1003AC0033C549F5E0DBBEC558F5596AC0C55CF5E7
:1003BC005D6A76C55AF55B6A77C55EF55F6A486A11
:1003CC00496A10EC0EF0370E586E596A160E5C6EB8
:1003DC005D6A3F0E5A6E5B6A260E5E6E5F6A32C5B0
:1003EC0048F533C549F510EC0EF03F0E586E596ABE
:1003FC00260E5C6E5D6A470E5A6E5B6A160E5E6E5A
:10040C005F6A32C548F533C549F510EC0EF0320E73
:10041C0005017B6F7C6B0A0E7D6F7E6B910E946F6A
:10042C00100E956F010E486E496A000191EC06F0B2
:10043C00BEC558F5596AC0C55CF55D6ABFC55AF5AD
:10044C005B6AC1C55EF55F6A010E486E496A10ECC5
:10045C000EF0140E026E036A7DD9F3D50300FED79D
:10046C0011C509F512C50AF57F0E056E066A1DEC5D
:10047C000CF000A005D07F0E115E000E125A04D0B5
:10048C00280E1126010E12221200136AA6C5E9F4D9
:10049C00A7C5EAF4EFC48EF505018E53D8A402D09B
:1004AC00000112008D518E5DD8B002D000011200F7
:1004BC008D51A625E96E000EA721EA6EEFC413F547
:1004CC000001120058C509F559C50AF55AC505F5BC
:1004DC005BC506F51DEC0CF000A00CD058C538F52A
:1004EC0059C539F55AC558F55BC559F538C55AF58E
:1004FC0039C55BF55CC509F55DC50AF55EC505F545
:10050C005FC506F51DEC0CF000A00CD05CC538F5F1
:10051C005DC539F55EC55CF55FC55DF538C55EF545
:10052C0039C55FF5010E585C256E000E5958266EC4
:10053C0058C509F559C50AF55AC505F55BC506F543
:10054C001DEC0CF000B023D0252AD8B4262A25C5E2
:10055C003AF55CC53BF548C52BF549C52CF5E8ECDF
:10056C0008F025C53AF55EC53BF548C52BF549C5E0
:10057C002CF5E8EC08F025C505F526C506F55AC599
:10058C0009F55BC50AF51DEC0CF000B0DDD7010ECA
:10059C005C5C256E000E5D58266E5CC509F55DC56C
:1005AC000AF55EC505F55FC506F51DEC0CF000B04F
:1005BC0023D0252AD8B4262A58C53AF525C53BF5AB
:1005CC0048C52BF549C52CF5E8EC08F05AC53AF5A9
:1005DC0025C53BF548C52BF549C52CF5E8EC08F0CD
:1005EC0025C505F526C506F55EC509F55FC50AF5F1
:1005FC001DEC0CF000B0DDD71200B5C505F5B6C585
:10060C0006F5096A0A6A41EC0CF000A00CD0B5C5DD
:10061C0005F5B6C506F509680A687FEC0DF000C54E
:10062C00B5F501C5B6F5B5C505F5B6C506F5680E43
:10063C00096E010E0A6E0CEC0DF000C5B5F501C586
:10064C00B6F5010E0501BA6FBB6BB5C509F5B6C59C
:10065C000AF55A0E056E066A000141EC0CF000C555
:10066C00AAF5B5C505F5B6C506F50E0E096E010E53
:10067C000A6E41EC0CF00501AA510014AE6FAEA14C
:10068C0002D0BA69BB69B5C5B3F5B6C5B4F50001FE
:10069C00B3EC0DF0B8C5B5F5B9C5B6F50501B55156
:1006AC005A08B56FAA6BB651AA59B66FB529B76F70
:1006BC00B7C507F500010BEC0BF00501BC6FBD6B6A
:1006CC00BAC505F5BBC506F5BCC509F5BDC50AF52A
:1006DC0000017FEC0DF000C520F501C521F51200DD
:1006EC0061C57AF5030E0501A36FD8907A33A32F59
:1006FC00FCD7B00E7A25876F0001F3EC0DF00F0ECE
:10070C0005016015786F796B78C587F50001F3ECFE
:10071C000DF060C578F50501796B040EA36FD890C8
:10072C0079337833A32FFBD70F0E7815AA6FAB6BE9
:10073C00100EAA25786F000EAB21796F78C587F55E
:10074C000001F3EF0DF0340E006E002EFED7052ED7
:10075C00FAD71200032A810E016E280E006E002EAD
:10076C00FED7012EFAD7022EF6D7032EF4D712009D
:10077C00710E0760000C07509E0FF66E070ED8B076
:10078C00010FF76E000ED8B0010FF86E0800F5508F
:10079C0012007000100C0A882238200820101080DB
:1007AC008040040000002848466C0000002810001F
:1007BC001000407C008482304E78066C0C000010D7
:1007CC0028000464F8FE7CFEFEFE7CFE0040FEFE6B
:1007DC00FEFE7CFE7CFE4C027E3E7EC60EC20004FB
:1007EC000008800040FE7070701010FE0040FE008B
:1007FC00F8F870F810F8901078387888188800009D
:10080C0000207800710E0760000C0750320FF66E56
:10081C00080ED8B0010FF76E000ED8B0010FF86EAD
:10082C000800F550120070FE380A06CC667C700485
:10083C0040103888A2701C00000EFE5426920A3814
:10084C00821010A010C020A284C282288A94029226
:10085C00926CAC282882029224928282921282108C
:10086C0082801080040882128212920280408028BA
:10087C0010A2FE0882048002A8908888A8FCA81008
:10088C0090802082081088282810A87C80408050F6
:10089C00A0C8100082104400710E0760000C0750B5
:1008AC00C60FF66E080ED8B0010FF76E000ED8B05A
:1008BC00010FF86E0800F5501200707C7C0000EE01
:1008CC00EE7CA8FEFE545494947C7C009E0028FE82
:1008DC0010AA0644447C7C6010C01092FEA28A24AC
:1008EC008A92E292926C6C442844A2F22292828206
:1008FC0092129210FE82288018108212A23292FE5E
:10090C0080807010E092821082028004A88888880F
:10091C00A812A808FA8850FEF00888282808A89081
:10092C0080806020A0A86CFE6C104200710E0760E5
:10093C00000C07505A0FF66E090ED8B0010FF76E67
:10094C00000ED8B0010FF86E0800F5501200703888
:10095C00FE0C0ACC667C2004403810A288701C0067
:10096C00000EFE54C8440082381010001000088A93
:10097C00809296FE8A92129252000082282812824D
:10098C002492824492129210827E4480042082121D
:10099C004252920280408028108A8220FE048008F5
:1009AC00A8888890A802A808807A888008088828D7
:1009BC003008A88040408050A0988200102044004D
:1009CC00710E0760000C0750EE0FF66E090ED8B0D2
:1009DC00010FF76E000ED8B0010FF86E0800F5503D
:1009EC0012007010000A068822383E082010108071
:1009FC008040040000002824C4A00000002810003F
:100A0C001000047C008C622072600E6C3C000000B4
:100A1C0028100C7CF86C44388202F4FE00028280B0
:100A2C00FEFE7C0CBC8C64027E3E7EC60E860040B4
:100A3C0000088000F07040FE300478F000000000E8
:100A4C00F0F07010F8104040F83878887888000082
:100A5C00001078003C6A3D6A0501886B896B0501C2
:100A6C00882BD8B4892B04EEFFF08851E9268951E4
:100A7C00EA22EF6A88C505F589C506F5096A040EF0
:100A8C000A6E00011DEC0CF000B0E9D70501886B73
:100A9C00896B080E926F936B606B88C561F50001D2
:100AAC001FDEA4EC0AF0780E476E97D9400E476E05
:100ABC0094D93868382A27C547F58FD97F0E385C0A
:100ACC00D8A0F8D7B2D9050193AF28D0921D906F5A
:100ADC00931D916F902BD8B4912B400E885DAA6F0B
:100AEC00000E8959AB6F010EAA5DAE6F000EAB59AB
:100AFC00AF6FAEC505F5AFC506F590C509F591C547
:100B0C000AF500011DEC0CF0001E00A006D005013A
:100B1C009251882793518923BCD71BD088513F0809
:100B2C00AA6FAE6B8951AE59AB6FAAC505F5ABC5B3
:100B3C0006F592C509F593C50AF500011DEC0CF0FC
:100B4C00001E00A006D005019251882793518923DD
:100B5C00A0D70501606B616B0001C2DD05017B6BE9
:100B6C007D6B0001120048C505F549C506F532C577
:100B7C0009F533C50AF500EC0CF0001E00A005D0F9
:100B8C00010E276E286A326A336A0F0E145E156ADC
:100B9C00166A18C560F51AC561F5A2DD14C505F510
:100BAC00B20E096E18EC0CF0001E00C5AAF514C5A7
:100BBC0009F5CA0E056E18EC0CF0001E0501AA51C1
:100BCC000014AE6FAEA104D0010E1A5E000E1B5ABB
:100BDC00226A222A2204D8A406D014C507F50001E3
:100BEC00C7DD246E27D0020E225CD8A406D014C513
:100BFC0007F5000107DE246E1DD0030E225CD8A47D
:100C0C0006D014C507F5000147DE246E13D0040E80
:100C1C00225CD8A406D014C507F5000187DE246E2B
:100C2C0009D0050E225CD8A405D014C507F5000127
:100C3C00C7DE246E1C6A1D6A236A232A176A1F6A80
:100C4C00010E305CD8A04FD01F2A1E6A0501826BA2
:100C5C00010E305CD8A042D0822B24A013D01550AA
:100C6C001824AA6F1750AA253A6E1C501A24AA6F82
:100C7C001E50AA253B6E48C52BF549C52CF5000125
:100C8C00A1DA12D015501824AA6F1750AA253A6E63
:100C9C001C501A24AA6F1E50AA253B6E27C52BF593
:100CAC0028C52CF500018EDA31503002F3C4AAF5B8
:100CBC000501AA5118243A6E1C501A24AA6F1E5012
:100CCC00AA253B6E27C52BF528C52CF500017ADA31
:100CDC001E2A30500501825DD8A0BED7172A30508D
:100CEC001F5CD8A0B1D7243230501C26000E1D2218
:100CFC00080E235CD8A0A1D730501526000E162262
:100D0C00050E225CD8A065D7276A286A010E326EC0
:100D1C00336A0001120094C5E9F495C5EAF4EFC4F6
:100D2C0034F53452D8B412007BC535F57CC536F594
:100D3C00376A010E345CD8A029D0372A35C518F58E
:100D4C0036C519F57DC51AF57EC51BF5375005015D
:100D5C009425E96E000E9521EA6EEFC414F500019E
:100D6C0002DF31503002F3C4AAF50501AA51352433
:100D7C00AE6F000E3620AF6F010EAE25356E000E35
:100D8C00AF21366E3450375CD8A0D7D735C57BF53C
:100D9C0036C57CF5000112001200010142874A970A
:100DAC0042894A990201929192939285938F939DD5
:100DBC0095959597949194939499030E9D6F9C6B34
:100DCC00928F050E006E002EFED700000000000072
:100DDC0000000000000000011200020E3F5CD8A4CD
:100DEC000DD0432AD8B4442A04EE9CF04350E92693
:100DFC004450EA2247C5EFF4120016D03F04D8A4A1
:100E0C0008D0436A446A47C58DF2020E3F6E120049
:100E1C000BD0030E3F5CD8A407D0436A446A47C585
:100E2C008DF2020E3F6E120012000201999F426A6F
:100E3C004228D8B404D097AF02D0422AF9D742281E
:100E4C00D8B44DD044C58BF243C58AF2929F928F91
:100E5C00928B92AB02D00000FCD7456A466A010E19
:100E6C00435CD8A024D0452AD8B4462A426A04EE62
:100E7C009CF04550E9264650EA22EFC489F2020163
:100E8C0098BB09D0050E006E002EFED7422A4228D0
:100E9C00D8B425D0F4D745C505F546C506F543C5E8
:100EAC0009F50A6A00011DEC0CF000B0DCD7006AF1
:100EBC00020197BB001E00C5B0F542C505F50968D7
:100ECC000001FBEC0BF0001E0501B0510014AA6FE1
:100EDC00AAA105D0050E006E002EFED7E8D70201A0
:100EEC0099AF02D0406A01D04068929F0001120075
:100EFC00276A286A010E326E336A050E316E070EB0
:100F0C002F6E2E6A010E306E0268036A23DC0C0E03
:100F1C00416E42DF0F0E026E036A1CDCAE0E050141
:100F2C00876F0001F3EC0DF02E0E0501876F0001A9
:100F3C00F3EC0DF0D50E0501876F0001F3EC0DF00D
:100F4C00800E0501876F0001F3EC0DF0A80E050172
:100F5C00876F0001F3EC0DF03F0E0501876F000168
:100F6C00F3EC0DF0D30E0501876F0001F3EC0DF0DF
:100F7C000501876B0001F3EC0DF0400E0501876F46
:100F8C000001F3EC0DF08D0E0501876F0001F3EC01
:100F9C000DF0140E0501876F0001F3EC0DF0200E1F
:100FAC000501876F0001F3EC0DF0100E0501876F42
:100FBC000001F3EC0DF0A10E0501876F0001F3ECBD
:100FCC000DF0C80E0501876F0001F3EC0DF0DA0E81
:100FDC000501876F0001F3EC0DF0120E0501876F10
:100FEC000001F3EC0DF0810E0501876F0001F3ECAD
:100FFC000DF0CF0E0501876F0001F3EC0DF0D90E4B
:10100C000501876F0001F3EC0DF0F10E0501876F00
:10101C000001F3EC0DF0DB0E0501876F0001F3EC22
:10102C000DF0400E0501876F0001F3EC0DF0A40EDE
:10103C000501876F0001F3EC0DF0A60E0501876F1B
:10104C000001F3EC0DF006DDAF0E0501876F00011A
:10105C00F3EF0DF001014A9D150E0201726F120E95
:10106C00176F130E716F1D0E146F140E706F1E0E12
:10107C00156F000112000001600EAD6FAF6BB36B0A
:10108C00B06B600EAD6F080EB16FF86A0301F3958B
:10109C00F39F0401006B086B106B206B0001749FB5
:1010AC00709F0101506B516B526B536B546B000171
:1010BC001200A8C5E9F4A9C5EAF4EF52D8A404D0EB
:1010CC001001D66B00011200A8C5E9F4A9C5EAF419
:1010DC0005018E51EF5CD8B006D0A8C5E9F4A9C5BE
:1010EC00EAF4EFC48EF5A56B010E8E5DD8A017D077
:1010FC00A52BA551A825E96E000EA921EA6EEEC418
:10110C008CF58CC58BF504EED6F0A551E926000EB6
:10111C00EA228BC5EEF48E51A55DD8A0E9D761000B
:10112C0039F6D6F000011200A8C5E9F4A9C5EAF415
:10113C00EF52D8A404D01001AD6B00011200010EC7
:10114C0005018F5DD8B002D0010E8F6FA8C5E9F4F0
:10115C00A9C5EAF48F51EF5CD8B004D01001AD6B87
:10116C00000112008F07A8C5E9F4A9C5EAF48F5154
:10117C00EF5CA56F8E51A55DD8A0A5C58EF5A56BAE
:10118C00010E8E5DD8A019D0A52BA5518F25AA6F65
:10119C00A825E96E000EA921EA6EEEC48BF58BC56D
:1011AC008CF504EEADF0A551E926000EEA228CC5B3
:1011BC00EEF48E51A55DD8A0E7D7610039F6ADF0FD
:1011CC00000112003AC505F5800E096E2BDB001EDE
:1011DC0000C5AAF53BC505F5400E096E23DB001EC4
:1011EC000501AA510010AE6FAEA102D00001120091
:1011FC003BC588F5896B030EA26FD8908933883371
:10120C00A22FFBD7D890070EA26F88378937A22F51
:10121C00FCD788513A24AA6FAE6B8951AE21AB6FC3
:10122C00010EAA25886F000EAB21896F88C509F5C0
:10123C0089C50AF5056A200E066E0001F8DA00B0C1
:10124C00120004EEFFF005018851E9268951EA22CB
:10125C00EFC42DF5070E3B14296E2BB004D0FE0EF7
:10126C002A6ED88003D0010E2A6ED89029C5A2F51B
:10127C00A253D8B403D02A36A22FFDD72BB004D05A
:10128C002D502A142D6E03D02D502A102D6E04EEE5
:10129C00FFF08851E9268951EA222D50EF5CD8B431
:1012AC0013D004EEFFF08851E9268951EA222DC5AE
:1012BC00EFF43AC560F53BC561F5000176EC03F03F
:1012CC002DC587F501EC0EF0000112000301F3852A
:1012DC0010C5ECF31052D8A403D004010081B4D093
:1012EC001004D8A403D004010083AED0020E105C0D
:1012FC00D8A403D004010085A7D0030E105CD8A499
:10130C0003D004010087A0D0040E105CD8A403D035
:10131C000401008999D0050E105CD8A403D00401F7
:10132C00008B92D0060E105CD8A403D00401008D63
:10133C008BD0070E105CD8A403D00401008F84D08E
:10134C00080E105CD8A403D0040108817DD0090ECE
:10135C00105CD8A403D00401088376D00A0E105C6C
:10136C00D8A403D0040108856FD00B0E105CD8A450
:10137C0003D00401088768D00C0E105CD8A403D0ED
:10138C000401088961D00D0E105CD8A403D00401AF
:10139C00088B5AD00E0E105CD8A403D00401088D13
:1013AC0053D00F0E105CD8A403D00401088F4CD07E
:1013BC00100E105CD8A403D00401108145D0110E7E
:1013CC00105CD8A403D0040110833ED0120E105C24
:1013DC00D8A403D00401108537D0130E105CD8A408
:1013EC0003D00401108730D0140E105CD8A403D0A5
:1013FC000401108929D0150E105CD8A403D0040167
:10140C00108B22D0160E105CD8A403D00401108DC2
:10141C001BD0170E105CD8A403D00401108F14D06D
:10142C00200E105CD8A403D0040120810DD0210E15
:10143C00105CD8A403D00401208306D0220E105CCB
:10144C00D8A402D0040120850301F399010EFA6F90
:10145C00F3991F0EFA6FFA95FA83FA91F385F385D7
:10146C0010C5ECF3F38F020E056E0001A9EC03F02E
:10147C000301F3810000F3B1FED7F39F0401006B6D
:10148C00086B106B206BEAC380F50501816BEBC315
:10149C0081F50301F3950001120005016651685DA9
:1014AC00AA6F67516959AB6F7251705DAE6F735112
:1014BC007159AF6FAAC505F5ABC506F5076A086A81
:1014CC00AEC509F5AFC50AF50B6A0C6A0001CEDA98
:1014DC0000C56CF501C56DF502C56EF503C56FF55C
:1014EC0005016651645D6A6F675165596B6F6CC518
:1014FC0005F56DC506F56EC507F56FC508F56AC52A
:10150C0009F56BC50AF50B6A0C6A000121DA05C5F1
:10151C00AAF506C5ABF507C5ACF508C5ADF50501D3
:10152C007251AA25AE6F7351AB21AF6F6251AE25CC
:10153C00836F6351AF21846F00011200010E3F6E67
:10154C00426A3E6A1200B5C505F5B6C506F5096ACC
:10155C000A6A91D900A010D00501BA69BB69B5C55A
:10156C0005F5B6C506F509680A680001C2DA00C5BA
:10157C00B5F501C5B6F504D0010E0501BA6FBB6B0C
:10158C00B5C505F5B6C506F5680E096E010E0A6EF1
:10159C0000013CDA00C5B5F501C5B6F5B5C509F5D0
:1015AC00B6C50AF5B40E056E066A65D900A00BD057
:1015BC00BAC505F5BBC506F509680A689ADA00C50F
:1015CC00BAF501C5BBF5B5C5B3F5B6C5B4F5C5DA05
:1015DC00B8C5B5F5B9C5B6F50501B529B76FB7C529
:1015EC0007F5000112D80501BC6FBD6BBAC505F536
:1015FC00BBC506F5BCC509F5BDC50AF5000179DA10
:10160C0000C585F501C586F512005C0E0760000C5F
:10161C000750380FF66E160ED8B0010FF76E000E8D
:10162C00D8B0010FF86E0800F55012005B000203F1
:10163C000507090A0C0E1011131516181A1C1D1F7C
:10164C002122242527292A2C2D2F303234353638C7
:10165C00393B3C3E3F40424344454748494A4B4D49
:10166C004E4F50515253545556575758595A5B5B1D
:10167C005C5D5D5E5F5F606061616162626263635D
:10168C00636364646464646405018E6BB1C505F5C1
:10169C00B2C506F5100E096E270E0A6E0001C7D8EA
:1016AC00001E00A01BD0B1C505F5B2C506F5100E85
:1016BC00096E270E0A6E18D905C5A4F500C5B1F53B
:1016CC0001C5B2F505018E2B04EE96F08E51E9267C
:1016DC00000EEA22300EA425EF6E0CD0B1C505F534
:1016EC00B2C506F5E80E096E030E0A6EA0D8001EF0
:1016FC0000A01CD0B1C505F5B2C506F5E80E096E03
:10170C00030E0A6E0001F0D805C5A4F500C5B1F5AD
:10171C0001C5B2F505018E2B04EE96F08E51E9262B
:10172C00000EEA22300EA425EF6E0BD0B1C505F5E4
:10173C00B2C506F5640E096E0A6A79D8001E00A0BF
:10174C001BD0B1C505F5B2C506F5640E096E0A6A63
:10175C000001CAD805C5A4F500C5B1F501C5B2F59F
:10176C0005018E2B04EE96F08E51E926000EEA222E
:10177C00300EA425EF6E0BD0B1C505F5B2C506F53C
:10178C000A0E096E0A6A53D8001E00A01AD0B1C501
:10179C0005F5B2C506F50A0E096E0A6A0001A4D851
:1017AC0005C5A4F500C5B1F501C5B2F505018E2B33
:1017BC0004EE96F08E51E926000EEA22300EA42596
:1017CC00EF6E05018E2B04EE96F08E51E926000E7D
:1017DC00EA22300EB125EF6E00C5B1F501C5B2F5A8
:1017EC00610039F696F0000112000068095005629C
:1017FC00006A1200006A0950056212000A50066263
:10180C00120000681200006A0950056212000A50AA
:10181C00066212000B50076212000C500862120094
:10182C0000681200006809500560006A1200006A26
:10183C0006500A5CD8A012000A50065C04E309505A
:10184C00055CD8B01200001E1200006A08500C5C37
:10185C00D8A012000EE107500B5CD8A0120009E1D1
:10186C0006500A5CD8A0120004E10950055CD8B0FF
:10187C001200001E1200006A06AE17D00ABE02D07B
:10188C00001E1200051C076E061C086E072AD8B431
:10189C00082A091C056E0A1C066E052AD8B4062AED
:1018AC0007C509F508C50AF502D00ABE1200065094
:1018BC000A5CD8A012000A50065C04E30950055CCF
:1018CC00D8B01200001E1200EFC405F505C5E7F4F0
:1018DC0003D0EF50056E06260552D8B41200ECC4A6
:1018EC00E4F4052EFCD7120005C507F506C508F56E
:1018FC0009C50BF50AC50CF5026A036A0BC505F59B
:10190C000CC506F5096A0A6A75DF00A003D0056AE2
:10191C00066A1200100E046ED8900736083602368E
:10192C0003360B50025E0C50035A0780D8B005D01A
:10193C0007900B5002260C500322042EEDD707C53E
:10194C0005F508C506F502C500F503C501F512003D
:10195C0005C596F506C597F507C598F508C599F51B
:10196C0009C59AF50AC59BF50BC59CF50CC59DF5EB
:10197C0005019E6B9F6BA06BA16B9AC505F59BC572
:10198C0006F59CC507F59DC508F5096A0A6A0B6A38
:10199C000C6A000138DF00A005D0056A066A076AE8
:1019AC00086A1200200E046ED890050196379737FE
:1019BC00983799379E379F37A037A1379A519E5F3A
:1019CC009B519F5B9C51A05B9D51A15B9681D8B0B4
:1019DC0009D096919A519E279B519F239C51A023ED
:1019EC009D51A123042EE0D796C505F597C506F5A4
:1019FC0098C507F599C508F59EC500F59FC501F575
:101A0C00A0C502F5A1C503F50001120006500A1885
:101A1C000D6E06AE05D0051E061E052AD8B4062A84
:101A2C000AAE05D0091E0A1E092AD8B40A2A5CDFA0
:101A3C000DAE0AD0051E061E052AD8B4062A001EB5
:101A4C00011E002AD8B4012A120005500902F3C461
:101A5C0000F5F4C401F505500A02F35001260650B6
:101A6C000902F350012606520A02120005C596F52A
:101A7C0006C597F507C598F508C599F509C59AF5F2
:101A8C000AC59BF50BC59CF50CC59DF505019E6B18
:101A9C009F6BA06BA16B05019AA108D096519E2754
:101AAC0097519F239851A0239951A123D8909D33EE
:101ABC009C339B339A33D89096379737983799370E
:101ACC009AC509F59BC50AF59CC50BF59DC50CF58A
:101ADC00056A066A076A086A0001B7DE00B0DBD740
:101AEC009EC500F59FC501F5A0C502F5A1C503F57E
:101AFC00120006500A180D6E06AE05D0051E061E05
:101B0C00052AD8B4062A0AAE05D0091E0A1E092ACF
:101B1C00D8B40A2A9ADF0DAE05D0001E011E002A89
:101B2C00D8B4012A12000900F5C405F5F5C4E7F490
:101B3C0004D00900F550056E06260552D8B41200E3
:101B4C000900F5C4E4F4052EFBD7120003302E3047
:101B5C0002302E00012E01300135B3C509F5B4C594
:101B6C000AF50E0E056E010E066E85DE00A00AD07B
:101B7C000501B3516808B86F010EAA6FB451AA5988
:101B8C00B96F29D0B3C509F5B4C50AF5B40E056E05
:101B9C00066A71DE00A008D0B40E0501B35DB86F03
:101BAC00000EB459B96F17D0B3C509F5B4C50AF511
:101BBC005A0E056E066A5FDE00A009D00501B3510E
:101BCC00B408B86FAA6BB451AA59B96F04D0B3C595
:101BDC00B8F5B4C5B9F500011200B0DC780E476E4B
:101BEC00F3EC06F0476AF3EC06F087C547F5F3EC27
:101BFC0006F01BEF07F0A2DC780E476EF3EC06F054
:101C0C00400E476EF3EC06F087C547F5F3EC06F093
:101C1C001BEF07F04A6A4B6A4E6A4F6A546A556A60
:101C2C00566A576A4C6A4D6A506A516A526A536ACC
:101C3C0058505A5C4A6E59505B584B6E5C505E5C07
:101C4C004E6E5D505F584F6E4AC509F54BC50AF58F
:101C5C00056A066A10DE00A004D0010E546E556AA7
:101C6C0002D0546855684EC509F54FC50AF5056A8A
:101C7C00066A01DE00A004D0010E566E576A02D02F
:101C8C005668576854C505F555C506F54AC509F596
:101C9C004BC50AF52EDF00C54AF501C54BF556C5F7
:101CAC0005F557C506F54EC509F54FC50AF521DFF3
:101CBC0000C54EF501C54FF54AC505F54BC506F5F2
:101CCC00020E096E0A6A15DF00C54CF501C54DF50B
:101CDC004EC505F54FC506F5020E096E0A6A09DFF9
:101CEC0000C550F501C551F54AC505F54BC506F5BE
:101CFC004EC509F54FC50AF5BEDD001E00A04AD041
:101D0C004A50505C526E4B505158536E58C505F5A5
:101D1C0059C506F55AC509F55BC50AF500016ADD1A
:101D2C00001E00A02CD058C53AF55CC53BF548C543
:101D3C002BF549C52CF5E8EC08F0545058265550B5
:101D4C00592252C505F553C506F5096A0A6A93DD91
:101D5C0000A005D050505226515053220FD04C5059
:101D6C00505C0501AA6F4D505158AB6FAA515226C9
:101D7C00AB51532256505C2657505D22C7D758C5DD
:101D8C003AF55CC53BF548C52BF549C52CF5E8EC97
:101D9C0008F049D04E504C5C526E4F504D58536E1B
:101DAC005CC505F55DC506F55EC509F55FC50AF5AB
:101DBC00000120DD001E00A02CD058C53AF55CC5F2
:101DCC003BF548C52BF549C52CF5E8EC08F0565009
:101DDC005C2657505D2252C505F553C506F5096AB8
:101DEC000A6A49DD00A005D04C5052264D505322B2
:101DFC000FD050504C5C0501AA6F51504D58AB6F31
:101E0C00AA515226AB5153225450582655505922A0
:101E1C00C7D758C53AF55CC53BF548C52BF549C540
:081E2C002CF5E8EC08F01200AF
:020000040030CA
:0E000000E62D27C080C00000FFFFFFFEFF00BE
:00000001FF
