:020000040000FA
:0400000006EF00F017
:020008001000E6
:10000C006BEC08F05AEC08F018EC07F0C1EC07F0B8
:10001C0001014991499349954997488148894C87F1
:10002C000C0E3E6E000117EC07F0126A05019D6B79
:10003C009E6B116A0A0E686F696B6A6B6B6B14EEC0
:10004C00B0F36E0EF66E170EF76E000EF86E000122
:10005C00A4EC0BF0B00E05017B6F130E7C6F00014E
:10006C0060EC06F00A0E0501686F696B080E6A6F8A
:10007C006B6B14EEB0F3760EF66E170EF76E000E79
:10008C00F86E0001A4EC0BF0B00E05017B6F130EA3
:10009C007C6F000160EC06F0140E0501686F696B53
:1000AC00100E6A6F6B6B14EEB0F37E0EF66E170EBD
:1000BC00F76E000EF86E0001A4EC0BF0B00E05010B
:1000CC007B6F130E7C6F000160EC06F0020E046E69
:1000DC0016DBFFEC04F0140E0501686F696B6A6B9C
:1000EC006B6B400E476E486A496A4A6A0001A5EC80
:1000FC0006F0170E0501686F696B080E6A6F6B6B63
:10010C0014EEB0F3840EF66E170EF76E000EF86E4A
:10011C000001A4EC0BF0B00E05017B6F130E7C6F8D
:10012C00000160EC06F0140E0501686F696B100E8F
:10013C006A6F6B6B200E476E486A496A4A6A000107
:10014C00A5EC06F0030E046EDADAFFEC04F0050100
:10015C00686B696B6A6B6B6B14EEB0F3860EF66EA4
:10016C00170EF76E000EF86E0001A4EC0BF0B00E3B
:10017C0005017B6F130E7C6F000160EC06F005012E
:10018C00686B696B080E6A6F6B6B14EEB0F3900EB4
:10019C00F66E170EF76E000EF86E0001A4EC0BF065
:1001AC00B00E05017B6F130E7C6F000160EC06F046
:1001BC000501686B696B100E6A6F6B6B14EEB0F314
:1001CC009A0EF66E170EF76E000EF86E0001A4EC88
:1001DC000BF0B00E05017B6F130E7C6F000160EC11
:1001EC0006F0030E046E8BDAFFEC04F01E0E126E9A
:1001FC00122A106A81EC09F06EC50EF50F6A5B6A63
:10020C005C6A5F6A0501606B3F0E5D6E5E6A1F0E75
:10021C00616F626B2FC54BF530C54CF50001B2D840
:10022C003B0E5B6E5C6A1B0E5F6E0501606B3F0ED6
:10023C005D6E5E6A1F0E616F626B2FC54BF530C52C
:10024C004CF500019FD82C0E05019F6FA06B180E6A
:10025C00A36FA46B050E456E466A2FC54BF530C5D2
:10026C004CF539C5A5F500012AD95B6A5C6A1F0EED
:10027C005F6E0501606B2C0E5D6E5E6A130E616F16
:10028C00626B2FC54BF530C54CF50001F4EC0BF04F
:10029C00020E0501686F696B020E6A6F6B6B0EC5FF
:1002AC009BF50FC59CF50001AEEC09F0AA0E0501FB
:1002BC00916F130E926F040E8E6F14EEB0F3AA0EA4
:1002CC00F66E170EF76E000EF86E0001A4EC0BF034
:1002DC00B00E05018F6F130E906F000189EC08F0C2
:1002EC0014EEB0F3066AA40EF66E170EF76E000E3F
:1002FC00F86EAAEC0BF004EED6F3BDEC0AF004EEAB
:10030C00B0F306C5EFF4B00E05017B6F130E7C6FD6
:10031C00000160EC06F0020E0501686F696B0A0EB5
:10032C006A6F6B6B12C59BF59C6B0001AEEC09F010
:10033C00AA0E0501916F130E926F040E8E6F14EEC0
:10034C00B0F3AA0EF66E170EF76E000EF86E0001E3
:10035C00A4EC0BF0B00E05018F6F130E906F000123
:10036C0089EC08F0D60E05017B6F130E7C6F000133
:10037C0060EC06F07F0E125CD8A03AD737D700D0CD
:10038C000300FED75BC509F55CC50AF55DC505F52F
:10039C005EC506F581EC0AF000A00CD05BC535F506
:1003AC005CC536F55DC55BF55EC55CF535C55DF5C3
:1003BC0036C55EF55FC509F560C50AF561C505F57D
:1003CC0062C506F581EC0AF000A00CD05FC535F5CE
:1003DC0060C536F561C55FF562C560F535C561F57B
:1003EC0036C562F5010E5B5C226E000E5C58236E06
:1003FC005BC509F55CC50AF55DC505F55EC506F579
:10040C0081EC0AF000B023D0222AD8B4232A22C5CA
:10041C0037F55FC538F54BC528F54CC529F518ECF3
:10042C0009F022C537F561C538F54BC528F54CC523
:10043C0029F518EC09F022C505F523C506F55DC5AF
:10044C0009F55EC50AF581EC0AF000B0DDD7010EA6
:10045C005F5C226E000E05016059236E5FC509F5C5
:10046C0060C50AF561C505F562C506F5000181ECAC
:10047C000AF000B023D0222AD8B4232A5BC537F562
:10048C0022C538F54BC528F54CC529F518EC09F0F3
:10049C005DC537F522C538F54BC528F54CC529F592
:1004AC0018EC09F022C505F523C506F561C509F55B
:1004BC0062C50AF581EC0AF000B0DDD7120045C523
:1004CC00A1F546C5A2F5A1C505F5A2C506F5020E16
:1004DC00096E0A6A5AEC0BF005C593F506C594F53E
:1004EC000501931D6C6F941D6D6F6C2BD8B46D2B27
:1004FC00A1C505F5A2C506F5A5C509F50A6A000151
:10050C008FEC0AF0001E00A0AFD00501A1519F2571
:10051C00376EA551A325386E4BC528F54CC529F56A
:10052C00000118EC09F00501A5519F25376EA1516A
:10053C00A325386E4BC528F54CC529F5000118ECE0
:10054C0009F00501A1519F5D376EA551A325386EA9
:10055C004BC528F54CC529F5000118EC09F005012F
:10056C00A5519F5D376EA151A325386E4BC528F55B
:10057C004CC529F5000118EC09F00501A1519F5D4E
:10058C00376EA551A35D386E4BC528F54CC529F5C2
:10059C00000118EC09F00501A5519F5D376EA151C2
:1005AC00A35D386E4BC528F54CC529F5000118EC38
:1005BC0009F00501A1519F25376EA551A35D386E39
:1005CC004BC528F54CC529F5000118EC09F00501BF
:1005DC00A5519F25376EA151A35D386E4BC528F5EB
:1005EC004CC529F5000118EC09F00501A52B6CC5CB
:1005FC0005F56DC506F5096A0A6A00018FEC0AF06B
:10060C0000A010D00501A551020DF3506C25936F7D
:10061C00000E6D21946F010E93256C6F000E9421CA
:10062C006D6F21D0010E0501A15F000EA25BA151DF
:10063C00A55D936F976BA2519759946F010E9325FB
:10064C00996F000E94219A6F99C505F59AC506F518
:10065C00020E096E0A6A00018AEC0BF000500501CB
:10066C006C2701506D2344D7120064C567F5030E47
:10067C0005018B6FD89067338B2FFCD7200E632727
:10068C00B00E6725706F0001D7EC0BF00F0E050153
:10069C006315656F666B65C570F50001D7EC0BF0E3
:1006AC0063C565F50501666B040E8B6FD8906633D8
:1006BC0065338B2FFBD70F0E6515976F986B100E4C
:1006CC009725656F000E9821666F65C570F5000162
:1006DC00D7EF0BF0340E006E002EFED7052EFAD796
:1006EC001200032A810E016E280E006E002EFED71A
:1006FC00012EFAD7022EF6D7032EF4D71200E80EED
:10070C00026E030E036EEDDF042EF9D71200710E8C
:10071C000760000C07503C0FF66E070ED8B0010FA7
:10072C00F76E000ED8B0010FF86E0800F5501200ED
:10073C007000100C0A88223820082010108080408D
:10074C00040000002848466C00000028100010002F
:10075C00407C008482304E78066C0C00001028001F
:10076C000464F8FE7CFEFEFE7CFE0040FEFEFEFEF7
:10077C007CFE7CFE4C027E3E7EC60EC2000400084F
:10078C00800040FE7070701010FE0040FE00F8F803
:10079C0070F810F8901078387888188800000020CD
:1007AC007800710E0760000C0750D00FF66E070E24
:1007BC00D8B0010FF76E000ED8B0010FF86E08001C
:1007CC00F550120070FE380A06CC667C700440109E
:1007DC003888A2701C00000EFE5426920A38821033
:1007EC0010A010C020A284C282288A940292926C1B
:1007FC00AC282882029224928282921282108280E9
:10080C00108004088212821292028040802810A26A
:10081C00FE0882048002A8908888A8FCA81090800A
:10082C002082081088282810A87C80408050A0C8FE
:10083C00100082104400710E0760000C0750640F0A
:10084C00F66E080ED8B0010FF76E000ED8B0010F7F
:10085C00F86E0800F5501200707C7C0000EEEE7C07
:10086C00A8FEFE545494947C7C009E0028FE10AA92
:10087C000644447C7C6010C01092FEA28A248A92AA
:10088C00E292926C6C442844A2F2229282829212DE
:10089C009210FE82288018108212A23292FE808062
:1008AC007010E092821082028004A8888888A812B6
:1008BC00A808FA8850FEF00888282808A89080809C
:1008CC006020A0A86CFE6C104200710E0760000C3A
:1008DC000750F80FF66E080ED8B0010FF76E000E29
:1008EC00D8B0010FF86E0800F55012007038FE0CED
:1008FC000ACC667C2004403810A288701C00000EC4
:10090C00FE54C8440082381010001000088A8092EF
:10091C0096FE8A9212925200008228281282249209
:10092C00824492129210827E44800420821242529F
:10093C00920280408028108A8220FE048008A888B9
:10094C008890A802A808807A88800808882830082F
:10095C00A88040408050A098820010204400710E66
:10096C000760000C07508C0FF66E090ED8B0010F03
:10097C00F76E000ED8B0010FF86E0800F55012009B
:10098C007010000A068822383E0820101080804023
:10099C00040000002824C4A000000028100010004F
:1009AC00047C008C622072600E6C3C0000002810ED
:1009BC000C7CF86C44388202F4FE00028280FEFE4D
:1009CC007C0CBC8C64027E3E7EC60E860040000809
:1009DC008000F07040FE300478F000000000F0F071
:1009EC007010F8104040F8387888788800000010B3
:1009FC007800396A3A6A0501716B726B0501712BCB
:100A0C00D8B4722B04EEFFF37151E9267251EA222D
:100A1C00EF6A71C505F572C506F5096A010E0A6E15
:100A2C00000181EC0AF000B0E9D70501716B726B23
:100A3C00080E796F7A6B636B71C564F5000115DE76
:100A4C00A9EC09F0780E446E0DDA400E446E0ADA09
:100A5C003568352A24C544F505DA7F0E355CD8A0F7
:100A6C00F8D728DA05017AAF28D0791D776F7A1D6F
:100A7C00786F772BD8B4782B200E715D976F000EA2
:100A8C007259986F010E975D936F000E9859946F81
:100A9C0093C505F594C506F577C509F578C50AF52E
:100AAC00000181EC0AF0001E00A006D0050179516E
:100ABC0071277A517223BCD71BD071511F08976FC5
:100ACC00936B72519359986F97C505F598C506F5B8
:100ADC0079C509F57AC50AF5000181EC0AF0001E0A
:100AEC0000A006D00501795171277A517223A0D745
:100AFC000501636B646B0001B8DD0501686B6A6B03
:100B0C00000112004BC505F54CC506F52FC509F5BE
:100B1C0030C50AF564EC0AF0001E00A005D0010EE9
:100B2C00246E256A2F6A306A0F0E135E146A156ADA
:100B3C0017C563F519C564F598DD13C505F5B20E37
:100B4C00096E7CEC0AF0001E00C593F513C509F57F
:100B5C00CA0E056E7CEC0AF0001E050193510014C0
:100B6C00976F97A104D0010E195E000E1A5A1F6AD6
:100B7C001F2A1F04D8A406D013C507F50001C7DD32
:100B8C00216E27D0020E1F5CD8A406D013C507F522
:100B9C00000107DE216E1DD0030E1F5CD8A406D009
:100BAC0013C507F5000147DE216E13D0040E1F5C40
:100BBC00D8A406D013C507F5000187DE216E09D035
:100BCC00050E1F5CD8A405D013C507F50001C7DEC0
:100BDC00216E1B6A1C6A206A202A166A1E6A010E84
:100BEC002D5CD8A04FD01E2A1D6A05016F6B010E1B
:100BFC002D5CD8A042D06F2B21A013D014501724F9
:100C0C00936F16509325376E1B501924936F1D50FC
:100C1C009325386E4BC528F54CC529F5000102DB30
:100C2C0012D014501724936F16509325376E1B5007
:100C3C001924936F1D509325386E24C528F525C5AE
:100C4C0029F50001EFDA2E502D02F3C493F50501BE
:100C5C0093511724376E1B501924936F1D509325F5
:100C6C00386E24C528F525C529F50001DBDA1D2AC7
:100C7C002D5005016F5DD8A0BED7162A2D501E5CD5
:100C8C00D8A0B1D721322D501B26000E1C22080EE5
:100C9C00205CD8A0A1D72D501426000E1522050ECD
:100CAC001F5CD8A065D7246A256A010E2F6E306AA6
:100CBC00000112007BC5E9F47CC5EAF4EFC431F500
:100CCC003152D8B4120068C532F569C533F5346AAF
:100CDC00010E315CD8A02DD0342A32C517F533C59E
:100CEC0018F56AC519F56BC51AF5345005017B2545
:100CFC00E96E000E7C21EA6EEFC413F52FC54BF59F
:100D0C0030C54CF50001FEDE2E502D02F3C493F5D8
:100D1C00050193513224976F000E3320986F010E0A
:100D2C009725326E000E9821336E3150345CD8A06A
:100D3C00D3D732C568F533C569F50001120005013A
:100D4C00896B0501892B04EEBAF38951E926000E53
:100D5C00EA2247C505F548C506F549C507F54AC554
:100D6C0008F50A0E096E0A6A0B6A0C6A0001FCECA3
:100D7C000AF000C5EFF405C547F506C548F507C5EB
:100D8C0049F508C54AF547C505F548C506F549C5F1
:100D9C0007F54AC508F5096A0A6A0B6A0C6A97DBFB
:100DAC00001E00B0CED768C532F569C533F5050114
:100DBC008929346E010E895DD8A02DD0340632C538
:100DCC0017F533C518F56AC519F56BC51AF504EE98
:100DDC00BAF33450E926000EEA22300EEF24136EDB
:100DEC002FC54BF530C54CF500018CDE2E502D0275
:100DFC00F3C493F5050193513224976F000E332001
:100E0C00986F010E9725326E000E9821336E345078
:100E1C000108D8A0D3D732C568F533C569F50001F0
:100E2C0012001200010142874A9742894A99020135
:100E3C00929192939285938F939D9595959794917A
:100E4C0094939499030E9D6F9C6B928F050E006E7C
:100E5C00002EFED700000000000000000000000083
:100E6C0000011200020E3C5CD8A40DD0402AD8B46C
:100E7C00412A04EEC5F34050E9264150EA2244C50C
:100E8C00EFF4120016D03C04D8A408D0406A416A92
:100E9C0044C58DF2020E3C6E12000BD0030E3C5C6E
:100EAC00D8A407D0406A416A44C58DF2020E3C6E4C
:100EBC00120012000201999F3F6A3F28D8B404D057
:100ECC0097AF02D03F2AF9D73F28D8B44BD041C5B1
:100EDC008BF240C58AF2929F928F928B92AB02D08A
:100EEC000000FCD7426A436A010E405CD8A023D0B4
:100EFC00422AD8B4432A3F6A04EEC5F34250E9268D
:100F0C004350EA22EFC489F2020198BB09D0050EC6
:100F1C00006E002EFED73F2A3F28D8B423D0F4D73A
:100F2C0042C505F543C506F540C509F50A6A000139
:100F3C00E2DA00B0DDD7006A020197BB001E00C5E3
:100F4C0093F53FC505F509680001B3DA001E0501EC
:100F5C0093510014976F97A105D0050E006E002ECB
:100F6C00FED7E9D7020199AF02D03D6A01D03D68A6
:100F7C00929F00011200246A256A010E2F6E306ABE
:100F8C00050E2E6E070E2C6E2B6A010E2D6E02684E
:100F9C00036A77EC03F00C0E3E6E43DF0F0E026E0D
:100FAC00036A77EC03F0AE0E0501706F0001F9DBFC
:100FBC002E0E0501706F0001F4DBD50E0501706F6C
:100FCC000001EFDB800E0501706F0001EADBA80E5B
:100FDC000501706F0001E5DB1F0E0501706F00014C
:100FEC00E0DBD30E0501706F0001DBDB0501706BDC
:100FFC000001D7DB0501706B0001D3DB8D0E050101
:10100C00706F0001CEDB140E0501706F0001C9DB9F
:10101C00200E0501706F0001C4DB100E0501706F0E
:10102C000001BFDBA10E0501706F0001BADBC80E19
:10103C000501706F0001B5DBDA0E0501706F000160
:10104C00B0DB120E0501706F0001ABDB810E0501E8
:10105C00706F0001A6DBCF0E0501706F0001A1DBE4
:10106C00D90E0501706F00019CDBF10E0501706F4C
:10107C00000197DBDB0E0501706F000192DB400E67
:10108C000501706F00018DDBA40E0501706F00016E
:10109C0088DBA60E0501706F000183DBAADCAF0EA6
:1010AC000501706F00017DD301014A9D150E0201EF
:1010BC00726F120E176F130E716F1D0E146F140ECC
:1010CC00706F1E0E156F000112000001600EAD6FE7
:1010DC00AF6BB36BB06B600EAD6F080EB16FF86A8F
:1010EC000301F395F39F0401006B086B106B206BED
:1010FC000001749F709F0101506B516B526B536BCD
:10110C00546B0001120091C5E9F492C5EAF4050193
:10111C008E51EF5CD8B057D091C5E9F492C5EAF482
:10112C00EFC476F514EED6F3AC0EF66E170EF76E22
:10113C00000EF86E000102DB05018D6B010E765D71
:10114C00D8A017D08D2B8D519125E96E000E9221D0
:10115C00EA6EEEC474F574C575F504EED6F38D51D4
:10116C00E926000EEA2275C5EEF476518D5DD8A005
:10117C00E9D77629936F93058D6F7629936F93C575
:10118C0009F58EC505F50001B1D900B018D00501DF
:10119C008D2B010E8F25E96E000E9021EA6EEEC4A8
:1011AC0075F575C574F504EED6F38D51E926000E70
:1011BC00EA2274C5EEF48E518D5DD8A0E8D761009B
:1011CC0039F6D6F32DD08D6B91C5E9F492C5EAF4BE
:1011DC00010EEF5CD8A01BD08D2B8D519125E96EA3
:1011EC00000E9221EA6EEEC474F574C575F504EE2A
:1011FC00D6F38D51E926000EEA2275C5EEF491C5A1
:10120C00E9F492C5EAF4EF508D5DD8A0E5D791C50D
:10121C00E9F492C5EAF4EEC474F56100D1F5D6F3A5
:10122C000001120038C571F50501726B030E8A6F4F
:10123C00D890723371338A2FFBD771C505F572C5FF
:10124C0006F5400E096E0A6A00014DDA00C571F50B
:10125C0001C572F5050171513724976F936B72516B
:10126C009321986F010E9725716F000E9821726F64
:10127C0004EEFFF37151E9267251EA22EFC42AF50C
:10128C00070E3814266E28B004D0FE0E276ED880B8
:10129C0003D0010E276ED89026C58AF58A53D8B490
:1012AC0003D027368A2FFDD728B004D02A50271414
:1012BC002A6E03D02A5027102A6E04EEFFF37151C8
:1012CC00E9267251EA222A50EF5CD8B412D004EE0F
:1012DC00FFF37151E9267251EA222AC5EFF437C5A2
:1012EC0063F538C564F500013BEC03F02AC570F5D5
:1012FC0066DA000112000301F39510C5ECF3F399C3
:10130C00010EFA6FF3990F0EFA6FFA95FA93FA81B0
:10131C00F395F39510C5ECF3F38F020E056E0001F7
:10132C0070EC03F00301F3810000F3B1FED7F39FDF
:10133C000401006B086B106B206BEBC36EF50301A3
:10134C00F39500011200010E3C6E3F6A3B6A1200DD
:10135C000501766B9BC505F59CC506F5100E096E4F
:10136C00270E0A6E0001C7D8001E00A01BD09BC51B
:10137C0005F59CC506F5100E096E270E0A6E02D9EE
:10138C0005C58CF500C59BF501C59CF50501762BB3
:10139C0004EEAAF37651E926000EEA22300E8C25D3
:1013AC00EF6E0CD09BC505F59CC506F5E80E096ED5
:1013BC00030E0A6EA0D8001E00A01CD09BC505F51C
:1013CC009CC506F5E80E096E030E0A6E0001DAD80C
:1013DC0005C58CF500C59BF501C59CF50501762B63
:1013EC0004EEAAF37651E926000EEA22300E8C2583
:1013FC00EF6E0BD09BC505F59CC506F5640E096E0A
:10140C000A6A79D8001E00A01BD09BC505F59CC5A7
:10141C0006F5640E096E0A6A0001B4D805C58CF590
:10142C0000C59BF501C59CF50501762B04EEAAF3CE
:10143C007651E926000EEA22300E8C25EF6E0BD089
:10144C009BC505F59CC506F50A0E096E0A6A53D8AC
:10145C00001E00A01AD09BC505F59CC506F50A0E0A
:10146C00096E0A6A00018ED805C58CF500C59BF57E
:10147C0001C59CF50501762B04EEAAF37651E926FD
:10148C00000EEA22300E8C25EF6E0501762B04EE51
:10149C00AAF37651E926000EEA22300E9B25EF6E58
:1014AC0000C59BF501C59CF56100D9F5AAF30001B7
:1014BC001200006809500562006A1200006A0950A7
:1014CC00056212000A500662120000681200006ADF
:1014DC000950056212000A50066212000B50076296
:1014EC0012000C50086212000068120000680950CB
:1014FC000560006A1200006A06500A5CD8A012004F
:10150C000A50065C04E30950055CD8B01200001EBA
:10151C001200006A06AE17D00ABE02D0001E1200DE
:10152C00051C076E061C086E072AD8B4082A091C6D
:10153C00056E0A1C066E052AD8B4062A07C509F5DD
:10154C0008C50AF502D00ABE120006500A5CD8A0E3
:10155C0012000A50065C04E30950055CD8B0120076
:10156C00001E1200EFC405F505C5E7F403D0EF50DB
:10157C00056E06260552D8B41200ECC4E4F4052E10
:10158C00FCD7120005C507F506C508F509C50BF50E
:10159C000AC50CF5026A036A0BC505F50CC506F500
:1015AC00096A0A6A8BDF00A003D0056A066A12007A
:1015BC00100E046ED89007360836023603360B50E0
:1015CC00025E0C50035A0780D8B005D007900B5020
:1015DC0002260C500322042EEDD707C505F508C5CD
:1015EC0006F502C500F503C501F5120005C57DF52C
:1015FC0006C57EF507C57FF508C580F509C581F5DB
:10160C000AC582F50BC583F50CC584F50501856B00
:10161C00866B876B886B81C505F582C506F583C51E
:10162C0007F584C508F5096A0A6A0B6A0C6A000199
:10163C004EDF00A005D0056A066A076A086A120028
:10164C00200E046ED89005017D377E377F378037AA
:10165C0085378637873788378151855F8251865B1E
:10166C008351875B8451885B7D81D8B009D07D9193
:10167C008151852782518623835187238451882366
:10168C00042EE0D77DC505F57EC506F57FC507F5AB
:10169C0080C508F585C500F586C501F587C502F539
:1016AC0088C503F50001120006500A180D6E06AE2F
:1016BC0005D0051E061E052AD8B4062A0AAE05D08A
:1016CC00091E0A1E092AD8B40A2A5CDF0DAE0AD0FC
:1016DC00051E061E052AD8B4062A001E011E002A65
:1016EC00D8B4012A120005500902F3C400F5F4C461
:1016FC0001F505500A02F350012606500902F35079
:10170C00012606520A02120006500A180D6E06AE89
:10171C0005D0051E061E052AD8B4062A0AAE05D029
:10172C00091E0A1E092AD8B40A2ADDDF0DAE05D01F
:10173C00001E011E002AD8B4012A12000900F5C4AB
:10174C0005F5F5C4E7F404D00900F550056E06263E
:10175C000552D8B412000900F5C4E4F4052EFBD7E9
:10176C001200074743424153494307416E6F626978
:10177C00756D043230323600012A09566572736970
:10178C006F6E20310946756C6C204D656D2E0947C6
:10179C004C4344206D6F6465044144433A0001207E
:1017AC000000D1DD780E446E38EC07F0446A38EC5A
:1017BC0007F070C544F538EC07F060EF07F0C3DDB7
:1017CC00780E446E38EC07F0400E446E38EC07F09F
:1017DC0070C544F538EC07F060EF07F04D6A4E6ABF
:1017EC00516A526A576A586A596A5A6A4F6A506AF9
:1017FC00536A546A556A566A5B505D5C4D6E5C5018
:10180C005E584E6E5F500501615D516E60516259BC
:10181C00526E4DC509F54EC50AF5056A066A0001FA
:10182C0078DE00A004D0010E576E586A02D05768BB
:10183C00586851C509F552C50AF5056A066A69DE8C
:10184C0000A004D0010E596E5A6A02D059685A6829
:10185C0057C505F558C506F54DC509F54EC50AF52C
:10186C0053DF00C54DF501C54EF559C505F55AC5F3
:10187C0006F551C509F552C50AF546DF00C551F507
:10188C0001C552F54DC505F54EC506F5020E096E9E
:10189C000A6A3ADF00C54FF501C550F551C505F58B
:1018AC0052C506F5020E096E0A6A2EDF00C553F505
:1018BC0001C554F54DC505F54EC506F551C509F5DF
:1018CC0052C50AF526DE001E00A048D04D50535CD0
:1018DC00556E4E505458566E5BC505F55CC506F5F5
:1018EC005DC509F55EC50AF50001E8DD001E00A026
:1018FC002BD05BC537F55FC538F54BC528F54CC506
:10190C0029F590DC57505B2658505C2255C505F5DF
:10191C0056C506F5096A0A6AFCDD00A005D05350CD
:10192C005526545056220FD04F50535C0501996FD9
:10193C00505054589A6F995155269A5156225950D5
:10194C005F265A506023C8D75BC537F55FC538F59D
:10195C004BC528F54CC529F565DC49D051504F5C79
:10196C00556E52505058566E5FC505F560C506F55C
:10197C0061C509F562C50AF50001A0DD001E00A0D5
:10198C002DD05BC537F55FC538F54BC528F54CC573
:10199C0029F548DC59505F265A500501602355C57E
:1019AC0005F556C506F5096A0A6A0001B2DD00A004
:1019BC0005D04F505526505056220FD053504F5CE7
:1019CC000501996F545050589A6F995155269A5158
:1019DC00562257505B2658505C22C6D75BC537F54C
:1019EC005FC538F54BC528F54CC529F51BDC120035
:020000040030CA
:0E000000E62D27C080C00000FFFFFFFEFF00BE
:00000001FF
