:020000040000FA
:0400000006EF00F017
:020008001000E6
:10000C001FD80101499149934995499748814889DD
:10001C004C87016A51B7012A011E419701B04187F3
:10002C00400E006E002EFED7000000000000000005
:10003C0000000000000000000000EBD70300FED71A
:10004C000001600EAD6FAF6BB36BB06B600EAD6F3C
:10005C00080EB16FF86A0301F395F39F0401006B6E
:10006C00086B106B206B0001749F709F0101506B2B
:0C007C00516B526B536B546B000112006F
:020000040030CA
:0E000000E62D27C080C00000FFFFFFFEFF00BE
:00000001FF
