:020000040000FA
:0400000006EF00F017
:0200080096D18F
:10000C001FD915D951D95DD9D68E01014991499382
:10001C0049954997488148894C87010E0C6E010E11
:10002C00046E0001CFD815EECFF0A60EF66E050EBD
:10003C00F76E000EF86E9EDACF0E226E140E236E43
:10004C00010E046ECDD8010E2C6E480E2B6E2A6A52
:10005C0015D9296A9B0E2D6E2E6A40DA296A63DA4D
:10006C00276A286AB286010E196E1B6A27C505F528
:10007C0028C506F5640E096E0A6A73DA00A02ED044
:10008C00166A156A93D80BC511F5111E136A126AFC
:10009C00EDD911C51FF552D8D70E226E140E236E52
:1000AC00FCD915EECFF0AE0EF66E050EF76E000E07
:1000BC00F86E60DACF0E226E140E236E010E046EF3
:1000CC008FD819C541F119461B2A040E1B5CD8A008
:1000DC0003D0010E196E1B6A276A286AC7D7030062
:1000EC00FED72194010153B921844B874399438B4B
:1000FC00176A0000000000000000438D00000000A3
:10010C0000000000219E53B7218E439D000000008B
:10011C0000000000438D000000000000439D000023
:10012C000000000000001728D8B4219E172A21BE19
:10013C00E0D7439921B4438900011200000E1F5CE3
:10014C00D8B004D01401D76B00011200010E1401B9
:10015C00D76F61007DF4D8F40001120001014399BE
:10016C00010E106E00011ED9040E026E036A10D827
:10017C00800E106E17D9420E006E002EFED70000B6
:10018C0012000C0E006E002EFED7052EFAD71200B0
:10019C00032A6C0E016E0B0E006E002EFED7012E84
:1001AC00FAD7022EF6D7032EF4D7120016C513F584
:1001BC0015C512F55BD9010143890001C2D814C5DC
:1001CC000BF512000CC525F52552D8B408D00D0E30
:1001DC001C6E28D80A0E1C6E25D8252EF8D71200B6
:1001EC0022C5E9F423C5EAF4EFC41AF51A52D8B4BF
:1001FC0013D0246A010E1A5CD8A00ED0242A2450E5
:10020C002224E96E000E2320EA6EEFC41CF50AD8F6
:10021C001A50245CD8A0F2D70D0E1C6E03D80A0E0F
:10022C001C6E00D0BBA2FED71CC5B8F21200010197
:10023C004A9D150E0201726F120E176F000112000B
:10024C000001600EAD6FAF6BB36BB06B600EAD6F3A
:10025C00050EB16FF86A0301F395F39F0401006B6F
:10026C00086B106B206B0001749F709F0101506B29
:10027C00516B526B536B546B00011200F00E030167
:10028C001B15266E2B122C04D8B402D02A8A01D04E
:10029C002A9A2BC51BF3E00E1A15266E2A122A98E1
:1002AC002AC51AF300011200010E046E010E0201A0
:1002BC00C46F9F0EC36FC08FC08BC089C18F0001EC
:1002CC00120001014B9F438F320E026E036A000134
:1002DC005FDF01014B9B439B4B914B934B954B9792
:1002EC004B994B9D4399439D300E0D6E00019CD84C
:1002FC00050E026E036A4CDF300E0D6E95D8850E1E
:10030C00006E002EFED7300E0D6E8ED8EADE200E5B
:10031C000D6E8AD8E6DE280E106E44D80C0E106EC8
:10032C0041D8060E106E3ED819D7B2A605D0BEA67F
:10033C0003D003D8BE9600D01100272AD8B4282A9F
:10034C0012000101438B146A4B814B834B854B8705
:10035C00438D020E006E002EFED7000053B7148E94
:10036C0053B5148C53B3148A53B11488439D060EA1
:10037C00006E002EFED70000438D020E006E002E84
:10038C00FED7000053B7148653B5148453B31482AC
:10039C0053B11480439D060E006E002EFED7000054
:1003AC00000112009EDE0101439B4B914B934B9538
:1003BC004B97439710BE4387439510BC438543939B
:1003CC0010BA4383439110B8438100000000000031
:1003DC000000438D000000000000439D439710B6C1
:1003EC004387439510B44385439310B243834391A1
:1003FC0010B043810000000000000000438D00009D
:10040C0000000000439D650E006E002EFED753B910
:10041C0009D0100E105CD8B005D010500708D8A029
:10042C0010C518F50001120001014399000159DEB5
:10043C000101439B4B914B934B954B97439110B8B8
:10044C004381439310BA4383439510BC4385439730
:10045C0010BE4387438D0000000000000000439D48
:10046C00650E006E002EFED70001120001014399AB
:10047C0013500108D8B004D0020E135E140E1226CD
:10048C001350400D1250F324266E800E2610106E61
:10049C00000188DF050E056E74D622C5E9F423C56C
:1004AC00EAF4EFC41AF51A52D8B4120001014389C8
:1004BC00246A010E1A5CD8A00FD0242A24502224BE
:1004CC00E96E000E2320EA6EEFC410F500016ADF1E
:1004DC001A50245CD8A0F1D7000112002952D8A4DC
:1004EC0003D02DC52EF52D6A00D02952D8B42EC5B7
:1004FC0019F32904D8A404D02EC513F32DC512F377
:10050C00020E295CD8B42DC51DF3030E295CD8A4AA
:10051C0004D02EC524F32DC523F3040E295CD8B4C6
:10052C002DC52AF312002952D8A402D003011A8F28
:10053C002904D8A402D003011481020E295CD8A48A
:10054C0002D003011F8F030E295CD8A402D0030133
:10055C002581040E295CD8A402D003012C8F000144
:10056C001200006A0950056212000A50066212005D
:10057C00006812000900F5C405F5F5C4E7F404D0D1
:10058C000900F550056E06260552D8B41200090074
:10059C00F5C4E4F4052EFBD7120007537461727492
:0405AC006564012E53
:020000040030CA
:0E000000E62D27C080C00000FFFFFFFEFF00BE
:00000001FF
