:020000040000FA
:0400000006EF00F017
:100008008CEF0FF01AEC0FF0E4EC0EF07DEC0FF033
:10001800DCEC0EF0FDEC0EF0E0EC0EF015EC0FF061
:1000280063EC0EF0F28EF28C8280818A8490849246
:10003800849484968290829282948296859E859AF0
:100048008394839A7B9A83967B96586ADD6B596A68
:100058001C6AE0915852D8A4AFD0010E526E010E1E
:100068002A6EF4EC0DF018EEABF0240EF66E420E8C
:10007800F76E000EF86EFFEC20F0AB0EFE6F080E68
:10008800FF6F010E2A6ED1EC0DF0010E526E010EBB
:100098002A6EF4EC0DF018EEABF03A0EF66E420E46
:1000A800F76E000EF86EFFEC20F0AB0EFE6F080E38
:1000B800FF6F010E2A6ED1EC0DF0010E526E010E8B
:1000C8002A6EF4EC0DF018EEABF0540EF66E420EFC
:1000D800F76E000EF86EFFEC20F0AB0EFE6F080E08
:1000E800FF6F2AEC17F0010E5C6E5B6A92EC13F05E
:1000F80018EEABF0660EF66E420EF76E000EF86E56
:10010800FFEC20F0AB0EFE6F080EFF6F2AEC17F025
:10011800010E046EA3EC05F078DB18EEABF0780E58
:10012800F66E420EF76E000EF86EFFEC20F0AB0E86
:10013800FE6F080EFF6F2AEC17F0010E5C6E5B6A0B
:1001480092EC13F018EEABF08A0EF66E420EF76ED4
:10015800000EF86EFFEC20F0AB0EFE6F080EFF6F7E
:100168002AEC17F0050E046EA3EC05F04EDB18EE32
:10017800ABF0540EF66E420EF76E000EF86EFFEC02
:1001880020F0AB0EFE6F080EFF6F2AEC17F0010E81
:100198005C6E5B6A92EC13F018EEABF0660EF66ECE
:1001A800420EF76E000EF86EFFEC20F0AB0EFE6FFD
:1001B800080EFF6F2AEC17F016DB5804D8A403D0FA
:1001C800C7EC0CF050D0020E585CD8A402D03FD92E
:1001D8004AD0030E585CD8A403D071EC1BF043D06E
:1001E800040E585CD8A402D054D83DD0050E585CF3
:1001F800D8A403D00BEC24F036D0060E585CD8A453
:1002080002D0C1DB30D0070E585CD8A403D020EC54
:1002180018F029D0080E585CD8A403D0D3EC22F0EB
:1002280022D0090E585CD8A403D001EC10F01BD0E2
:100238000A0E585CD8A403D03CEC1DF014D00B0E69
:10024800585CD8A403D0ABEC05F00DD00C0E585C6C
:10025800D8A403D0C3EC06F006D00D0E585CD8A481
:1002680002D0B0EC14F0DD05D8B456EC14F0A4D7E5
:100278000300FED706AE08D0051C106E061C116ED2
:10028800102AD8B4112A04D005C010F006C011F005
:1002980012005952D8A443D058C01EF101011F6B57
:1002A8000001A5EC1EF018EE92F0066A08EE73F055
:1002B800C8EC1FF0380EF66E430EF76E000EF86E9F
:1002C80005EC21F008EE92F006C0EFFF920EFE6FEB
:1002D800080EFF6F010E2A6ED1EC0DF0010E526E62
:1002E800010E2A6EF4EC0DF090DA7A967A947A92EE
:1002F8007A907C967C947C927C9018EE92F0420ED8
:10030800F66E430EF76E000EF86EFFEC20F0920EBC
:10031800FE6F080EFF6F2AEC17F0010E596E590494
:10032800D8A462D0176A5EEC1AF0B7C013F0B8C050
:1003380014F05C6A5B6A92EC13F018EE92F0520EBD
:10034800F66E430EF76E000EF86EFFEC20F0920E7C
:10035800FE6F080EFF6F2AEC17F0010E5C6E0A0E96
:100368005B6E92EC13F013C01EF114C01FF1A5ECE4
:100378001EF0730E0101156F080E166F040E0E6F36
:1003880018EE92F0640EF66E430EF76E000EF86EDD
:100398000001FFEC20F0920E01010F6F080E106FA4
:1003A8000001FBEC11F0160EFE6F090EFF6F2AEC30
:1003B80017F013C009F014C00AF0070E8D6FA4ECF3
:1003C80006F037C005F038C006F0020E096E0A6A5A
:1003D80094EC20F000C013F001C014F0F10E8A1460
:1003E8000101176F13108A6E0001DD05D8B4596A30
:1003F800120018C009F019C00AF07F0E056E066ACF
:1004080076EC1FF000A005D07F0E185E000E195A7A
:1004180004D0280E1826010E192212001B6A13C1D7
:10042800E9FF14C1EAFFEFCFE5F0E553D8B41200B5
:10043800E451E55DD8A01200E45101011325E96EED
:10044800000E1421EA6EEFCF1BF000011200595282
:10045800D8A462D058C01EF101011F6B0001A5ECA1
:100468001EF018EE92F0066A08EE73F0C8EC1FF062
:10047800D20EF66E420EF76E000EF86E05EC21F005
:1004880008EE92F006C0EFFF920EFE6F080EFF6FA7
:10049800010E2A6ED1EC0DF0010E526E010E2A6E7D
:1004A800F4EC0DF0366A5C6A5B6A92EC13F07A96AB
:1004B8007A947A927A907C967C947C927C9018EECE
:1004C80092F0DE0EF66E420EF76E000EF86EFFEC3E
:1004D80020F0920EFE6F080EFF6F2AEC17F0010E47
:1004E8000101276F200E266F000151EC0FF0010E5D
:1004F8000101246FDC0E286F0B0E296F00015EECE2
:100508001CF00E012E913891010E0101246F00019B
:1005180051EC1EF0010E596E5904D8A456D08AA683
:1005280016D0010E5C6E5B6A92EC13F018EE92F036
:10053800C00EF66E420EF76E000EF86EFFEC20F05D
:10054800920EFE6F080EFF6F2AEC17F015D0010E01
:100558005C6E5B6A92EC13F018EE92F0F00EF66E99
:10056800420EF76E000EF86EFFEC20F0920EFE6F52
:10057800080EFF6F2AEC17F00E0138A1FDD7010E07
:100588000101246F00017BEC1EF0010E0101246FB4
:10059800DC0E286F0B0E296F00015EEC1CF0010EBB
:1005A8000101246F000151EC1EF00E013891362A2A
:1005B800060E365CD8A409D00101176B8AB6172B32
:1005C800171F7A9617B17A86366A0001DD05D8A416
:1005D80007D0010E0101246F00017BEC1EF0596A5F
:1005E800120071C009F072C00AF073C005F074C03F
:1005F80006F076EC1FF000A00CD071C04CF072C071
:100608004DF073C071F074C072F04CC073F04DC0FF
:1006180074F075C009F076C00AF077C005F078C0AC
:1006280006F076EC1FF000A00CD075C04CF076C038
:100638004DF077C075F078C076F04CC077F04DC0BB
:1006480078F0010E715D316E000E7259326E71C014
:1006580009F072C00AF073C005F074C006F076ECB9
:100668001FF000B023D0312AD8B4322A31C04EF05E
:1006780075C04FF061C03FF062C040F08EEC17F0DB
:1006880031C04EF077C04FF061C03FF062C040F01B
:100698008EEC17F031C005F032C006F073C009F0D7
:1006A80074C00AF076EC1FF000B0DDD7010E755D5E
:1006B800316E000E7659326E75C009F076C00AF0B8
:1006C80077C005F078C006F076EC1FF000B023D0B4
:1006D800312AD8B4322A71C04EF031C04FF061C00F
:1006E8003FF062C040F08EEC17F073C04EF031C09E
:1006F8004FF061C03FF062C040F08EEC17F031C09F
:1007080005F032C006F077C009F078C00AF076EC40
:100718001FF000B0DDD71200010EA6250101176FEA
:10072800000E0001A7210101186F000E0001A82189
:100738000101196F000E0001A92101011A6FABC058
:1007480005F0ACC006F0076A086A17C109F018C1BD
:100758000AF019C10BF01AC10CF00001A5EC20F049
:1007680000C0A6F001C0A7F002C0A8F003C0A9F01D
:10077800D890020E0101076F0001A637A737A837E6
:10078800A9370101072FF8D7A6C005F0A7C006F0C2
:10079800A8C007F0A9C008F0AEC009F0AFC00AF0C1
:1007A8000B6A0C6A00011BEC20F005C0A6F006C01D
:1007B800A7F007C0A8F008C0A9F0D890060E01015C
:1007C800076F0001A637A737A837A9370101072FF8
:1007D800F8D70001120082907A8082807A80E099AE
:1007E8008AB0E08912001C52D8A409D089BA06D070
:1007F800640E026E036A95D9010E1C6E05D089AA93
:1008080003D01C6A010EDD6F1200F193010E5A6EBF
:100818006BEC11F0040E026E036A83D9800E5A6ED7
:100828006BEC11F0210E006E002EFED712002CC1C9
:1008380005F02DC106F0096A0A6A9AEC1FF000A0BB
:100848000CD02CC105F02DC106F009680A68E5EC4A
:1008580020F000C02CF101C02DF12CC105F02DC1F4
:1008680006F0680E096E010E0A6E75EC20F000C0E5
:100878002CF101C02DF1010E0101316F326B2CC139
:1008880009F02DC10AF05A0E056E066A00019AECAD
:100898001FF000C017F12CC105F02DC106F00E0E97
:1008A800096E010E0A6E9AEC1FF00101175100142F
:1008B8001B6F1BA102D0316932692CC12AF12DC1ED
:1008C8002BF10001C8EC23F02FC12CF130C12DF120
:1008D80001012C515A082C6F176B2D5117592D6F88
:1008E8002C292E6F2EC107F00001FDEC1CF0010130
:1008F800336F346B31C105F032C106F033C109F0F2
:1009080034C10AF00001E5EC20F000C02BF001C072
:100918002CF012007AC0A0F0030E0101036FD890EA
:100928000001A0330101032FFAD7B00E0001A02562
:10093800D96FD8EC24F00F0E79159E6F9F6B9EC06F
:10094800D9F0D8EC24F079C09EF09F6B040E010119
:10095800036FD89000019F339E330101032FF9D70D
:100968000F0E00019E150101176F186B100E172549
:1009780000019E6F000E0101182100019F6F9EC0AB
:10098800D9F0D8EF24F05952D8A455D058C01EF148
:1009980001011F6B0001A5EC1EF018EE92F0066A2B
:1009A80008EE73F0C8EC1FF0940EF66E430EF76E67
:1009B800000EF86E05EC21F008EE92F006C0EFFF8D
:1009C800920EFE6F080EFF6F010E2A6ED1EC0DF02D
:1009D800010E526E010E2A6EF4EC0DF0F10E8A161D
:1009E8007A82060E126E11DF18EE92F0A40EF66EE1
:1009F800430EF76E000EF86EFFEC20F0920EFE6FBD
:100A0800080EFF6F2AEC17F0010E5C6E5B6A92EC21
:100A180013F018EE92F0B60EF66E430EF76E000E57
:100A2800F86EFFEC20F0920EFE6F080EFF6F2AECB6
:100A380017F0010E596E5904D8A43DD0CCDEE0B9A8
:100A48003AD0640E026E036A6CD8C5DEE0B933D0C2
:100A58000E0E8A14606FD8906037F10E8A14010167
:100A6800176F000160117A6E122A12500808D8B068
:100A780003D07A82060E126E010E5C6E5B6A92ECEF
:100A880013F018EE92F0260EF66E430EF76E000E77
:100A9800F86EFFEC20F0920EFE6F080EFF6F2AEC46
:100AA80017F0010E5C6E070E5B6E92EC13F012C02D
:100AB8005DF04FEC17F0DD05D8A402D08290596A9A
:100AC8001200270E186E010E196E182AD8B4192AAA
:100AD800E2EC16F018C005F019C006F0670E096EB2
:100AE800010E0A6E76EC1FF000B0EFD7186819688F
:100AF800182AD8B4192AE2EC16F018C005F019C063
:100B080006F03F0E096E0A6A76EC1FF000B0F0D7C7
:100B18001200050E006E002EFED70000052EF9D734
:100B28001200032A040E016EA50E006E002EFED7D9
:100B3800012EFAD7022EF6D7032EF4D71200E80EAC
:100B4800026E030E036EEDDF042EF9D71200595220
:100B5800D8A46CD058C01EF101011F6B0001A5EC90
:100B68001EF018EE92F0066A08EE73F0C8EC1FF05B
:100B7800F40EF66E440EF76E000EF86E05EC21F0DA
:100B880008EE92F006C0EFFF920EFE6F080EFF6FA0
:100B9800010E2A6ED1EC0DF0010E526E010E2A6E76
:100BA800F4EC0DF0176A4EEC19F0B6C0B4F0B56B62
:100BB8003CEC19F00BEC19F0B1C035F0366A25DEC3
:100BC8007A967A947A927A907C967C947C927C90AD
:100BD80018EE92F0020EF66E450EF76E000EF86EE5
:100BE800FFEC20F0920EFE6F080EFF6F2AEC17F054
:100BF800010E0101276F200E266F000151EC0FF046
:100C0800010E0101246FDC0E286F0B0E296F000105
:100C18005EEC1CF00E013891010E0101246F0001F9
:100C280051EC1EF00E012E81010E596E5904D8A404
:100C380070D03652D8A46DD035C0E7F00001E86B0B
:100C48005FEC14F034C013F05C6A5B6A92EC13F04A
:100C580018EE92F0520EF66E430EF76E000EF86E16
:100C6800FFEC20F0920EFE6F080EFF6F2AEC17F0D3
:100C7800010E5C6E5B6A92EC13F018EE92F0160EA1
:100C8800F66E450EF76E000EF86EFFEC20F0920E31
:100C9800FE6F080EFF6F2AEC17F0010E5C6E0B0E4C
:100CA8005B6E92EC13F013C01EF101011F6B000183
:100CB800A5EC1EF0730E0101156F080E166F040ED9
:100CC8000E6F18EE92F0640EF66E430EF76E000E7D
:100CD800F86E0001FFEC20F0920E01010F6F080E74
:100CE800106F0001FBEC11F0160EFE6F090EFF6F7E
:100CF8002AEC17F013C009F0070E8D6F32D8375061
:100D0800020DF3CF13F0F10E8A140101176F1310BF
:100D18008A6E0001DD05D8A409D00E012E91010EBE
:100D28000101246F00017BEC1EF0596A1200959EA8
:100D3800D8C091FF94A0FED7949091CFD7F012001D
:100D48008DC008F101010853D8B405D0D8900A32F3
:100D58000932082FFBD709C037F00AC038F0000164
:100D680012008DC009F101010953D8B404D0D890FC
:100D78000932092FFCD709C037F000011200595277
:100D8800D8A46BD042DD7A967A947A927A907C963F
:100D98007C947C927C9018EE92F01E0EF66E450EB6
:100DA800F76E000EF86EFFEC20F0920EFE6F080E44
:100DB800FF6F2AEC17F0010E5C6E5B6A92EC13F081
:100DC80018EE92F0300EF66E450EF76E000EF86EC5
:100DD800FFEC20F0920EFE6F080EFF6F2AEC17F062
:100DE80058C01EF101011F6B0001A5EC1EF018EEA2
:100DF80092F0066A08EE73F0C8EC1FF0420EF66E29
:100E0800450EF76E000EF86E05EC21F008EE92F034
:100E180006C0EFFF920EFE6F080EFF6F010E2A6EDE
:100E2800D1EC0DF0010E526E010E2A6EF4EC0DF0AD
:100E3800F40E026E010E036E74DEE0810E01656B26
:100E4800666B49CE99F0080E496F0001DCEC0EF094
:100E580063EC0EF089DB010E596E5904D8B4EDDB52
:100E6800DD05D8A424D096D9020EA26FA36B0A0E72
:100E7800A46FA56B18EE92F04E0EF66E450EF76E47
:100E8800000EF86EFFEC20F0920EEF6F080EF06F78
:100E9800E7DAE09199C049FE000000000000000078
:100EA800839A8396E4EC0EF0E0EC0EF0596A120097
:100EB800710E0760000C0750DA0FF66E0E0ED8B0F0
:100EC800010FF76E000ED8B0010FF86E0800F5504C
:100ED80012007000100C0A88223820082010108098
:100EE8008040040000002848466C000000281000DC
:100EF8001000407C008482304E78066C0C00001094
:100F080028000464F8FE7CFEFEFE7CFE0040FEFE27
:100F1800FEFE7CFE7CFE4C027E3E7EC60EC20004B7
:100F28000008800040FE7070701010FE0040FE0047
:100F3800F8F870F810F89010783878881888000059
:100F480000207800710E0760000C07506E0FF66ED7
:100F58000F0ED8B0010FF76E000ED8B0010FF86E63
:100F68000800F550120070FE380A06CC667C700442
:100F780040103888A2701C00000EFE5426920A38D1
:100F8800821010A010C020A284C282288A940292E3
:100F9800926CAC2828820292249282829212821049
:100FA8008280108004088212821292028040802877
:100FB80010A2FE0882048002A8908888A8FCA810C5
:100FC80090802082081088282810A87C80408050B3
:100FD800A0C8100082104400710E0760000C075072
:100FE800020FF66E100ED8B0010FF76E000ED8B0D3
:100FF800010FF86E0800F5501200707C7C0000EEBE
:10100800EE7CA8FEFE545494947C7C009E0028FE3E
:1010180010AA0644447C7C6010C01092FEA28A2468
:101028008A92E292926C6C442844A2F222928282C2
:1010380092129210FE82288018108212A23292FE1A
:1010480080807010E092821082028004A8888888CC
:10105800A812A808FA8850FEF00888282808A8903E
:1010680080806020A0A86CFE6C104200710E0760A2
:10107800000C0750960FF66E100ED8B0010FF76EE1
:10108800000ED8B0010FF86E0800F5501200703845
:10109800FE0C0ACC667C2004403810A288701C0024
:1010A800000EFE54C8440082381010001000088A50
:1010B800809296FE8A92129252000082282812820A
:1010C8002492824492129210827E448004208212DA
:1010D8004252920280408028108A8220FE048008B2
:1010E800A8888890A802A808807A88800808882894
:1010F8003008A88040408050A0988200102044000A
:10110800710E0760000C07502A0FF66E110ED8B04A
:10111800010FF76E000ED8B0010FF86E0800F550F9
:1011280012007010000A068822383E08201010802D
:101138008040040000002824C4A0000000281000FB
:101148001000047C008C622072600E6C3C00000071
:1011580028100C7CF86C44388202F4FE000282806D
:10116800FEFE7C0CBC8C64027E3E7EC60E86004071
:1011780000088000F07040FE300478F000000000A5
:10118800F0F07010F8104040F8387888788800003F
:1011980000107800506A516ADA6BDB6BDA2BD8B42E
:1011A800DB2B09EEE9F0DA51E926DB51EA22EF6A96
:1011B800DAC005F0DBC006F0096A040E0A6E76ECA8
:1011C8001FF000B0EBD7DA6BDB6B080EED6FEE6B40
:1011D800796BDAC07AF08EEC04F043EC0EF0780EFE
:1011E800556E0FEC0EF0400E556E0FEC0EF04C687D
:1011F8004C2A3BC055F00FEC0EF07F0E4C5CD8A08B
:10120800F7D752EC0EF0EEAF2AD0ED1DEB6FEE1DC6
:10121800EC6FEB2BD8B4EC2B400EDA5D0101176FA5
:10122800000E0001DB590101186F010E175D1B6FDD
:10123800000E18591C6F1BC105F01CC106F0EBC04D
:1012480009F0ECC00AF0000176EC1FF0001E00A0C7
:1012580005D0ED51DA27EE51DB23B7D71DD0DA518F
:101268003F080101176F1B6B0001DB5101011B597E
:10127800186F17C105F018C106F0EDC009F0EEC0EF
:101288000AF0000176EC1FF0001E00A005D0ED5119
:10129800DA27EE51DB2399D7796B7A6B8EEC04F061
:1012A800A26BA46B120061C005F062C006F046C0D4
:1012B80009F047C00AF059EC1FF0001E00A005D045
:1012C800010E3B6E3C6A466A476A0F0E1E5E1F6A35
:1012D800206A22C079F024C07AF08EEC04F01EC097
:1012E80005F0B20E096E71EC1FF0001E00C01DF172
:1012F8001EC009F0CA0E056E71EC1FF0001E010138
:101308001D510014176F17A104D0010E245E000EA2
:10131800255A2E6A2E2A2E04D8A406D01EC007F0FD
:101328000001C6DD306E27D0020E2E5CD8A406D090
:101338001EC007F0000106DE306E1DD0030E2E5CC5
:10134800D8A406D01EC007F0000146DE306E13D0C8
:10135800040E2E5CD8A406D01EC007F0000186DE5D
:10136800306E09D0050E2E5CD8A405D01EC007F03B
:101378000001C6DE306E266A276A2F6A2F2A216A84
:10138800296A010E445CD8A053D0292A286A000192
:10139800B96B010E445CD8A046D0B92B30A015D04B
:1013A8001F50222401011D6F21501D254E6E26500D
:1013B80024241D6F28501D254F6E61C03FF062C068
:1013C80040F000018EEC17F014D01F5022240101C8
:1013D8001D6F21501D254E6E265024241D6F285048
:1013E8001D254F6E3BC03FF03CC040F000018EEC25
:1013F80017F045504402F3CF1DF101011D5122247D
:101408004E6E265024241D6F28501D254F6E3BC05C
:101418003FF03CC040F000018EEC17F0282A445001
:10142800B95DD8A0BAD7212A4450295CD8A0ADD735
:10143800303244502626000E2722080E2F5CD8A0F2
:101448009DD744501F26000E2022050E2E5CD8A0E2
:1014580061D73B6A3C6A010E466E476A000112007A
:10146800EFC0E9FFF0C0EAFFEFCF48F04852D8B428
:101478001200A2C049F0A3C04AF04B6A010E485CB2
:10148800D8A02CD04B2A49C022F04AC023F0A4C0CF
:1014980024F0A5C025F04B500001EF25E96E000EA1
:1014A800F021EA6EEFCF1EF046C061F047C062F04F
:1014B800FADE45504402F3CF17F1010117514924D0
:1014C8001B6F000E4A201C6F010E1B25496E000E73
:1014D8001C214A6E48504B5CD8A0D4D749C0A2F012
:1014E8004AC0A3F000011200EFC0E9FFF0C0EAFF14
:1014F800EFCF48F04852D8B41200A2C049F0A3C0B8
:101508004AF04B6A010E485CD8A028D04B2A49C043
:1015180022F04AC023F0A4C024F0A5C025F04B5007
:101528000001EF25E96E000EF021EA6EEFCF1EF004
:10153800BADE45504402F3CF17F10101175149248F
:101548001B6F000E4A201C6F010E1B25496E000EF2
:101558001C214A6E48504B5CD8A0D8D749C0A2F08D
:101568004AC0A3F0000112003F0E0101386F3A0E85
:101578003A6F00010FDE716B726B756B766B7F0EC5
:10158800736F746B3F0E776F786B46C061F047C01E
:1015980062F0F5EC02F0910EB06FB00765EC05F063
:1015A800B0518D08D8A0F9D7050E226E236A280EEF
:1015B800246E256A18EE79F05C0EF66E450EF76E0D
:1015C800000EF86EFFEC20F0790E0101136F080E83
:1015D800146F010E0001E46F12EC02F01BC01EF044
:1015E80046C061F047C062F05EDE730E226E236A69
:1015F800280E246E256A18EE79F05E0EF66E450EFA
:10160800F76E000EF86EFFEC20F0790E0101136FF3
:10161800080E146F010E0001E46F12EC02F01BC0FB
:101628001EF046C061F047C062F03DDE780EB06F34
:10163800010E186E196AFDEF01F018C095F019C077
:1016480096F0176A4EEC19F0B6C015F0166A15C078
:1016580005F016C006F0020E096E0A6AE7EC1FF0E4
:1016680005C018F006C019F015C005F016C006F040
:10167800640E096E0A6A94EC20F000C015F001C0EF
:1016880016F015C005F016C006F0330E096E0A6A8A
:10169800E7EC1FF005C015F006C016F015C01EF1E6
:1016A80016C01FF1A5EC1EF018EE6EF008EE73F0F0
:1016B800C3EC1FF015C005F016C006F00A0E096E3F
:1016C8000A6A76EC1FF000A01ED06E0E0101156F9D
:1016D800080E166F010E0001E56FBDEC11F018EE53
:1016E8006EF0066A600EF66E450EF76E000EF86E26
:1016F80005EC21F009EE3FF0C8EC1FF008EE6EF0A3
:1017080006C0EFFF58D015C005F016C006F0640EED
:10171800096E0A6A76EC1FF000A020D06E0E010157
:10172800156F080E166F010E0001E66F020EE56FC9
:1017380001EC14F018EE6EF0066A640EF66E450EB3
:10174800F76E000EF86E05EC21F008EEEDF0C8EC2F
:101758001FF008EE6EF006C0EFFF2DD06E0E0101EF
:10176800156F080E166F010E0001E56FBDEC11F044
:101778006E0E0101156F080E166F020E0001E66F5E
:10178800020EE56F01EC14F018EE6EF0066A09EE31
:101798003FF0C8EC1FF0680EF66E450EF76E000EAF
:1017A800F86E05EC21F008EEEDF0C8EC1FF008EE3D
:1017B8006EF006C0EFFFFDEC01F095C02CF196C06D
:1017C8002DF198EC1CF0B0C005F0066AD3C009F002
:1017D800D4C00AF0E5EC20F000C017F101C018F100
:1017E80017C105F018C106F009680A6A75EC20F0FF
:1017F8000550010138250001976F95C02CF196C05E
:101808002DF11BEC04F0B0C005F0066A2BC009F0FE
:101818002CC00AF0E5EC20F000C017F101C018F167
:1018280017C105F018C106F009680A6A75EC20F0BE
:10183800055001013A5D0001986F18C02CF119C0DC
:101848002DF198EC1CF0B0C005F0066AD3C009F081
:10185800D4C00AF0E5EC20F000C017F101C018F17F
:1018680017C105F018C106F009680A6A75EC20F07E
:10187800055001013825396F18C02CF119C02DF118
:1018880000011BEC04F0B0C005F0066A2BC009F09B
:101898002CC00AF0E5EC20F000C017F101C018F1E7
:1018A80017C105F018C106F009680A6A75EC20F03E
:1018B800055001013A5D3B6F95C005F096C006F0F2
:1018C80018C009F019C00AF0000159EC1FF0001EF9
:1018D80000A058D038C171F0726B3AC175F0766BC0
:1018E80097C073F0746B98C077F0786B616B626B1C
:1018F80076EC12F0370E716F726B160E756F766B91
:101908003F0E736F746B260E776F786B46C061F06D
:1019180047C062F076EC12F03F0E716F726B260EC4
:10192800756F766B470E736F746B160E776F786BE7
:1019380046C061F047C062F076EC12F0320EA26F3A
:10194800A36B0A0EA46FA56B6E0EEF6F080EF06FF7
:10195800010E616F626BC8DD38C171F0726B3AC1FC
:1019680075F0766B39C173F0746B3BC177F0786BA7
:10197800010E616F626B76EC12F0140E026E036A50
:1019880095EC05F012005952D8A444D058C01EF165
:1019980001011F6B0001A5EC1EF018EE92F0066A1B
:1019A80008EE73F0C8EC1FF09C0EF66E420EF76E50
:1019B800000EF86E05EC21F008EE92F006C0EFFF7D
:1019C800920EFE6F080EFF6F010E2A6EE6D8010E0A
:1019D800526E010E2A6E04D95C6A5B6A92EC13F0AF
:1019E8007A967A947A927A907C967C947C927C907F
:1019F80018EE92F0AE0EF66E420EF76E000EF86E0E
:101A0800FFEC20F0920EFE6F080EFF6F2AEC17F025
:101A1800010E596E5904D8A416D07A86010E5C6E50
:101A28005B6A92EC13F018EE92F0C00EF66E420E5E
:101A3800F76E000EF86EFFEC20F0920EFE6F080EA7
:101A4800FF6F2AEC17F0DD05D8B4596A1200AE69A9
:101A5800AF6B010E0101366FD00E056E070E066ED4
:101A6800076A086AADC009F00A6A0B6A0C6A0001C5
:101A78001BEC20F005C0A6F006C0A7F007C0A8F030
:101A880008C0A9F0A7510008D8B00ED0040E010173
:101A9800366FD8900001A933A833A733A633D8905E
:101AA800A933A833A733A633A7510008D8B00ED05E
:101AB800100E0101366FD8900001A933A833A7335F
:101AC800A633D890A933A833A733A633A751000863
:101AD800D8B00ED0400E0101366FD8900001A9335E
:101AE800A833A733A633D890A933A833A733A6338E
:101AF800020E0101505DD8A417D0A6C0BCFFBD9846
:101B0800BD9ABD9C040E365DD8B4BD8A100E365DF4
:101B1800D8B4BD8C400E365DD8A402D0BD8CBD8A29
:101B2800BF80BF92BF94BF96D8905031176F1705EA
:101B3800236F0001AA05D8A414D090EC03F0A7C025
:101B4800AAFFA6C0A9FFAB86AB84AB82AB80AB8EE5
:101B5800AB8EAB88AD90010123B1AD80AD9223B3BC
:101B6800AD82030E0001AA5DD8A415D090EC03F055
:101B7800A7C025FFA6C024FF0F0126872685268338
:101B88002681268F268F2689AD98010123B1AD883D
:101B9800AD9A23B3AD8A00011200FEC0E9FFFFC071
:101BA800EAFFEFCFA1F0A153D8B418D00101006B20
:101BB800010E0001A15DD8A011D00101002B005138
:101BC8000001FE25E96E000EFF21EA6EEFCFD1F08D
:101BD80019D8A1510101005DD8A0EFD7000112006A
:101BE80052C00BF101010B53D8B40AD00D0E0001FD
:101BF800D16F08D80A0ED16F05D801010B2FF6D77F
:101C0800000112000E0136A9FDD79DA2FED7D1C052
:101C180099FF00011200E0A1120083967B96000054
:101C28000000080E0101046F55AE02D0838802D06F
:101C380083987B98553683868BA6FED700000000D4
:101C480083967B9600000000042FEED7000000006A
:101C580083880000000083868BA6FED78BA803D05C
:101C6800536A546A02D05368546883967B9600007E
:101C7800000083987B980000000000011200E299A0
:101C8800F2BEE289F29E8388838600000000839872
:101C98007B980000000083967B96120083967B96C3
:101CA80083987B98000000008386000000008388EA
:101CB80000000000E2A9F29EE2B9F28E12003B6A2F
:101CC8003C6A010E466E476A050E456E070E436E66
:101CD800426A010E446E0268036A95EC05F0AE0E86
:101CE800D96FD8EC24F02E0ED96FD8EC24F0D50E8D
:101CF800D96FD8EC24F0800ED96FD8EC24F0A80E58
:101D0800D96FD8EC24F03F0ED96FD8EC24F0D30E5D
:101D1800D96FD8EC24F0D96BD8EC24F0400ED96FE9
:101D2800D8EC24F08D0ED96FD8EC24F0140ED96FAE
:101D3800D8EC24F0200ED96FD8EC24F0100ED96F0F
:101D4800D8EC24F0A10ED96FD8EC24F0C80ED96FC6
:101D5800D8EC24F0DA0ED96FD8EC24F0120ED96F33
:101D6800D8EC24F0810ED96FD8EC24F0CF0ED96FBF
:101D7800D8EC24F0D90ED96FD8EC24F0F10ED96F35
:101D8800D8EC24F0DB0ED96FD8EC24F0400ED96FD4
:101D9800D8EC24F0A40ED96FD8EC24F0A60ED96F95
:101DA800D8EC24F0CEEC08F0AF0ED96FD8EF24F0C1
:101DB80083888386566A12002DDA0C0E5F6E120035
:101DC8000C0E0E01686F130E196F190E656F1A0E3F
:101DD800676F140E1A6F050E646F120E026F050EF0
:101DE800776F250E026F050E796F270E026F0001BF
:101DF8001200020E0101506F1D6A340EBC6EBD98B0
:101E0800BD9ABD9C1D881A0EAA6E800EA96E010E81
:101E1800BF6E1D8E1D861D841D921D90BD8E0001F6
:101E28001200F40EB26F590EB36F1200778E779CC2
:101E380000010E01456B476B486B600E436F030E44
:101E4800496FF86A6094609E926B9A6BA76BAF6B50
:101E5800B46BBC6BCC9FD09F896A8A6A8B6A8C6A88
:101E68008D6A8E6A8F6A906A00011200F00ED6148D
:101E78000101176F26132705D8B402D0258B01D08E
:101E8800259B26C1D6FFD688E00ED514176F2513DB
:101E9800259925C1D5FF0001120001012653D8B4A8
:101EA8000CD0100E265DD8B408D0200E265DD8B40C
:101EB80004D0300E265DD8A4266BCFB0268127C16A
:101EC80009F00F0E056E000171EC1FF000C017F14C
:101ED80027C105F0096A71EC1FF0010117510010C4
:101EE8001B6F1BB1356B27C1D2FF26C1CFFF000185
:101EF8001200010E2A6E9B6ACF0E9A6ECF0E9A6E52
:101F08009E869D849D989D8A9C8E9C889C881200A4
:101F1800E8CF0EF0D8CF0FF0E0CFE3F017C1CCF048
:101F280005C0CEF000C0BAF006C0C3F007C0C4F0C8
:101F380008C0C2F009C0C5F00AC0C7F00BC0C8F09D
:101F48000CC0C6F001C0CAF002C0CBF003C0C9F093
:101F5800E9CFBCF0EACFBBF018C1CDF004C0C1F0A6
:101F680077CFBFF075CFBDF074CFBEF076CFC0F09D
:101F78000E0129AB07D033AB05D00001FAD80E010A
:101F8800339B09D02EA107D038A105D00001DEDB94
:101F98000E01389100D0CCC017F1CEC005F0BAC000
:101FA80000F0C3C006F0C4C007F0C2C008F0C5C046
:101FB80009F0C7C00AF0C8C00BF0C6C00CF0CAC010
:101FC80001F0CBC002F0C9C003F0BCC0E9FFBBC040
:101FD800EAFFCDC018F1C1C004F0BFC077FFBDC093
:101FE80075FFBEC074FFC0C076FF0EC0E8FF0FC00B
:101FF800D8FFE3C0E0FF100000015952D8A465D013
:1020080058C01EF101011F6B0001A5EC1EF018EE6F
:1020180092F0066A08EE73F0C8EC1FF0460EF66EF2
:10202800440EF76E000EF86E05EC21F008EE92F003
:1020380006C0EFFF920EFE6F080EFF6F010E2A6EAC
:10204800ACDD010E526E010E2A6ECADDF10E8A1643
:102058007A82060E126E5C6A5B6A60DBE085E0835A
:1020680018EE92F0560EF66E440EF76E000EF86EED
:10207800FFEC20F0920EFE6F080EFF6F2AEC17F0AF
:10208800010E5C6E5B6A4ADB18EE92F0680EF66E23
:10209800440EF76E000EF86EFFEC20F0920EFE6F05
:1020A800080EFF6F2AEC17F00E01298B010E0101B3
:1020B800276F4C0E266F256B0001D8DE0101246BBB
:1020C800000151EC1EF0010E596E5904D8A444D0F9
:1020D800EFEC03F0E0B940D00101176B0001E0A577
:1020E80002D00101172B0101171F0001E095010122
:1020F80017A102D00001E0850001E0A515D0010E6E
:102108005C6E5B6A0BDB18EE92F0680EF66E440E9E
:10211800F76E000EF86EFFEC20F0920EFE6F080EC0
:10212800FF6F2AEC17F014D0010E5C6E5B6AF6DACA
:1021380018EE92F07A0EF66E440EF76E000EF86EF8
:10214800FFEC20F0920EFE6F080EFF6F2AEC17F0DE
:10215800EFEC03F0E0A9FCD7DD05D8A409D00E0107
:10216800299B0101246B00017BEC1EF08290596AC7
:1021780012008292829482960E0E8A14606FE0A5F5
:1021880012D0D8906037F10E8A140101176F000140
:1021980060117A6E122A12500808D8B003D07A82D9
:1021A800060E126E11D0D8906033F10E8A14010118
:1021B800176F000160117A6E1206060E125CD8B015
:1021C80003D07A86080E126E1200F1935DC05AF0A1
:1021D8007ED85DC005F0010E096E54EC1FF000C0FA
:1021E8001DF15DC005F0020E096E54EC1FF00101EF
:1021F8001D510010176F17A107D0020E026E036A57
:10220800000195EC05F004D0210E006E002EFED7DB
:1022180000011200829A0A0E026E036A95EC05F01C
:102228007A9A030E006E002EFED77A8A8194839ADA
:1022380083960D0ED66FD56B1AEC1EF00101526B0A
:10224800516B000187D80A0E026E036A95EC05F0FF
:10225800010E0101526F516B00017CD80A0E026E0B
:10226800036A95EC05F0120E0101526F200E516FB2
:10227800000170D80A0E026E036A95EC05F03C0E58
:102288005D6EA3DF0A0E026E036A95EC05F00C0E74
:102298005D6E9BDF0A0E026E036A95EC05F0010E77
:1022A8005D6E93DF0A0E026E036A95EC05F00C0E64
:1022B8005D6E8BDF820E026E036A95EC05F0800E70
:1022C8005D6E83DF010E026E036A95EF05F0F1B3D0
:1022D80018D0120E0101526F600E516F00013AD8EA
:1022E800130E0101526F5AC051F1000133D851C188
:1022F8005AF0120E0101526F200E516F00012AD8B8
:1023080017D0120E0101526FE00E516F000122D852
:10231800130E0101526F5AC051F100011BD851C16F
:102328005AF0120E0101526FA00E516F000112D81F
:102338000C0E5F6E210E006E002EFED7F1B309D091
:10234800100E5A5CD8B005D05A500708D8A05AC009
:102358005FF012007994400ED86F9BEC06F052C1E2
:10236800D8F09BEC06F051C1D8F09BEC06F07984CC
:10237800120015C1E9FF16C1EAFFEF52D8A404D034
:1023880009013F6B0001120015C1E9FF16C1EAFF00
:10239800E551EF5CD8B006D015C1E9FF16C1EAFFD8
:1023A800EFCFE5F001010D6B010E0001E55DD8A04E
:1023B8001AD001010D2B0D511525E96E000E1621BD
:1023C800EA6EEECFDFF0DFC0DEF009EE3FF00D5130
:1023D800E926000EEA22DEC0EEFF0001E551010108
:1023E8000D5DD8A0E6D7E5C03FF90001120015C180
:1023F800E9FF16C1EAFF01010E51EF5CD8B067D0C2
:1024080019EE16F0A40EF66E450EF76E000EF86E75
:102418000001FFEC20F00EC116F915C1E9FF16C145
:10242800EAFFEF5001010E5D0001E56F01010D6B40
:10243800010E0001E55DD8A01AD001010D2B010E97
:102448000F25E96E000E1021EA6EEECFDEF0DEC039
:10245800DFF009EE16F00D51E926000EEA22DFC082
:10246800EEFF0001E55101010D5DD8A0E6D701019D
:102478000D6B15C1E9FF16C1EAFF010EEF5CD8A08C
:1024880025D00D2B0D511525E96E000E1621EA6E8B
:10249800EECFDEF0DEC0DFF009EE16F00001E55108
:1024A800E9240101176F000EEA20186F0D51172556
:1024B800E96E000E1821EA6EDFC0EEFF15C1E9FFD4
:1024C80016C1EAFFEF500D5DD8A0DBD709D019EE91
:1024D80016F015C1E9FF16C1EAFF0001C3EC1FF0B1
:1024E80000011200636B646B676B686B6D6B6E6BDE
:1024F8006F6B706B656B666B696B6A6B6B6B6C6B28
:102508007151735D636F72517459646F7551775D62
:10251800676F76517859686F63C009F064C00AF034
:10252800056A066A9AEC1FF000A004D0010E6D6FD0
:102538006E6B02D06D696E6967C009F068C00AF0F9
:10254800056A066A9AEC1FF000A004D0010E6F6FAE
:10255800706B02D06F6970696DC005F06EC006F0CF
:1025680063C009F064C00AF0E5EC20F000C063F035
:1025780001C064F06FC005F070C006F067C009F0D4
:1025880068C00AF0E5EC20F000C067F001C068F010
:1025980063C005F064C006F0020E096E0A6AE5EC35
:1025A80020F000C065F001C066F067C005F068C0A3
:1025B80006F0020E096E0A6AE5EC20F000C069F028
:1025C80001C06AF063C005F064C006F067C009F096
:1025D80068C00AF09AEC1FF0001E00A050D06351AA
:1025E800695D6B6F64516A596C6F71C005F072C098
:1025F80006F073C009F074C00AF059EC1FF0001E11
:1026080000A032D071C04EF075C04FF061C03FF0ED
:1026180062C040F08EEC17F06D5171276E51722335
:102628006BC005F06CC006F0096A0A6A9AEC1FF0E4
:1026380000A005D069516B276A516C2314D06551ED
:10264800695D01011B6F000166516A5901011C6F28
:102658001B5100016B2701011C5100016C236F51B4
:10266800752770517623C1D771C04EF075C04FF0F1
:1026780061C03FF062C040F08EEC17F04ED0675159
:10268800655D6B6F685166596C6F75C005F076C0F3
:1026980006F077C009F078C00AF059EC1FF0001E68
:1026A80000A032D071C04EF075C04FF061C03FF04D
:1026B80062C040F08EEC17F06F5175277051762389
:1026C8006BC005F06CC006F0096A0A6A9AEC1FF044
:1026D80000A005D065516B2766516C2314D0695151
:1026E800655D01011B6F00016A51665901011C6F8C
:1026F8001B5100016B2701011C5100016C236D5116
:1027080071276E517223C1D771C04EF075C04FF05A
:1027180061C03FF062C040F0FDDB1200F1935C50F5
:102728000108D8B004D0020E5C5E140E5B265C5023
:10273800400D5B50F3240101176F800E17115A6E7C
:102748000001C5DD050E056E8DEF05F0362A0B0E6E
:10275800585CD8A418D0060E365CD8A413D0010152
:10276800176B8AB6172B171F7A9617B17A8635C05A
:10277800E7F00001E86B176A4EEC19F0B6C033F0C9
:10278800B9D8366A22D00D0E585CD8A41ED0140EC3
:10279800365CD8A41AD00101176B8AB6172B171FFD
:1027A8007A9617B17A868EC03EF18FC03FF190C0FD
:1027B80040F191C041F1176A00015EEC1AF0B7C010
:1027C80048F1B8C049F196DA366A0E013891010E1F
:1027D8000101246F00017BEC1EF0010E0101246F42
:1027E800DC0E286F0B0E296F00015EEC1CF0010E49
:1027F8000101246F000151EF1EF015C1E9FF16C158
:10280800EAFFEF52D8A404D00801ED6B00011200D2
:10281800010EE65DD8B002D0010EE66F15C1E9FFE2
:1028280016C1EAFFE651EF5CD8B004D00801ED6BA1
:1028380000011200E60715C1E9FF16C1EAFFE651DB
:10284800EF5C01010D6F0001E55101010D5DD8A09C
:102858000DC1E5F00D6B010E0001E55DD8A01ED09D
:1028680001010D2B0D510001E6250101176F1525FA
:10287800E96E000E1621EA6EEECFDEF0DEC0DFF064
:1028880008EEEDF00D51E926000EEA22DFC0EEFF5A
:102898000001E55101010D5DD8A0E2D7E5C0EDF8D2
:1028A80000011200DD6B582A58500D08D8B002D02C
:1028B800010E586E1200E19377BEE183E19577BC73
:1028C800E185E7C0E9F0E8C0EAF0030EEA15756EA5
:1028D800E9C074FF779C779E7780000000000000B5
:1028E800000076CF34F0779EE1B3778E779CE1B520
:1028F800778C1200E191F2BEE181E19377BEE1832A
:10290800E19577BCE185776AE7C0E9F0E8C0EAF0CD
:10291800030EEA15756EE9C074FF779C779E33C085
:1029280076FF77987784F29E550E786EAA0E786EA9
:1029380077820000000000000000000077B2FED798
:102948007794779EE1B3778E779CE1B5778CE1A198
:10295800F29EE1B1F28E12005952D8A467D058C045
:102968001EF101011F6B0001A5EC1EF018EE92F09C
:10297800066A08EE73F0C8EC1FF06A0EF66E450E94
:10298800F76E000EF86E05EC21F008EE92F006C026
:10299800EFFF920EFE6F080EFF6F010E2A6ED1EC4C
:1029A8000DF0010E526E010E2A6EF4EC0DF0366A2F
:1029B800800E8E6F8F69010E906F916B09EC04F099
:1029C8007A967A947A927A907C967C947C927C908F
:1029D80018EE92F07C0EF66E450EF76E000EF86E4D
:1029E800FFEC20F0920EFE6F080EFF6F2FDAAEDEBE
:1029F800010E0101276F200E266F000151EC0FF028
:102A0800010E0101246FDC0E286F0B0E296F0001E7
:102A18005EEC1CF00E013891010E0101246F0001DB
:102A280051EC1EF00E012E81010E596E5904D8A4E6
:102A3800B4D03652D8A4B1D0010E366E8EC0F6FF8F
:102A48008FC0F7FF90C0F8FF91C03CF100014AD950
:102A58009CC09AF09DC09BF05C6A5B6A5FDE18EED2
:102A680092F08E0EF66E450EF76E000EF86EFFECC5
:102A780020F0920EFE6F080EFF6FE8D9010E5C6E13
:102A88005B6A4CDE18EE92F0A00EF66E450EF76EFD
:102A9800000EF86EFFEC20F0920EFE6F080EFF6F2E
:102AA800D5D990C01EF1F7EC24F06A0EFE6F080E1F
:102AB800FF6FCCD98FC01EF1F7EC24F06A0EFE6FC1
:102AC800080EFF6FC3D98EC01EF1F7EC24F06A0E12
:102AD800FE6F080EFF6FBAD9010E5C6E0A0E5B6EB0
:102AE8001DDE18EE92F0A00EF66E450EF76E000E83
:102AF800F86EFFEC20F0920EFE6F080EFF6FA6D95D
:102B08009BC01EF1F7EC24F06A0EFE6F080EFF6FF3
:102B18009DD99AC01EF1F7EC24F06A0EFE6F080EDC
:102B2800FF6F94D9020E8E27000E8F23000E90237C
:102B3800000E91238EC005F08FC006F090C007F0FC
:102B480091C008F0096A0A6A020E0B6E0C6A62EC00
:102B58001FF000A006D0800E8E6F8F69010E906F57
:102B6800916B9AC009F09BC00AF0070E8D6FA4EC18
:102B780006F037C005F038C006F0020E096E0A6A82
:102B880094EC20F000C09AF001C09BF0F10E8A147A
:102B98000101176F00019A118A6E0001DD05D8A4A2
:102BA80009D00E012E91010E0101246F00017BEC6A
:102BB8001EF0596A120015C1E9FF16C1EAFF0101AA
:102BC8000E51EF5CD8B060D015C1E9FF16C1EAFF1D
:102BD800EFCFE5F018EEC4F0A40EF66E450EF76ED2
:102BE800000EF86E0001FFEC20F001010D6B010EE4
:102BF8000001E55DD8A01AD001010D2B0D51152556
:102C0800E96E000E1621EA6EEECFDEF0DEC0DFF0D0
:102C180008EEC4F00D51E926000EEA22DFC0EEFFEF
:102C28000001E55101010D5DD8A0E6D70001E529B5
:102C38000101176F17050D6F0001E5290101176FD5
:102C480017C109F00EC105F0000171EC1FF000B0CA
:102C580018D001010D2B010E1125E96E000E12216D
:102C6800EA6EEECFDFF0DFC0DEF008EEC4F00D5103
:102C7800E926000EEA22DEC0EEFF0E510D5DD8A057
:102C8800E8D70EC1C4F82CD00D6B15C1E9FF16C1E9
:102C9800EAFF010EEF5CD8A01BD00D2B0D511525B6
:102CA800E96E000E1621EA6EEECFDEF0DEC0DFF030
:102CB80008EEC4F00D51E926000EEA22DFC0EEFF4F
:102CC80015C1E9FF16C1EAFFEF500D5DD8A0E5D7A1
:102CD80015C1E9FF16C1EAFFEECFDEF0DEC0C4F889
:102CE800000112000900F5CF9CF09D6B0900F5CF9B
:102CF8009DF012003EC105F03FC106F040C107F04B
:102D080041C108F0800E096E0A6A0B6A0C6A1BEC56
:102D180020F005C042F106C043F107C044F108C0E5
:102D280045F13EC105F03FC106F040C107F041C181
:102D380008F0800E096E0A6A0B6A0C6A1BEC20F018
:102D480000C04CF101C04DF102C04EF103C04FF17B
:102D5800680E0101206F090E216F800E466F476BC8
:102D680000011DEC25F009EE68F001014C51E92441
:102D7800176F4D51EA20186F010E1725E96E000EE6
:102D88001821EA6E48C1EFFF09EE68F04C51E924BA
:102D9800176F4D51EA20186F020E1725E96E000EC5
:102DA8001821EA6E49C1EFFF680E206F090E216FE6
:102DB800800E466F476B000171EF25F018C02CF1AB
:102DC80019C02DF198EC1CF0B0C005F0066AD3C00C
:102DD80009F0D4C00AF0E5EC20F000C01BF101C0F6
:102DE8001CF11BC105F01CC106F009680A6A75ECE4
:102DF80020F03F0E05240101396F18C02CF119C0CD
:102E08002DF100011BEC04F0B0C005F0066A2BC0E0
:102E180009F02CC00AF0E5EC20F000C01BF101C05D
:102E28001CF11BC105F01CC106F009680A6A75ECA3
:102E380020F005503A0801013B6F39C14EF03BC103
:102E48004FF0010E3F6E406A000164D0FEC0E9FFFA
:102E5800FFC0EAFFEFCFA1F0A153D8B41200F1836D
:102E68000101006B010E0001A15DD8A012D0010183
:102E7800002B00510001FE25E96E000EFF21EA6ECD
:102E8800EFCF5AF06BEC11F0A1510101005DD8A011
:102E9800EED7000112005E6AF183640E5D5CD8A073
:102EA8000FD05DC005F0640E096ED3EC1FF005C0AD
:102EB8005EF000C05DF0300E5E245A6E6BEC11F0CF
:102EC8005EC009F0056A71EC1FF000C017F15DC023
:102ED80005F00A0E096E71EC1FF0001E0101175172
:102EE80000101B6F1BA110D05DC005F00A0E096E03
:102EF8000001D3EC1FF005C05EF000C05DF0300E9D
:102F08005E245A6E6BEC11F0300E5D245A6E00018F
:102F18006BEF11F04EC005F0800E096E71EC1FF0DA
:102F2800001E00C01DF14FC005F0400E096E71EC87
:102F38001FF0001E01011D510010176F17A102D0CC
:102F4800000112004FC0DAF00001DB6B030E010133
:102F5800026FD8900001DB33DA330101022FF9D771
:102F6800D890070E026F0001DA37DB370101022F14
:102F7800FAD70001DA514E240101176F1D6B0001C9
:102F8800DB5101011D21186F010E17250001DA6FB1
:102F9800000E010118210001DB6FDAC009F0DBC067
:102FA8000AF0056A200E066E76EC1FF000B01200DB
:102FB80009EEE9F0DA51E926DB51EA22EFCF41F0D8
:102FC800070E4F143D6E3FB004D0FE0E3E6ED88003
:102FD80003D0010E3E6ED8903DC002F101010253AC
:102FE800D8B403D03E36022FFDD73FB004D04150AD
:102FF8003E14416E03D041503E10416E09EEE9F097
:103008000001DA51E926DB51EA224150EF5CD8B4DD
:1030180012D009EEE9F0DA51E926DB51EA2241C083
:10302800EFFF4EC079F04FC07AF08EEC04F041C04B
:10303800D9F0E7EC24F012005952D8A45FD058C058
:103048001EF101011F6B0001A5EC1EF018EE92F0B5
:10305800066A08EE73F0C8EC1FF0C80EF66E430E51
:10306800F76E000EF86E05EC21F008EE92F006C03F
:10307800EFFF920EFE6F080EFF6F010E2A6ED1EC65
:103088000DF0010E526E010E2A6EF4EC0DF009ECF3
:1030980004F07A967A947A927A907C967C947C92D0
:1030A8007C9018EE92F0D20EF66E430EF76E000E7C
:1030B800F86EFFEC20F0920EFE6F080EFF6FC6DE72
:1030C800010E5C6E5B6A92EC13F018EE92F0E20E61
:1030D800F66E430EF76E000EF86EFFEC20F0920EBF
:1030E800FE6F080EFF6FB2DE010E596E010EAA6F59
:1030F800280EAD6FAB6BAC6B2BEC0DF05904D8A45C
:103108007ED0176AC7D8B6C013F0146A9351135CFF
:10311800056E94511458066E3EEC01F010C009F08B
:1031280011C00AF0010E056E066A9AEC1FF000A0A5
:1031380066D0010EAA6F280EAD6F13C0ABF014C095
:10314800ACF02BEC0DF0ABC013F0ACC014F013C016
:1031580093F014C094F0010E5C6E5B6A92EC13F06D
:1031680018EE92F0F40EF66E430EF76E000EF86E3F
:10317800FFEC20F0920EFE6F080EFF6F67DE010E67
:103188005C6E0C0E5B6E92EC13F013C005F014C06D
:1031980006F0640E096E0A6A94EC20F000C017F17C
:1031A80001C018F117C105F018C106F009680A6ACC
:1031B800E7EC1FF005C01EF106C01FF1A5EC1EF0DC
:1031C800730E0101156F080E166F030E0E6F18EEC1
:1031D80092F0640EF66E430EF76E000EF86E000164
:1031E800FFEC20F0920E01010F6F080E106F000126
:1031F800FBEC11F0160EFE6F090EFF6F27DEDD05E2
:10320800D8A402D0596A01D81200AB6A1200070E7E
:1032180001010A6FB2C0B4F0B3C0B5F00001B53512
:10322800B437B537010EB2150101176F186B171DAA
:103238001B6F181D1C6F010E1B25176F000E1C211C
:10324800186F1B6BB40E18151C6F0001B4510101E7
:103258001B190001B26FB55101011C190001B36FB0
:10326800B151B319B16F01010A2FD4D7000112006F
:10327800B451B227B551B323B2C005F0B3C006F0BC
:10328800096A0A6A59EC1FF000A003D0010EB26F58
:10329800B36B1200609417C05FFF1752D8A403D015
:1032A8000E019281E4D01704D8A403D00E019283B2
:1032B800DED0020E175CD8A403D00E019285D7D0B9
:1032C800030E175CD8A403D00E019287D0D0040E49
:1032D800175CD8A403D00E019289C9D0050E175CDB
:1032E800D8A403D00E01928BC2D0060E175CD8A4C6
:1032F80003D00E01928DBBD0070E175CD8A403D063
:103308000E01928FB4D0080E175CD8A403D00E011A
:103318009A81ADD0090E175CD8A403D00E019A8308
:10332800A6D00A0E175CD8A403D00E019A859FD0A8
:103338000B0E175CD8A403D00E019A8798D00C0EF8
:10334800175CD8A403D00E019A8991D00D0E175C92
:10335800D8A403D00E019A8B8AD00E0E175CD8A47D
:1033680003D00E019A8D83D00F0E175CD8A403D01A
:103378000E019A8F7CD0100E175CD8A402D01A8048
:1033880076D0110E175CD8A402D01A8270D0120E13
:10339800175CD8A402D01A846AD0130E175CD8A47C
:1033A80002D01A8664D0140E175CD8A402D01A88EA
:1033B8005ED0150E175CD8A402D01A8A58D0160E03
:1033C800175CD8A402D01A8C52D0170E175CD8A458
:1033D80002D01A8E4CD0180E175CD8A403D00E0158
:1033E800A78145D0190E175CD8A403D00E01A78376
:1033F8003ED01A0E175CD8A403D00E01A78537D08B
:103408001B0E175CD8A403D00E01A78730D01C0E62
:10341800175CD8A403D00E01A78929D01D0E175C0C
:10342800D8A403D00E01A78B22D01E0E175CD8A4F7
:1034380003D00E01A78D1BD01F0E175CD8A403D094
:103448000E01A78F14D0200E175CD8A403D00E014C
:10345800AF810DD0210E175CD8A403D00E01AF8325
:1034680006D0220E175CD8A402D00E01AF85609852
:10347800010E0F01576F60980F0E576F57955793AE
:1034880057816094609417C05FFF608E020E056ECE
:1034980000018DEC05F06080000060B0FED7609EF2
:1034A8000E01926B9A6BA76BAF6B64CFB6F060940A
:1034B80000011200608417C05FFF1752D8A403D020
:1034C8000E019281E4D01704D8A403D00E01928390
:1034D800DED0020E175CD8A403D00E019285D7D097
:1034E800030E175CD8A403D00E019287D0D0040E27
:1034F800175CD8A403D00E019289C9D0050E175CB9
:10350800D8A403D00E01928BC2D0060E175CD8A4A3
:1035180003D00E01928DBBD0070E175CD8A403D040
:103528000E01928FB4D0080E175CD8A403D00E01F8
:103538009A81ADD0090E175CD8A403D00E019A83E6
:10354800A6D00A0E175CD8A403D00E019A859FD086
:103558000B0E175CD8A403D00E019A8798D00C0ED6
:10356800175CD8A403D00E019A8991D00D0E175C70
:10357800D8A403D00E019A8B8AD00E0E175CD8A45B
:1035880003D00E019A8D83D00F0E175CD8A403D0F8
:103598000E019A8F7CD0100E175CD8A402D01A8026
:1035A80076D0110E175CD8A402D01A8270D0120EF1
:1035B800175CD8A402D01A846AD0130E175CD8A45A
:1035C80002D01A8664D0140E175CD8A402D01A88C8
:1035D8005ED0150E175CD8A402D01A8A58D0160EE1
:1035E800175CD8A402D01A8C52D0170E175CD8A436
:1035F80002D01A8E4CD0180E175CD8A403D00E0136
:10360800A78145D0190E175CD8A403D00E01A78353
:103618003ED01A0E175CD8A403D00E01A78537D068
:103628001B0E175CD8A403D00E01A78730D01C0E40
:10363800175CD8A403D00E01A78929D01D0E175CEA
:10364800D8A403D00E01A78B22D01E0E175CD8A4D5
:1036580003D00E01A78D1BD01F0E175CD8A403D072
:103668000E01A78F14D0200E175CD8A403D00E012A
:10367800AF810DD0210E175CD8A403D00E01AF8303
:1036880006D0220E175CD8A402D00E01AF85609830
:10369800010E0F01576F60980F0E576F579557938C
:1036A80057816084608417C05FFF608E020E056ECC
:1036B80000018DEC05F06080000060B0FED7609ED0
:1036C8000E01926B9A6BA76BAF6B63CFB7F00001DB
:1036D800B86B64CFB8F0609412005952D8A442D0A5
:1036E80058C01EF101011F6B00012BDB18EE92F090
:1036F800066A08EE73F0C8EC1FF0020EF66E430E71
:10370800F76E000EF86E05EC21F008EE92F006C098
:10371800EFFF920EFE6F080EFF6F010E2A6ED1ECBE
:103728000DF0010E526E010E2A6EF4EC0DF0F10E42
:103738008A167A82060E126E5C6A5B6A92EC13F045
:1037480018EE92F0140EF66E430EF76E000EF86E39
:10375800FFEC20F0920EFE6F080EFF6F2AEC17F0B8
:10376800010E596E5904D8A445D00A0E0101016F03
:10377800320E026E036A000195EC05F0F7EC03F0D7
:10378800DD05D8B403D00101012FF2D70E0E8A143B
:103798000001606FD8906037F10E8A140101176F2D
:1037A800000160117A6E122A12500808D8B003D0AE
:1037B8007A82060E126E010E5C6E5B6A92EC13F052
:1037C80018EE92F0260EF66E430EF76E000EF86EA7
:1037D800FFEC20F0920EFE6F080EFF6F2AEC17F038
:1037E800010E5C6E070E5B6E92EC13F012C05DF07A
:1037F8004FEC17F0DD05D8B4596A12007F51815D8E
:103808000101176F0001805182590101186F0001F1
:103818008B51895D01011B6F00018C518A5901018F
:103828001C6F17C105F018C106F0076A086A1BC1AA
:1038380009F01CC10AF00B6A0C6A0001A5EC20F023
:1038480000C085F001C086F002C087F003C088F090
:103858007F517D5D836F80517E59846F85C005F0EF
:1038680086C006F087C007F088C008F083C009F05A
:1038780084C00AF00B6A0C6ADADB05C017F106C0CF
:1038880018F107C019F108C01AF18B510101172569
:103898001B6F00018C51010118211C6F00017B5125
:1038A80001011B250001CF6F7C5101011C21000182
:1038B800D06F120001012453D8B429C1D4FF2405C4
:1038C800D8A404D029C1CEFF28C1CDFF020E245DA3
:1038D800D8B428C1BBFF030E245DD8A404D029C1E5
:1038E800C8FF28C1C7FF040E245DD8B428C1B5FF9E
:1038F800050E245DD8A404D029C1C2FF28C1C1FF88
:10390800060E245DD8B428C1AFFF070E245DD8A4E5
:1039180004D029C12FFF28C12EFF080E245DD8B47A
:1039280028C128FF000112002CC105F02DC106F0A6
:10393800096A0A6AFBDA00A011D00101316932690B
:103948002CC105F02DC106F009680A680001E5ECF4
:1039580020F000C02CF101C02DF104D0010E0101AE
:10396800316F326B2CC105F02DC106F0680E096E5F
:10397800010E0A6E0001B5DB00C02CF101C02DF16B
:103988002CC109F02DC10AF0B40E056E066ACEDA14
:1039980000A00CD031C105F032C106F009680A68F0
:1039A800E5EC20F000C031F101C032F12CC12AF160
:1039B8002DC12BF1C8EC23F02FC12CF130C12DF112
:1039C80001012C292E6F2EC107F0000112D8010128
:1039D800336F346B31C105F032C106F033C109F0E1
:1039E80034C10AF00001EDDB00C0D3F001C0D4F00F
:1039F80012005C0E0760000C07501C0FF66E3A0EA2
:103A0800D8B0010FF76E000ED8B0010FF86E08009D
:103A1800F55012005B0002030507090A0C0E10118D
:103A2800131516181A1C1D1F2122242527292A2C94
:103A38002D2F303234353638393B3C3E3F404243F7
:103A480044454748494A4B4D4E4F5051525354559F
:103A580056575758595A5B5B5C5D5D5E5F5F6060A7
:103A68006161616262626363636364646464646421
:103A78005952D8A4B2D058C01EF101011F6B0001E1
:103A880060D918EE92F0066A08EE73F07DDA8C0EB3
:103A9800F66E440EF76E000EF86EB3DB08EE92F089
:103AA80006C0EFFF920EFE6F080EFF6F010E2A6E22
:103AB800D1EC0DF0010E526E010E2A6EF4EC0DF0F1
:103AC8005C6A5B6A92EC13F07A967A947A927A90AE
:103AD8007C967C947C927C907A8418EE92F09E0E70
:103AE800F66E440EF76E000EF86E85DB920EFE6FD2
:103AF800080EFF6F2AEC17F0050E0101376F2D68CD
:103B08002D2A010E5C6E5B6A000192EC13F018EE30
:103B180092F0B00EF66E440EF76E000EF86E6BDB88
:103B2800920EFE6F080EFF6F2AEC17F0010E5C6E06
:103B38000D0E5B6E92EC13F037C15DF04FEC17F091
:103B480001013707640E066F0A0E026E036A000150
:103B580095EC05F0F7EC03F0DD05D8A415D0010EBF
:103B68005C6E5B6A92EC13F018EE92F0C20EF66E81
:103B7800440EF76E000EF86E3EDB920EFE6F080ED6
:103B8800FF6F2AEC17F012000101062FDDD72DC0B8
:103B980005F0040E096E0001A0D900B0B1D7010EDE
:103BA8005C6E5B6A92EC13F018EE92F0D00EF66E33
:103BB800440EF76E000EF86E1EDB920EFE6F080EB6
:103BC800FF6F2AEC17F00E013D8143CE2DF0030064
:103BD800349F2DC043FE010E596E5904D8A421D03C
:103BE8007A94006A8AB6001E00C017F17A92010121
:103BF80017B17A82010E5C6E5B6A000192EC13F0D9
:103C080018EE92F0E20EF66E440EF76E000EF86EA5
:103C1800F2DA920EFE6F080EFF6F2AEC17F00E0113
:103C28003D910001DD05D8B4596A1200959A949E19
:103C3800949CD5A1948C9598D5B395889596959490
:103C480095929590100ED65DD8A405D0958695824C
:103C5800010E926E20D00E0ED65DD8A401D01BD0D6
:103C68000D0ED65DD8A401D016D00C0ED65DD8A402
:103C780002D0958010D00B0ED65DD8A402D09582C4
:103C88000AD0D653D8A403D09584958004D0D605FD
:103C9800D8A401D09584958A120001012453D8B480
:103CA800D58E2405D8B4CF80020E245DD8B4BD8E3D
:103CB800030E245DD8B4C980040E245DD8B4B78E31
:103CC800050E245DD8B4C380060E245DD8B4B18E29
:103CD800070E245DD8A402D00F013081080E01011F
:103CE800245DD8A402D00F012A8F0001120001011F
:103CF8002453D8B4D59E2405D8B4CF90020E245DA1
:103D0800D8B4BD9E030E245DD8B4C990040E245DBA
:103D1800D8B4B79E050E245DD8B4C390060E245DB2
:103D2800D8B4B19E070E245DD8A402D00F013091FB
:103D3800080E0101245DD8A402D00F012A9F0001BA
:103D48001200E56B1EC105F01FC106F0100E096ECA
:103D5800270E0A6EC7D8001E00A01BD01EC105F092
:103D68001FC106F0100E096E270E0A6E2CD905C069
:103D78000CF100C01EF101C01FF1E52B08EE73F035
:103D8800E551E926000EEA22300E01010C25EF6EFE
:103D98000CD01EC105F01FC106F0E80E096E030E17
:103DA8000A6EA0D8001E00A01CD01EC105F01FC1BD
:103DB80006F0E80E096E030E0A6E000104D905C06C
:103DC8000CF100C01EF101C01FF1E52B08EE73F0E5
:103DD800E551E926000EEA22300E01010C25EF6EAE
:103DE8000BD01EC105F01FC106F0640E096E0A6AE9
:103DF80079D8001E00A01BD01EC105F01FC106F017
:103E0800640E096E0A6A0001DED805C00CF100C014
:103E18001EF101C01FF1E52B08EE73F0E551E9260C
:103E2800000EEA22300E01010C25EF6E0BD01EC1E8
:103E380005F01FC106F00A0E096E0A6A53D8001E63
:103E480000A01AD01EC105F01FC106F00A0E096EA7
:103E58000A6A0001B8D805C00CF100C01EF101C003
:103E68001FF1E52B08EE73F0E551E926000EEA2272
:103E7800300E01010C25EF6E0001E52B08EE73F002
:103E8800E551E926000EEA22300E01011E25EF6EEB
:103E980000C01EF101C01FF1E5C073F80001120057
:103EA800006809500562006A1200006A095005623C
:103EB80012000A500662120000681200006A0950D7
:103EC800056212000A50066212000B5007621200C7
:103ED8000C50086212000068120000680950056062
:103EE800006A1200006A06500A5CD8A012000A5044
:103EF800065C04E30950055CD8B01200001E1200ED
:103F0800006A08500C5CD8A012000EE107500B5C48
:103F1800D8A0120009E106500A5CD8A0120004E1FA
:103F28000950055CD8B01200001E1200006A06AEE7
:103F380017D00ABE02D0001E1200051C076E061C10
:103F4800086E072AD8B4082A091C056E0A1C066ED2
:103F5800052AD8B4062A07C009F008C00AF002D01A
:103F68000ABE120006500A5CD8A012000A50065C6D
:103F780004E30950055CD8B01200001E1200EFCF10
:103F880005F005C0E7FF03D0EF50056E0626055281
:103F9800D8B41200ECCFE4FF052EFCD7120009526A
:103FA800D8B41200006A080E046ED89005360036A0
:103FB8000950005E0580D8B003D00590095000264E
:103FC800042EF3D7120005C007F006C008F009C098
:103FD8000BF00AC00CF0026A036A0BC005F00CC0B3
:103FE80006F0096A0A6A61DF00A003D0056A066A5A
:103FF8001200100E046ED8900736083602360336C3
:104008000B50025E0C50035A0780D8B005D00790B9
:104018000B5002260C500322042EEDD707C005F0E2
:1040280008C006F002C000F003C001F0120005C08D
:10403800F2F006C0F3F007C0F4F008C0F5F009C0CC
:10404800F6F00AC0F7F00BC0F8F00CC0F9F0FA6B04
:10405800FB6BFC6BFD6BF6C005F0F7C006F0F8C013
:1040680007F0F9C008F0096A0A6A0B6A0C6A26DFC9
:1040780000A005D0056A066A076A086A1200200EC1
:10408800046ED890F237F337F437F537FA37FB3741
:10409800FC37FD37F651FA5FF751FB5BF851FC5BD3
:1040A800F951FD5BF281D8B009D0F291F651FA27A7
:1040B800F751FB23F851FC23F951FD23042EE1D7D6
:1040C800F2C005F0F3C006F0F4C007F0F5C008F040
:1040D800FAC000F0FBC001F0FCC002F0FDC003F024
:1040E800120006500A180D6E06AE05D0051E061EF3
:1040F800052AD8B4062A0AAE05D0091E0A1E092ABE
:10410800D8B40A2A60DF0DAE0AD0051E061E052A9D
:10411800D8B4062A001E011E002AD8B4012A1200AB
:1041280005500902F3CF00F0F4CF01F005500A0260
:10413800F350012606500902F350012606520A02DE
:10414800120005C0F2F006C0F3F007C0F4F008C092
:10415800F5F009C0F6F00AC0F7F00BC0F8F00CC093
:10416800F9F0FA6BFB6BFC6BFD6BF6A108D0F25112
:10417800FA27F351FB23F451FC23F551FD23D89082
:10418800F933F833F733F633D890F237F337F43797
:10419800F537F6C009F0F7C00AF0F8C00BF0F9C01F
:1041A8000CF0056A066A076A086AAADE00B0DDD75D
:1041B800FAC000F0FBC001F0FCC002F0FDC003F043
:1041C800120006500A180D6E06AE05D0051E061E12
:1041D800052AD8B4062A0AAE05D0091E0A1E092ADD
:1041E800D8B40A2A9DDF0DAE05D0001E011E002A94
:1041F800D8B4012A12000900F5CF05F0F5CFE7FF82
:1042080004D00900F550056E06260552D8B41200F0
:104218000900F5CFE4FF052EFBD712001557656C92
:10422800636F6D6520746F204578706C6F7265726E
:1042380020381847434241534943202D20416E6F8F
:104248006269756D20202032303235001020202020
:104258002057656C636F6D6520202020200010209A
:1042680020746F204578706C6F726572203820005A
:10427800102020202047434241534943202020203A
:1042880020001020416E6F6269756D202020323049
:1042980032352000113A2048656C6C6F20576F72D8
:1042A8006C64204C616210202048656C6C6F20574C
:1042B8006F726C64202020001020204C45445F441D
:1042C80038203D204F4E202020000B3A20426C69B8
:1042D8006E6B204C6162102020202020426C696E99
:1042E8006B202020202020001120204C45445F44D2
:1042F80038203D204F4646202020103A20526F7427
:104308006174654C454473204C6162001020202084
:104318002020526F74617465202020202000102016
:10432800204C45445F4420203D204F4E2020200053
:10433800093A20414443204C61620F20202020206C
:1043480020414443202020202020102041444320A5
:10435800526573756C74203D202020000120093AB5
:1043680020565352204C61621020202020202056D5
:1043780053522020202020202000102044656C610A
:1043880079203D20202020206D7320000E3A204403
:1043980065626F756E6365204C6162001020202095
:1043A800204465626F756E63652020202000102010
:1043B8002020205072657373205331202020200064
:1043C800093A2050574D204C61620F2020202020B0
:1043D8002050574D2020202020201044757479202B
:1043E8004379636C652020202030250010447574C3
:1043F80079204379636C65202020202025000C3A21
:104408002054696D657231204C6162000F202020B4
:104418002054696D657220312020202010202053FF
:10442800746172742054696D6572202020000F54E5
:10443800696D65203D2020202020736563730F3A45
:1044480020496E74657272757074204C6162102018
:104458002020496E746572727570742020202000C7
:1044680010446972656374696F6E3A2052696768AF
:10447800740010446972656374696F6E3A204C6504
:1044880066742000113A20536C65657057616B653E
:104498005570204C61621020536C6565702F576110
:1044A8006B652055702020001020536C656570697D
:1044B8006E6720696E20202020000D2020202020FB
:1044C8002020202020202020105761697420666F4A
:1044D80072203820736563732000102049276D20EF
:1044E8006E6F77206177616B652120000C3A20455B
:1044F8004550524F4D204C6162001320202020204F
:10450800454550524F4D202020202020202007458F
:104518004550524F4D20112020202020474C434425
:1045280020202020202020201053534431333036BF
:104538002040203634204D687A000A3A20474C4300
:1045480044204C6162000C47434241534943204791
:104558004C4344000130013503302E3002302E0028
:10456800012E103A204E564D204D656D6F72792000
:104578004C616200102020204E564D656D6F727997
:1045880020202020200010204E564D2052657375A3
:104598006C74203D20202000023078000000595221
:1045A800D8A476D058C01EF101011F6B0001A5ECFC
:1045B8001EF018EE92F0066A08EE73F0E5DC060EBF
:1045C800F66E440EF76E000EF86E1BDE08EE92F0E3
:1045D80006C0EFFF920EFE6F080EFF6F010E2A6EE7
:1045E800D1EC0DF0010E526E010E2A6EF4EC0DF0B6
:1045F800F10E8A167A82060E126E5C6A5B6A92EC7B
:1046080013F018EE92F0140EF66E440EF76E000ECC
:10461800F86EF1DD920EFE6F080EFF6F2AEC17F0B0
:10462800010E5C6E5B6A92EC13F018EE92F0240EA9
:10463800F66E440EF76E000EF86EDDDD920EFE6F1C
:10464800080EFF6F2AEC17F0366A0101226B000191
:10465800D26B640E026E036A95EC05F0010E01013F
:10466800276F300E266F000151EC0FF0010E01018B
:10467800246FDC0E286F0B0E296F00015EEC1CF016
:10468800010E0101246F000151EC1EF0010E596E5C
:104698005904D8A46DD00E0138A102D03891362A19
:1046A800020E365CD8A417D00E0E8A140001606F73
:1046B800D8906037F10E8A140101176F000160115C
:1046C8007A6E122A12500808D8B003D07A82060EE1
:1046D800126E366AD22B020E0001D25DD8A443D0E6
:1046E800010E5C6E5B6A92EC13F018EE92F0360ED7
:1046F800F66E440EF76E000EF86E7DDD920EFE6FBC
:10470800080EFF6F2AEC17F0010E5C6E070E5B6E49
:1047180092EC13F022C11EF101011F6B0001A5EC00
:104728001EF0730E0101156F080E166F030E0E6F43
:1047380018EE92F0640EF66E430EF76E000EF86EE9
:10474800000159DD920E01010F6F080E106F000174
:10475800FBEC11F0160EFE6F090EFF6F2AEC17F036
:10476800D26B0101222B010122516408D8A0226BCF
:104778000001DD05D8A407D0010E0101246F000156
:104788007BEC1EF0596A12002AC109F02BC10AF00D
:104798000E0E056E010E066E9AEC1FF000A00AD0F0
:1047A80001012A5168082F6F010E1D6F2B511D59E9
:1047B800306F2BD02AC109F02BC10AF0B40E056E58
:1047C800066A9AEC1FF000A008D0B40E01012A5D19
:1047D8002F6F000E2B59306F18D02AC109F02BC14A
:1047E8000AF05A0E056E066A9AEC1FF000A009D06E
:1047F80001012A51B4082F6F1D6B2B511D59306FC1
:1048080004D02AC12FF12BC130F1000112005952F6
:10481800D8A441D058C01EF101011F6B0001A5ECBE
:104828001EF018EE92F0066A08EE73F0C8EC1FF05E
:10483800660EF66E430EF76E000EF86EE2DC08EEBA
:1048480092F006C0EFFF920EFE6F080EFF6F010E8A
:104858002A6ED1EC0DF0010E526E010E2A6EF4ECA8
:104868000DF0F10E8A167A82060E126E5C6A5B6A89
:1048780092EC13F018EE92F0700EF66E430EF76E8F
:10488800000EF86EB8DC920EFE6F080EFF6F2AEC71
:1048980017F0010E596E5904D8A482D0176A4EEC4D
:1048A80019F0B6C013F0146A13C081F014C082F076
:1048B8007F6B806B7D697E6B010E8B6F8C6B320E0C
:1048C800896F8A6B7B6B7C6B02EC1CF0CFC013F09A
:1048D800D0C014F00A0E0101056F13C002F014C015
:1048E80003F0000195EC05F0F7EC03F0DD05D8B412
:1048F80003D00101052FF1D70E0E8A140001606F55
:10490800D8906037F10E8A140101176F0001601109
:104918007A6E122A12500808D8B003D07A82060E8E
:10492800126E010E5C6E5B6A92EC13F018EE92F058
:10493800820EF66E430EF76E000EF86E5CDC920E79
:10494800FE6F080EFF6F2AEC17F0010E5C6E090E61
:104958005B6E92EC13F013C01EF114C01FF1A5ECAE
:104968001EF0730E0101156F080E166F030E0E6F01
:1049780018EE92F0640EF66E430EF76E000EF86EA7
:10498800000139DC920E0101116F080E126F00014F
:10499800DFEC15F0C40EFE6F080EFF6F2AEC17F05F
:1049A800DD05D8B4596A120043EC0EF0780E556E46
:1049B8000FEC0EF0556A0FEC0EF0D9C055F00FEC65
:1049C8000EF052EF0EF043EC0EF0780E556E0FEC31
:1049D8000EF0400E556E0FEC0EF0D9C055F00FECEE
:1049E8000EF052EF0EF0020E08016A6F0F0E010171
:1049F8001E150D6F0908D8B002D0070E0D27300E0E
:104A08000D2508016C6F01010D6B0D2B1E33040E73
:104A18000D5DD8A0FAD70F0E1E150D6F0908D8B076
:104A280002D0070E0D27300E0D2508016B6F00010F
:104A3800120042C105F043C106F0076A086A800EF9
:104A4800096E0A6A0B6A0C6AA5EC20F000C074FFB4
:104A580001C075FF02C092F003C03CF142C105F0ED
:104A680043C106F0076A086A800E096E0A6A0B6A73
:104A78000C6AA5EC20F000C0F6FF01C0F7FF02C0E9
:104A8800F8FF03C03CF101014A6B4B6B010E096E44
:104A98000A6A46C105F047C106F0000176EC1FF02E
:104AA80000B01AD001014A2BD8B44B2B09004A5147
:104AB8002025E96E4B512121EA6EF5CFEFFF4AC15F
:104AC80005F04BC106F046C109F047C10AF00001E4
:104AD80076EC1FF000B0E6D7120042C105F043C1E2
:104AE80006F0076A086A800E096E0A6A0B6A0C6A81
:104AF800A5EC20F000C074FF01C075FF02C092F061
:104B080003C03CF142C105F043C106F0076A086AD8
:104B1800800E096E0A6A0B6A0C6AA5EC20F000C0C8
:104B2800F6FF01C0F7FF02C0F8FF03C03CF1940E86
:104B3800776E01013D6BF2BE3D2BF29E550E786EED
:104B4800AA0E786E778242C105F043C106F0076A63
:104B5800086A800E096E0A6A0B6A0C6A0001A5ECE5
:104B680020F000C0F6FF01C0F7FF02C0F8FF03C045
:104B78003CF101014A6B4B6B010E096E0A6A46C192
:104B880005F047C106F0000176EC1FF000B01AD01E
:104B980001014A2BD8B44B2B4A512025E96E4B51C1
:104BA8002121EA6EEFCFF5FF0D004AC105F04BC198
:104BB80006F046C109F047C10AF0000176EC1FF083
:104BC80000B0E6D742C105F043C106F0076A086A9B
:104BD800800E096E0A6A0B6A0C6AA5EC20F000C008
:104BE800F6FF01C0F7FF02C0F8FF03C03CF1776A87
:104BF800778E779C7784550E786EAA0E786E7782BA
:104C0800F80E771601013DB1F28E3DA1F29E00012A
:024C1800120088
:020000040030CA
:0C000000ECFFFFF7ADC7FFDFFFFFFFFFC5
:00000001FF
