:020000040000FA
:0400000006EF00F017
:020008001000E6
:10000C005FD858D874D88F9E8F9C8F9A8F988D807C
:10001C008D86010E046E12D8CCD8FFD70300FED704
:10002C00032A810E016E280E006E002EFED7012EC3
:10003C00FAD7022EF6D7032EF4D71200E80E026E72
:10004C00030E036EEDDF042EF9D712001DC5E9F483
:10005C001EC5EAF4EFC414F51452D8B417D0010E2F
:10006C001F6E1F501D24E96E000E1E20EA6EEFC499
:10007C0015F51BD81F50145C266E26C505F5096AAC
:10008C004DD9001E00A002D01F2AEBD7120012C5BA
:10009C0020F52052D8B408D00D0E156E06D80A0ED5
:1000AC00156E03D8202EF8D712006FA2FED715C5F7
:1000BC00B1F112008E9E130E0301286F0001120085
:1000CC000001600E7A6F7C6B7E6B7F6B600E7A6FBB
:1000DC00080E806FF86A02012F952F9F0401166B92
:1000EC00206B2A6B876A886A896A00011200010EEC
:1000FC000D6E060E0101BD6F810EBC6FB98FB98BF1
:10010C00B989BA8F00019C831200380E5D6F1CC533
:10011C005CF01BC55BF0596B58815EC00FF512008B
:10012C0022C5E9F423C5EAF4EF52D8A404D0140193
:10013C00D76B0001120022C5E9F423C5EAF419506B
:10014C00EF5CD8B006D022C5E9F423C5EAF4EFC4BD
:10015C0019F522C5E9F423C5EAF41950EF5C1A6EBF
:10016C00010E0501216F21511A24266E2224E96EFD
:10017C00000E2320EA6EEEC418F518C517F505EE2F
:10018C00D7F02151E926000EEA2217C5EEF42151D1
:10019C00195C266E26C505F5096A0001BFD8001E3C
:1001AC0000A003D00501212BDED7610065F4D7F444
:1001BC001200020E126E010E0D6E69DF15EED0F0FC
:1001CC00EE0EF66E030EF76E000EF86EF7D8D00E2C
:1001DC001D6E140E1E6E010E0D6E38DF1068116848
:1001EC00102AD8B4112A10C528F502D9CC0E1D6ED0
:1001FC00140E1E6E010E0D6E29DF15EED0F0F60EEC
:10020C00F66E030EF76E000EF86ED8D8D00E1D6E7B
:10021C00140E1E6E010E0D6E19DF10C505F511C5FD
:10022C0006F50F0E096E0A6A87D800B0D9D7106A86
:10023C00116A10C505F511C506F5100E096E0A6A8E
:10024C0089D800C50EF50E52D8A430D0010E126E0E
:10025C00010E0D6E1CDF11C528F5CAD8CC0E226E0E
:10026C00140E236E010E196E5BDFD70E1D6E140E6D
:10027C001E6E010E0D6EEADE10C528F5B9D8CC0E37
:10028C001D6E140E1E6E010E0D6EE0DE15EED0F01E
:10029C00F80EF66E030EF76E000EF86E8FD8D00EB9
:1002AC001D6E140E1E6E010E0D6ED0DE15EED0F00E
:1002BC00F60EF66E030EF76E000EF86E7FD8D00EAB
:1002CC001D6E140E1E6E010E0D6EC0DE136A10C56F
:1002DC001BF511C51CF519DF0FC513F513C528F552
:1002EC0087D8CC0E1D6E140E1E6E010E0D6EAEDE7A
:1002FC001050FF08246E266A11502658256E24C50E
:10030C0005F525C506F5096A0A6A0DD8001E00A078
:10031C0004D0102AD8B4112A8CD7120000680950C6
:10032C000562006A1200006A0950056212000A5048
:10033C000662120000681200006A06500A5CD8A01F
:10034C0012000A50065C04E30950055CD8B0120098
:10035C00001E120005C507F506C508F509C50BF505
:10036C000AC50CF5026A036A0BC505F50CC506F542
:10037C00096A0A6AD8DF00A003D0056A066A12006F
:10038C00100E046ED89007360836023603360B5022
:10039C00025E0C50035A0780D8B005D007900B5062
:1003AC0002260C500322042EEDD707C505F508C50F
:1003BC0006F502C500F503C501F512000900F5C4E8
:1003CC0005F5F5C4E7F404D00900F550056E0626D2
:1003DC000552D8B412000900F5C4E4F4052EFBD77D
:1003EC00120006202020202020000120023A2000AC
:1003FC00020E1401CC6F0F0E28140501216F090891
:10040C00D8B002D0070E2127300E21251401CE6F53
:10041C000501216B212B2832040E215DD8A0FAD7BF
:10042C000F0E2814216F0908D8B002D0070E21270F
:0C043C00300E21251401CD6F00011200CC
:020000040038C2
:0C0010000102030405061112131415165A
:020000040030CA
:0C000000EC3D26C480C0FD00FFFFFF00A7
:00000001FF
