:0400000006EF00F017
:020008001000E6
:10000C0067EC0AF059EC0AF0A2EC09F0A5EC09F047
:10001C008F9E8F9C8F9A8F988D808D860C0E436E41
:10002C00A4EC09F00F6A400E0501686FE20E696FCF
:10003C00010E6A6F6B6BA76BA86B0E6A020E6F6F6B
:10004C00706B020E716F726B14EE97F07C0EF66E85
:10005C001D0EF76E000EF86E0001ABEC0EF0970E55
:10006C000501866F100E876F0001BCEC08F0020EC4
:10007C0005016F6F706B120E716F726B14EE97F04F
:10008C00840EF66E1D0EF76E000EF86E0001ABECD2
:10009C000EF0970E0501866F100E876F0001BCECF9
:1000AC0008F0020E05016F6F706B220E716F726B90
:1000BC0014EE97F0920EF66E1D0EF76E000EF86EA3
:1000CC000001ABEC0EF0970E0501866F100E876FDA
:1000DC000001BCEC08F0020E05016F6F706B320E64
:1000EC00716F726B14EE97F0C60EF66E1D0EF76EF6
:1000FC00000EF86E0001ABEC0EF0970E0501866F4A
:10010C00100E876F0001BCEC08F05E6A5F6A050197
:10011C00626B636B7F0E606F616B3F0E646F656B20
:10012C0034C54CF535C54DF5000138DA030E046EB7
:10013C00DBDB07EC07F0020E05016F6F706B010E35
:10014C00716F726B14EE97F0A80EF66E1D0EF76EB3
:10015C00000EF86E0001ABEC0EF0970E0501866FE9
:10016C00100E876F0001BCEC08F0400E05016F6F9C
:10017C00706B010E716F726B14EE97F0B20EF66E1F
:10018C001D0EF76E000EF86E0001ABEC0EF0970E24
:10019C000501866F100E876F0001BCEC08F0480E4D
:1001AC0005016F6F706B010E716F726B400E486EB4
:1001BC00496A4A6A4B6A000106EC09F0560E0501C1
:1001CC006F6F706B010E716F726B14EE97F0B40E53
:1001DC00F66E1D0EF76E000EF86E0001ABEC0EF015
:1001EC00970E0501866F100E876F0001BCEC08F0AE
:1001FC00020E0501796F090E166E14EE97F0B80E0B
:10020C00F66E1D0EF76E000EF86E0001ABEC0EF0E4
:10021C00970E05017E6F100E7F6F34C54CF535C5FA
:10022C004DF5000183EC08F05E6A5F6A0501626BB4
:10023C00636B7F0E606F616B3F0E646F656B34C5D3
:10024C004CF535C54DF50001A9D97B0E5E6E5F6A84
:10025C003B0E0501626F636B7F0E606F616B3F0E2F
:10026C00646F656B34C54CF535C54DF5000196D9F9
:10027C002C0E0501AA6FAB6B290EB26FB36B0F0E70
:10028C00466E476A34C54CF535C54DF53EC5B4F5DB
:10029C00000113DA400E5E6E5F6A1F0E0501626F7D
:1002AC00636B606B616B1F0E646F656B34C54CF5D3
:1002BC0035C54DF5000123EC0FF01E0E0F6E0F2A05
:1002CC00400E05016F6F706B240E716F726B6BC5F6
:1002DC00A5F50001FDEC0EF0820E0501866F100EE7
:1002EC00876F0001BCEC08F04C0E05016F6F706B52
:1002FC00240E716F726B6AC5A5F50001FDEC0EF052
:10030C00820E0501866F100E876F0001BCEC08F0A1
:10031C00580E05016F6F706B240E716F726B69C58F
:10032C00A5F50001FDEC0EF0820E0501866F100E96
:10033C00876F0001BCEC08F0640E05016F6F706BE9
:10034C00240E716F726B68C5A5F50001FDEC0EF003
:10035C00820E0501866F100E876F0001BCEC08F051
:10036C00700E05016F6F706B240E716F726B14EE53
:10037C0097F0C00EF66E1D0EF76E000EF86E0001B3
:10038C00ABEC0EF0970E0501866F100E876F000117
:10039C00BCEC08F0400E05016F6F706B2C0E716F8A
:1003AC00726BA7C5A5F5A8C5A6F50001B5EC0CF0B8
:1003BC00860E05019C6F100E9D6F050E996F14EE45
:1003CC0097F0C20EF66E1D0EF76E000EF86E000161
:1003DC00ABEC0EF0970E05019A6F100E9B6F00019F
:1003EC007EEC0AF0AD0E0501866F100E876F0001D2
:1003FC00BCEC08F0400E05016F6F706B340E716F22
:10040C00726B0EC5A5F5A66B0001B5EC0CF0860E53
:10041C0005019C6F100E9D6F030E996F14EE97F0F3
:10042C00C20EF66E1D0EF76E000EF86E0001ABECF0
:10043C000EF0970E05019A6F100E9B6F00017EEC6B
:10044C000AF0AD0E0501866F100E876F0001BCEC33
:10045C0008F02E0E5E6E5F6A090E0501626F636B0B
:10046C00380E606F616B130E646F656B34C54CF5A1
:10047C0035C54DF5000192D8300E146E156A0A0E72
:10048C00166E176A0FC510F534C54CF535C54DF50C
:10049C009EEC07F00FC5A5F50501A66B0001B5ECA8
:1004AC000CF014EED6F004EE86F0BFEC0DF0400E1E
:1004BC000501796F090E166ED60E9C6F100E9D6F8E
:1004CC00030E996F14EE97F0C20EF66E1D0EF76EBA
:1004DC00000EF86E0001ABEC0EF0970E05019A6F52
:1004EC00100E9B6F00017EEC0AF0AD0E05017E6FC5
:1004FC00100E7F6F34C54CF535C54DF5000183ECFE
:10050C0008F0030E5E6E2B0E0501626F0B0E606F12
:10051C00330E646FA7C54CF5A8C54DF50001ECD999
:10052C002C0E0501AA6FAB6B290EB26FB36B090EC3
:10053C00AC6FAD6B010E68194C6E69C54DF56AC593
:10054C004EF56BC54FF500011ADA5E6A5F6A3F0E15
:10055C000501626F636B400E606F616B1F0E646F01
:10056C00656B34C54CF535C54DF5000123EC0FF02A
:10057C00070E05016827000E6923000E6A23000E82
:10058C006B23030EA727000EA8230E2A7F0E0F5CE9
:10059C00D8A095D692D600D00300FED75EC509F53B
:1005AC005FC50AF560C505F561C506F588EC0DF06B
:1005BC0000A00CD05EC53AF55FC53BF560C55EF595
:1005CC0061C55FF53AC560F53BC561F562C509F5D6
:1005DC0063C50AF564C505F565C506F588EC0DF02F
:1005EC0000A00CD062C53AF563C53BF564C562F555
:1005FC0065C563F53AC564F53BC565F55EC523F580
:10060C005FC524F523C53CF562C53DF54CC52DF5FC
:10061C004DC52EF512EC0BF023C53CF564C53DF52C
:10062C004CC52DF54DC52EF512EC0BF023500501E4
:10063C00605D9E6F245061599F6F9EC505F59FC5E7
:10064C0006F5096A0A6A00016BEC0DF0001E00A0A9
:10065C0004D0232AD8B4242AD5D762C523F563C580
:10066C0024F55EC53CF523C53DF54CC52DF54DC5B2
:10067C002EF512EC0BF060C53CF523C53DF54CC5D1
:10068C002DF54DC52EF512EC0BF023500501645DD4
:10069C009E6F245065599F6F9EC505F59FC506F545
:1006AC00096A0A6A00016BEC0DF0001E00A004D070
:1006BC00232AD8B4242AD5D7120046C5ACF547C591
:1006CC00ADF5ACC505F5ADC506F5020E096E0A6AA9
:1006DC0061EC0EF005C5A2F506C5A3F50501A21D3A
:1006EC00736FA31D746F732BD8B4742BACC505F545
:1006FC00ADC506F5B4C509F50A6A000196EC0DF016
:10070C00001E00A0AFD00501AC51AA253C6EB4511F
:10071C00B2253D6E4CC52DF54DC52EF5000112ECE4
:10072C000BF00501B451AA253C6EAC51B2253D6EBF
:10073C004CC52DF54DC52EF5000112EC0BF0050145
:10074C00AC51AA5D3C6EB451B2253D6E4CC52DF535
:10075C004DC52EF5000112EC0BF00501B451AA5D4C
:10076C003C6EAC51B2253D6E4CC52DF54DC52EF5EC
:10077C00000112EC0BF00501AC51AA5D3C6EB451BA
:10078C00B25D3D6E4CC52DF54DC52EF5000112EC3C
:10079C000BF00501B451AA5D3C6EAC51B25D3D6EDF
:1007AC004CC52DF54DC52EF5000112EC0BF00501D5
:1007BC00AC51AA253C6EB451B25D3D6E4CC52DF5C5
:1007CC004DC52EF5000112EC0BF00501B451AA2514
:1007DC003C6EAC51B25D3D6E4CC52DF54DC52EF544
:1007EC00000112EC0BF00501B42B73C505F574C5B3
:1007FC0006F5096A0A6A000196EC0DF000A010D00B
:10080C000501B451020DF3507325A26F000E742133
:10081C00A36F010EA225736F000EA321746F21D05C
:10082C00010E0501AC5F000EAD5BAC51B45DA26F67
:10083C00A46BAD51A459A36F010EA2259E6F000E9F
:10084C00A3219F6F9EC505F59FC506F5020E096E87
:10085C000A6A000191EC0EF000500501732701505B
:10086C00742344D7120067C56EF5030E0501966F0D
:10087C00D8906E33962FFCD7B00E6E25766F000194
:10088C00E8EC0EF00F0E050166156C6F6D6B6CC508
:10089C0076F50001E8EC0EF066C56CF505016D6BA4
:1008AC00040E966FD8906D336C33962FFBD70F0ECA
:1008BC006C159E6F9F6B100E9E256C6F000E9F210A
:1008CC006D6F6CC576F50001E8EF0EF0032A810E12
:1008DC00016E280E006E002EFED7012EFAD7022EC6
:1008EC00F6D7032EF4D71200E80E026E030E036E39
:1008FC00EDDF042EF9D712005E500501605DD8B013
:10090C0006D05EC53AF560C55EF53AC560F5625134
:10091C00645DD8B006D062C53AF564C562F53AC5D7
:10092C0064F55EC523F562C53AF523C53CF53AC5B9
:10093C003DF54CC52DF54DC52EF5000112EC0BF017
:10094C003A500501645DA46FA4C505F5096A000160
:10095C0066EC0DF0001E00A002D03A2AE6D7235018
:10096C000501605DA46FA4C505F5096A000166EC7C
:10097C000DF0001E00A002D0232AD5D712000501CD
:10098C00AC510108256EA46BAD51A459266E010E15
:10099C001F6E206AACC505F5ADC506F5FE0E096ED9
:1009AC000A68000191EC0EF000C521F501C522F595
:1009BC00276AACC528F50501AC51B225B06FAD5115
:1009CC00B321B16FAC51B25DAE6FAD51B359AF6FD6
:1009DC00AAC55EF5ABC55FF5AEC562F5AFC563F5EF
:1009EC00AAC560F5ABC561F5B0C564F5B1C565F5D3
:1009FC00000131EC10F02850275CD8B08FD025C501
:100A0C0005F526C506F5096A0A6A96EC0DF0001E76
:100A1C0000A009D02806020E2126000E2222215009
:100A2C00252622502622272A020E1F26000E2022BF
:100A3C001F5025262050262227500501AA255E6E20
:100A4C00000EAB215F6E2850B225626F000EB321F1
:100A5C00636F2750AA25606F000EAB21616F285081
:100A6C00B25D646F000EB359656F000131EC10F08C
:100A7C0027500501AA5D5E6E000EAB595F6E2850C3
:100A8C00B225626F000EB321636F2750AA5D606FB1
:100A9C00000EAB59616F2850B25D646F000EB359F4
:100AAC00656F000131EC10F028500501AA255E6E2F
:100ABC00000EAB215F6E2750B225626F000EB32182
:100ACC00636FAA512824606FA46BAB51A421616F92
:100ADC002750B25D646F000EB359656F000131ECA5
:100AEC0010F028500501AA5D5E6E000EAB595F6ECA
:100AFC002750B225626F000EB321636F2850AA5D98
:100B0C00606F000EAB59616F2750B25D646F000EC1
:100B1C00B359656F000131EC10F06DD71200710EF6
:100B2C000760000C07504C0FF66E0B0ED8B0010F7F
:100B3C00F76E000ED8B0010FF86E0800F5501200D9
:100B4C007000100C0A882238200820101080804079
:100B5C00040000002848466C00000028100010001B
:100B6C00407C008482304E78066C0C00001028000B
:100B7C000464F8FE7CFEFEFE7CFE0040FEFEFEFEE3
:100B8C007CFE7CFE4C027E3E7EC60EC2000400083B
:100B9C00800040FE7070701010FE0040FE00F8F8EF
:100BAC0070F810F8901078387888188800000020B9
:100BBC007800710E0760000C0750E00FF66E0B0EFC
:100BCC00D8B0010FF76E000ED8B0010FF86E080008
:100BDC00F550120070FE380A06CC667C700440108A
:100BEC003888A2701C00000EFE5426920A3882101F
:100BFC0010A010C020A284C282288A940292926C07
:100C0C00AC282882029224928282921282108280D4
:100C1C00108004088212821292028040802810A256
:100C2C00FE0882048002A8908888A8FCA8109080F6
:100C3C002082081088282810A87C80408050A0C8EA
:100C4C00100082104400710E0760000C0750740FE6
:100C5C00F66E0C0ED8B0010FF76E000ED8B0010F67
:100C6C00F86E0800F5501200707C7C0000EEEE7CF3
:100C7C00A8FEFE545494947C7C009E0028FE10AA7E
:100C8C000644447C7C6010C01092FEA28A248A9296
:100C9C00E292926C6C442844A2F2229282829212CA
:100CAC009210FE82288018108212A23292FE80804E
:100CBC007010E092821082028004A8888888A812A2
:100CCC00A808FA8850FEF00888282808A890808088
:100CDC006020A0A86CFE6C104200710E0760000C26
:100CEC000750080FF66E0D0ED8B0010FF76E000E00
:100CFC00D8B0010FF86E0800F55012007038FE0CD9
:100D0C000ACC667C2004403810A288701C00000EAF
:100D1C00FE54C8440082381010001000088A8092DB
:100D2C0096FE8A92129252000082282812822492F5
:100D3C00824492129210827E44800420821242528B
:100D4C00920280408028108A8220FE048008A888A5
:100D5C008890A802A808807A88800808882830081B
:100D6C00A88040408050A098820010204400710E52
:100D7C000760000C07509C0FF66E0D0ED8B0010FDB
:100D8C00F76E000ED8B0010FF86E0800F550120087
:100D9C007010000A068822383E082010108080400F
:100DAC00040000002824C4A000000028100010003B
:100DBC00047C008C622072600E6C3C0000002810D9
:100DCC000C7CF86C44388202F4FE00028280FEFE39
:100DDC007C0CBC8C64027E3E7EC60E8600400008F5
:100DEC008000F07040FE300478F000000000F0F05D
:100DFC007010F8104040F83878887888000000109F
:100E0C0078003E6A3F6A010E0501776F786B04EE3D
:100E1C00FFF07751E9267851EA22EF6A7751000802
:100E2C009E6F040EA46F7851A4599F6F9EC505F553
:100E3C009FC506F5096A0A6A00016BEC0DF0001EED
:100E4C0000A005D00501772BD8B4782BE0D705018D
:100E5C00776B786B080E826F836B666B77C567F563
:100E6C00000101DD39EC0CF0780E456EADEC0BF0A9
:100E7C00400E456EADEC0BF03A683A2A29C545F5A3
:100E8C00ADEC0BF07F0E3A5CD8A0F7D73EEC0CF033
:100E9C00050183AF28D0821D806F831D816F802B4D
:100EAC00D8B4812B400E775D9E6F000E78599F6FE2
:100EBC00010E9E5DA26F000E9F59A36FA2C505F592
:100ECC00A3C506F580C509F581C50AF5000188ECB6
:100EDC000DF0001E00A006D005018251772783512A
:100EEC007823B8D71BD077513F089E6FA46B7851ED
:100EFC00A4599F6F9EC505F59FC506F582C509F5DA
:100F0C0083C50AF5000188EC0DF0001E00A006D088
:100F1C00050182517727835178239CD70501666B95
:100F2C00676B0001A0DC05016F6B716B0001120097
:100F3C004CC505F54DC506F534C509F535C50AF59D
:100F4C006BEC0DF0001E00A005D0010E296E2A6A74
:100F5C00346A356A0F0E105E116A126A14C566F592
:100F6C0016C567F580DC10C505F5B20E096E83EC6D
:100F7C000DF0001E00C5A4F510C509F5CA0E056ECE
:100F8C0083EC0DF0001E0501A45100149E6F9EA170
:100F9C0004D0010E165E000E175A1C6A1C2A1C0483
:100FAC00D8A406D010C507F50001B9DD1E6E27D0F8
:100FBC00020E1C5CD8A406D010C507F50001F9DDA3
:100FCC001E6E1DD0030E1C5CD8A406D010C507F5F0
:100FDC00000139DE1E6E13D0040E1C5CD8A406D0A2
:100FEC0010C507F5000179DE1E6E09D0050E1C5CDC
:100FFC00D8A405D010C507F50001B9DE1E6E186A1D
:10100C00196A1D6A1D2A136A010E1B6E1A6A010EDB
:10101C000501756F1EA013D011501424A46F13502A
:10102C00A4253C6E18501624A46F1A50A4253D6EAE
:10103C004CC52DF54DC52EF50001EEDA12D0115030
:10104C001424A46F1350A4253C6E18501624A46FBE
:10105C001A50A4253D6E29C52DF52AC52EF5000183
:10106C00DBDA33503202F3C4A4F50501A451142485
:10107C003C6E18501624A46F1A50A4253D6E29C539
:10108C002DF52AC52EF50001C7DA1A2A050175516E
:10109C00325CA46FA4C505F5096A000166EC0DF07D
:1010AC00001E00A003D00501752BB4D7132A1B50CA
:1010BC00325C0501A46FA4C505F5096A000166EC54
:1010CC000DF0001E00A002D01B2AA0D71E323250F9
:1010DC001826000E1922080E1D5CD8A093D732508A
:1010EC001126000E1222050E1C5CD8A057D7296AB7
:1010FC002A6A010E346E356A120079C537F5386AE2
:10110C00010E0501A96F37C514F538C515F5A951A0
:10111C007E25E96E000E7F21EA6EEFC410F500010A
:10112C0007DF33503202F3C4A4F50501A451372470
:10113C009E6F000E38209F6F010E9E25376E000E9D
:10114C009F21386E7EC5E9F47FC5EAF4A951EF5CA6
:10115C00A46FA4C505F5096A000166EC0DF0001E2C
:10116C0000A003D00501A92BCED7120086C5E9F447
:10117C0087C5EAF4EFC436F53652D8B412006FC501
:10118C0037F570C538F5010E396E37C514F538C50D
:10119C0015F571C516F572C517F53950050186257B
:1011AC00E96E000E8721EA6EEFC410F534C54CF5DC
:1011BC0035C54DF50001BCDE33503202F3C49EF54B
:1011CC0005019E513724A26F000E3820A36F010E2B
:1011DC00A225376E000EA321386E3950365C9E6FF7
:1011EC009EC505F5096A000166EC0DF0001E00A015
:1011FC0002D0392ACAD737C56FF538C570F5120039
:10120C000501946B0501942B04EE8CF09451E926A6
:10121C00000EEA2248C505F549C506F54AC507F58D
:10122C004BC508F50A0E096E0A6A0B6A0C6A0001B6
:10123C0003EC0EF000C5EFF405C548F506C549F5FD
:10124C0007C54AF508C54BF548C505F549C506F56A
:10125C004AC507F54BC508F5096A0A6A0B6A0C6A98
:10126C0074EC0DF0001E00B0CDD76FC537F570C50E
:10127C0038F594C539F505018469856937C514F5C8
:10128C0038C515F571C516F572C517F504EE8CF059
:10129C003950E926000EEA22300EEF24106E34C5C8
:1012AC004CF535C54DF5000143DE33503202F3C425
:1012BC00A4F50501A45137249E6F000E38209F6FB2
:1012CC00010E9E25376E000E9F21386E85AF1BD008
:1012DC0039049E6F841DA26F851DA36FA22BD8B4F9
:1012EC00A32B9EC505F5066AA2C509F5A3C50AF58B
:1012FC00000196EC0DF0001E00A004D005018451F5
:10130C003926B9D714D0395001089E6F9EC505F502
:10131C00066A84C509F585C50AF5000196EC0DF041
:10132C00001E00A004D0050184513926A4D737C56E
:10133C006FF538C570F51200436AF1D11200296AB5
:10134C002A6A010E346E356A050E336E070E316E45
:10135C00306A010E326E0268036A6CEC04F00C0EFB
:10136C00436EECDF0F0E026E036A6CEC04F0AE0EF3
:10137C000501766F0001E8EC0EF02E0E0501766F7C
:10138C000001E8EC0EF0D50E0501766F0001E8ECDB
:10139C000EF0800E0501766F0001E8EC0EF0A80E41
:1013AC000501766F0001E8EC0EF03F0E0501766F3B
:1013BC000001E8EC0EF0D30E0501766F0001E8ECAD
:1013CC000EF00501766B0001E8EC0EF0400E050105
:1013DC00766F0001E8EC0EF08D0E0501766F0001C2
:1013EC00E8EC0EF0140E0501766F0001E8EC0EF03F
:1013FC00200E0501766F0001E8EC0EF0100E0501D1
:10140C00766F0001E8EC0EF0A10E0501766F00017D
:10141C00E8EC0EF0C80E0501766F0001E8EC0EF05A
:10142C00DA0E0501766F0001E8EC0EF0120E0501E4
:10143C00766F0001E8EC0EF0810E0501766F00016D
:10144C00E8EC0EF0CF0E0501766F0001E8EC0EF023
:10145C00D90E0501766F0001E8EC0EF0F10E0501D6
:10146C00766F0001E8EC0EF0DB0E0501766F0001E3
:10147C00E8EC0EF0400E0501766F0001E8EC0EF082
:10148C00A40E0501766F0001E8EC0EF0A60E050126
:10149C00766F0001E8EC0EF0B4DCAF0E0501766F50
:1014AC000001E8EF0EF01C0E0301276F0E0EAD6F5E
:1014BC001D0E266F0D0EAE6F8E9E130E286F000143
:1014CC0012000001600E7A6F7C6B7E6B7F6B600E7E
:1014DC007A6F080E806FF86A02012F952F9F040116
:1014EC00166B206B2A6B876A886A896A0001120066
:1014FC009CC5E9F49DC5EAF405019951EF5CD8B09F
:10150C005BD09CC5E9F49DC5EAF4EFC47DF514EEFF
:10151C00ADF0C40EF66E1D0EF76E000EF86E0001E7
:10152C00ABEC0EF0010E0501986F98519C25E96EFD
:10153C00000E9D21EA6EEEC47BF57BC57CF504EEB6
:10154C00ADF09851E926000EEA227CC5EEF49851D4
:10155C007D5DA46FA4C505F5096A0001B1DA001E12
:10156C0000A003D00501982BE0D705017D29986FC9
:10157C00010E9A25E96E000E9B21EA6EEEC47CF5F5
:10158C007CC57BF504EEADF09851E926000EEA22FD
:10159C007BC5EEF49851995DA46FA4C505F5096A55
:1015AC0000018EDA001E00A003D00501982BE0D7B5
:1015BC00610065F6ADF02FD0010E986F98519C2507
:1015CC00E96E000E9D21EA6EEEC47BF57BC57CF5C1
:1015DC0004EEADF09851E926000EEA227CC5EEF43B
:1015EC009CC5E9F49DC5EAF49851EF5CA46FA4C5C1
:1015FC0005F5096A000164DA001E00A003D005019C
:10160C00982BDCD79CC5E9F49DC5EAF4EEC47BF5B8
:10161C006100EDF5ADF012003CC505F5800E096ECC
:10162C006CDA001E00C5A4F53DC505F5400E096E2B
:10163C0064DA001E0501A45100109E6F9EA102D019
:10164C00000112003DC577F5786B030E956FD890AD
:10165C0078337733952FFBD7D890070E956F773764
:10166C007837952FFCD777513C249E6FA46B78511B
:10167C00A4219F6F010E9E25776F000E9F21786F1E
:10168C0077C509F578C50AF5056A200E066E0001C6
:10169C0039DA00B0120004EEFFF005017751E926AB
:1016AC007851EA22EFC42FF5070E3D142B6E2DB0A6
:1016BC0004D0FE0E2C6ED88003D0010E2C6ED89068
:1016CC002BC595F59553D8B403D02C36952FFDD753
:1016DC002DB004D02F502C142F6E03D02F502C1063
:1016EC002F6E04EEFFF07751E9267851EA222F5045
:1016FC00EF5CD8B412D004EEFFF07751E9267851A4
:10170C00EA222FC5EFF43CC566F53DC567F500012F
:10171C0039EC04F02FC576F55FDB000112008E9AD0
:10172C008E9C800E0101E76F210EE86F030EF96F9E
:10173C00840EE66FEA6BEC6BE68FE89FE899E68720
:10174C00000191D8456803D893D8436A1200020E61
:10175C00415CD8A41DD0446AFF0E445CD8B012D0B2
:10176C00442A0101E5AB09D0010EED6F45C5F0F13E
:10177C000001A3D8C4D8120004D0050E006E002EB0
:10178C00FED7EAD74428D8A402D0020E401269D062
:10179C004104D8A43FD00101E585ED6BEA9145C524
:1017AC00F2F1020E016E006A002EFED7012EFBD75D
:1017BC00130E006E002EFED7446AFF0E445CD8B0A8
:1017CC0023D0442AEAA113D0020E016E006A002E27
:1017DC00FED7012EFBD7130E006E002EFED7020E85
:1017EC00416E426AE7BB422A000112000CD0020E85
:1017FC00016E006A002EFED7012EFBD7130E006E71
:10180C00002EFED7E68BD9D74428D8A402D0040EDC
:10181C00401227D0030E415CD8A423D00101E4BBB5
:10182C00FDD7ED6B45C5F2F1EA91446AFF0E445CBD
:10183C00D8B012D0442AEAA108D0020E416E426AF6
:10184C00E7BB422A0001120006D0E68BE69D050E8E
:10185C00006E002EFED7EAD74428D8A402D0080E7A
:10186C00401200011200010E416E446A406A1200DF
:10187C00416A446AFF0E445CD8B018D0442A010176
:10188C00EAA50FD0000153D8020E016E006A002E9B
:10189C00FED7012EFBD7130E006E002EFED71200C2
:1018AC0004D0050E006E002EFED7E4D74428D8A431
:1018BC0002D0800E401200011200446AFF0E445CFC
:1018CC00D8B016D0442A0101E7BB0DD00501A46B9A
:1018DC000101E7AB02D00501A42B0501A41D426E4A
:1018EC000001120004D0050E006E002EFED7E6D7C4
:1018FC004428D8A402D0200E401200011200446AE1
:10190C00FF0E445CD8B00CD0442A0101E6B703D0DA
:10191C000001120004D0050E006E002EFED7F0D789
:10192C004428D8A402D0400E401200011200446A90
:10193C00FF0E445CD8B00CD0442A0101EAA503D0B8
:10194C000001120004D0050E006E002EFED7F0D759
:10195C004428D8A402D0800E4012000112000501C8
:10196C007D6BA5C505F5A6C506F5100E096E270EEF
:10197C000A6E0001C7D8001E00A01BD0A5C505F536
:10198C00A6C506F5100E096E270E0A6E02D905C5FE
:10199C0097F500C5A5F501C5A6F505017D2B04EE4F
:1019AC0086F07D51E926000EEA22300E9725EF6E67
:1019BC000CD0A5C505F5A6C506F5E80E096E030EF7
:1019CC000A6EA0D8001E00A01CD0A5C505F5A6C5A2
:1019DC0006F5E80E096E030E0A6E0001DAD805C58D
:1019EC0097F500C5A5F501C5A6F505017D2B04EEFF
:1019FC0086F07D51E926000EEA22300E9725EF6E17
:101A0C000BD0A5C505F5A6C506F5640E096E0A6AC8
:101A1C0079D8001E00A01BD0A5C505F5A6C506F5F6
:101A2C00640E096E0A6A0001B4D805C597F500C5A5
:101A3C00A5F501C5A6F505017D2B04EE86F07D51BB
:101A4C00E926000EEA22300E9725EF6E0BD0A5C5C5
:101A5C0005F5A6C506F50A0E096E0A6A53D8001ECE
:101A6C0000A01AD0A5C505F5A6C506F50A0E096E87
:101A7C000A6A00018ED805C597F500C5A5F501C504
:101A8C00A6F505017D2B04EE86F07D51E926000EAE
:101A9C00EA22300E9725EF6E05017D2B04EE86F0C1
:101AAC007D51E926000EEA22300EA525EF6E00C509
:101ABC00A5F501C5A6F56100F5F586F0000112004B
:101ACC00006809500562006A1200006A095005623C
:101ADC0012000A500662120000681200006A0950D7
:101AEC00056212000A50066212000B5007621200C7
:101AFC000C50086212000068120000680950056062
:101B0C00006A1200006A06500A5CD8A012000A5043
:101B1C00065C04E30950055CD8B01200001E1200EC
:101B2C00006A06AE17D00ABE02D0001E1200051CB9
:101B3C00076E061C086E072AD8B4082A091C056E05
:101B4C000A1C066E052AD8B4062A07C509F508C56D
:101B5C000AF502D00ABE120006500A5CD8A0120088
:101B6C000A50065C04E30950055CD8B01200001E54
:101B7C001200EFC405F505C5E7F403D0EF50056E70
:101B8C0006260552D8B41200ECC4E4F4052EFCD79A
:101B9C00120005C507F506C508F509C50BF50AC5FC
:101BAC000CF5026A036A0BC505F50CC506F5096A46
:101BBC000A6A8BDF00A003D0056A066A1200100EB9
:101BCC00046ED89007360836023603360B50025E88
:101BDC000C50035A0780D8B005D007900B50022642
:101BEC000C500322042EEDD707C505F508C506F5E4
:101BFC0002C500F503C501F5120005C588F506C53B
:101C0C0089F507C58AF508C58BF509C58CF50AC594
:101C1C008DF50BC58EF50CC58FF50501906B916B91
:101C2C00926B936B8CC505F58DC506F58EC507F5C6
:101C3C008FC508F5096A0A6A0B6A0C6A00014EDF47
:101C4C0000A005D0056A066A076A086A1200200E11
:101C5C00046ED8900501883789378A378B379037CF
:101C6C009137923793378C51905F8D51915B8E5198
:101C7C00925B8F51935B8881D8B009D088918C513D
:101C8C0090278D5191238E5192238F519323042EA3
:101C9C00E0D788C505F589C506F58AC507F58BC556
:101CAC0008F590C500F591C501F592C502F593C5EF
:101CBC0003F50001120006500A180D6E06AE05D091
:101CCC00051E061E052AD8B4062A0AAE05D0091E22
:101CDC000A1E092AD8B40A2A5CDF0DAE0AD0051EEA
:101CEC00061E052AD8B4062A001E011E002AD8B4E6
:101CFC00012A120005500902F3C400F5F4C401F5E1
:101D0C0005500A02F350012606500902F350012631
:101D1C0006520A02120006500A180D6E06AE05D0C5
:101D2C00051E061E052AD8B4062A0AAE05D0091EC1
:101D3C000A1E092AD8B40A2ADDDF0DAE05D0001E12
:101D4C00011E002AD8B4012A12000900F5C405F5B9
:101D5C00F5C4E7F404D00900F550056E06260552CB
:101D6C00D8B412000900F5C4E4F4052EFBD7120018
:101D7C0007474342415349430C416E6F6269756D8D
:101D8C0020323032340015474C434420506F72746B
:101D9C006162696C6974792044656D6F09474C43C5
:101DAC00445072696E740140034D687A0744726145
:101DBC0077537472016801200000083138463136BF
:101DCC005132300050DD780E456EC1DC456ABFDC07
:101DDC0076C545F5BCDC4CD546DD780E456EB7DCDA
:101DEC00400E456EB4DC76C545F5B1DC41D5020E2E
:101DFC001001826F0F0E0501A515986F0908D8B058
:101E0C0002D0070E9827300E98251001846F05011B
:101E1C00986B982BA533040E985DD8A0FAD70F0EAB
:101E2C00A515986F0908D8B002D0070E9827300E68
:101E3C0098251001836F00011200506A516A546A90
:101E4C00556A5A6A5B6A5C6A5D6A526A536A566A78
:101E5C00576A586A596A5E500501605D506E5F5052
:101E6C006159516E6251645D546E63516559556E82
:101E7C0050C509F551C50AF5056A066A000150DE20
:101E8C0000A004D0010E5A6E5B6A02D05A685B68DF
:101E9C0054C509F555C50AF5056A066A41DE00A068
:101EAC0004D0010E5C6E5D6A02D05C685D685AC538
:101EBC0005F55BC506F550C509F551C50AF52BDFCF
:101ECC0000C550F501C551F55CC505F55DC506F5B8
:101EDC0054C509F555C50AF51EDF00C554F501C5F5
:101EEC0055F550C505F551C506F5020E096E0A6A81
:101EFC0012DF00C552F501C553F554C505F555C59E
:101F0C0006F5020E096E0A6A06DF00C556F501C514
:101F1C0057F550C505F551C506F554C509F555C518
:101F2C000AF5FEDD001E00A04AD05050565C586EDB
:101F3C0051505758596E5EC505F55FC506F560C51D
:101F4C0009F561C50AF50001C0DD001E00A02CD00A
:101F5C005EC53CF562C53DF54CC52DF54DC52EF560
:101F6C0012EC0BF05A505E265B505F2258C505F5FB
:101F7C0059C506F5096A0A6AD3DD00A005D056508A
:101F8C005826575059220FD05250565C0501A26F5B
:101F9C0053505758A36FA2515826A35159225C5045
:101FAC0062275D506323C7D75EC53CF562C53DF51E
:101FBC004CC52DF54DC52EF512EC0BF04BD05450F5
:101FCC00525C586E55505358596E62C505F563C531
:101FDC0006F564C509F565C50AF5000176DD001E38
:101FEC0000A02ED05EC53CF562C53DF54CC52DF567
:101FFC004DC52EF512EC0BF05C50050162275D50BF
:10200C00632358C505F559C506F5096A0A6A000126
:10201C0087DD00A005D052505826535059220FD0BE
:10202C005650525C0501A26F57505358A36FA251E2
:10203C005826A35159225A505E265B505F22C5D7B1
:10204C005EC53CF562C53DF54CC52DF54DC52EF56F
:10205C0012EC0BF01200506A516A546A556A5A6AB3
:10206C005B6A5C6A5D6A526A536A566A576A586A56
:10207C00596A5E500501605D506E5F506159516E3A
:10208C006251645D546E63516559556E50C509F5C6
:10209C0051C50AF5056A066A000142DD00A004D0AC
:1020AC00010E5A6E5B6A02D05A685B6854C509F51A
:1020BC0055C50AF5056A066A33DD00A004D0010E89
:1020CC005C6E5D6A02D05C685D685AC505F55BC5DF
:1020DC0006F550C509F551C50AF51DDE00C550F5CC
:1020EC0001C551F55CC505F55DC506F554C509F589
:1020FC0055C50AF510DE00C554F501C555F550C59A
:10210C0005F551C506F5020E096E0A6A04DE00C516
:10211C0052F501C553F554C505F555C506F5020E26
:10212C00096E0A6AF8DD00C556F501C557F550C5AC
:10213C0005F551C506F554C509F555C50AF5F0DC8C
:10214C00001E00A04AD05050565C586E5150575843
:10215C00596E5EC505F55FC506F560C509F561C527
:10216C000AF50001B2DC001E00A02CD05EC53CF5C7
:10217C0062C53DF54CC52DF54DC52EF512EC0BF099
:10218C005A505E265B505F2258C505F559C506F5B9
:10219C00096A0A6AC5DC00A005D05650582657506B
:1021AC0059220FD05250565C0501A26F535057580C
:1021BC00A36FA2515826A35159225C5062275D503F
:1021CC006323C7D75EC53CF562C53DF54CC52DF5FF
:1021DC004DC52EF512EC0BF04BD05450525C586E92
:1021EC0055505358596E62C505F563C506F564C55F
:1021FC0009F565C50AF5000168DC001E00A02ED0AB
:10220C005EC53CF562C53DF54CC52DF54DC52EF5AD
:10221C0012EC0BF05C50050162275D50632358C52E
:10222C0005F559C506F5096A0A6A000179DC00A0B2
:10223C0005D052505826535059220FD05650525C4C
:10224C000501A26F57505358A36FA2515826A351A2
:10225C0059225A505E265B505F22C5D75EC53CF5AD
:10226C0062C53DF54CC52DF54DC52EF512EC0BF0A8
:02227C0012004E
:020000040030CA
:0B000000EC3D26C480C0FF00FFFFFFA6
:02001800FFFFE8
:00000001FF
