:020000040000FA
:0400000006EF00F017
:020008001000E6
:10000C0023D80101496B01015169F40E026E010EF6
:10001C00036E00010BD80101516BF40E026E010E40
:10002C00036E000103D8EFD70300FED7032A810E1D
:10003C00016E280E006E002EFED7012EFAD7022E6E
:10004C00F6D7032EF4D712000001600EAD6FAF6B24
:10005C00B36BB06B600EAD6F080EB16FF86A030135
:10006C00F395F39F0401006B086B106B206B000180
:10007C00749F709F0101506B516B526B536B546B9F
:04008C00000112005D
:020000040030CA
:0E000000E62D26C080C00000FFFFFFFEFF00BF
:00000001FF
